{"contracts/Compensator.sol":{"Compensator":{"abi":[{"inputs":[{"internalType":"address","name":"_compToken","type":"address"},{"internalType":"address","name":"_compoundGovernor","type":"address"},{"internalType":"address","name":"_owner","type":"address"}],"stateMutability":"nonpayable","type":"constructor"},{"inputs":[{"internalType":"address","name":"spender","type":"address"},{"internalType":"uint256","name":"allowance","type":"uint256"},{"internalType":"uint256","name":"needed","type":"uint256"}],"name":"ERC20InsufficientAllowance","type":"error"},{"inputs":[{"internalType":"address","name":"sender","type":"address"},{"internalType":"uint256","name":"balance","type":"uint256"},{"internalType":"uint256","name":"needed","type":"uint256"}],"name":"ERC20InsufficientBalance","type":"error"},{"inputs":[{"internalType":"address","name":"approver","type":"address"}],"name":"ERC20InvalidApprover","type":"error"},{"inputs":[{"internalType":"address","name":"receiver","type":"address"}],"name":"ERC20InvalidReceiver","type":"error"},{"inputs":[{"internalType":"address","name":"sender","type":"address"}],"name":"ERC20InvalidSender","type":"error"},{"inputs":[{"internalType":"address","name":"spender","type":"address"}],"name":"ERC20InvalidSpender","type":"error"},{"inputs":[{"internalType":"address","name":"owner","type":"address"}],"name":"OwnableInvalidOwner","type":"error"},{"inputs":[{"internalType":"address","name":"account","type":"address"}],"name":"OwnableUnauthorizedAccount","type":"error"},{"inputs":[],"name":"ReentrancyGuardReentrantCall","type":"error"},{"anonymous":false,"inputs":[{"indexed":true,"internalType":"address","name":"owner","type":"address"},{"indexed":true,"internalType":"address","name":"spender","type":"address"},{"indexed":false,"internalType":"uint256","name":"value","type":"uint256"}],"name":"Approval","type":"event"},{"anonymous":false,"inputs":[{"indexed":true,"internalType":"address","name":"delegator","type":"address"},{"indexed":false,"internalType":"uint256","name":"unlockTime","type":"uint256"}],"name":"COMPLocked","type":"event"},{"anonymous":false,"inputs":[{"indexed":true,"internalType":"address","name":"user","type":"address"},{"indexed":false,"internalType":"uint256","name":"amount","type":"uint256"}],"name":"ClaimRewards","type":"event"},{"anonymous":false,"inputs":[{"indexed":false,"internalType":"uint256","name":"successfulVotes","type":"uint256"},{"indexed":false,"internalType":"uint256","name":"totalVotes","type":"uint256"},{"indexed":false,"internalType":"uint256","name":"totalRewardsEarned","type":"uint256"}],"name":"DelegatePerformanceUpdated","type":"event"},{"anonymous":false,"inputs":[{"indexed":false,"internalType":"uint256","name":"oldCap","type":"uint256"},{"indexed":false,"internalType":"uint256","name":"newCap","type":"uint256"},{"indexed":false,"internalType":"uint256","name":"totalSupply","type":"uint256"}],"name":"DelegationCapUpdated","type":"event"},{"anonymous":false,"inputs":[{"indexed":true,"internalType":"uint256","name":"proposalId","type":"uint256"}],"name":"NewProposalDetected","type":"event"},{"anonymous":false,"inputs":[{"indexed":true,"internalType":"address","name":"owner","type":"address"},{"indexed":false,"internalType":"uint256","name":"amount","type":"uint256"}],"name":"OwnerDeposit","type":"event"},{"anonymous":false,"inputs":[{"indexed":true,"internalType":"address","name":"owner","type":"address"},{"indexed":false,"internalType":"uint256","name":"amount","type":"uint256"}],"name":"OwnerWithdraw","type":"event"},{"anonymous":false,"inputs":[{"indexed":true,"internalType":"address","name":"previousOwner","type":"address"},{"indexed":true,"internalType":"address","name":"newOwner","type":"address"}],"name":"OwnershipTransferred","type":"event"},{"anonymous":false,"inputs":[{"indexed":true,"internalType":"uint256","name":"proposalId","type":"uint256"}],"name":"ProposalActivated","type":"event"},{"anonymous":false,"inputs":[{"indexed":true,"internalType":"uint256","name":"proposalId","type":"uint256"},{"indexed":false,"internalType":"uint8","name":"winningSupport","type":"uint8"}],"name":"ProposalAutoResolved","type":"event"},{"anonymous":false,"inputs":[{"indexed":true,"internalType":"uint256","name":"proposalId","type":"uint256"}],"name":"ProposalDeactivated","type":"event"},{"anonymous":false,"inputs":[{"indexed":true,"internalType":"uint256","name":"proposalId","type":"uint256"},{"indexed":true,"internalType":"uint8","name":"winningSupport","type":"uint8"}],"name":"ProposalStakeDistributed","type":"event"},{"anonymous":false,"inputs":[{"indexed":true,"internalType":"address","name":"user","type":"address"},{"indexed":false,"internalType":"uint256","name":"proposalId","type":"uint256"},{"indexed":false,"internalType":"uint8","name":"support","type":"uint8"},{"indexed":false,"internalType":"uint256","name":"amount","type":"uint256"}],"name":"ProposalStaked","type":"event"},{"anonymous":false,"inputs":[{"indexed":true,"internalType":"uint256","name":"proposalId","type":"uint256"},{"indexed":false,"internalType":"enum IGovernor.ProposalState","name":"oldState","type":"uint8"},{"indexed":false,"internalType":"enum IGovernor.ProposalState","name":"newState","type":"uint8"}],"name":"ProposalStateChanged","type":"event"},{"anonymous":false,"inputs":[{"indexed":false,"internalType":"uint256","name":"newRewardIndex","type":"uint256"},{"indexed":false,"internalType":"uint256","name":"rewardsAccrued","type":"uint256"}],"name":"RewardIndexUpdated","type":"event"},{"anonymous":false,"inputs":[{"indexed":true,"internalType":"address","name":"owner","type":"address"},{"indexed":false,"internalType":"uint256","name":"newRate","type":"uint256"}],"name":"RewardRateUpdate","type":"event"},{"anonymous":false,"inputs":[{"indexed":false,"internalType":"uint256","name":"totalRewards","type":"uint256"},{"indexed":false,"internalType":"uint256","name":"rewardIndex","type":"uint256"},{"indexed":false,"internalType":"uint256","name":"timestamp","type":"uint256"}],"name":"RewardsDistributed","type":"event"},{"anonymous":false,"inputs":[{"indexed":true,"internalType":"address","name":"user","type":"address"},{"indexed":false,"internalType":"uint256","name":"proposalId","type":"uint256"},{"indexed":false,"internalType":"uint256","name":"amount","type":"uint256"}],"name":"StakeReclaimed","type":"event"},{"anonymous":false,"inputs":[{"indexed":true,"internalType":"address","name":"from","type":"address"},{"indexed":true,"internalType":"address","name":"to","type":"address"},{"indexed":false,"internalType":"uint256","name":"value","type":"uint256"}],"name":"Transfer","type":"event"},{"anonymous":false,"inputs":[{"indexed":true,"internalType":"address","name":"user","type":"address"},{"indexed":false,"internalType":"uint256","name":"amount","type":"uint256"}],"name":"UserDeposit","type":"event"},{"anonymous":false,"inputs":[{"indexed":true,"internalType":"address","name":"user","type":"address"},{"indexed":false,"internalType":"uint256","name":"newRewards","type":"uint256"},{"indexed":false,"internalType":"uint256","name":"totalUnclaimed","type":"uint256"}],"name":"UserRewardsUpdated","type":"event"},{"anonymous":false,"inputs":[{"indexed":true,"internalType":"address","name":"user","type":"address"},{"indexed":false,"internalType":"uint256","name":"amount","type":"uint256"}],"name":"UserWithdraw","type":"event"},{"anonymous":false,"inputs":[{"indexed":true,"internalType":"uint256","name":"proposalId","type":"uint256"},{"indexed":false,"internalType":"uint8","name":"support","type":"uint8"},{"indexed":false,"internalType":"uint256","name":"blockNumber","type":"uint256"},{"indexed":false,"internalType":"bytes32","name":"txHash","type":"bytes32"}],"name":"VoteCast","type":"event"},{"anonymous":false,"inputs":[{"indexed":true,"internalType":"uint256","name":"proposalId","type":"uint256"},{"indexed":false,"internalType":"uint8","name":"support","type":"uint8"},{"indexed":false,"internalType":"uint256","name":"blockNumber","type":"uint256"},{"indexed":false,"internalType":"bytes32","name":"txHash","type":"bytes32"},{"indexed":false,"internalType":"uint256","name":"votingPower","type":"uint256"},{"indexed":false,"internalType":"string","name":"reason","type":"string"}],"name":"VoteCastWithReason","type":"event"},{"inputs":[],"name":"BASIS_POINTS","outputs":[{"internalType":"uint256","name":"","type":"uint256"}],"stateMutability":"view","type":"function"},{"inputs":[],"name":"COMPOUND_GOVERNOR","outputs":[{"internalType":"contract IGovernor","name":"","type":"address"}],"stateMutability":"view","type":"function"},{"inputs":[],"name":"COMP_TOKEN","outputs":[{"internalType":"contract IComp","name":"","type":"address"}],"stateMutability":"view","type":"function"},{"inputs":[],"name":"DELEGATE_REWARD_PERCENT","outputs":[{"internalType":"uint256","name":"","type":"uint256"}],"stateMutability":"view","type":"function"},{"inputs":[],"name":"DELEGATION_CAP_PERCENT","outputs":[{"internalType":"uint256","name":"","type":"uint256"}],"stateMutability":"view","type":"function"},{"inputs":[],"name":"MAX_PROPOSAL_RESOLUTION_TIME","outputs":[{"internalType":"uint256","name":"","type":"uint256"}],"stateMutability":"view","type":"function"},{"inputs":[],"name":"MIN_LOCK_PERIOD","outputs":[{"internalType":"uint256","name":"","type":"uint256"}],"stateMutability":"view","type":"function"},{"inputs":[],"name":"REWARD_PRECISION","outputs":[{"internalType":"uint256","name":"","type":"uint256"}],"stateMutability":"view","type":"function"},{"inputs":[{"internalType":"uint256","name":"proposalId","type":"uint256"}],"name":"activeProposals","outputs":[{"internalType":"bool","name":"isActive","type":"bool"}],"stateMutability":"view","type":"function"},{"inputs":[{"internalType":"uint256","name":"","type":"uint256"}],"name":"allVotes","outputs":[{"internalType":"uint8","name":"direction","type":"uint8"},{"internalType":"uint256","name":"blockNumber","type":"uint256"},{"internalType":"bytes32","name":"txHash","type":"bytes32"},{"internalType":"uint256","name":"timestamp","type":"uint256"},{"internalType":"uint256","name":"votingPower","type":"uint256"},{"internalType":"string","name":"reason","type":"string"}],"stateMutability":"view","type":"function"},{"inputs":[{"internalType":"address","name":"owner","type":"address"},{"internalType":"address","name":"spender","type":"address"}],"name":"allowance","outputs":[{"internalType":"uint256","name":"","type":"uint256"}],"stateMutability":"view","type":"function"},{"inputs":[{"internalType":"address","name":"spender","type":"address"},{"internalType":"uint256","name":"value","type":"uint256"}],"name":"approve","outputs":[{"internalType":"bool","name":"","type":"bool"}],"stateMutability":"nonpayable","type":"function"},{"inputs":[],"name":"availableRewards","outputs":[{"internalType":"uint256","name":"","type":"uint256"}],"stateMutability":"view","type":"function"},{"inputs":[{"internalType":"address","name":"account","type":"address"}],"name":"balanceOf","outputs":[{"internalType":"uint256","name":"","type":"uint256"}],"stateMutability":"view","type":"function"},{"inputs":[],"name":"blocksPerDay","outputs":[{"internalType":"uint256","name":"","type":"uint256"}],"stateMutability":"view","type":"function"},{"inputs":[{"internalType":"uint256","name":"proposalId","type":"uint256"},{"internalType":"uint8","name":"support","type":"uint8"},{"internalType":"string","name":"reason","type":"string"}],"name":"castVote","outputs":[],"stateMutability":"nonpayable","type":"function"},{"inputs":[{"internalType":"uint256","name":"proposalId","type":"uint256"},{"internalType":"uint8","name":"support","type":"uint8"}],"name":"castVote","outputs":[],"stateMutability":"nonpayable","type":"function"},{"inputs":[],"name":"claimRewards","outputs":[],"stateMutability":"nonpayable","type":"function"},{"inputs":[{"internalType":"uint256","name":"proposalId","type":"uint256"}],"name":"contractVoteDirection","outputs":[{"internalType":"uint8","name":"direction","type":"uint8"}],"stateMutability":"view","type":"function"},{"inputs":[{"internalType":"uint256","name":"proposalId","type":"uint256"}],"name":"contractVoted","outputs":[{"internalType":"bool","name":"hasVoted","type":"bool"}],"stateMutability":"view","type":"function"},{"inputs":[],"name":"decimals","outputs":[{"internalType":"uint8","name":"","type":"uint8"}],"stateMutability":"view","type":"function"},{"inputs":[],"name":"delegateInfo","outputs":[{"internalType":"uint256","name":"successfulVotes","type":"uint256"},{"internalType":"uint256","name":"totalVotes","type":"uint256"},{"internalType":"uint256","name":"totalRewardsEarned","type":"uint256"},{"internalType":"uint256","name":"totalVotingPowerUsed","type":"uint256"},{"internalType":"uint256","name":"averageVotingPowerPerVote","type":"uint256"}],"stateMutability":"view","type":"function"},{"inputs":[],"name":"delegationCap","outputs":[{"internalType":"uint256","name":"","type":"uint256"}],"stateMutability":"view","type":"function"},{"inputs":[],"name":"getContractVotingPower","outputs":[{"internalType":"uint256","name":"","type":"uint256"}],"stateMutability":"view","type":"function"},{"inputs":[{"internalType":"uint256","name":"","type":"uint256"}],"name":"getContractVotingPowerAt","outputs":[{"internalType":"uint256","name":"","type":"uint256"}],"stateMutability":"view","type":"function"},{"inputs":[{"internalType":"address","name":"delegator","type":"address"}],"name":"getPendingRewards","outputs":[{"internalType":"uint256","name":"","type":"uint256"}],"stateMutability":"view","type":"function"},{"inputs":[{"internalType":"uint256","name":"proposalId","type":"uint256"},{"internalType":"address","name":"delegator","type":"address"}],"name":"getProposalStake","outputs":[{"internalType":"uint256","name":"forStake","type":"uint256"},{"internalType":"uint256","name":"againstStake","type":"uint256"}],"stateMutability":"view","type":"function"},{"inputs":[],"name":"getTotalVotesCast","outputs":[{"internalType":"uint256","name":"","type":"uint256"}],"stateMutability":"view","type":"function"},{"inputs":[{"internalType":"uint256","name":"voteIndex","type":"uint256"}],"name":"getVoteByIndex","outputs":[{"internalType":"uint8","name":"direction","type":"uint8"},{"internalType":"uint256","name":"blockNumber","type":"uint256"},{"internalType":"bytes32","name":"txHash","type":"bytes32"},{"internalType":"uint256","name":"timestamp","type":"uint256"},{"internalType":"uint256","name":"votingPower","type":"uint256"},{"internalType":"string","name":"reason","type":"string"}],"stateMutability":"view","type":"function"},{"inputs":[{"internalType":"uint256","name":"proposalId","type":"uint256"}],"name":"getVoteInfo","outputs":[{"internalType":"uint8","name":"direction","type":"uint8"},{"internalType":"uint256","name":"blockNumber","type":"uint256"},{"internalType":"bytes32","name":"txHash","type":"bytes32"},{"internalType":"uint256","name":"timestamp","type":"uint256"},{"internalType":"uint256","name":"votingPower","type":"uint256"},{"internalType":"string","name":"reason","type":"string"}],"stateMutability":"view","type":"function"},{"inputs":[],"name":"lastRewarded","outputs":[{"internalType":"uint256","name":"","type":"uint256"}],"stateMutability":"view","type":"function"},{"inputs":[],"name":"latestProposalId","outputs":[{"internalType":"uint256","name":"","type":"uint256"}],"stateMutability":"view","type":"function"},{"inputs":[],"name":"name","outputs":[{"internalType":"string","name":"","type":"string"}],"stateMutability":"view","type":"function"},{"inputs":[],"name":"owner","outputs":[{"internalType":"address","name":"","type":"address"}],"stateMutability":"view","type":"function"},{"inputs":[{"internalType":"uint256","name":"amount","type":"uint256"}],"name":"ownerDeposit","outputs":[],"stateMutability":"nonpayable","type":"function"},{"inputs":[{"internalType":"uint256","name":"amount","type":"uint256"}],"name":"ownerWithdraw","outputs":[],"stateMutability":"nonpayable","type":"function"},{"inputs":[{"internalType":"uint256","name":"proposalId","type":"uint256"}],"name":"pendingProposals","outputs":[{"internalType":"bool","name":"isPending","type":"bool"}],"stateMutability":"view","type":"function"},{"inputs":[{"internalType":"uint256","name":"proposalId","type":"uint256"}],"name":"proposalCreationTime","outputs":[{"internalType":"uint256","name":"timestamp","type":"uint256"}],"stateMutability":"view","type":"function"},{"inputs":[{"internalType":"uint256","name":"proposalId","type":"uint256"}],"name":"proposalOutcomes","outputs":[{"internalType":"enum Compensator.ProposalOutcome","name":"outcome","type":"uint8"}],"stateMutability":"view","type":"function"},{"inputs":[{"internalType":"uint256","name":"proposalId","type":"uint256"},{"internalType":"address","name":"delegator","type":"address"}],"name":"proposalStakes","outputs":[{"internalType":"uint128","name":"forStake","type":"uint128"},{"internalType":"uint128","name":"againstStake","type":"uint128"}],"stateMutability":"view","type":"function"},{"inputs":[{"internalType":"uint256","name":"proposalId","type":"uint256"}],"name":"reclaimStake","outputs":[],"stateMutability":"nonpayable","type":"function"},{"inputs":[],"name":"renounceOwnership","outputs":[],"stateMutability":"nonpayable","type":"function"},{"inputs":[{"internalType":"uint256","name":"proposalId","type":"uint256"}],"name":"resolveProposal","outputs":[],"stateMutability":"nonpayable","type":"function"},{"inputs":[],"name":"rewardIndex","outputs":[{"internalType":"uint256","name":"","type":"uint256"}],"stateMutability":"view","type":"function"},{"inputs":[],"name":"rewardRate","outputs":[{"internalType":"uint256","name":"","type":"uint256"}],"stateMutability":"view","type":"function"},{"inputs":[],"name":"rewardsUntil","outputs":[{"internalType":"uint256","name":"","type":"uint256"}],"stateMutability":"view","type":"function"},{"inputs":[{"internalType":"uint256","name":"_blocksPerDay","type":"uint256"}],"name":"setBlocksPerDay","outputs":[],"stateMutability":"nonpayable","type":"function"},{"inputs":[{"internalType":"uint256","name":"newRate","type":"uint256"}],"name":"setRewardRate","outputs":[],"stateMutability":"nonpayable","type":"function"},{"inputs":[{"internalType":"uint256","name":"proposalId","type":"uint256"},{"internalType":"uint8","name":"support","type":"uint8"},{"internalType":"uint256","name":"amount","type":"uint256"}],"name":"stakeForProposal","outputs":[],"stateMutability":"nonpayable","type":"function"},{"inputs":[{"internalType":"address","name":"delegator","type":"address"}],"name":"startRewardIndex","outputs":[{"internalType":"uint256","name":"index","type":"uint256"}],"stateMutability":"view","type":"function"},{"inputs":[],"name":"symbol","outputs":[{"internalType":"string","name":"","type":"string"}],"stateMutability":"view","type":"function"},{"inputs":[],"name":"totalDelegatedCOMP","outputs":[{"internalType":"uint256","name":"","type":"uint256"}],"stateMutability":"view","type":"function"},{"inputs":[],"name":"totalPendingRewards","outputs":[{"internalType":"uint256","name":"","type":"uint256"}],"stateMutability":"view","type":"function"},{"inputs":[{"internalType":"uint256","name":"proposalId","type":"uint256"}],"name":"totalStakesAgainst","outputs":[{"internalType":"uint256","name":"amount","type":"uint256"}],"stateMutability":"view","type":"function"},{"inputs":[{"internalType":"uint256","name":"proposalId","type":"uint256"}],"name":"totalStakesFor","outputs":[{"internalType":"uint256","name":"amount","type":"uint256"}],"stateMutability":"view","type":"function"},{"inputs":[],"name":"totalSupply","outputs":[{"internalType":"uint256","name":"","type":"uint256"}],"stateMutability":"view","type":"function"},{"inputs":[{"internalType":"address","name":"to","type":"address"},{"internalType":"uint256","name":"value","type":"uint256"}],"name":"transfer","outputs":[{"internalType":"bool","name":"","type":"bool"}],"stateMutability":"nonpayable","type":"function"},{"inputs":[{"internalType":"address","name":"from","type":"address"},{"internalType":"address","name":"to","type":"address"},{"internalType":"uint256","name":"value","type":"uint256"}],"name":"transferFrom","outputs":[{"internalType":"bool","name":"","type":"bool"}],"stateMutability":"nonpayable","type":"function"},{"inputs":[{"internalType":"address","name":"newOwner","type":"address"}],"name":"transferOwnership","outputs":[],"stateMutability":"nonpayable","type":"function"},{"inputs":[{"internalType":"address","name":"delegator","type":"address"}],"name":"unclaimedRewards","outputs":[{"internalType":"uint256","name":"amount","type":"uint256"}],"stateMutability":"view","type":"function"},{"inputs":[{"internalType":"address","name":"delegator","type":"address"}],"name":"unlockTime","outputs":[{"internalType":"uint256","name":"timestamp","type":"uint256"}],"stateMutability":"view","type":"function"},{"inputs":[{"internalType":"uint256","name":"amount","type":"uint256"}],"name":"userDeposit","outputs":[],"stateMutability":"nonpayable","type":"function"},{"inputs":[{"internalType":"uint256","name":"amount","type":"uint256"}],"name":"userWithdraw","outputs":[],"stateMutability":"nonpayable","type":"function"},{"inputs":[],"name":"voteCount","outputs":[{"internalType":"uint256","name":"","type":"uint256"}],"stateMutability":"view","type":"function"},{"inputs":[{"internalType":"uint256","name":"proposalId","type":"uint256"}],"name":"voteInfo","outputs":[{"internalType":"uint8","name":"direction","type":"uint8"},{"internalType":"uint256","name":"blockNumber","type":"uint256"},{"internalType":"bytes32","name":"txHash","type":"bytes32"},{"internalType":"uint256","name":"timestamp","type":"uint256"},{"internalType":"uint256","name":"votingPower","type":"uint256"},{"internalType":"string","name":"reason","type":"string"}],"stateMutability":"view","type":"function"}],"evm":{"bytecode":{"linkReferences":{},"object":"60c0604052611964601b553480156200001757600080fd5b5060405162004e5338038062004e538339810160408190526200003a9162000405565b806040518060400160405280600b81526020016a21b7b6b832b739b0ba37b960a91b8152506040518060400160405280600b81526020016a21a7a6a822a729a0aa27a960a91b8152508160039081620000949190620004f4565b506004620000a38282620004f4565b50506001600555506001600160a01b038116620000db57604051631e4fbdf760e01b8152600060048201526024015b60405180910390fd5b620000e68162000396565b506001600160a01b0383166200013f5760405162461bcd60e51b815260206004820152601a60248201527f496e76616c696420434f4d5020746f6b656e20616464726573730000000000006044820152606401620000d2565b6001600160a01b038216620001a15760405162461bcd60e51b815260206004820152602160248201527f496e76616c696420436f6d706f756e6420476f7665726e6f72206164647265736044820152607360f81b6064820152608401620000d2565b6001600160a01b038116620001f95760405162461bcd60e51b815260206004820152601560248201527f496e76616c6964206f776e6572206164647265737300000000000000000000006044820152606401620000d2565b6001600160a01b03808416608081905290831660a052670de0b6b3a7640000600955604080516318160ddd60e01b81529051600092916318160ddd9160048083019260209291908290030181865afa1580156200025a573d6000803e3d6000fd5b505050506040513d601f19601f82011682018060405250810190620002809190620005c0565b905060008111620002d45760405162461bcd60e51b815260206004820152601960248201527f496e76616c696420434f4d5020746f74616c20737570706c79000000000000006044820152606401620000d2565b600c54612710620002e86101f484620005da565b620002f4919062000606565b600c819055620003475760405162461bcd60e51b815260206004820152601860248201527f44656c65676174696f6e2063617020746f6f20736d616c6c00000000000000006044820152606401620000d2565b600c5460408051838152602081019290925281018390527fc72f87e837aeb21e01377ca632cdae4e68649b7216568ff0a62e4cbdcee740089060600160405180910390a1505050505062000629565b600680546001600160a01b038381166001600160a01b0319831681179093556040519116919082907f8be0079c531659141344cd1fd0a4f28419497f9722a3daafe3b4186f6b6457e090600090a35050565b80516001600160a01b03811681146200040057600080fd5b919050565b6000806000606084860312156200041b57600080fd5b6200042684620003e8565b92506200043660208501620003e8565b91506200044660408501620003e8565b90509250925092565b634e487b7160e01b600052604160045260246000fd5b600181811c908216806200047a57607f821691505b6020821081036200049b57634e487b7160e01b600052602260045260246000fd5b50919050565b601f821115620004ef57600081815260208120601f850160051c81016020861015620004ca5750805b601f850160051c820191505b81811015620004eb57828155600101620004d6565b5050505b505050565b81516001600160401b038111156200051057620005106200044f565b620005288162000521845462000465565b84620004a1565b602080601f831160018114620005605760008415620005475750858301515b600019600386901b1c1916600185901b178555620004eb565b600085815260208120601f198616915b82811015620005915788860151825594840194600190910190840162000570565b5085821015620005b05787850151600019600388901b60f8161c191681555b5050505050600190811b01905550565b600060208284031215620005d357600080fd5b5051919050565b80820281158282048414176200060057634e487b7160e01b600052601160045260246000fd5b92915050565b6000826200062457634e487b7160e01b600052601260045260246000fd5b500490565b60805160a051614755620006fe6000396000818161075401528181610aee01528181611c1501528181613067015281816133af0152818161357f015281816137e1015261395701526000818161046d01528181610d4c01528181610e5f01528181610f8c01528181611041015281816112ad015281816115520152818161172d0152818161180201528181611a0b01528181611e67015281816121fc015281816125e8015281816128d70152818161295a0152818161317101528181613a5f01528181613c310152613d1001526147556000f3fe608060405234801561001057600080fd5b50600436106103da5760003560e01c806385c6ccca1161020a578063be8363cd11610125578063e1f1c4a7116100b8578063ed6b780d11610087578063ed6b780d146109b0578063f2fde38b146109b8578063f6ed2017146109cb578063f868e766146109de578063fe86e057146109f157600080fd5b8063e1f1c4a714610972578063e40824f81461097b578063e9ee2fa91461099e578063ec1371f2146109a757600080fd5b8063dafad631116100f4578063dafad63114610906578063dd62ed3e14610926578063de63f4321461095f578063e1ac18e01461097257600080fd5b8063be8363cd146108e2578063c6384071146108ec578063d133a00e146108f5578063d74e7a3a146108fe57600080fd5b8063949813b81161019d578063a9059cbb1161016c578063a9059cbb1461085c578063a9c0310d1461086f578063baf983721461089f578063bdd3e805146108bf57600080fd5b8063949813b81461080157806395d89b41146108215780639e447fc614610829578063a7926ada1461083c57600080fd5b80638d824273116101d95780638d824273146107765780638da5cb5b146107895780638ea15be61461079a57806392e2c6d2146107f957600080fd5b806385c6ccca146106f1578063879d9090146107045780638aba33821461070d5780638ad4bba21461074f57600080fd5b80633b9056bf116102fa5780636a61cf611161028d57806379fcfef11161025c57806379fcfef1146106b15780637b0a47ee146106ba5780637f0edf33146106c35780638494ff35146106cc57600080fd5b80636a61cf611461063d57806370a0823114610660578063715018a61461068957806376b467b71461069157600080fd5b80634cfea68a116102c95780634cfea68a1461059a578063558a2dcc146105a357806356781388146106175780635d95750e1461062a57600080fd5b80633b9056bf1461055c5780633d6aa5e11461056f57806343c79ad01461057e578063470b76221461058757600080fd5b806323b872dd11610372578063353b6c2c11610341578063353b6c2c14610524578063372500ab14610537578063385dc3df1461053f57806339d2a1991461054957600080fd5b806323b872dd146104c257806327be553b146104d5578063313ce5671461050a57806333f707d11461051157600080fd5b8063095ea7b3116103ae578063095ea7b31461044557806310d4108314610468578063141833dc146104a757806318160ddd146104ba57600080fd5b806262804e146103df5780630549f067146103f4578063057e16801461041057806306fdde0314610430575b600080fd5b6103f26103ed3660046140f0565b610a04565b005b6103fd6101f481565b6040519081526020015b60405180910390f35b6103fd61041e3660046140f0565b60146020526000908152604090205481565b61043861115d565b604051610407919061414f565b61045861045336600461417e565b6111ef565b6040519015158152602001610407565b61048f7f000000000000000000000000000000000000000000000000000000000000000081565b6040516001600160a01b039091168152602001610407565b6103f26104b53660046140f0565b611209565b6002546103fd565b6104586104d03660046141a8565b6113b4565b6104f86104e33660046140f0565b601a6020526000908152604090205460ff1681565b60405160ff9091168152602001610407565b60126104f8565b6103f261051f3660046140f0565b6113da565b6103f26105323660046140f0565b61161e565b6103f2611681565b6103fd62093a8081565b6103fd6105573660046140f0565b6117ea565b6103f261056a3660046140f0565b611875565b6103fd670de0b6b3a764000081565b6103fd600c5481565b6103f261059536600461420b565b611abf565b6103fd601b5481565b6106026105b13660046142d6565b60009182526012602090815260408084206001600160a01b03939093168452918152918190208151808301909252546001600160801b03808216808452600160801b90920416919092018190529091565b60408051928352602083019190915201610407565b6103f2610625366004614302565b611ae1565b6103f2610638366004614325565b611b11565b61045861064b3660046140f0565b60186020526000908152604090205460ff1681565b6103fd61066e36600461434a565b6001600160a01b031660009081526020819052604090205490565b6103f2611f2d565b6103fd61069f36600461434a565b60156020526000908152604090205481565b6103fd600b5481565b6103fd60085481565b6103fd60165481565b6106df6106da3660046140f0565b611f3f565b60405161040796959493929190614365565b6103f26106ff3660046140f0565b612004565b6103fd60075481565b601f54602054602154602254602354610727949392919085565b604080519586526020860194909452928401919091526060830152608082015260a001610407565b61048f7f000000000000000000000000000000000000000000000000000000000000000081565b6106df6107843660046140f0565b6122af565b6006546001600160a01b031661048f565b6107d96107a83660046142d6565b60126020908152600092835260408084209091529082529020546001600160801b0380821691600160801b90041682565b604080516001600160801b03938416815292909116602083015201610407565b601e546103fd565b6103fd61080f36600461434a565b600f6020526000908152604090205481565b6104386123e3565b6103f26108373660046140f0565b6123f2565b6103fd61084a36600461434a565b600e6020526000908152604090205481565b61045861086a36600461417e565b61250d565b61089261087d3660046140f0565b60106020526000908152604090205460ff1681565b60405161040791906143bb565b6103fd6108ad3660046140f0565b60136020526000908152604090205481565b6104586108cd3660046140f0565b60196020526000908152604090205460ff1681565b6103fd62278d0081565b6103fd601e5481565b6103fd600a5481565b6103fd61251b565b6103fd6109143660046140f0565b60116020526000908152604090205481565b6103fd6109343660046143d5565b6001600160a01b03918216600090815260016020908152604080832093909416825291909152205490565b6106df61096d3660046140f0565b61258e565b6103fd61271081565b6104586109893660046140f0565b60176020526000908152604090205460ff1681565b6103fd60095481565b6103fd600d5481565b6103fd6125d0565b6103f26109c636600461434a565b612660565b6103fd6109d936600461434a565b61269b565b6103f26109ec3660046140f0565b61273c565b6106df6109ff3660046140f0565b6129fe565b610a0c612aba565b60008181526010602052604081205460ff166002811115610a2f57610a2f6143a5565b14610a7d5760405162461bcd60e51b8152602060048201526019602482015278141c9bdc1bdcd85b08185b1c9958591e481c995cdbdb1d9959603a1b60448201526064015b60405180910390fd5b600081815260116020526040902054610ad85760405162461bcd60e51b815260206004820152601760248201527f50726f706f73616c20646f6573206e6f742065786973740000000000000000006044820152606401610a74565b604051631f27a4f360e11b8152600481018290527f00000000000000000000000000000000000000000000000000000000000000006001600160a01b031690633e4f49e690602401602060405180830381865afa925050508015610b59575060408051601f3d908101601f19168201909252610b56918101906143ff565b60015b610b9b5760405162461bcd60e51b8152602060048201526013602482015272125b9d985b1a59081c1c9bdc1bdcd85b081251606a1b6044820152606401610a74565b6004816007811115610baf57610baf6143a5565b1480610bcc57506003816007811115610bca57610bca6143a5565b145b80610be857506006816007811115610be657610be66143a5565b145b80610c0457506002816007811115610c0257610c026143a5565b145b80610c2057506007816007811115610c1e57610c1e6143a5565b145b610c6c5760405162461bcd60e51b815260206004820152601960248201527f50726f706f73616c206e6f7420796574207265736f6c766564000000000000006044820152606401610a74565b60006004826007811115610c8257610c826143a5565b1480610c9f57506007826007811115610c9d57610c9d6143a5565b145b15610cac57506001610cb0565b5060005b8060ff16600114610cc2576001610cc5565b60025b6000848152601060205260409020805460ff19166001836002811115610ced57610ced6143a5565b021790555060008381526019602052604081205460ff168015610d2357506000848152601a602052604090205460ff8381169116145b90508015610f51578160ff16600103610e495760008481526013602052604090205415610e44577f00000000000000000000000000000000000000000000000000000000000000006001600160a01b031663a9059cbb610d8b6006546001600160a01b031690565b600087815260136020526040908190205490516001600160e01b031960e085901b168152610dbd929190600401614420565b6020604051808303816000875af1158015610ddc573d6000803e3d6000fd5b505050506040513d601f19601f82011682018060405250810190610e009190614439565b506001601f6000016000828254610e179190614471565b90915550506000848152601360205260408120546021805491929091610e3e908490614471565b90915550505b6110bb565b60008481526014602052604090205415610e44577f00000000000000000000000000000000000000000000000000000000000000006001600160a01b031663a9059cbb610e9e6006546001600160a01b031690565b600087815260146020526040908190205490516001600160e01b031960e085901b168152610ed0929190600401614420565b6020604051808303816000875af1158015610eef573d6000803e3d6000fd5b505050506040513d601f19601f82011682018060405250810190610f139190614439565b506001601f6000016000828254610f2a9190614471565b90915550506000848152601460205260408120546021805491929091610e3e908490614471565b60008481526013602052604090205415611006576000848152601360205260409081902054905163a9059cbb60e01b81526001600160a01b037f0000000000000000000000000000000000000000000000000000000000000000169163a9059cbb91610fc1913091600401614420565b6020604051808303816000875af1158015610fe0573d6000803e3d6000fd5b505050506040513d601f19601f820116820180604052508101906110049190614439565b505b600084815260146020526040902054156110bb576000848152601460205260409081902054905163a9059cbb60e01b81526001600160a01b037f0000000000000000000000000000000000000000000000000000000000000000169163a9059cbb91611076913091600401614420565b6020604051808303816000875af1158015611095573d6000803e3d6000fd5b505050506040513d601f19601f820116820180604052508101906110b99190614439565b505b6001601f60010160008282546110d19190614471565b9091555050601f5460208054602154604080519485529284019190915282820152517f355935019d4bea1e3d4292ae0d5bb626009619ceed2e19671b61aa405fc788939181900360600190a160405160ff83169085907f42af0d2d7b5985c66a12ed8634edd91f277c4254189c9de953eff76546526e2090600090a350505061115a6001600555565b50565b60606003805461116c90614484565b80601f016020809104026020016040519081016040528092919081815260200182805461119890614484565b80156111e55780601f106111ba576101008083540402835291602001916111e5565b820191906000526020600020905b8154815290600101906020018083116111c857829003601f168201915b5050505050905090565b6000336111fd818585612ae4565b60019150505b92915050565b611211612aba565b6006546001600160a01b031633146112645760405162461bcd60e51b815260206004820152601660248201527513db9b1e481bdddb995c8818d85b8819195c1bdcda5d60521b6044820152606401610a74565b600081116112845760405162461bcd60e51b8152600401610a74906144be565b61128c612af1565b806007600082825461129e9190614471565b90915550506001600160a01b037f0000000000000000000000000000000000000000000000000000000000000000166323b872dd6112e46006546001600160a01b031690565b6040516001600160e01b031960e084901b1681526001600160a01b039091166004820152306024820152604481018490526064016020604051808303816000875af1158015611337573d6000803e3d6000fd5b505050506040513d601f19601f8201168201806040525081019061135b9190614439565b506006546001600160a01b03166001600160a01b03167fc286f3b83e4f244dafdd6f12a30c1792eb5c99ba0ee6cb1181aaf6eac30286e8826040516113a291815260200190565b60405180910390a261115a6001600555565b6000336113c2858285612c7f565b6113cd858585612cfe565b60019150505b9392505050565b6113e2612aba565b6006546001600160a01b0316331461143c5760405162461bcd60e51b815260206004820152601760248201527f4f6e6c79206f776e65722063616e2077697468647261770000000000000000006044820152606401610a74565b6000811161145c5760405162461bcd60e51b8152600401610a74906144be565b600754600d5460006114766006546001600160a01b031690565b9050600061148483856144f5565b9050808511156114d65760405162461bcd60e51b815260206004820181905260248201527f416d6f756e74206578636565647320617661696c61626c6520726577617264736044820152606401610a74565b6114de612af1565b8484101561152e5760405162461bcd60e51b815260206004820152601e60248201527f496e73756666696369656e7420617661696c61626c65207265776172647300006044820152606401610a74565b61153885856144f5565b60075560405163a9059cbb60e01b81526001600160a01b037f0000000000000000000000000000000000000000000000000000000000000000169063a9059cbb906115899085908990600401614420565b6020604051808303816000875af11580156115a8573d6000803e3d6000fd5b505050506040513d601f19601f820116820180604052508101906115cc9190614439565b50816001600160a01b03167f13c461eb29f5d65800bbef5a5b05a06ea13b8b2ef4b889ee170f149bc1c8f8bd8660405161160891815260200190565b60405180910390a25050505061115a6001600555565b611626612d5d565b600081118015611637575061c35081105b61167c5760405162461bcd60e51b8152602060048201526016602482015275496e76616c696420626c6f636b73207065722064617960501b6044820152606401610a74565b601b55565b611689612aba565b611691612af1565b61169a33612d8a565b336000908152600f6020526040902054806116ed5760405162461bcd60e51b81526020600482015260136024820152724e6f207265776172647320746f20636c61696d60681b6044820152606401610a74565b336000908152600f60205260408120819055600d80548392906117119084906144f5565b909155505060405163a9059cbb60e01b81526001600160a01b037f0000000000000000000000000000000000000000000000000000000000000000169063a9059cbb906117649033908590600401614420565b6020604051808303816000875af1158015611783573d6000803e3d6000fd5b505050506040513d601f19601f820116820180604052508101906117a79190614439565b5060405181815233907f1f89f96333d3133000ee447473151fa9606543368f02271c9d95ae14f13bcc679060200160405180910390a2506117e86001600555565b565b60405163b4b5ea5760e01b81523060048201526000907f00000000000000000000000000000000000000000000000000000000000000006001600160a01b03169063b4b5ea5790602401602060405180830381865afa158015611851573d6000803e3d6000fd5b505050506040513d601f19601f820116820180604052508101906112039190614508565b61187d612aba565b6000811161189d5760405162461bcd60e51b8152600401610a74906144be565b336000908152601560205260409020544210156118ed5760405162461bcd60e51b815260206004820152600e60248201526d10d3d354081a5cc81b1bd8dad95960921b6044820152606401610a74565b6118f5612e76565b1561195d5760405162461bcd60e51b815260206004820152603260248201527f43616e6e6f7420776974686472617720647572696e6720616374697665206f726044820152712070656e64696e672070726f706f73616c7360701b6064820152608401610a74565b336000908152602081905260409020548111156119b35760405162461bcd60e51b8152602060048201526014602482015273496e73756666696369656e742062616c616e636560601b6044820152606401610a74565b6119bb612af1565b6119c433612d8a565b6119ce3382612f13565b80600b60008282546119e091906144f5565b9091555050600954336000818152600e60205260409081902092909255905163a9059cbb60e01b81527f00000000000000000000000000000000000000000000000000000000000000006001600160a01b03169163a9059cbb91611a4991908590600401614420565b6020604051808303816000875af1158015611a68573d6000803e3d6000fd5b505050506040513d601f19601f82011682018060405250810190611a8c9190614439565b5060405181815233907f98824d89d47225910d3e61aa38b640d29d58b43e2dc47b4d986a588c88e0a2a8906020016113a2565b611ac7612aba565b611ad2838383612f49565b611adc6001600555565b505050565b611ae9612aba565b611b03828260405180602001604052806000815250612f49565b611b0d6001600555565b5050565b611b19612aba565b60ff82161580611b2c57508160ff166001145b611b705760405162461bcd60e51b8152602060048201526015602482015274496e76616c696420737570706f72742076616c756560581b6044820152606401610a74565b60008111611b905760405162461bcd60e51b8152600401610a74906144be565b60008381526010602052604081205460ff166002811115611bb357611bb36143a5565b14611bfc5760405162461bcd60e51b8152602060048201526019602482015278141c9bdc1bdcd85b08185b1c9958591e481c995cdbdb1d9959603a1b6044820152606401610a74565b604051631f27a4f360e11b8152600481018490526000907f00000000000000000000000000000000000000000000000000000000000000006001600160a01b031690633e4f49e690602401602060405180830381865afa158015611c64573d6000803e3d6000fd5b505050506040513d601f19601f82011682018060405250810190611c8891906143ff565b90506001816007811115611c9e57611c9e6143a5565b14611cfd5760405162461bcd60e51b815260206004820152602960248201527f5374616b696e67206f6e6c7920616c6c6f77656420666f72206163746976652060448201526870726f706f73616c7360b81b6064820152608401610a74565b611d068461352e565b6000848152601160205260408120549003611d2d5760008481526011602052604090204290555b8260ff16600103611dbc57600084815260126020908152604080832033845290915281208054849290611d6a9084906001600160801b0316614521565b92506101000a8154816001600160801b0302191690836001600160801b0316021790555081601360008681526020019081526020016000206000828254611db19190614471565b90915550611e459050565b600084815260126020908152604080832033845290915290208054839190601090611df8908490600160801b90046001600160801b0316614521565b92506101000a8154816001600160801b0302191690836001600160801b0316021790555081601460008681526020019081526020016000206000828254611e3f9190614471565b90915550505b6040516323b872dd60e01b8152336004820152306024820152604481018390527f00000000000000000000000000000000000000000000000000000000000000006001600160a01b0316906323b872dd906064016020604051808303816000875af1158015611eb8573d6000803e3d6000fd5b505050506040513d601f19601f82011682018060405250810190611edc9190614439565b506040805185815260ff8516602082015290810183905233907fffdf8f2eae7f0d227669096500eec70780fb16cae4c11b9d49e542b483e5f48c9060600160405180910390a250611adc6001600555565b611f35612d5d565b6117e860006138ec565b601c6020526000908152604090208054600182015460028301546003840154600485015460058601805460ff90961696949593949293919291611f8190614484565b80601f0160208091040260200160405190810160405280929190818152602001828054611fad90614484565b8015611ffa5780601f10611fcf57610100808354040283529160200191611ffa565b820191906000526020600020905b815481529060010190602001808311611fdd57829003601f168201915b5050505050905086565b61200c612aba565b60008181526010602052604081205460ff16600281111561202f5761202f6143a5565b14801561205757506000818152601160205260409020546120549062278d0090614471565b42115b15612065576120658161393e565b60008181526010602052604081205460ff169081600281111561208a5761208a6143a5565b036120d75760405162461bcd60e51b815260206004820152601960248201527f50726f706f73616c206e6f74207265736f6c76656420796574000000000000006044820152606401610a74565b60008281526012602090815260408083203384529091528120906002836002811115612105576121056143a5565b14905060008115612156575081546001600160801b03808216845560008681526014602052604081208054600160801b909404909216928392919061214b9084906144f5565b9091555061219f9050565b5081546fffffffffffffffffffffffffffffffff1981168355600085815260136020526040812080546001600160801b03909316928392906121999084906144f5565b90915550505b600081116121e55760405162461bcd60e51b81526020600482015260136024820152724e6f207374616b6520746f207265636c61696d60681b6044820152606401610a74565b60405163a9059cbb60e01b81526001600160a01b037f0000000000000000000000000000000000000000000000000000000000000000169063a9059cbb906122339033908590600401614420565b6020604051808303816000875af1158015612252573d6000803e3d6000fd5b505050506040513d601f19601f820116820180604052508101906122769190614439565b50604080518681526020810183905233917f8de0e2066c69956866611c24aed3568d88691d0eac248ee5496a6c9f164f30049101611608565b600080600080600060606000601c60008981526020019081526020016000206040518060c00160405290816000820160009054906101000a900460ff1660ff1660ff1681526020016001820154815260200160028201548152602001600382015481526020016004820154815260200160058201805461232e90614484565b80601f016020809104026020016040519081016040528092919081815260200182805461235a90614484565b80156123a75780601f1061237c576101008083540402835291602001916123a7565b820191906000526020600020905b81548152906001019060200180831161238a57829003601f168201915b5050509190925250508151602083015160408401516060850151608086015160a090960151939e929d50909b5099509297509550909350505050565b60606004805461116c90614484565b6123fa612aba565b6006546001600160a01b031633146124545760405162461bcd60e51b815260206004820152601e60248201527f4f6e6c79206f776e65722063616e2073657420726577617264207261746500006044820152606401610a74565b60085481036124ba5760405162461bcd60e51b815260206004820152602c60248201527f4e65772072617465206d75737420626520646966666572656e742066726f6d2060448201526b63757272656e74207261746560a01b6064820152608401610a74565b6124c2612af1565b60088190556006546001600160a01b03166001600160a01b03167fb3986383b0fc50bee9161915d3b51288bb862a90998c77d4f67033fc57837c00826040516113a291815260200190565b6000336111fd818585612cfe565b600060085460000361252e5750600a5490565b6000600d5460075411612542576000612552565b600d5460075461255291906144f5565b90506000600854670de0b6b3a76400008361256d9190614548565b612577919061455f565b905080600a546125879190614471565b9250505090565b601d6020526000908152604090208054600182015460028301546003840154600485015460058601805460ff90961696949593949293919291611f8190614484565b60405163b4b5ea5760e01b81523060048201526000907f00000000000000000000000000000000000000000000000000000000000000006001600160a01b03169063b4b5ea5790602401602060405180830381865afa158015612637573d6000803e3d6000fd5b505050506040513d601f19601f8201168201806040525081019061265b9190614508565b905090565b612668612d5d565b6001600160a01b03811661269257604051631e4fbdf760e01b815260006004820152602401610a74565b61115a816138ec565b6001600160a01b0381166000908152600f602090815260408083205491839052822054156112035760006126cd613e03565b6001600160a01b0385166000908152600e6020526040902054909150670de0b6b3a7640000906126fd90836144f5565b6001600160a01b0386166000908152602081905260409020546127209190614548565b61272a919061455f565b6127349083614471565b949350505050565b612744612aba565b600081116127645760405162461bcd60e51b8152600401610a74906144be565b600c5481600b546127759190614471565b11156127c35760405162461bcd60e51b815260206004820152601760248201527f44656c65676174696f6e206361702065786365656465640000000000000000006044820152606401610a74565b6127cb612af1565b6127d433612d8a565b60006127e362093a8042614471565b90506127ed612e76565b1561280f576127ff62093a8042614471565b61280c906203f480614471565b90505b33600090815260156020526040902054811115612873573360008181526015602052604090819020839055517f308c23d85188a2d929b33a8748fdc757b93d1e422046a4237967a2d17d4eca939061286a9084815260200190565b60405180910390a25b61287d3383613ebb565b81600b600082825461288f9190614471565b9091555050600954336000818152600e6020526040908190209290925590516323b872dd60e01b81526004810191909152306024820152604481018390526001600160a01b037f000000000000000000000000000000000000000000000000000000000000000016906323b872dd906064016020604051808303816000875af1158015612920573d6000803e3d6000fd5b505050506040513d601f19601f820116820180604052508101906129449190614439565b506040516317066a5760e21b81523060048201527f00000000000000000000000000000000000000000000000000000000000000006001600160a01b031690635c19a95c90602401600060405180830381600087803b1580156129a657600080fd5b505af11580156129ba573d6000803e3d6000fd5b50506040518481523392507f35db3d768e685509e031bae369804ca7dc6656af739e079f1d3312cadc7b19d8915060200160405180910390a25061115a6001600555565b60008060008060006060601e548710612a595760405162461bcd60e51b815260206004820152601860248201527f566f746520696e646578206f7574206f6620626f756e647300000000000000006044820152606401610a74565b6000878152601d60209081526040808320815160c081018352815460ff168152600182015493810193909352600281015491830191909152600381015460608301526004810154608083015260058101805460a08401919061232e90614484565b600260055403612add57604051633ee5aeb560e01b815260040160405180910390fd5b6002600555565b611adc8383836001613ef1565b6000612afc60025490565b600854600754600d54600954600a549495509293919290916000869003612b2957505042600a5550505050565b6000612b3582426144f5565b90506000612b438783614548565b9050848611612b935742600a5560408051858152600060208201527fe59e5a83a27f440a8e234a0a6e659a7f1cc16a6d0e37aa05a24f2c407521ea0e910160405180910390a15050505050505050565b6000612b9f86886144f5565b905080821115612bad578091505b600089612bc2670de0b6b3a764000085614548565b612bcc919061455f565b90506000612bda8288614471565b90506000612be8858a614471565b6009839055600d81905542600a5560408051848152602081018890529192507fe59e5a83a27f440a8e234a0a6e659a7f1cc16a6d0e37aa05a24f2c407521ea0e910160405180910390a16040805186815260208101849052428183015290517f6ae8ee960d83517f7fa993ad7a0e16e33d9655a23ff41eefc62bdb289c7a8e5f9181900360600190a1505050505050505050505050565b6001600160a01b03838116600090815260016020908152604080832093861683529290522054600019811015612cf85781811015612ce957604051637dc7a0d960e11b81526001600160a01b03841660048201526024810182905260448101839052606401610a74565b612cf884848484036000613ef1565b50505050565b6001600160a01b038316612d2857604051634b637e8f60e11b815260006004820152602401610a74565b6001600160a01b038216612d525760405163ec442f0560e01b815260006004820152602401610a74565b611adc838383613fc6565b6006546001600160a01b031633146117e85760405163118cdaa760e01b8152336004820152602401610a74565b6001600160a01b03811660009081526020818152604080832054600954600e9093529220548215612cf8576000670de0b6b3a7640000612dca83856144f5565b612dd49086614548565b612dde919061455f565b90508015612e6f576001600160a01b0385166000908152600f602052604081208054839290612e0e908490614471565b90915550506001600160a01b0385166000818152600e60209081526040808320879055600f825291829020548251858152918201527f5b9aaf4cc5141c090a75f8b8a627863eba92df81f0c83c096350da9b79aedd04910160405180910390a25b5050505050565b60165460009081600a8211612e8c576000612e97565b612e97600a836144f5565b905060005a9050825b82811115612f085761c3505a612eb690846144f5565b11612f085760008181526017602052604090205460ff1680612ee6575060008181526018602052604090205460ff165b15612ef657600194505050505090565b80612f0081614581565b915050612ea0565b506000935050505090565b6001600160a01b038216612f3d57604051634b637e8f60e11b815260006004820152602401610a74565b611b0d82600083613fc6565b6006546001600160a01b03163314612fa35760405162461bcd60e51b815260206004820152601960248201527f4f6e6c79206f776e65722063616e206361737420766f746573000000000000006044820152606401610a74565b60018260ff161115612fef5760405162461bcd60e51b8152602060048201526015602482015274496e76616c696420737570706f72742076616c756560581b6044820152606401610a74565b60008381526019602052604090205460ff161561304e5760405162461bcd60e51b815260206004820152601e60248201527f416c726561647920766f746564206f6e20746869732070726f706f73616c00006044820152606401610a74565b604051631f27a4f360e11b8152600481018490526000907f00000000000000000000000000000000000000000000000000000000000000006001600160a01b031690633e4f49e690602401602060405180830381865afa1580156130b6573d6000803e3d6000fd5b505050506040513d601f19601f820116820180604052508101906130da91906143ff565b905060018160078111156130f0576130f06143a5565b148061310d5750600081600781111561310b5761310b6143a5565b145b6131595760405162461bcd60e51b815260206004820152601d60248201527f50726f706f73616c206e6f7420696e20766f74696e6720706572696f640000006044820152606401610a74565b60405163b4b5ea5760e01b81523060048201526000907f00000000000000000000000000000000000000000000000000000000000000006001600160a01b03169063b4b5ea5790602401602060405180830381865afa1580156131c0573d6000803e3d6000fd5b505050506040513d601f19601f820116820180604052508101906131e49190614508565b905060016019600087815260200190815260200160002060006101000a81548160ff02191690831515021790555083601a600087815260200190815260200160002060006101000a81548160ff021916908360ff16021790555060006040518060c001604052808660ff1681526020014381526020016000801b815260200142815260200183815260200185815250905080601c600088815260200190815260200160002060008201518160000160006101000a81548160ff021916908360ff1602179055506020820151816001015560408201518160020155606082015181600301556080820151816004015560a08201518160050190816132e791906145de565b5050601e546000908152601d60209081526040918290208451815460ff191660ff909116178155908401516001820155908301516002820155606083015160038201556080830151600482015560a0830151839250600582019061334b90826145de565b5050601e80549150600061335e8361469e565b919050555081601f60030160008282546133789190614471565b9091555050601e5460225461338d919061455f565b602355604051630acf027160e31b81526004810187905260ff861660248201527f00000000000000000000000000000000000000000000000000000000000000006001600160a01b031690635678138890604401600060405180830381600087803b1580156133fb57600080fd5b505af115801561340f573d6000803e3d6000fd5b5050505060014361342091906144f5565b6000878152601c6020526040812091406002909201829055601e54601d919061344b906001906144f5565b815260200190815260200160002060020181905550857f7e93fc3c3724f0d8fd590530618bf27708290ad2461c84e4944894ab0131a8ae8643601c60008b8152602001908152602001600020600201546040516134c09392919060ff9390931683526020830191909152604082015260600190565b60405180910390a283511561352657857fe1e5d0e9cd2d2ae081aedf8a8de8b57b91b1ed3bcc7962c21f13b93670f936478643601c60008b815260200190815260200160002060020154868960405161351d9594939291906146b7565b60405180910390a25b505050505050565b60165481111561356957601681905560405181907f738245544e121def2724a4bc087112610a7a03c8518881b71cbd922d850eaf0990600090a25b604051631f27a4f360e11b8152600481018290527f00000000000000000000000000000000000000000000000000000000000000006001600160a01b031690633e4f49e690602401602060405180830381865afa9250505080156135ea575060408051601f3d908101601f191682019092526135e7918101906143ff565b60015b61365b5760008181526017602052604090205460ff161561364357600081815260176020526040808220805460ff191690555182917faae1ed8b74416b955e14c0b0b71467355257ba6d0a08c9b6f39d8479f6f3d35491a25b6000908152601860205260409020805460ff19169055565b60006001826007811115613671576136716143a5565b148061368e5750600082600781111561368c5761368c6143a5565b145b90508080156136ac575060008381526017602052604090205460ff16155b1561373157600083815260176020526040808220805460ff191660011790555184917f371f68adf986bef1a3b7917c0747454c6a25610192c30a1009ccc33dc90f342391a2827f6147c657c509b611c5b884671c7cb0da0e1eed364b561e0e9d48789b79421525600084604051613724929190614704565b60405180910390a26137cb565b8015801561374d575060008381526017602052604090205460ff165b156137cb57600083815260176020526040808220805460ff191690555184917faae1ed8b74416b955e14c0b0b71467355257ba6d0a08c9b6f39d8479f6f3d35491a2827f6147c657c509b611c5b884671c7cb0da0e1eed364b561e0e9d48789b794215256001846040516137c2929190614704565b60405180910390a25b604051632d63f69360e01b8152600481018490527f00000000000000000000000000000000000000000000000000000000000000006001600160a01b031690632d63f69390602401602060405180830381865afa92505050801561384c575060408051601f3d908101601f1916820190925261384991810190614508565b60015b61386b576000838152601860205260409020805460ff191690556138c2565b4380821180156138855750601b5461388382846144f5565b105b156138a8576000858152601860205260409020805460ff191660011790556138bf565b6000858152601860205260409020805460ff191690555b50505b6000838152601160205260408120549003611adc5750506000908152601160205260409020429055565b600680546001600160a01b038381166001600160a01b0319831681179093556040519116919082907f8be0079c531659141344cd1fd0a4f28419497f9722a3daafe3b4186f6b6457e090600090a35050565b604051631f27a4f360e11b8152600481018290526000907f00000000000000000000000000000000000000000000000000000000000000006001600160a01b031690633e4f49e690602401602060405180830381865afa1580156139a6573d6000803e3d6000fd5b505050506040513d601f19601f820116820180604052508101906139ca91906143ff565b905060018160078111156139e0576139e06143a5565b14806139fd575060008160078111156139fb576139fb6143a5565b145b15613b4f576000828152601060209081526040808320805460ff19166001179055601990915290205460ff168015613a4457506000828152601a602052604090205460ff16155b15613b155760008281526014602052604090205415613b15577f00000000000000000000000000000000000000000000000000000000000000006001600160a01b031663a9059cbb613a9e6006546001600160a01b031690565b600085815260146020526040908190205490516001600160e01b031960e085901b168152613ad0929190600401614420565b6020604051808303816000875af1158015613aef573d6000803e3d6000fd5b505050506040513d601f19601f82011682018060405250810190613b139190614439565b505b6040516000815282907fb8bd1c2bf2afdfdad72adf1c6a383ef5b20d65e6041c69adb823396d343f76d69060200160405180910390a25050565b60006004826007811115613b6557613b656143a5565b1480613b8257506007826007811115613b8057613b806143a5565b145b613b8d576000613b90565b60015b90508060ff16600114613ba4576001613ba7565b60025b6000848152601060205260409020805460ff19166001836002811115613bcf57613bcf6143a5565b021790555060008381526019602052604090205460ff168015613c0557506000838152601a602052604090205460ff8281169116145b15613dc6578060ff166001148015613c2a575060008381526013602052604090205415155b15613ceb577f00000000000000000000000000000000000000000000000000000000000000006001600160a01b031663a9059cbb613c706006546001600160a01b031690565b600086815260136020526040908190205490516001600160e01b031960e085901b168152613ca2929190600401614420565b6020604051808303816000875af1158015613cc1573d6000803e3d6000fd5b505050506040513d601f19601f82011682018060405250810190613ce59190614439565b50613dc6565b60ff8116158015613d09575060008381526014602052604090205415155b15613dc6577f00000000000000000000000000000000000000000000000000000000000000006001600160a01b031663a9059cbb613d4f6006546001600160a01b031690565b600086815260146020526040908190205490516001600160e01b031960e085901b168152613d81929190600401614420565b6020604051808303816000875af1158015613da0573d6000803e3d6000fd5b505050506040513d601f19601f82011682018060405250810190613dc49190614439565b505b60405160ff8216815283907fb8bd1c2bf2afdfdad72adf1c6a383ef5b20d65e6041c69adb823396d343f76d69060200160405180910390a2505050565b600754600d54600954600854600093929190828411613e2457509392505050565b6000600a5442613e3491906144f5565b90506000613e428383614548565b90506000613e4f60025490565b90506000613e5d87896144f5565b90506000818411613e6e5783613e70565b815b90508215613ead5782613e8b670de0b6b3a764000083614548565b613e95919061455f565b613e9f9088614471565b995050505050505050505090565b509498975050505050505050565b6001600160a01b038216613ee55760405163ec442f0560e01b815260006004820152602401610a74565b611b0d60008383613fc6565b6001600160a01b038416613f1b5760405163e602df0560e01b815260006004820152602401610a74565b6001600160a01b038316613f4557604051634a1406b160e11b815260006004820152602401610a74565b6001600160a01b0380851660009081526001602090815260408083209387168352929052208290558015612cf857826001600160a01b0316846001600160a01b03167f8c5be1e5ebec7d5bd14f71427d1e84f3dd0314c0f7b2291e5b200ac8c7c3b92584604051613fb891815260200190565b60405180910390a350505050565b6001600160a01b038316613ff1578060026000828254613fe69190614471565b909155506140639050565b6001600160a01b038316600090815260208190526040902054818110156140445760405163391434e360e21b81526001600160a01b03851660048201526024810182905260448101839052606401610a74565b6001600160a01b03841660009081526020819052604090209082900390555b6001600160a01b03821661407f5760028054829003905561409e565b6001600160a01b03821660009081526020819052604090208054820190555b816001600160a01b0316836001600160a01b03167fddf252ad1be2c89b69c2b068fc378daa952ba7f163c4a11628f55a4df523b3ef836040516140e391815260200190565b60405180910390a3505050565b60006020828403121561410257600080fd5b5035919050565b6000815180845260005b8181101561412f57602081850181015186830182015201614113565b506000602082860101526020601f19601f83011685010191505092915050565b6020815260006113d36020830184614109565b80356001600160a01b038116811461417957600080fd5b919050565b6000806040838503121561419157600080fd5b61419a83614162565b946020939093013593505050565b6000806000606084860312156141bd57600080fd5b6141c684614162565b92506141d460208501614162565b9150604084013590509250925092565b803560ff8116811461417957600080fd5b634e487b7160e01b600052604160045260246000fd5b60008060006060848603121561422057600080fd5b83359250614230602085016141e4565b9150604084013567ffffffffffffffff8082111561424d57600080fd5b818601915086601f83011261426157600080fd5b813581811115614273576142736141f5565b604051601f8201601f19908116603f0116810190838211818310171561429b5761429b6141f5565b816040528281528960208487010111156142b457600080fd5b8260208601602083013760006020848301015280955050505050509250925092565b600080604083850312156142e957600080fd5b823591506142f960208401614162565b90509250929050565b6000806040838503121561431557600080fd5b823591506142f9602084016141e4565b60008060006060848603121561433a57600080fd5b833592506141d4602085016141e4565b60006020828403121561435c57600080fd5b6113d382614162565b60ff8716815285602082015284604082015283606082015282608082015260c060a0820152600061439960c0830184614109565b98975050505050505050565b634e487b7160e01b600052602160045260246000fd5b60208101600383106143cf576143cf6143a5565b91905290565b600080604083850312156143e857600080fd5b6143f183614162565b91506142f960208401614162565b60006020828403121561441157600080fd5b8151600881106113d357600080fd5b6001600160a01b03929092168252602082015260400190565b60006020828403121561444b57600080fd5b815180151581146113d357600080fd5b634e487b7160e01b600052601160045260246000fd5b808201808211156112035761120361445b565b600181811c9082168061449857607f821691505b6020821081036144b857634e487b7160e01b600052602260045260246000fd5b50919050565b6020808252601d908201527f416d6f756e74206d7573742062652067726561746572207468616e2030000000604082015260600190565b818103818111156112035761120361445b565b60006020828403121561451a57600080fd5b5051919050565b6001600160801b038181168382160190808211156145415761454161445b565b5092915050565b80820281158282048414176112035761120361445b565b60008261457c57634e487b7160e01b600052601260045260246000fd5b500490565b6000816145905761459061445b565b506000190190565b601f821115611adc57600081815260208120601f850160051c810160208610156145bf5750805b601f850160051c820191505b81811015613526578281556001016145cb565b815167ffffffffffffffff8111156145f8576145f86141f5565b61460c816146068454614484565b84614598565b602080601f83116001811461464157600084156146295750858301515b600019600386901b1c1916600185901b178555613526565b600085815260208120601f198616915b8281101561467057888601518255948401946001909101908401614651565b508582101561468e5787850151600019600388901b60f8161c191681555b5050505050600190811b01905550565b6000600182016146b0576146b061445b565b5060010190565b60ff8616815284602082015283604082015282606082015260a0608082015260006146e560a0830184614109565b979650505050505050565b60088110614700576147006143a5565b9052565b6040810161471282856146f0565b6113d360208301846146f056fea2646970667358221220717de8b43b21359765d791dbbd428c6caebbba794897b94d5be0d394516bf55b64736f6c63430008150033","opcodes":"PUSH1 0xC0 PUSH1 0x40 MSTORE PUSH2 0x1964 PUSH1 0x1B SSTORE CALLVALUE DUP1 ISZERO PUSH3 0x17 JUMPI PUSH1 0x0 DUP1 REVERT JUMPDEST POP PUSH1 0x40 MLOAD PUSH3 0x4E53 CODESIZE SUB DUP1 PUSH3 0x4E53 DUP4 CODECOPY DUP2 ADD PUSH1 0x40 DUP2 SWAP1 MSTORE PUSH3 0x3A SWAP2 PUSH3 0x405 JUMP JUMPDEST DUP1 PUSH1 0x40 MLOAD DUP1 PUSH1 0x40 ADD PUSH1 0x40 MSTORE DUP1 PUSH1 0xB DUP2 MSTORE PUSH1 0x20 ADD PUSH11 0x21B7B6B832B739B0BA37B9 PUSH1 0xA9 SHL DUP2 MSTORE POP PUSH1 0x40 MLOAD DUP1 PUSH1 0x40 ADD PUSH1 0x40 MSTORE DUP1 PUSH1 0xB DUP2 MSTORE PUSH1 0x20 ADD PUSH11 0x21A7A6A822A729A0AA27A9 PUSH1 0xA9 SHL DUP2 MSTORE POP DUP2 PUSH1 0x3 SWAP1 DUP2 PUSH3 0x94 SWAP2 SWAP1 PUSH3 0x4F4 JUMP JUMPDEST POP PUSH1 0x4 PUSH3 0xA3 DUP3 DUP3 PUSH3 0x4F4 JUMP JUMPDEST POP POP PUSH1 0x1 PUSH1 0x5 SSTORE POP PUSH1 0x1 PUSH1 0x1 PUSH1 0xA0 SHL SUB DUP2 AND PUSH3 0xDB JUMPI PUSH1 0x40 MLOAD PUSH4 0x1E4FBDF7 PUSH1 0xE0 SHL DUP2 MSTORE PUSH1 0x0 PUSH1 0x4 DUP3 ADD MSTORE PUSH1 0x24 ADD JUMPDEST PUSH1 0x40 MLOAD DUP1 SWAP2 SUB SWAP1 REVERT JUMPDEST PUSH3 0xE6 DUP2 PUSH3 0x396 JUMP JUMPDEST POP PUSH1 0x1 PUSH1 0x1 PUSH1 0xA0 SHL SUB DUP4 AND PUSH3 0x13F JUMPI PUSH1 0x40 MLOAD PUSH3 0x461BCD PUSH1 0xE5 SHL DUP2 MSTORE PUSH1 0x20 PUSH1 0x4 DUP3 ADD MSTORE PUSH1 0x1A PUSH1 0x24 DUP3 ADD MSTORE PUSH32 0x496E76616C696420434F4D5020746F6B656E2061646472657373000000000000 PUSH1 0x44 DUP3 ADD MSTORE PUSH1 0x64 ADD PUSH3 0xD2 JUMP JUMPDEST PUSH1 0x1 PUSH1 0x1 PUSH1 0xA0 SHL SUB DUP3 AND PUSH3 0x1A1 JUMPI PUSH1 0x40 MLOAD PUSH3 0x461BCD PUSH1 0xE5 SHL DUP2 MSTORE PUSH1 0x20 PUSH1 0x4 DUP3 ADD MSTORE PUSH1 0x21 PUSH1 0x24 DUP3 ADD MSTORE PUSH32 0x496E76616C696420436F6D706F756E6420476F7665726E6F7220616464726573 PUSH1 0x44 DUP3 ADD MSTORE PUSH1 0x73 PUSH1 0xF8 SHL PUSH1 0x64 DUP3 ADD MSTORE PUSH1 0x84 ADD PUSH3 0xD2 JUMP JUMPDEST PUSH1 0x1 PUSH1 0x1 PUSH1 0xA0 SHL SUB DUP2 AND PUSH3 0x1F9 JUMPI PUSH1 0x40 MLOAD PUSH3 0x461BCD PUSH1 0xE5 SHL DUP2 MSTORE PUSH1 0x20 PUSH1 0x4 DUP3 ADD MSTORE PUSH1 0x15 PUSH1 0x24 DUP3 ADD MSTORE PUSH32 0x496E76616C6964206F776E657220616464726573730000000000000000000000 PUSH1 0x44 DUP3 ADD MSTORE PUSH1 0x64 ADD PUSH3 0xD2 JUMP JUMPDEST PUSH1 0x1 PUSH1 0x1 PUSH1 0xA0 SHL SUB DUP1 DUP5 AND PUSH1 0x80 DUP2 SWAP1 MSTORE SWAP1 DUP4 AND PUSH1 0xA0 MSTORE PUSH8 0xDE0B6B3A7640000 PUSH1 0x9 SSTORE PUSH1 0x40 DUP1 MLOAD PUSH4 0x18160DDD PUSH1 0xE0 SHL DUP2 MSTORE SWAP1 MLOAD PUSH1 0x0 SWAP3 SWAP2 PUSH4 0x18160DDD SWAP2 PUSH1 0x4 DUP1 DUP4 ADD SWAP3 PUSH1 0x20 SWAP3 SWAP2 SWAP1 DUP3 SWAP1 SUB ADD DUP2 DUP7 GAS STATICCALL ISZERO DUP1 ISZERO PUSH3 0x25A JUMPI RETURNDATASIZE PUSH1 0x0 DUP1 RETURNDATACOPY RETURNDATASIZE PUSH1 0x0 REVERT JUMPDEST POP POP POP POP PUSH1 0x40 MLOAD RETURNDATASIZE PUSH1 0x1F NOT PUSH1 0x1F DUP3 ADD AND DUP3 ADD DUP1 PUSH1 0x40 MSTORE POP DUP2 ADD SWAP1 PUSH3 0x280 SWAP2 SWAP1 PUSH3 0x5C0 JUMP JUMPDEST SWAP1 POP PUSH1 0x0 DUP2 GT PUSH3 0x2D4 JUMPI PUSH1 0x40 MLOAD PUSH3 0x461BCD PUSH1 0xE5 SHL DUP2 MSTORE PUSH1 0x20 PUSH1 0x4 DUP3 ADD MSTORE PUSH1 0x19 PUSH1 0x24 DUP3 ADD MSTORE PUSH32 0x496E76616C696420434F4D5020746F74616C20737570706C7900000000000000 PUSH1 0x44 DUP3 ADD MSTORE PUSH1 0x64 ADD PUSH3 0xD2 JUMP JUMPDEST PUSH1 0xC SLOAD PUSH2 0x2710 PUSH3 0x2E8 PUSH2 0x1F4 DUP5 PUSH3 0x5DA JUMP JUMPDEST PUSH3 0x2F4 SWAP2 SWAP1 PUSH3 0x606 JUMP JUMPDEST PUSH1 0xC DUP2 SWAP1 SSTORE PUSH3 0x347 JUMPI PUSH1 0x40 MLOAD PUSH3 0x461BCD PUSH1 0xE5 SHL DUP2 MSTORE PUSH1 0x20 PUSH1 0x4 DUP3 ADD MSTORE PUSH1 0x18 PUSH1 0x24 DUP3 ADD MSTORE PUSH32 0x44656C65676174696F6E2063617020746F6F20736D616C6C0000000000000000 PUSH1 0x44 DUP3 ADD MSTORE PUSH1 0x64 ADD PUSH3 0xD2 JUMP JUMPDEST PUSH1 0xC SLOAD PUSH1 0x40 DUP1 MLOAD DUP4 DUP2 MSTORE PUSH1 0x20 DUP2 ADD SWAP3 SWAP1 SWAP3 MSTORE DUP2 ADD DUP4 SWAP1 MSTORE PUSH32 0xC72F87E837AEB21E01377CA632CDAE4E68649B7216568FF0A62E4CBDCEE74008 SWAP1 PUSH1 0x60 ADD PUSH1 0x40 MLOAD DUP1 SWAP2 SUB SWAP1 LOG1 POP POP POP POP POP PUSH3 0x629 JUMP JUMPDEST PUSH1 0x6 DUP1 SLOAD PUSH1 0x1 PUSH1 0x1 PUSH1 0xA0 SHL SUB DUP4 DUP2 AND PUSH1 0x1 PUSH1 0x1 PUSH1 0xA0 SHL SUB NOT DUP4 AND DUP2 OR SWAP1 SWAP4 SSTORE PUSH1 0x40 MLOAD SWAP2 AND SWAP2 SWAP1 DUP3 SWAP1 PUSH32 0x8BE0079C531659141344CD1FD0A4F28419497F9722A3DAAFE3B4186F6B6457E0 SWAP1 PUSH1 0x0 SWAP1 LOG3 POP POP JUMP JUMPDEST DUP1 MLOAD PUSH1 0x1 PUSH1 0x1 PUSH1 0xA0 SHL SUB DUP2 AND DUP2 EQ PUSH3 0x400 JUMPI PUSH1 0x0 DUP1 REVERT JUMPDEST SWAP2 SWAP1 POP JUMP JUMPDEST PUSH1 0x0 DUP1 PUSH1 0x0 PUSH1 0x60 DUP5 DUP7 SUB SLT ISZERO PUSH3 0x41B JUMPI PUSH1 0x0 DUP1 REVERT JUMPDEST PUSH3 0x426 DUP5 PUSH3 0x3E8 JUMP JUMPDEST SWAP3 POP PUSH3 0x436 PUSH1 0x20 DUP6 ADD PUSH3 0x3E8 JUMP JUMPDEST SWAP2 POP PUSH3 0x446 PUSH1 0x40 DUP6 ADD PUSH3 0x3E8 JUMP JUMPDEST SWAP1 POP SWAP3 POP SWAP3 POP SWAP3 JUMP JUMPDEST PUSH4 0x4E487B71 PUSH1 0xE0 SHL PUSH1 0x0 MSTORE PUSH1 0x41 PUSH1 0x4 MSTORE PUSH1 0x24 PUSH1 0x0 REVERT JUMPDEST PUSH1 0x1 DUP2 DUP2 SHR SWAP1 DUP3 AND DUP1 PUSH3 0x47A JUMPI PUSH1 0x7F DUP3 AND SWAP2 POP JUMPDEST PUSH1 0x20 DUP3 LT DUP2 SUB PUSH3 0x49B JUMPI PUSH4 0x4E487B71 PUSH1 0xE0 SHL PUSH1 0x0 MSTORE PUSH1 0x22 PUSH1 0x4 MSTORE PUSH1 0x24 PUSH1 0x0 REVERT JUMPDEST POP SWAP2 SWAP1 POP JUMP JUMPDEST PUSH1 0x1F DUP3 GT ISZERO PUSH3 0x4EF JUMPI PUSH1 0x0 DUP2 DUP2 MSTORE PUSH1 0x20 DUP2 KECCAK256 PUSH1 0x1F DUP6 ADD PUSH1 0x5 SHR DUP2 ADD PUSH1 0x20 DUP7 LT ISZERO PUSH3 0x4CA JUMPI POP DUP1 JUMPDEST PUSH1 0x1F DUP6 ADD PUSH1 0x5 SHR DUP3 ADD SWAP2 POP JUMPDEST DUP2 DUP2 LT ISZERO PUSH3 0x4EB JUMPI DUP3 DUP2 SSTORE PUSH1 0x1 ADD PUSH3 0x4D6 JUMP JUMPDEST POP POP POP JUMPDEST POP POP POP JUMP JUMPDEST DUP2 MLOAD PUSH1 0x1 PUSH1 0x1 PUSH1 0x40 SHL SUB DUP2 GT ISZERO PUSH3 0x510 JUMPI PUSH3 0x510 PUSH3 0x44F JUMP JUMPDEST PUSH3 0x528 DUP2 PUSH3 0x521 DUP5 SLOAD PUSH3 0x465 JUMP JUMPDEST DUP5 PUSH3 0x4A1 JUMP JUMPDEST PUSH1 0x20 DUP1 PUSH1 0x1F DUP4 GT PUSH1 0x1 DUP2 EQ PUSH3 0x560 JUMPI PUSH1 0x0 DUP5 ISZERO PUSH3 0x547 JUMPI POP DUP6 DUP4 ADD MLOAD JUMPDEST PUSH1 0x0 NOT PUSH1 0x3 DUP7 SWAP1 SHL SHR NOT AND PUSH1 0x1 DUP6 SWAP1 SHL OR DUP6 SSTORE PUSH3 0x4EB JUMP JUMPDEST PUSH1 0x0 DUP6 DUP2 MSTORE PUSH1 0x20 DUP2 KECCAK256 PUSH1 0x1F NOT DUP7 AND SWAP2 JUMPDEST DUP3 DUP2 LT ISZERO PUSH3 0x591 JUMPI DUP9 DUP7 ADD MLOAD DUP3 SSTORE SWAP5 DUP5 ADD SWAP5 PUSH1 0x1 SWAP1 SWAP2 ADD SWAP1 DUP5 ADD PUSH3 0x570 JUMP JUMPDEST POP DUP6 DUP3 LT ISZERO PUSH3 0x5B0 JUMPI DUP8 DUP6 ADD MLOAD PUSH1 0x0 NOT PUSH1 0x3 DUP9 SWAP1 SHL PUSH1 0xF8 AND SHR NOT AND DUP2 SSTORE JUMPDEST POP POP POP POP POP PUSH1 0x1 SWAP1 DUP2 SHL ADD SWAP1 SSTORE POP JUMP JUMPDEST PUSH1 0x0 PUSH1 0x20 DUP3 DUP5 SUB SLT ISZERO PUSH3 0x5D3 JUMPI PUSH1 0x0 DUP1 REVERT JUMPDEST POP MLOAD SWAP2 SWAP1 POP JUMP JUMPDEST DUP1 DUP3 MUL DUP2 ISZERO DUP3 DUP3 DIV DUP5 EQ OR PUSH3 0x600 JUMPI PUSH4 0x4E487B71 PUSH1 0xE0 SHL PUSH1 0x0 MSTORE PUSH1 0x11 PUSH1 0x4 MSTORE PUSH1 0x24 PUSH1 0x0 REVERT JUMPDEST SWAP3 SWAP2 POP POP JUMP JUMPDEST PUSH1 0x0 DUP3 PUSH3 0x624 JUMPI PUSH4 0x4E487B71 PUSH1 0xE0 SHL PUSH1 0x0 MSTORE PUSH1 0x12 PUSH1 0x4 MSTORE PUSH1 0x24 PUSH1 0x0 REVERT JUMPDEST POP DIV SWAP1 JUMP JUMPDEST PUSH1 0x80 MLOAD PUSH1 0xA0 MLOAD PUSH2 0x4755 PUSH3 0x6FE PUSH1 0x0 CODECOPY PUSH1 0x0 DUP2 DUP2 PUSH2 0x754 ADD MSTORE DUP2 DUP2 PUSH2 0xAEE ADD MSTORE DUP2 DUP2 PUSH2 0x1C15 ADD MSTORE DUP2 DUP2 PUSH2 0x3067 ADD MSTORE DUP2 DUP2 PUSH2 0x33AF ADD MSTORE DUP2 DUP2 PUSH2 0x357F ADD MSTORE DUP2 DUP2 PUSH2 0x37E1 ADD MSTORE PUSH2 0x3957 ADD MSTORE PUSH1 0x0 DUP2 DUP2 PUSH2 0x46D ADD MSTORE DUP2 DUP2 PUSH2 0xD4C ADD MSTORE DUP2 DUP2 PUSH2 0xE5F ADD MSTORE DUP2 DUP2 PUSH2 0xF8C ADD MSTORE DUP2 DUP2 PUSH2 0x1041 ADD MSTORE DUP2 DUP2 PUSH2 0x12AD ADD MSTORE DUP2 DUP2 PUSH2 0x1552 ADD MSTORE DUP2 DUP2 PUSH2 0x172D ADD MSTORE DUP2 DUP2 PUSH2 0x1802 ADD MSTORE DUP2 DUP2 PUSH2 0x1A0B ADD MSTORE DUP2 DUP2 PUSH2 0x1E67 ADD MSTORE DUP2 DUP2 PUSH2 0x21FC ADD MSTORE DUP2 DUP2 PUSH2 0x25E8 ADD MSTORE DUP2 DUP2 PUSH2 0x28D7 ADD MSTORE DUP2 DUP2 PUSH2 0x295A ADD MSTORE DUP2 DUP2 PUSH2 0x3171 ADD MSTORE DUP2 DUP2 PUSH2 0x3A5F ADD MSTORE DUP2 DUP2 PUSH2 0x3C31 ADD MSTORE PUSH2 0x3D10 ADD MSTORE PUSH2 0x4755 PUSH1 0x0 RETURN INVALID PUSH1 0x80 PUSH1 0x40 MSTORE CALLVALUE DUP1 ISZERO PUSH2 0x10 JUMPI PUSH1 0x0 DUP1 REVERT JUMPDEST POP PUSH1 0x4 CALLDATASIZE LT PUSH2 0x3DA JUMPI PUSH1 0x0 CALLDATALOAD PUSH1 0xE0 SHR DUP1 PUSH4 0x85C6CCCA GT PUSH2 0x20A JUMPI DUP1 PUSH4 0xBE8363CD GT PUSH2 0x125 JUMPI DUP1 PUSH4 0xE1F1C4A7 GT PUSH2 0xB8 JUMPI DUP1 PUSH4 0xED6B780D GT PUSH2 0x87 JUMPI DUP1 PUSH4 0xED6B780D EQ PUSH2 0x9B0 JUMPI DUP1 PUSH4 0xF2FDE38B EQ PUSH2 0x9B8 JUMPI DUP1 PUSH4 0xF6ED2017 EQ PUSH2 0x9CB JUMPI DUP1 PUSH4 0xF868E766 EQ PUSH2 0x9DE JUMPI DUP1 PUSH4 0xFE86E057 EQ PUSH2 0x9F1 JUMPI PUSH1 0x0 DUP1 REVERT JUMPDEST DUP1 PUSH4 0xE1F1C4A7 EQ PUSH2 0x972 JUMPI DUP1 PUSH4 0xE40824F8 EQ PUSH2 0x97B JUMPI DUP1 PUSH4 0xE9EE2FA9 EQ PUSH2 0x99E JUMPI DUP1 PUSH4 0xEC1371F2 EQ PUSH2 0x9A7 JUMPI PUSH1 0x0 DUP1 REVERT JUMPDEST DUP1 PUSH4 0xDAFAD631 GT PUSH2 0xF4 JUMPI DUP1 PUSH4 0xDAFAD631 EQ PUSH2 0x906 JUMPI DUP1 PUSH4 0xDD62ED3E EQ PUSH2 0x926 JUMPI DUP1 PUSH4 0xDE63F432 EQ PUSH2 0x95F JUMPI DUP1 PUSH4 0xE1AC18E0 EQ PUSH2 0x972 JUMPI PUSH1 0x0 DUP1 REVERT JUMPDEST DUP1 PUSH4 0xBE8363CD EQ PUSH2 0x8E2 JUMPI DUP1 PUSH4 0xC6384071 EQ PUSH2 0x8EC JUMPI DUP1 PUSH4 0xD133A00E EQ PUSH2 0x8F5 JUMPI DUP1 PUSH4 0xD74E7A3A EQ PUSH2 0x8FE JUMPI PUSH1 0x0 DUP1 REVERT JUMPDEST DUP1 PUSH4 0x949813B8 GT PUSH2 0x19D JUMPI DUP1 PUSH4 0xA9059CBB GT PUSH2 0x16C JUMPI DUP1 PUSH4 0xA9059CBB EQ PUSH2 0x85C JUMPI DUP1 PUSH4 0xA9C0310D EQ PUSH2 0x86F JUMPI DUP1 PUSH4 0xBAF98372 EQ PUSH2 0x89F JUMPI DUP1 PUSH4 0xBDD3E805 EQ PUSH2 0x8BF JUMPI PUSH1 0x0 DUP1 REVERT JUMPDEST DUP1 PUSH4 0x949813B8 EQ PUSH2 0x801 JUMPI DUP1 PUSH4 0x95D89B41 EQ PUSH2 0x821 JUMPI DUP1 PUSH4 0x9E447FC6 EQ PUSH2 0x829 JUMPI DUP1 PUSH4 0xA7926ADA EQ PUSH2 0x83C JUMPI PUSH1 0x0 DUP1 REVERT JUMPDEST DUP1 PUSH4 0x8D824273 GT PUSH2 0x1D9 JUMPI DUP1 PUSH4 0x8D824273 EQ PUSH2 0x776 JUMPI DUP1 PUSH4 0x8DA5CB5B EQ PUSH2 0x789 JUMPI DUP1 PUSH4 0x8EA15BE6 EQ PUSH2 0x79A JUMPI DUP1 PUSH4 0x92E2C6D2 EQ PUSH2 0x7F9 JUMPI PUSH1 0x0 DUP1 REVERT JUMPDEST DUP1 PUSH4 0x85C6CCCA EQ PUSH2 0x6F1 JUMPI DUP1 PUSH4 0x879D9090 EQ PUSH2 0x704 JUMPI DUP1 PUSH4 0x8ABA3382 EQ PUSH2 0x70D JUMPI DUP1 PUSH4 0x8AD4BBA2 EQ PUSH2 0x74F JUMPI PUSH1 0x0 DUP1 REVERT JUMPDEST DUP1 PUSH4 0x3B9056BF GT PUSH2 0x2FA JUMPI DUP1 PUSH4 0x6A61CF61 GT PUSH2 0x28D JUMPI DUP1 PUSH4 0x79FCFEF1 GT PUSH2 0x25C JUMPI DUP1 PUSH4 0x79FCFEF1 EQ PUSH2 0x6B1 JUMPI DUP1 PUSH4 0x7B0A47EE EQ PUSH2 0x6BA JUMPI DUP1 PUSH4 0x7F0EDF33 EQ PUSH2 0x6C3 JUMPI DUP1 PUSH4 0x8494FF35 EQ PUSH2 0x6CC JUMPI PUSH1 0x0 DUP1 REVERT JUMPDEST DUP1 PUSH4 0x6A61CF61 EQ PUSH2 0x63D JUMPI DUP1 PUSH4 0x70A08231 EQ PUSH2 0x660 JUMPI DUP1 PUSH4 0x715018A6 EQ PUSH2 0x689 JUMPI DUP1 PUSH4 0x76B467B7 EQ PUSH2 0x691 JUMPI PUSH1 0x0 DUP1 REVERT JUMPDEST DUP1 PUSH4 0x4CFEA68A GT PUSH2 0x2C9 JUMPI DUP1 PUSH4 0x4CFEA68A EQ PUSH2 0x59A JUMPI DUP1 PUSH4 0x558A2DCC EQ PUSH2 0x5A3 JUMPI DUP1 PUSH4 0x56781388 EQ PUSH2 0x617 JUMPI DUP1 PUSH4 0x5D95750E EQ PUSH2 0x62A JUMPI PUSH1 0x0 DUP1 REVERT JUMPDEST DUP1 PUSH4 0x3B9056BF EQ PUSH2 0x55C JUMPI DUP1 PUSH4 0x3D6AA5E1 EQ PUSH2 0x56F JUMPI DUP1 PUSH4 0x43C79AD0 EQ PUSH2 0x57E JUMPI DUP1 PUSH4 0x470B7622 EQ PUSH2 0x587 JUMPI PUSH1 0x0 DUP1 REVERT JUMPDEST DUP1 PUSH4 0x23B872DD GT PUSH2 0x372 JUMPI DUP1 PUSH4 0x353B6C2C GT PUSH2 0x341 JUMPI DUP1 PUSH4 0x353B6C2C EQ PUSH2 0x524 JUMPI DUP1 PUSH4 0x372500AB EQ PUSH2 0x537 JUMPI DUP1 PUSH4 0x385DC3DF EQ PUSH2 0x53F JUMPI DUP1 PUSH4 0x39D2A199 EQ PUSH2 0x549 JUMPI PUSH1 0x0 DUP1 REVERT JUMPDEST DUP1 PUSH4 0x23B872DD EQ PUSH2 0x4C2 JUMPI DUP1 PUSH4 0x27BE553B EQ PUSH2 0x4D5 JUMPI DUP1 PUSH4 0x313CE567 EQ PUSH2 0x50A JUMPI DUP1 PUSH4 0x33F707D1 EQ PUSH2 0x511 JUMPI PUSH1 0x0 DUP1 REVERT JUMPDEST DUP1 PUSH4 0x95EA7B3 GT PUSH2 0x3AE JUMPI DUP1 PUSH4 0x95EA7B3 EQ PUSH2 0x445 JUMPI DUP1 PUSH4 0x10D41083 EQ PUSH2 0x468 JUMPI DUP1 PUSH4 0x141833DC EQ PUSH2 0x4A7 JUMPI DUP1 PUSH4 0x18160DDD EQ PUSH2 0x4BA JUMPI PUSH1 0x0 DUP1 REVERT JUMPDEST DUP1 PUSH3 0x62804E EQ PUSH2 0x3DF JUMPI DUP1 PUSH4 0x549F067 EQ PUSH2 0x3F4 JUMPI DUP1 PUSH4 0x57E1680 EQ PUSH2 0x410 JUMPI DUP1 PUSH4 0x6FDDE03 EQ PUSH2 0x430 JUMPI JUMPDEST PUSH1 0x0 DUP1 REVERT JUMPDEST PUSH2 0x3F2 PUSH2 0x3ED CALLDATASIZE PUSH1 0x4 PUSH2 0x40F0 JUMP JUMPDEST PUSH2 0xA04 JUMP JUMPDEST STOP JUMPDEST PUSH2 0x3FD PUSH2 0x1F4 DUP2 JUMP JUMPDEST PUSH1 0x40 MLOAD SWAP1 DUP2 MSTORE PUSH1 0x20 ADD JUMPDEST PUSH1 0x40 MLOAD DUP1 SWAP2 SUB SWAP1 RETURN JUMPDEST PUSH2 0x3FD PUSH2 0x41E CALLDATASIZE PUSH1 0x4 PUSH2 0x40F0 JUMP JUMPDEST PUSH1 0x14 PUSH1 0x20 MSTORE PUSH1 0x0 SWAP1 DUP2 MSTORE PUSH1 0x40 SWAP1 KECCAK256 SLOAD DUP2 JUMP JUMPDEST PUSH2 0x438 PUSH2 0x115D JUMP JUMPDEST PUSH1 0x40 MLOAD PUSH2 0x407 SWAP2 SWAP1 PUSH2 0x414F JUMP JUMPDEST PUSH2 0x458 PUSH2 0x453 CALLDATASIZE PUSH1 0x4 PUSH2 0x417E JUMP JUMPDEST PUSH2 0x11EF JUMP JUMPDEST PUSH1 0x40 MLOAD SWAP1 ISZERO ISZERO DUP2 MSTORE PUSH1 0x20 ADD PUSH2 0x407 JUMP JUMPDEST PUSH2 0x48F PUSH32 0x0 DUP2 JUMP JUMPDEST PUSH1 0x40 MLOAD PUSH1 0x1 PUSH1 0x1 PUSH1 0xA0 SHL SUB SWAP1 SWAP2 AND DUP2 MSTORE PUSH1 0x20 ADD PUSH2 0x407 JUMP JUMPDEST PUSH2 0x3F2 PUSH2 0x4B5 CALLDATASIZE PUSH1 0x4 PUSH2 0x40F0 JUMP JUMPDEST PUSH2 0x1209 JUMP JUMPDEST PUSH1 0x2 SLOAD PUSH2 0x3FD JUMP JUMPDEST PUSH2 0x458 PUSH2 0x4D0 CALLDATASIZE PUSH1 0x4 PUSH2 0x41A8 JUMP JUMPDEST PUSH2 0x13B4 JUMP JUMPDEST PUSH2 0x4F8 PUSH2 0x4E3 CALLDATASIZE PUSH1 0x4 PUSH2 0x40F0 JUMP JUMPDEST PUSH1 0x1A PUSH1 0x20 MSTORE PUSH1 0x0 SWAP1 DUP2 MSTORE PUSH1 0x40 SWAP1 KECCAK256 SLOAD PUSH1 0xFF AND DUP2 JUMP JUMPDEST PUSH1 0x40 MLOAD PUSH1 0xFF SWAP1 SWAP2 AND DUP2 MSTORE PUSH1 0x20 ADD PUSH2 0x407 JUMP JUMPDEST PUSH1 0x12 PUSH2 0x4F8 JUMP JUMPDEST PUSH2 0x3F2 PUSH2 0x51F CALLDATASIZE PUSH1 0x4 PUSH2 0x40F0 JUMP JUMPDEST PUSH2 0x13DA JUMP JUMPDEST PUSH2 0x3F2 PUSH2 0x532 CALLDATASIZE PUSH1 0x4 PUSH2 0x40F0 JUMP JUMPDEST PUSH2 0x161E JUMP JUMPDEST PUSH2 0x3F2 PUSH2 0x1681 JUMP JUMPDEST PUSH2 0x3FD PUSH3 0x93A80 DUP2 JUMP JUMPDEST PUSH2 0x3FD PUSH2 0x557 CALLDATASIZE PUSH1 0x4 PUSH2 0x40F0 JUMP JUMPDEST PUSH2 0x17EA JUMP JUMPDEST PUSH2 0x3F2 PUSH2 0x56A CALLDATASIZE PUSH1 0x4 PUSH2 0x40F0 JUMP JUMPDEST PUSH2 0x1875 JUMP JUMPDEST PUSH2 0x3FD PUSH8 0xDE0B6B3A7640000 DUP2 JUMP JUMPDEST PUSH2 0x3FD PUSH1 0xC SLOAD DUP2 JUMP JUMPDEST PUSH2 0x3F2 PUSH2 0x595 CALLDATASIZE PUSH1 0x4 PUSH2 0x420B JUMP JUMPDEST PUSH2 0x1ABF JUMP JUMPDEST PUSH2 0x3FD PUSH1 0x1B SLOAD DUP2 JUMP JUMPDEST PUSH2 0x602 PUSH2 0x5B1 CALLDATASIZE PUSH1 0x4 PUSH2 0x42D6 JUMP JUMPDEST PUSH1 0x0 SWAP2 DUP3 MSTORE PUSH1 0x12 PUSH1 0x20 SWAP1 DUP2 MSTORE PUSH1 0x40 DUP1 DUP5 KECCAK256 PUSH1 0x1 PUSH1 0x1 PUSH1 0xA0 SHL SUB SWAP4 SWAP1 SWAP4 AND DUP5 MSTORE SWAP2 DUP2 MSTORE SWAP2 DUP2 SWAP1 KECCAK256 DUP2 MLOAD DUP1 DUP4 ADD SWAP1 SWAP3 MSTORE SLOAD PUSH1 0x1 PUSH1 0x1 PUSH1 0x80 SHL SUB DUP1 DUP3 AND DUP1 DUP5 MSTORE PUSH1 0x1 PUSH1 0x80 SHL SWAP1 SWAP3 DIV AND SWAP2 SWAP1 SWAP3 ADD DUP2 SWAP1 MSTORE SWAP1 SWAP2 JUMP JUMPDEST PUSH1 0x40 DUP1 MLOAD SWAP3 DUP4 MSTORE PUSH1 0x20 DUP4 ADD SWAP2 SWAP1 SWAP2 MSTORE ADD PUSH2 0x407 JUMP JUMPDEST PUSH2 0x3F2 PUSH2 0x625 CALLDATASIZE PUSH1 0x4 PUSH2 0x4302 JUMP JUMPDEST PUSH2 0x1AE1 JUMP JUMPDEST PUSH2 0x3F2 PUSH2 0x638 CALLDATASIZE PUSH1 0x4 PUSH2 0x4325 JUMP JUMPDEST PUSH2 0x1B11 JUMP JUMPDEST PUSH2 0x458 PUSH2 0x64B CALLDATASIZE PUSH1 0x4 PUSH2 0x40F0 JUMP JUMPDEST PUSH1 0x18 PUSH1 0x20 MSTORE PUSH1 0x0 SWAP1 DUP2 MSTORE PUSH1 0x40 SWAP1 KECCAK256 SLOAD PUSH1 0xFF AND DUP2 JUMP JUMPDEST PUSH2 0x3FD PUSH2 0x66E CALLDATASIZE PUSH1 0x4 PUSH2 0x434A JUMP JUMPDEST PUSH1 0x1 PUSH1 0x1 PUSH1 0xA0 SHL SUB AND PUSH1 0x0 SWAP1 DUP2 MSTORE PUSH1 0x20 DUP2 SWAP1 MSTORE PUSH1 0x40 SWAP1 KECCAK256 SLOAD SWAP1 JUMP JUMPDEST PUSH2 0x3F2 PUSH2 0x1F2D JUMP JUMPDEST PUSH2 0x3FD PUSH2 0x69F CALLDATASIZE PUSH1 0x4 PUSH2 0x434A JUMP JUMPDEST PUSH1 0x15 PUSH1 0x20 MSTORE PUSH1 0x0 SWAP1 DUP2 MSTORE PUSH1 0x40 SWAP1 KECCAK256 SLOAD DUP2 JUMP JUMPDEST PUSH2 0x3FD PUSH1 0xB SLOAD DUP2 JUMP JUMPDEST PUSH2 0x3FD PUSH1 0x8 SLOAD DUP2 JUMP JUMPDEST PUSH2 0x3FD PUSH1 0x16 SLOAD DUP2 JUMP JUMPDEST PUSH2 0x6DF PUSH2 0x6DA CALLDATASIZE PUSH1 0x4 PUSH2 0x40F0 JUMP JUMPDEST PUSH2 0x1F3F JUMP JUMPDEST PUSH1 0x40 MLOAD PUSH2 0x407 SWAP7 SWAP6 SWAP5 SWAP4 SWAP3 SWAP2 SWAP1 PUSH2 0x4365 JUMP JUMPDEST PUSH2 0x3F2 PUSH2 0x6FF CALLDATASIZE PUSH1 0x4 PUSH2 0x40F0 JUMP JUMPDEST PUSH2 0x2004 JUMP JUMPDEST PUSH2 0x3FD PUSH1 0x7 SLOAD DUP2 JUMP JUMPDEST PUSH1 0x1F SLOAD PUSH1 0x20 SLOAD PUSH1 0x21 SLOAD PUSH1 0x22 SLOAD PUSH1 0x23 SLOAD PUSH2 0x727 SWAP5 SWAP4 SWAP3 SWAP2 SWAP1 DUP6 JUMP JUMPDEST PUSH1 0x40 DUP1 MLOAD SWAP6 DUP7 MSTORE PUSH1 0x20 DUP7 ADD SWAP5 SWAP1 SWAP5 MSTORE SWAP3 DUP5 ADD SWAP2 SWAP1 SWAP2 MSTORE PUSH1 0x60 DUP4 ADD MSTORE PUSH1 0x80 DUP3 ADD MSTORE PUSH1 0xA0 ADD PUSH2 0x407 JUMP JUMPDEST PUSH2 0x48F PUSH32 0x0 DUP2 JUMP JUMPDEST PUSH2 0x6DF PUSH2 0x784 CALLDATASIZE PUSH1 0x4 PUSH2 0x40F0 JUMP JUMPDEST PUSH2 0x22AF JUMP JUMPDEST PUSH1 0x6 SLOAD PUSH1 0x1 PUSH1 0x1 PUSH1 0xA0 SHL SUB AND PUSH2 0x48F JUMP JUMPDEST PUSH2 0x7D9 PUSH2 0x7A8 CALLDATASIZE PUSH1 0x4 PUSH2 0x42D6 JUMP JUMPDEST PUSH1 0x12 PUSH1 0x20 SWAP1 DUP2 MSTORE PUSH1 0x0 SWAP3 DUP4 MSTORE PUSH1 0x40 DUP1 DUP5 KECCAK256 SWAP1 SWAP2 MSTORE SWAP1 DUP3 MSTORE SWAP1 KECCAK256 SLOAD PUSH1 0x1 PUSH1 0x1 PUSH1 0x80 SHL SUB DUP1 DUP3 AND SWAP2 PUSH1 0x1 PUSH1 0x80 SHL SWAP1 DIV AND DUP3 JUMP JUMPDEST PUSH1 0x40 DUP1 MLOAD PUSH1 0x1 PUSH1 0x1 PUSH1 0x80 SHL SUB SWAP4 DUP5 AND DUP2 MSTORE SWAP3 SWAP1 SWAP2 AND PUSH1 0x20 DUP4 ADD MSTORE ADD PUSH2 0x407 JUMP JUMPDEST PUSH1 0x1E SLOAD PUSH2 0x3FD JUMP JUMPDEST PUSH2 0x3FD PUSH2 0x80F CALLDATASIZE PUSH1 0x4 PUSH2 0x434A JUMP JUMPDEST PUSH1 0xF PUSH1 0x20 MSTORE PUSH1 0x0 SWAP1 DUP2 MSTORE PUSH1 0x40 SWAP1 KECCAK256 SLOAD DUP2 JUMP JUMPDEST PUSH2 0x438 PUSH2 0x23E3 JUMP JUMPDEST PUSH2 0x3F2 PUSH2 0x837 CALLDATASIZE PUSH1 0x4 PUSH2 0x40F0 JUMP JUMPDEST PUSH2 0x23F2 JUMP JUMPDEST PUSH2 0x3FD PUSH2 0x84A CALLDATASIZE PUSH1 0x4 PUSH2 0x434A JUMP JUMPDEST PUSH1 0xE PUSH1 0x20 MSTORE PUSH1 0x0 SWAP1 DUP2 MSTORE PUSH1 0x40 SWAP1 KECCAK256 SLOAD DUP2 JUMP JUMPDEST PUSH2 0x458 PUSH2 0x86A CALLDATASIZE PUSH1 0x4 PUSH2 0x417E JUMP JUMPDEST PUSH2 0x250D JUMP JUMPDEST PUSH2 0x892 PUSH2 0x87D CALLDATASIZE PUSH1 0x4 PUSH2 0x40F0 JUMP JUMPDEST PUSH1 0x10 PUSH1 0x20 MSTORE PUSH1 0x0 SWAP1 DUP2 MSTORE PUSH1 0x40 SWAP1 KECCAK256 SLOAD PUSH1 0xFF AND DUP2 JUMP JUMPDEST PUSH1 0x40 MLOAD PUSH2 0x407 SWAP2 SWAP1 PUSH2 0x43BB JUMP JUMPDEST PUSH2 0x3FD PUSH2 0x8AD CALLDATASIZE PUSH1 0x4 PUSH2 0x40F0 JUMP JUMPDEST PUSH1 0x13 PUSH1 0x20 MSTORE PUSH1 0x0 SWAP1 DUP2 MSTORE PUSH1 0x40 SWAP1 KECCAK256 SLOAD DUP2 JUMP JUMPDEST PUSH2 0x458 PUSH2 0x8CD CALLDATASIZE PUSH1 0x4 PUSH2 0x40F0 JUMP JUMPDEST PUSH1 0x19 PUSH1 0x20 MSTORE PUSH1 0x0 SWAP1 DUP2 MSTORE PUSH1 0x40 SWAP1 KECCAK256 SLOAD PUSH1 0xFF AND DUP2 JUMP JUMPDEST PUSH2 0x3FD PUSH3 0x278D00 DUP2 JUMP JUMPDEST PUSH2 0x3FD PUSH1 0x1E SLOAD DUP2 JUMP JUMPDEST PUSH2 0x3FD PUSH1 0xA SLOAD DUP2 JUMP JUMPDEST PUSH2 0x3FD PUSH2 0x251B JUMP JUMPDEST PUSH2 0x3FD PUSH2 0x914 CALLDATASIZE PUSH1 0x4 PUSH2 0x40F0 JUMP JUMPDEST PUSH1 0x11 PUSH1 0x20 MSTORE PUSH1 0x0 SWAP1 DUP2 MSTORE PUSH1 0x40 SWAP1 KECCAK256 SLOAD DUP2 JUMP JUMPDEST PUSH2 0x3FD PUSH2 0x934 CALLDATASIZE PUSH1 0x4 PUSH2 0x43D5 JUMP JUMPDEST PUSH1 0x1 PUSH1 0x1 PUSH1 0xA0 SHL SUB SWAP2 DUP3 AND PUSH1 0x0 SWAP1 DUP2 MSTORE PUSH1 0x1 PUSH1 0x20 SWAP1 DUP2 MSTORE PUSH1 0x40 DUP1 DUP4 KECCAK256 SWAP4 SWAP1 SWAP5 AND DUP3 MSTORE SWAP2 SWAP1 SWAP2 MSTORE KECCAK256 SLOAD SWAP1 JUMP JUMPDEST PUSH2 0x6DF PUSH2 0x96D CALLDATASIZE PUSH1 0x4 PUSH2 0x40F0 JUMP JUMPDEST PUSH2 0x258E JUMP JUMPDEST PUSH2 0x3FD PUSH2 0x2710 DUP2 JUMP JUMPDEST PUSH2 0x458 PUSH2 0x989 CALLDATASIZE PUSH1 0x4 PUSH2 0x40F0 JUMP JUMPDEST PUSH1 0x17 PUSH1 0x20 MSTORE PUSH1 0x0 SWAP1 DUP2 MSTORE PUSH1 0x40 SWAP1 KECCAK256 SLOAD PUSH1 0xFF AND DUP2 JUMP JUMPDEST PUSH2 0x3FD PUSH1 0x9 SLOAD DUP2 JUMP JUMPDEST PUSH2 0x3FD PUSH1 0xD SLOAD DUP2 JUMP JUMPDEST PUSH2 0x3FD PUSH2 0x25D0 JUMP JUMPDEST PUSH2 0x3F2 PUSH2 0x9C6 CALLDATASIZE PUSH1 0x4 PUSH2 0x434A JUMP JUMPDEST PUSH2 0x2660 JUMP JUMPDEST PUSH2 0x3FD PUSH2 0x9D9 CALLDATASIZE PUSH1 0x4 PUSH2 0x434A JUMP JUMPDEST PUSH2 0x269B JUMP JUMPDEST PUSH2 0x3F2 PUSH2 0x9EC CALLDATASIZE PUSH1 0x4 PUSH2 0x40F0 JUMP JUMPDEST PUSH2 0x273C JUMP JUMPDEST PUSH2 0x6DF PUSH2 0x9FF CALLDATASIZE PUSH1 0x4 PUSH2 0x40F0 JUMP JUMPDEST PUSH2 0x29FE JUMP JUMPDEST PUSH2 0xA0C PUSH2 0x2ABA JUMP JUMPDEST PUSH1 0x0 DUP2 DUP2 MSTORE PUSH1 0x10 PUSH1 0x20 MSTORE PUSH1 0x40 DUP2 KECCAK256 SLOAD PUSH1 0xFF AND PUSH1 0x2 DUP2 GT ISZERO PUSH2 0xA2F JUMPI PUSH2 0xA2F PUSH2 0x43A5 JUMP JUMPDEST EQ PUSH2 0xA7D JUMPI PUSH1 0x40 MLOAD PUSH3 0x461BCD PUSH1 0xE5 SHL DUP2 MSTORE PUSH1 0x20 PUSH1 0x4 DUP3 ADD MSTORE PUSH1 0x19 PUSH1 0x24 DUP3 ADD MSTORE PUSH25 0x141C9BDC1BDCD85B08185B1C9958591E481C995CDBDB1D9959 PUSH1 0x3A SHL PUSH1 0x44 DUP3 ADD MSTORE PUSH1 0x64 ADD JUMPDEST PUSH1 0x40 MLOAD DUP1 SWAP2 SUB SWAP1 REVERT JUMPDEST PUSH1 0x0 DUP2 DUP2 MSTORE PUSH1 0x11 PUSH1 0x20 MSTORE PUSH1 0x40 SWAP1 KECCAK256 SLOAD PUSH2 0xAD8 JUMPI PUSH1 0x40 MLOAD PUSH3 0x461BCD PUSH1 0xE5 SHL DUP2 MSTORE PUSH1 0x20 PUSH1 0x4 DUP3 ADD MSTORE PUSH1 0x17 PUSH1 0x24 DUP3 ADD MSTORE PUSH32 0x50726F706F73616C20646F6573206E6F74206578697374000000000000000000 PUSH1 0x44 DUP3 ADD MSTORE PUSH1 0x64 ADD PUSH2 0xA74 JUMP JUMPDEST PUSH1 0x40 MLOAD PUSH4 0x1F27A4F3 PUSH1 0xE1 SHL DUP2 MSTORE PUSH1 0x4 DUP2 ADD DUP3 SWAP1 MSTORE PUSH32 0x0 PUSH1 0x1 PUSH1 0x1 PUSH1 0xA0 SHL SUB AND SWAP1 PUSH4 0x3E4F49E6 SWAP1 PUSH1 0x24 ADD PUSH1 0x20 PUSH1 0x40 MLOAD DUP1 DUP4 SUB DUP2 DUP7 GAS STATICCALL SWAP3 POP POP POP DUP1 ISZERO PUSH2 0xB59 JUMPI POP PUSH1 0x40 DUP1 MLOAD PUSH1 0x1F RETURNDATASIZE SWAP1 DUP2 ADD PUSH1 0x1F NOT AND DUP3 ADD SWAP1 SWAP3 MSTORE PUSH2 0xB56 SWAP2 DUP2 ADD SWAP1 PUSH2 0x43FF JUMP JUMPDEST PUSH1 0x1 JUMPDEST PUSH2 0xB9B JUMPI PUSH1 0x40 MLOAD PUSH3 0x461BCD PUSH1 0xE5 SHL DUP2 MSTORE PUSH1 0x20 PUSH1 0x4 DUP3 ADD MSTORE PUSH1 0x13 PUSH1 0x24 DUP3 ADD MSTORE PUSH19 0x125B9D985B1A59081C1C9BDC1BDCD85B081251 PUSH1 0x6A SHL PUSH1 0x44 DUP3 ADD MSTORE PUSH1 0x64 ADD PUSH2 0xA74 JUMP JUMPDEST PUSH1 0x4 DUP2 PUSH1 0x7 DUP2 GT ISZERO PUSH2 0xBAF JUMPI PUSH2 0xBAF PUSH2 0x43A5 JUMP JUMPDEST EQ DUP1 PUSH2 0xBCC JUMPI POP PUSH1 0x3 DUP2 PUSH1 0x7 DUP2 GT ISZERO PUSH2 0xBCA JUMPI PUSH2 0xBCA PUSH2 0x43A5 JUMP JUMPDEST EQ JUMPDEST DUP1 PUSH2 0xBE8 JUMPI POP PUSH1 0x6 DUP2 PUSH1 0x7 DUP2 GT ISZERO PUSH2 0xBE6 JUMPI PUSH2 0xBE6 PUSH2 0x43A5 JUMP JUMPDEST EQ JUMPDEST DUP1 PUSH2 0xC04 JUMPI POP PUSH1 0x2 DUP2 PUSH1 0x7 DUP2 GT ISZERO PUSH2 0xC02 JUMPI PUSH2 0xC02 PUSH2 0x43A5 JUMP JUMPDEST EQ JUMPDEST DUP1 PUSH2 0xC20 JUMPI POP PUSH1 0x7 DUP2 PUSH1 0x7 DUP2 GT ISZERO PUSH2 0xC1E JUMPI PUSH2 0xC1E PUSH2 0x43A5 JUMP JUMPDEST EQ JUMPDEST PUSH2 0xC6C JUMPI PUSH1 0x40 MLOAD PUSH3 0x461BCD PUSH1 0xE5 SHL DUP2 MSTORE PUSH1 0x20 PUSH1 0x4 DUP3 ADD MSTORE PUSH1 0x19 PUSH1 0x24 DUP3 ADD MSTORE PUSH32 0x50726F706F73616C206E6F7420796574207265736F6C76656400000000000000 PUSH1 0x44 DUP3 ADD MSTORE PUSH1 0x64 ADD PUSH2 0xA74 JUMP JUMPDEST PUSH1 0x0 PUSH1 0x4 DUP3 PUSH1 0x7 DUP2 GT ISZERO PUSH2 0xC82 JUMPI PUSH2 0xC82 PUSH2 0x43A5 JUMP JUMPDEST EQ DUP1 PUSH2 0xC9F JUMPI POP PUSH1 0x7 DUP3 PUSH1 0x7 DUP2 GT ISZERO PUSH2 0xC9D JUMPI PUSH2 0xC9D PUSH2 0x43A5 JUMP JUMPDEST EQ JUMPDEST ISZERO PUSH2 0xCAC JUMPI POP PUSH1 0x1 PUSH2 0xCB0 JUMP JUMPDEST POP PUSH1 0x0 JUMPDEST DUP1 PUSH1 0xFF AND PUSH1 0x1 EQ PUSH2 0xCC2 JUMPI PUSH1 0x1 PUSH2 0xCC5 JUMP JUMPDEST PUSH1 0x2 JUMPDEST PUSH1 0x0 DUP5 DUP2 MSTORE PUSH1 0x10 PUSH1 0x20 MSTORE PUSH1 0x40 SWAP1 KECCAK256 DUP1 SLOAD PUSH1 0xFF NOT AND PUSH1 0x1 DUP4 PUSH1 0x2 DUP2 GT ISZERO PUSH2 0xCED JUMPI PUSH2 0xCED PUSH2 0x43A5 JUMP JUMPDEST MUL OR SWAP1 SSTORE POP PUSH1 0x0 DUP4 DUP2 MSTORE PUSH1 0x19 PUSH1 0x20 MSTORE PUSH1 0x40 DUP2 KECCAK256 SLOAD PUSH1 0xFF AND DUP1 ISZERO PUSH2 0xD23 JUMPI POP PUSH1 0x0 DUP5 DUP2 MSTORE PUSH1 0x1A PUSH1 0x20 MSTORE PUSH1 0x40 SWAP1 KECCAK256 SLOAD PUSH1 0xFF DUP4 DUP2 AND SWAP2 AND EQ JUMPDEST SWAP1 POP DUP1 ISZERO PUSH2 0xF51 JUMPI DUP2 PUSH1 0xFF AND PUSH1 0x1 SUB PUSH2 0xE49 JUMPI PUSH1 0x0 DUP5 DUP2 MSTORE PUSH1 0x13 PUSH1 0x20 MSTORE PUSH1 0x40 SWAP1 KECCAK256 SLOAD ISZERO PUSH2 0xE44 JUMPI PUSH32 0x0 PUSH1 0x1 PUSH1 0x1 PUSH1 0xA0 SHL SUB AND PUSH4 0xA9059CBB PUSH2 0xD8B PUSH1 0x6 SLOAD PUSH1 0x1 PUSH1 0x1 PUSH1 0xA0 SHL SUB AND SWAP1 JUMP JUMPDEST PUSH1 0x0 DUP8 DUP2 MSTORE PUSH1 0x13 PUSH1 0x20 MSTORE PUSH1 0x40 SWAP1 DUP2 SWAP1 KECCAK256 SLOAD SWAP1 MLOAD PUSH1 0x1 PUSH1 0x1 PUSH1 0xE0 SHL SUB NOT PUSH1 0xE0 DUP6 SWAP1 SHL AND DUP2 MSTORE PUSH2 0xDBD SWAP3 SWAP2 SWAP1 PUSH1 0x4 ADD PUSH2 0x4420 JUMP JUMPDEST PUSH1 0x20 PUSH1 0x40 MLOAD DUP1 DUP4 SUB DUP2 PUSH1 0x0 DUP8 GAS CALL ISZERO DUP1 ISZERO PUSH2 0xDDC JUMPI RETURNDATASIZE PUSH1 0x0 DUP1 RETURNDATACOPY RETURNDATASIZE PUSH1 0x0 REVERT JUMPDEST POP POP POP POP PUSH1 0x40 MLOAD RETURNDATASIZE PUSH1 0x1F NOT PUSH1 0x1F DUP3 ADD AND DUP3 ADD DUP1 PUSH1 0x40 MSTORE POP DUP2 ADD SWAP1 PUSH2 0xE00 SWAP2 SWAP1 PUSH2 0x4439 JUMP JUMPDEST POP PUSH1 0x1 PUSH1 0x1F PUSH1 0x0 ADD PUSH1 0x0 DUP3 DUP3 SLOAD PUSH2 0xE17 SWAP2 SWAP1 PUSH2 0x4471 JUMP JUMPDEST SWAP1 SWAP2 SSTORE POP POP PUSH1 0x0 DUP5 DUP2 MSTORE PUSH1 0x13 PUSH1 0x20 MSTORE PUSH1 0x40 DUP2 KECCAK256 SLOAD PUSH1 0x21 DUP1 SLOAD SWAP2 SWAP3 SWAP1 SWAP2 PUSH2 0xE3E SWAP1 DUP5 SWAP1 PUSH2 0x4471 JUMP JUMPDEST SWAP1 SWAP2 SSTORE POP POP JUMPDEST PUSH2 0x10BB JUMP JUMPDEST PUSH1 0x0 DUP5 DUP2 MSTORE PUSH1 0x14 PUSH1 0x20 MSTORE PUSH1 0x40 SWAP1 KECCAK256 SLOAD ISZERO PUSH2 0xE44 JUMPI PUSH32 0x0 PUSH1 0x1 PUSH1 0x1 PUSH1 0xA0 SHL SUB AND PUSH4 0xA9059CBB PUSH2 0xE9E PUSH1 0x6 SLOAD PUSH1 0x1 PUSH1 0x1 PUSH1 0xA0 SHL SUB AND SWAP1 JUMP JUMPDEST PUSH1 0x0 DUP8 DUP2 MSTORE PUSH1 0x14 PUSH1 0x20 MSTORE PUSH1 0x40 SWAP1 DUP2 SWAP1 KECCAK256 SLOAD SWAP1 MLOAD PUSH1 0x1 PUSH1 0x1 PUSH1 0xE0 SHL SUB NOT PUSH1 0xE0 DUP6 SWAP1 SHL AND DUP2 MSTORE PUSH2 0xED0 SWAP3 SWAP2 SWAP1 PUSH1 0x4 ADD PUSH2 0x4420 JUMP JUMPDEST PUSH1 0x20 PUSH1 0x40 MLOAD DUP1 DUP4 SUB DUP2 PUSH1 0x0 DUP8 GAS CALL ISZERO DUP1 ISZERO PUSH2 0xEEF JUMPI RETURNDATASIZE PUSH1 0x0 DUP1 RETURNDATACOPY RETURNDATASIZE PUSH1 0x0 REVERT JUMPDEST POP POP POP POP PUSH1 0x40 MLOAD RETURNDATASIZE PUSH1 0x1F NOT PUSH1 0x1F DUP3 ADD AND DUP3 ADD DUP1 PUSH1 0x40 MSTORE POP DUP2 ADD SWAP1 PUSH2 0xF13 SWAP2 SWAP1 PUSH2 0x4439 JUMP JUMPDEST POP PUSH1 0x1 PUSH1 0x1F PUSH1 0x0 ADD PUSH1 0x0 DUP3 DUP3 SLOAD PUSH2 0xF2A SWAP2 SWAP1 PUSH2 0x4471 JUMP JUMPDEST SWAP1 SWAP2 SSTORE POP POP PUSH1 0x0 DUP5 DUP2 MSTORE PUSH1 0x14 PUSH1 0x20 MSTORE PUSH1 0x40 DUP2 KECCAK256 SLOAD PUSH1 0x21 DUP1 SLOAD SWAP2 SWAP3 SWAP1 SWAP2 PUSH2 0xE3E SWAP1 DUP5 SWAP1 PUSH2 0x4471 JUMP JUMPDEST PUSH1 0x0 DUP5 DUP2 MSTORE PUSH1 0x13 PUSH1 0x20 MSTORE PUSH1 0x40 SWAP1 KECCAK256 SLOAD ISZERO PUSH2 0x1006 JUMPI PUSH1 0x0 DUP5 DUP2 MSTORE PUSH1 0x13 PUSH1 0x20 MSTORE PUSH1 0x40 SWAP1 DUP2 SWAP1 KECCAK256 SLOAD SWAP1 MLOAD PUSH4 0xA9059CBB PUSH1 0xE0 SHL DUP2 MSTORE PUSH1 0x1 PUSH1 0x1 PUSH1 0xA0 SHL SUB PUSH32 0x0 AND SWAP2 PUSH4 0xA9059CBB SWAP2 PUSH2 0xFC1 SWAP2 ADDRESS SWAP2 PUSH1 0x4 ADD PUSH2 0x4420 JUMP JUMPDEST PUSH1 0x20 PUSH1 0x40 MLOAD DUP1 DUP4 SUB DUP2 PUSH1 0x0 DUP8 GAS CALL ISZERO DUP1 ISZERO PUSH2 0xFE0 JUMPI RETURNDATASIZE PUSH1 0x0 DUP1 RETURNDATACOPY RETURNDATASIZE PUSH1 0x0 REVERT JUMPDEST POP POP POP POP PUSH1 0x40 MLOAD RETURNDATASIZE PUSH1 0x1F NOT PUSH1 0x1F DUP3 ADD AND DUP3 ADD DUP1 PUSH1 0x40 MSTORE POP DUP2 ADD SWAP1 PUSH2 0x1004 SWAP2 SWAP1 PUSH2 0x4439 JUMP JUMPDEST POP JUMPDEST PUSH1 0x0 DUP5 DUP2 MSTORE PUSH1 0x14 PUSH1 0x20 MSTORE PUSH1 0x40 SWAP1 KECCAK256 SLOAD ISZERO PUSH2 0x10BB JUMPI PUSH1 0x0 DUP5 DUP2 MSTORE PUSH1 0x14 PUSH1 0x20 MSTORE PUSH1 0x40 SWAP1 DUP2 SWAP1 KECCAK256 SLOAD SWAP1 MLOAD PUSH4 0xA9059CBB PUSH1 0xE0 SHL DUP2 MSTORE PUSH1 0x1 PUSH1 0x1 PUSH1 0xA0 SHL SUB PUSH32 0x0 AND SWAP2 PUSH4 0xA9059CBB SWAP2 PUSH2 0x1076 SWAP2 ADDRESS SWAP2 PUSH1 0x4 ADD PUSH2 0x4420 JUMP JUMPDEST PUSH1 0x20 PUSH1 0x40 MLOAD DUP1 DUP4 SUB DUP2 PUSH1 0x0 DUP8 GAS CALL ISZERO DUP1 ISZERO PUSH2 0x1095 JUMPI RETURNDATASIZE PUSH1 0x0 DUP1 RETURNDATACOPY RETURNDATASIZE PUSH1 0x0 REVERT JUMPDEST POP POP POP POP PUSH1 0x40 MLOAD RETURNDATASIZE PUSH1 0x1F NOT PUSH1 0x1F DUP3 ADD AND DUP3 ADD DUP1 PUSH1 0x40 MSTORE POP DUP2 ADD SWAP1 PUSH2 0x10B9 SWAP2 SWAP1 PUSH2 0x4439 JUMP JUMPDEST POP JUMPDEST PUSH1 0x1 PUSH1 0x1F PUSH1 0x1 ADD PUSH1 0x0 DUP3 DUP3 SLOAD PUSH2 0x10D1 SWAP2 SWAP1 PUSH2 0x4471 JUMP JUMPDEST SWAP1 SWAP2 SSTORE POP POP PUSH1 0x1F SLOAD PUSH1 0x20 DUP1 SLOAD PUSH1 0x21 SLOAD PUSH1 0x40 DUP1 MLOAD SWAP5 DUP6 MSTORE SWAP3 DUP5 ADD SWAP2 SWAP1 SWAP2 MSTORE DUP3 DUP3 ADD MSTORE MLOAD PUSH32 0x355935019D4BEA1E3D4292AE0D5BB626009619CEED2E19671B61AA405FC78893 SWAP2 DUP2 SWAP1 SUB PUSH1 0x60 ADD SWAP1 LOG1 PUSH1 0x40 MLOAD PUSH1 0xFF DUP4 AND SWAP1 DUP6 SWAP1 PUSH32 0x42AF0D2D7B5985C66A12ED8634EDD91F277C4254189C9DE953EFF76546526E20 SWAP1 PUSH1 0x0 SWAP1 LOG3 POP POP POP PUSH2 0x115A PUSH1 0x1 PUSH1 0x5 SSTORE JUMP JUMPDEST POP JUMP JUMPDEST PUSH1 0x60 PUSH1 0x3 DUP1 SLOAD PUSH2 0x116C SWAP1 PUSH2 0x4484 JUMP JUMPDEST DUP1 PUSH1 0x1F ADD PUSH1 0x20 DUP1 SWAP2 DIV MUL PUSH1 0x20 ADD PUSH1 0x40 MLOAD SWAP1 DUP2 ADD PUSH1 0x40 MSTORE DUP1 SWAP3 SWAP2 SWAP1 DUP2 DUP2 MSTORE PUSH1 0x20 ADD DUP3 DUP1 SLOAD PUSH2 0x1198 SWAP1 PUSH2 0x4484 JUMP JUMPDEST DUP1 ISZERO PUSH2 0x11E5 JUMPI DUP1 PUSH1 0x1F LT PUSH2 0x11BA JUMPI PUSH2 0x100 DUP1 DUP4 SLOAD DIV MUL DUP4 MSTORE SWAP2 PUSH1 0x20 ADD SWAP2 PUSH2 0x11E5 JUMP JUMPDEST DUP3 ADD SWAP2 SWAP1 PUSH1 0x0 MSTORE PUSH1 0x20 PUSH1 0x0 KECCAK256 SWAP1 JUMPDEST DUP2 SLOAD DUP2 MSTORE SWAP1 PUSH1 0x1 ADD SWAP1 PUSH1 0x20 ADD DUP1 DUP4 GT PUSH2 0x11C8 JUMPI DUP3 SWAP1 SUB PUSH1 0x1F AND DUP3 ADD SWAP2 JUMPDEST POP POP POP POP POP SWAP1 POP SWAP1 JUMP JUMPDEST PUSH1 0x0 CALLER PUSH2 0x11FD DUP2 DUP6 DUP6 PUSH2 0x2AE4 JUMP JUMPDEST PUSH1 0x1 SWAP2 POP POP JUMPDEST SWAP3 SWAP2 POP POP JUMP JUMPDEST PUSH2 0x1211 PUSH2 0x2ABA JUMP JUMPDEST PUSH1 0x6 SLOAD PUSH1 0x1 PUSH1 0x1 PUSH1 0xA0 SHL SUB AND CALLER EQ PUSH2 0x1264 JUMPI PUSH1 0x40 MLOAD PUSH3 0x461BCD PUSH1 0xE5 SHL DUP2 MSTORE PUSH1 0x20 PUSH1 0x4 DUP3 ADD MSTORE PUSH1 0x16 PUSH1 0x24 DUP3 ADD MSTORE PUSH22 0x13DB9B1E481BDDDB995C8818D85B8819195C1BDCDA5D PUSH1 0x52 SHL PUSH1 0x44 DUP3 ADD MSTORE PUSH1 0x64 ADD PUSH2 0xA74 JUMP JUMPDEST PUSH1 0x0 DUP2 GT PUSH2 0x1284 JUMPI PUSH1 0x40 MLOAD PUSH3 0x461BCD PUSH1 0xE5 SHL DUP2 MSTORE PUSH1 0x4 ADD PUSH2 0xA74 SWAP1 PUSH2 0x44BE JUMP JUMPDEST PUSH2 0x128C PUSH2 0x2AF1 JUMP JUMPDEST DUP1 PUSH1 0x7 PUSH1 0x0 DUP3 DUP3 SLOAD PUSH2 0x129E SWAP2 SWAP1 PUSH2 0x4471 JUMP JUMPDEST SWAP1 SWAP2 SSTORE POP POP PUSH1 0x1 PUSH1 0x1 PUSH1 0xA0 SHL SUB PUSH32 0x0 AND PUSH4 0x23B872DD PUSH2 0x12E4 PUSH1 0x6 SLOAD PUSH1 0x1 PUSH1 0x1 PUSH1 0xA0 SHL SUB AND SWAP1 JUMP JUMPDEST PUSH1 0x40 MLOAD PUSH1 0x1 PUSH1 0x1 PUSH1 0xE0 SHL SUB NOT PUSH1 0xE0 DUP5 SWAP1 SHL AND DUP2 MSTORE PUSH1 0x1 PUSH1 0x1 PUSH1 0xA0 SHL SUB SWAP1 SWAP2 AND PUSH1 0x4 DUP3 ADD MSTORE ADDRESS PUSH1 0x24 DUP3 ADD MSTORE PUSH1 0x44 DUP2 ADD DUP5 SWAP1 MSTORE PUSH1 0x64 ADD PUSH1 0x20 PUSH1 0x40 MLOAD DUP1 DUP4 SUB DUP2 PUSH1 0x0 DUP8 GAS CALL ISZERO DUP1 ISZERO PUSH2 0x1337 JUMPI RETURNDATASIZE PUSH1 0x0 DUP1 RETURNDATACOPY RETURNDATASIZE PUSH1 0x0 REVERT JUMPDEST POP POP POP POP PUSH1 0x40 MLOAD RETURNDATASIZE PUSH1 0x1F NOT PUSH1 0x1F DUP3 ADD AND DUP3 ADD DUP1 PUSH1 0x40 MSTORE POP DUP2 ADD SWAP1 PUSH2 0x135B SWAP2 SWAP1 PUSH2 0x4439 JUMP JUMPDEST POP PUSH1 0x6 SLOAD PUSH1 0x1 PUSH1 0x1 PUSH1 0xA0 SHL SUB AND PUSH1 0x1 PUSH1 0x1 PUSH1 0xA0 SHL SUB AND PUSH32 0xC286F3B83E4F244DAFDD6F12A30C1792EB5C99BA0EE6CB1181AAF6EAC30286E8 DUP3 PUSH1 0x40 MLOAD PUSH2 0x13A2 SWAP2 DUP2 MSTORE PUSH1 0x20 ADD SWAP1 JUMP JUMPDEST PUSH1 0x40 MLOAD DUP1 SWAP2 SUB SWAP1 LOG2 PUSH2 0x115A PUSH1 0x1 PUSH1 0x5 SSTORE JUMP JUMPDEST PUSH1 0x0 CALLER PUSH2 0x13C2 DUP6 DUP3 DUP6 PUSH2 0x2C7F JUMP JUMPDEST PUSH2 0x13CD DUP6 DUP6 DUP6 PUSH2 0x2CFE JUMP JUMPDEST PUSH1 0x1 SWAP2 POP POP JUMPDEST SWAP4 SWAP3 POP POP POP JUMP JUMPDEST PUSH2 0x13E2 PUSH2 0x2ABA JUMP JUMPDEST PUSH1 0x6 SLOAD PUSH1 0x1 PUSH1 0x1 PUSH1 0xA0 SHL SUB AND CALLER EQ PUSH2 0x143C JUMPI PUSH1 0x40 MLOAD PUSH3 0x461BCD PUSH1 0xE5 SHL DUP2 MSTORE PUSH1 0x20 PUSH1 0x4 DUP3 ADD MSTORE PUSH1 0x17 PUSH1 0x24 DUP3 ADD MSTORE PUSH32 0x4F6E6C79206F776E65722063616E207769746864726177000000000000000000 PUSH1 0x44 DUP3 ADD MSTORE PUSH1 0x64 ADD PUSH2 0xA74 JUMP JUMPDEST PUSH1 0x0 DUP2 GT PUSH2 0x145C JUMPI PUSH1 0x40 MLOAD PUSH3 0x461BCD PUSH1 0xE5 SHL DUP2 MSTORE PUSH1 0x4 ADD PUSH2 0xA74 SWAP1 PUSH2 0x44BE JUMP JUMPDEST PUSH1 0x7 SLOAD PUSH1 0xD SLOAD PUSH1 0x0 PUSH2 0x1476 PUSH1 0x6 SLOAD PUSH1 0x1 PUSH1 0x1 PUSH1 0xA0 SHL SUB AND SWAP1 JUMP JUMPDEST SWAP1 POP PUSH1 0x0 PUSH2 0x1484 DUP4 DUP6 PUSH2 0x44F5 JUMP JUMPDEST SWAP1 POP DUP1 DUP6 GT ISZERO PUSH2 0x14D6 JUMPI PUSH1 0x40 MLOAD PUSH3 0x461BCD PUSH1 0xE5 SHL DUP2 MSTORE PUSH1 0x20 PUSH1 0x4 DUP3 ADD DUP2 SWAP1 MSTORE PUSH1 0x24 DUP3 ADD MSTORE PUSH32 0x416D6F756E74206578636565647320617661696C61626C652072657761726473 PUSH1 0x44 DUP3 ADD MSTORE PUSH1 0x64 ADD PUSH2 0xA74 JUMP JUMPDEST PUSH2 0x14DE PUSH2 0x2AF1 JUMP JUMPDEST DUP5 DUP5 LT ISZERO PUSH2 0x152E JUMPI PUSH1 0x40 MLOAD PUSH3 0x461BCD PUSH1 0xE5 SHL DUP2 MSTORE PUSH1 0x20 PUSH1 0x4 DUP3 ADD MSTORE PUSH1 0x1E PUSH1 0x24 DUP3 ADD MSTORE PUSH32 0x496E73756666696369656E7420617661696C61626C6520726577617264730000 PUSH1 0x44 DUP3 ADD MSTORE PUSH1 0x64 ADD PUSH2 0xA74 JUMP JUMPDEST PUSH2 0x1538 DUP6 DUP6 PUSH2 0x44F5 JUMP JUMPDEST PUSH1 0x7 SSTORE PUSH1 0x40 MLOAD PUSH4 0xA9059CBB PUSH1 0xE0 SHL DUP2 MSTORE PUSH1 0x1 PUSH1 0x1 PUSH1 0xA0 SHL SUB PUSH32 0x0 AND SWAP1 PUSH4 0xA9059CBB SWAP1 PUSH2 0x1589 SWAP1 DUP6 SWAP1 DUP10 SWAP1 PUSH1 0x4 ADD PUSH2 0x4420 JUMP JUMPDEST PUSH1 0x20 PUSH1 0x40 MLOAD DUP1 DUP4 SUB DUP2 PUSH1 0x0 DUP8 GAS CALL ISZERO DUP1 ISZERO PUSH2 0x15A8 JUMPI RETURNDATASIZE PUSH1 0x0 DUP1 RETURNDATACOPY RETURNDATASIZE PUSH1 0x0 REVERT JUMPDEST POP POP POP POP PUSH1 0x40 MLOAD RETURNDATASIZE PUSH1 0x1F NOT PUSH1 0x1F DUP3 ADD AND DUP3 ADD DUP1 PUSH1 0x40 MSTORE POP DUP2 ADD SWAP1 PUSH2 0x15CC SWAP2 SWAP1 PUSH2 0x4439 JUMP JUMPDEST POP DUP2 PUSH1 0x1 PUSH1 0x1 PUSH1 0xA0 SHL SUB AND PUSH32 0x13C461EB29F5D65800BBEF5A5B05A06EA13B8B2EF4B889EE170F149BC1C8F8BD DUP7 PUSH1 0x40 MLOAD PUSH2 0x1608 SWAP2 DUP2 MSTORE PUSH1 0x20 ADD SWAP1 JUMP JUMPDEST PUSH1 0x40 MLOAD DUP1 SWAP2 SUB SWAP1 LOG2 POP POP POP POP PUSH2 0x115A PUSH1 0x1 PUSH1 0x5 SSTORE JUMP JUMPDEST PUSH2 0x1626 PUSH2 0x2D5D JUMP JUMPDEST PUSH1 0x0 DUP2 GT DUP1 ISZERO PUSH2 0x1637 JUMPI POP PUSH2 0xC350 DUP2 LT JUMPDEST PUSH2 0x167C JUMPI PUSH1 0x40 MLOAD PUSH3 0x461BCD PUSH1 0xE5 SHL DUP2 MSTORE PUSH1 0x20 PUSH1 0x4 DUP3 ADD MSTORE PUSH1 0x16 PUSH1 0x24 DUP3 ADD MSTORE PUSH22 0x496E76616C696420626C6F636B732070657220646179 PUSH1 0x50 SHL PUSH1 0x44 DUP3 ADD MSTORE PUSH1 0x64 ADD PUSH2 0xA74 JUMP JUMPDEST PUSH1 0x1B SSTORE JUMP JUMPDEST PUSH2 0x1689 PUSH2 0x2ABA JUMP JUMPDEST PUSH2 0x1691 PUSH2 0x2AF1 JUMP JUMPDEST PUSH2 0x169A CALLER PUSH2 0x2D8A JUMP JUMPDEST CALLER PUSH1 0x0 SWAP1 DUP2 MSTORE PUSH1 0xF PUSH1 0x20 MSTORE PUSH1 0x40 SWAP1 KECCAK256 SLOAD DUP1 PUSH2 0x16ED JUMPI PUSH1 0x40 MLOAD PUSH3 0x461BCD PUSH1 0xE5 SHL DUP2 MSTORE PUSH1 0x20 PUSH1 0x4 DUP3 ADD MSTORE PUSH1 0x13 PUSH1 0x24 DUP3 ADD MSTORE PUSH19 0x4E6F207265776172647320746F20636C61696D PUSH1 0x68 SHL PUSH1 0x44 DUP3 ADD MSTORE PUSH1 0x64 ADD PUSH2 0xA74 JUMP JUMPDEST CALLER PUSH1 0x0 SWAP1 DUP2 MSTORE PUSH1 0xF PUSH1 0x20 MSTORE PUSH1 0x40 DUP2 KECCAK256 DUP2 SWAP1 SSTORE PUSH1 0xD DUP1 SLOAD DUP4 SWAP3 SWAP1 PUSH2 0x1711 SWAP1 DUP5 SWAP1 PUSH2 0x44F5 JUMP JUMPDEST SWAP1 SWAP2 SSTORE POP POP PUSH1 0x40 MLOAD PUSH4 0xA9059CBB PUSH1 0xE0 SHL DUP2 MSTORE PUSH1 0x1 PUSH1 0x1 PUSH1 0xA0 SHL SUB PUSH32 0x0 AND SWAP1 PUSH4 0xA9059CBB SWAP1 PUSH2 0x1764 SWAP1 CALLER SWAP1 DUP6 SWAP1 PUSH1 0x4 ADD PUSH2 0x4420 JUMP JUMPDEST PUSH1 0x20 PUSH1 0x40 MLOAD DUP1 DUP4 SUB DUP2 PUSH1 0x0 DUP8 GAS CALL ISZERO DUP1 ISZERO PUSH2 0x1783 JUMPI RETURNDATASIZE PUSH1 0x0 DUP1 RETURNDATACOPY RETURNDATASIZE PUSH1 0x0 REVERT JUMPDEST POP POP POP POP PUSH1 0x40 MLOAD RETURNDATASIZE PUSH1 0x1F NOT PUSH1 0x1F DUP3 ADD AND DUP3 ADD DUP1 PUSH1 0x40 MSTORE POP DUP2 ADD SWAP1 PUSH2 0x17A7 SWAP2 SWAP1 PUSH2 0x4439 JUMP JUMPDEST POP PUSH1 0x40 MLOAD DUP2 DUP2 MSTORE CALLER SWAP1 PUSH32 0x1F89F96333D3133000EE447473151FA9606543368F02271C9D95AE14F13BCC67 SWAP1 PUSH1 0x20 ADD PUSH1 0x40 MLOAD DUP1 SWAP2 SUB SWAP1 LOG2 POP PUSH2 0x17E8 PUSH1 0x1 PUSH1 0x5 SSTORE JUMP JUMPDEST JUMP JUMPDEST PUSH1 0x40 MLOAD PUSH4 0xB4B5EA57 PUSH1 0xE0 SHL DUP2 MSTORE ADDRESS PUSH1 0x4 DUP3 ADD MSTORE PUSH1 0x0 SWAP1 PUSH32 0x0 PUSH1 0x1 PUSH1 0x1 PUSH1 0xA0 SHL SUB AND SWAP1 PUSH4 0xB4B5EA57 SWAP1 PUSH1 0x24 ADD PUSH1 0x20 PUSH1 0x40 MLOAD DUP1 DUP4 SUB DUP2 DUP7 GAS STATICCALL ISZERO DUP1 ISZERO PUSH2 0x1851 JUMPI RETURNDATASIZE PUSH1 0x0 DUP1 RETURNDATACOPY RETURNDATASIZE PUSH1 0x0 REVERT JUMPDEST POP POP POP POP PUSH1 0x40 MLOAD RETURNDATASIZE PUSH1 0x1F NOT PUSH1 0x1F DUP3 ADD AND DUP3 ADD DUP1 PUSH1 0x40 MSTORE POP DUP2 ADD SWAP1 PUSH2 0x1203 SWAP2 SWAP1 PUSH2 0x4508 JUMP JUMPDEST PUSH2 0x187D PUSH2 0x2ABA JUMP JUMPDEST PUSH1 0x0 DUP2 GT PUSH2 0x189D JUMPI PUSH1 0x40 MLOAD PUSH3 0x461BCD PUSH1 0xE5 SHL DUP2 MSTORE PUSH1 0x4 ADD PUSH2 0xA74 SWAP1 PUSH2 0x44BE JUMP JUMPDEST CALLER PUSH1 0x0 SWAP1 DUP2 MSTORE PUSH1 0x15 PUSH1 0x20 MSTORE PUSH1 0x40 SWAP1 KECCAK256 SLOAD TIMESTAMP LT ISZERO PUSH2 0x18ED JUMPI PUSH1 0x40 MLOAD PUSH3 0x461BCD PUSH1 0xE5 SHL DUP2 MSTORE PUSH1 0x20 PUSH1 0x4 DUP3 ADD MSTORE PUSH1 0xE PUSH1 0x24 DUP3 ADD MSTORE PUSH14 0x10D3D354081A5CC81B1BD8DAD959 PUSH1 0x92 SHL PUSH1 0x44 DUP3 ADD MSTORE PUSH1 0x64 ADD PUSH2 0xA74 JUMP JUMPDEST PUSH2 0x18F5 PUSH2 0x2E76 JUMP JUMPDEST ISZERO PUSH2 0x195D JUMPI PUSH1 0x40 MLOAD PUSH3 0x461BCD PUSH1 0xE5 SHL DUP2 MSTORE PUSH1 0x20 PUSH1 0x4 DUP3 ADD MSTORE PUSH1 0x32 PUSH1 0x24 DUP3 ADD MSTORE PUSH32 0x43616E6E6F7420776974686472617720647572696E6720616374697665206F72 PUSH1 0x44 DUP3 ADD MSTORE PUSH18 0x2070656E64696E672070726F706F73616C73 PUSH1 0x70 SHL PUSH1 0x64 DUP3 ADD MSTORE PUSH1 0x84 ADD PUSH2 0xA74 JUMP JUMPDEST CALLER PUSH1 0x0 SWAP1 DUP2 MSTORE PUSH1 0x20 DUP2 SWAP1 MSTORE PUSH1 0x40 SWAP1 KECCAK256 SLOAD DUP2 GT ISZERO PUSH2 0x19B3 JUMPI PUSH1 0x40 MLOAD PUSH3 0x461BCD PUSH1 0xE5 SHL DUP2 MSTORE PUSH1 0x20 PUSH1 0x4 DUP3 ADD MSTORE PUSH1 0x14 PUSH1 0x24 DUP3 ADD MSTORE PUSH20 0x496E73756666696369656E742062616C616E6365 PUSH1 0x60 SHL PUSH1 0x44 DUP3 ADD MSTORE PUSH1 0x64 ADD PUSH2 0xA74 JUMP JUMPDEST PUSH2 0x19BB PUSH2 0x2AF1 JUMP JUMPDEST PUSH2 0x19C4 CALLER PUSH2 0x2D8A JUMP JUMPDEST PUSH2 0x19CE CALLER DUP3 PUSH2 0x2F13 JUMP JUMPDEST DUP1 PUSH1 0xB PUSH1 0x0 DUP3 DUP3 SLOAD PUSH2 0x19E0 SWAP2 SWAP1 PUSH2 0x44F5 JUMP JUMPDEST SWAP1 SWAP2 SSTORE POP POP PUSH1 0x9 SLOAD CALLER PUSH1 0x0 DUP2 DUP2 MSTORE PUSH1 0xE PUSH1 0x20 MSTORE PUSH1 0x40 SWAP1 DUP2 SWAP1 KECCAK256 SWAP3 SWAP1 SWAP3 SSTORE SWAP1 MLOAD PUSH4 0xA9059CBB PUSH1 0xE0 SHL DUP2 MSTORE PUSH32 0x0 PUSH1 0x1 PUSH1 0x1 PUSH1 0xA0 SHL SUB AND SWAP2 PUSH4 0xA9059CBB SWAP2 PUSH2 0x1A49 SWAP2 SWAP1 DUP6 SWAP1 PUSH1 0x4 ADD PUSH2 0x4420 JUMP JUMPDEST PUSH1 0x20 PUSH1 0x40 MLOAD DUP1 DUP4 SUB DUP2 PUSH1 0x0 DUP8 GAS CALL ISZERO DUP1 ISZERO PUSH2 0x1A68 JUMPI RETURNDATASIZE PUSH1 0x0 DUP1 RETURNDATACOPY RETURNDATASIZE PUSH1 0x0 REVERT JUMPDEST POP POP POP POP PUSH1 0x40 MLOAD RETURNDATASIZE PUSH1 0x1F NOT PUSH1 0x1F DUP3 ADD AND DUP3 ADD DUP1 PUSH1 0x40 MSTORE POP DUP2 ADD SWAP1 PUSH2 0x1A8C SWAP2 SWAP1 PUSH2 0x4439 JUMP JUMPDEST POP PUSH1 0x40 MLOAD DUP2 DUP2 MSTORE CALLER SWAP1 PUSH32 0x98824D89D47225910D3E61AA38B640D29D58B43E2DC47B4D986A588C88E0A2A8 SWAP1 PUSH1 0x20 ADD PUSH2 0x13A2 JUMP JUMPDEST PUSH2 0x1AC7 PUSH2 0x2ABA JUMP JUMPDEST PUSH2 0x1AD2 DUP4 DUP4 DUP4 PUSH2 0x2F49 JUMP JUMPDEST PUSH2 0x1ADC PUSH1 0x1 PUSH1 0x5 SSTORE JUMP JUMPDEST POP POP POP JUMP JUMPDEST PUSH2 0x1AE9 PUSH2 0x2ABA JUMP JUMPDEST PUSH2 0x1B03 DUP3 DUP3 PUSH1 0x40 MLOAD DUP1 PUSH1 0x20 ADD PUSH1 0x40 MSTORE DUP1 PUSH1 0x0 DUP2 MSTORE POP PUSH2 0x2F49 JUMP JUMPDEST PUSH2 0x1B0D PUSH1 0x1 PUSH1 0x5 SSTORE JUMP JUMPDEST POP POP JUMP JUMPDEST PUSH2 0x1B19 PUSH2 0x2ABA JUMP JUMPDEST PUSH1 0xFF DUP3 AND ISZERO DUP1 PUSH2 0x1B2C JUMPI POP DUP2 PUSH1 0xFF AND PUSH1 0x1 EQ JUMPDEST PUSH2 0x1B70 JUMPI PUSH1 0x40 MLOAD PUSH3 0x461BCD PUSH1 0xE5 SHL DUP2 MSTORE PUSH1 0x20 PUSH1 0x4 DUP3 ADD MSTORE PUSH1 0x15 PUSH1 0x24 DUP3 ADD MSTORE PUSH21 0x496E76616C696420737570706F72742076616C7565 PUSH1 0x58 SHL PUSH1 0x44 DUP3 ADD MSTORE PUSH1 0x64 ADD PUSH2 0xA74 JUMP JUMPDEST PUSH1 0x0 DUP2 GT PUSH2 0x1B90 JUMPI PUSH1 0x40 MLOAD PUSH3 0x461BCD PUSH1 0xE5 SHL DUP2 MSTORE PUSH1 0x4 ADD PUSH2 0xA74 SWAP1 PUSH2 0x44BE JUMP JUMPDEST PUSH1 0x0 DUP4 DUP2 MSTORE PUSH1 0x10 PUSH1 0x20 MSTORE PUSH1 0x40 DUP2 KECCAK256 SLOAD PUSH1 0xFF AND PUSH1 0x2 DUP2 GT ISZERO PUSH2 0x1BB3 JUMPI PUSH2 0x1BB3 PUSH2 0x43A5 JUMP JUMPDEST EQ PUSH2 0x1BFC JUMPI PUSH1 0x40 MLOAD PUSH3 0x461BCD PUSH1 0xE5 SHL DUP2 MSTORE PUSH1 0x20 PUSH1 0x4 DUP3 ADD MSTORE PUSH1 0x19 PUSH1 0x24 DUP3 ADD MSTORE PUSH25 0x141C9BDC1BDCD85B08185B1C9958591E481C995CDBDB1D9959 PUSH1 0x3A SHL PUSH1 0x44 DUP3 ADD MSTORE PUSH1 0x64 ADD PUSH2 0xA74 JUMP JUMPDEST PUSH1 0x40 MLOAD PUSH4 0x1F27A4F3 PUSH1 0xE1 SHL DUP2 MSTORE PUSH1 0x4 DUP2 ADD DUP5 SWAP1 MSTORE PUSH1 0x0 SWAP1 PUSH32 0x0 PUSH1 0x1 PUSH1 0x1 PUSH1 0xA0 SHL SUB AND SWAP1 PUSH4 0x3E4F49E6 SWAP1 PUSH1 0x24 ADD PUSH1 0x20 PUSH1 0x40 MLOAD DUP1 DUP4 SUB DUP2 DUP7 GAS STATICCALL ISZERO DUP1 ISZERO PUSH2 0x1C64 JUMPI RETURNDATASIZE PUSH1 0x0 DUP1 RETURNDATACOPY RETURNDATASIZE PUSH1 0x0 REVERT JUMPDEST POP POP POP POP PUSH1 0x40 MLOAD RETURNDATASIZE PUSH1 0x1F NOT PUSH1 0x1F DUP3 ADD AND DUP3 ADD DUP1 PUSH1 0x40 MSTORE POP DUP2 ADD SWAP1 PUSH2 0x1C88 SWAP2 SWAP1 PUSH2 0x43FF JUMP JUMPDEST SWAP1 POP PUSH1 0x1 DUP2 PUSH1 0x7 DUP2 GT ISZERO PUSH2 0x1C9E JUMPI PUSH2 0x1C9E PUSH2 0x43A5 JUMP JUMPDEST EQ PUSH2 0x1CFD JUMPI PUSH1 0x40 MLOAD PUSH3 0x461BCD PUSH1 0xE5 SHL DUP2 MSTORE PUSH1 0x20 PUSH1 0x4 DUP3 ADD MSTORE PUSH1 0x29 PUSH1 0x24 DUP3 ADD MSTORE PUSH32 0x5374616B696E67206F6E6C7920616C6C6F77656420666F722061637469766520 PUSH1 0x44 DUP3 ADD MSTORE PUSH9 0x70726F706F73616C73 PUSH1 0xB8 SHL PUSH1 0x64 DUP3 ADD MSTORE PUSH1 0x84 ADD PUSH2 0xA74 JUMP JUMPDEST PUSH2 0x1D06 DUP5 PUSH2 0x352E JUMP JUMPDEST PUSH1 0x0 DUP5 DUP2 MSTORE PUSH1 0x11 PUSH1 0x20 MSTORE PUSH1 0x40 DUP2 KECCAK256 SLOAD SWAP1 SUB PUSH2 0x1D2D JUMPI PUSH1 0x0 DUP5 DUP2 MSTORE PUSH1 0x11 PUSH1 0x20 MSTORE PUSH1 0x40 SWAP1 KECCAK256 TIMESTAMP SWAP1 SSTORE JUMPDEST DUP3 PUSH1 0xFF AND PUSH1 0x1 SUB PUSH2 0x1DBC JUMPI PUSH1 0x0 DUP5 DUP2 MSTORE PUSH1 0x12 PUSH1 0x20 SWAP1 DUP2 MSTORE PUSH1 0x40 DUP1 DUP4 KECCAK256 CALLER DUP5 MSTORE SWAP1 SWAP2 MSTORE DUP2 KECCAK256 DUP1 SLOAD DUP5 SWAP3 SWAP1 PUSH2 0x1D6A SWAP1 DUP5 SWAP1 PUSH1 0x1 PUSH1 0x1 PUSH1 0x80 SHL SUB AND PUSH2 0x4521 JUMP JUMPDEST SWAP3 POP PUSH2 0x100 EXP DUP2 SLOAD DUP2 PUSH1 0x1 PUSH1 0x1 PUSH1 0x80 SHL SUB MUL NOT AND SWAP1 DUP4 PUSH1 0x1 PUSH1 0x1 PUSH1 0x80 SHL SUB AND MUL OR SWAP1 SSTORE POP DUP2 PUSH1 0x13 PUSH1 0x0 DUP7 DUP2 MSTORE PUSH1 0x20 ADD SWAP1 DUP2 MSTORE PUSH1 0x20 ADD PUSH1 0x0 KECCAK256 PUSH1 0x0 DUP3 DUP3 SLOAD PUSH2 0x1DB1 SWAP2 SWAP1 PUSH2 0x4471 JUMP JUMPDEST SWAP1 SWAP2 SSTORE POP PUSH2 0x1E45 SWAP1 POP JUMP JUMPDEST PUSH1 0x0 DUP5 DUP2 MSTORE PUSH1 0x12 PUSH1 0x20 SWAP1 DUP2 MSTORE PUSH1 0x40 DUP1 DUP4 KECCAK256 CALLER DUP5 MSTORE SWAP1 SWAP2 MSTORE SWAP1 KECCAK256 DUP1 SLOAD DUP4 SWAP2 SWAP1 PUSH1 0x10 SWAP1 PUSH2 0x1DF8 SWAP1 DUP5 SWAP1 PUSH1 0x1 PUSH1 0x80 SHL SWAP1 DIV PUSH1 0x1 PUSH1 0x1 PUSH1 0x80 SHL SUB AND PUSH2 0x4521 JUMP JUMPDEST SWAP3 POP PUSH2 0x100 EXP DUP2 SLOAD DUP2 PUSH1 0x1 PUSH1 0x1 PUSH1 0x80 SHL SUB MUL NOT AND SWAP1 DUP4 PUSH1 0x1 PUSH1 0x1 PUSH1 0x80 SHL SUB AND MUL OR SWAP1 SSTORE POP DUP2 PUSH1 0x14 PUSH1 0x0 DUP7 DUP2 MSTORE PUSH1 0x20 ADD SWAP1 DUP2 MSTORE PUSH1 0x20 ADD PUSH1 0x0 KECCAK256 PUSH1 0x0 DUP3 DUP3 SLOAD PUSH2 0x1E3F SWAP2 SWAP1 PUSH2 0x4471 JUMP JUMPDEST SWAP1 SWAP2 SSTORE POP POP JUMPDEST PUSH1 0x40 MLOAD PUSH4 0x23B872DD PUSH1 0xE0 SHL DUP2 MSTORE CALLER PUSH1 0x4 DUP3 ADD MSTORE ADDRESS PUSH1 0x24 DUP3 ADD MSTORE PUSH1 0x44 DUP2 ADD DUP4 SWAP1 MSTORE PUSH32 0x0 PUSH1 0x1 PUSH1 0x1 PUSH1 0xA0 SHL SUB AND SWAP1 PUSH4 0x23B872DD SWAP1 PUSH1 0x64 ADD PUSH1 0x20 PUSH1 0x40 MLOAD DUP1 DUP4 SUB DUP2 PUSH1 0x0 DUP8 GAS CALL ISZERO DUP1 ISZERO PUSH2 0x1EB8 JUMPI RETURNDATASIZE PUSH1 0x0 DUP1 RETURNDATACOPY RETURNDATASIZE PUSH1 0x0 REVERT JUMPDEST POP POP POP POP PUSH1 0x40 MLOAD RETURNDATASIZE PUSH1 0x1F NOT PUSH1 0x1F DUP3 ADD AND DUP3 ADD DUP1 PUSH1 0x40 MSTORE POP DUP2 ADD SWAP1 PUSH2 0x1EDC SWAP2 SWAP1 PUSH2 0x4439 JUMP JUMPDEST POP PUSH1 0x40 DUP1 MLOAD DUP6 DUP2 MSTORE PUSH1 0xFF DUP6 AND PUSH1 0x20 DUP3 ADD MSTORE SWAP1 DUP2 ADD DUP4 SWAP1 MSTORE CALLER SWAP1 PUSH32 0xFFDF8F2EAE7F0D227669096500EEC70780FB16CAE4C11B9D49E542B483E5F48C SWAP1 PUSH1 0x60 ADD PUSH1 0x40 MLOAD DUP1 SWAP2 SUB SWAP1 LOG2 POP PUSH2 0x1ADC PUSH1 0x1 PUSH1 0x5 SSTORE JUMP JUMPDEST PUSH2 0x1F35 PUSH2 0x2D5D JUMP JUMPDEST PUSH2 0x17E8 PUSH1 0x0 PUSH2 0x38EC JUMP JUMPDEST PUSH1 0x1C PUSH1 0x20 MSTORE PUSH1 0x0 SWAP1 DUP2 MSTORE PUSH1 0x40 SWAP1 KECCAK256 DUP1 SLOAD PUSH1 0x1 DUP3 ADD SLOAD PUSH1 0x2 DUP4 ADD SLOAD PUSH1 0x3 DUP5 ADD SLOAD PUSH1 0x4 DUP6 ADD SLOAD PUSH1 0x5 DUP7 ADD DUP1 SLOAD PUSH1 0xFF SWAP1 SWAP7 AND SWAP7 SWAP5 SWAP6 SWAP4 SWAP5 SWAP3 SWAP4 SWAP2 SWAP3 SWAP2 PUSH2 0x1F81 SWAP1 PUSH2 0x4484 JUMP JUMPDEST DUP1 PUSH1 0x1F ADD PUSH1 0x20 DUP1 SWAP2 DIV MUL PUSH1 0x20 ADD PUSH1 0x40 MLOAD SWAP1 DUP2 ADD PUSH1 0x40 MSTORE DUP1 SWAP3 SWAP2 SWAP1 DUP2 DUP2 MSTORE PUSH1 0x20 ADD DUP3 DUP1 SLOAD PUSH2 0x1FAD SWAP1 PUSH2 0x4484 JUMP JUMPDEST DUP1 ISZERO PUSH2 0x1FFA JUMPI DUP1 PUSH1 0x1F LT PUSH2 0x1FCF JUMPI PUSH2 0x100 DUP1 DUP4 SLOAD DIV MUL DUP4 MSTORE SWAP2 PUSH1 0x20 ADD SWAP2 PUSH2 0x1FFA JUMP JUMPDEST DUP3 ADD SWAP2 SWAP1 PUSH1 0x0 MSTORE PUSH1 0x20 PUSH1 0x0 KECCAK256 SWAP1 JUMPDEST DUP2 SLOAD DUP2 MSTORE SWAP1 PUSH1 0x1 ADD SWAP1 PUSH1 0x20 ADD DUP1 DUP4 GT PUSH2 0x1FDD JUMPI DUP3 SWAP1 SUB PUSH1 0x1F AND DUP3 ADD SWAP2 JUMPDEST POP POP POP POP POP SWAP1 POP DUP7 JUMP JUMPDEST PUSH2 0x200C PUSH2 0x2ABA JUMP JUMPDEST PUSH1 0x0 DUP2 DUP2 MSTORE PUSH1 0x10 PUSH1 0x20 MSTORE PUSH1 0x40 DUP2 KECCAK256 SLOAD PUSH1 0xFF AND PUSH1 0x2 DUP2 GT ISZERO PUSH2 0x202F JUMPI PUSH2 0x202F PUSH2 0x43A5 JUMP JUMPDEST EQ DUP1 ISZERO PUSH2 0x2057 JUMPI POP PUSH1 0x0 DUP2 DUP2 MSTORE PUSH1 0x11 PUSH1 0x20 MSTORE PUSH1 0x40 SWAP1 KECCAK256 SLOAD PUSH2 0x2054 SWAP1 PUSH3 0x278D00 SWAP1 PUSH2 0x4471 JUMP JUMPDEST TIMESTAMP GT JUMPDEST ISZERO PUSH2 0x2065 JUMPI PUSH2 0x2065 DUP2 PUSH2 0x393E JUMP JUMPDEST PUSH1 0x0 DUP2 DUP2 MSTORE PUSH1 0x10 PUSH1 0x20 MSTORE PUSH1 0x40 DUP2 KECCAK256 SLOAD PUSH1 0xFF AND SWAP1 DUP2 PUSH1 0x2 DUP2 GT ISZERO PUSH2 0x208A JUMPI PUSH2 0x208A PUSH2 0x43A5 JUMP JUMPDEST SUB PUSH2 0x20D7 JUMPI PUSH1 0x40 MLOAD PUSH3 0x461BCD PUSH1 0xE5 SHL DUP2 MSTORE PUSH1 0x20 PUSH1 0x4 DUP3 ADD MSTORE PUSH1 0x19 PUSH1 0x24 DUP3 ADD MSTORE PUSH32 0x50726F706F73616C206E6F74207265736F6C7665642079657400000000000000 PUSH1 0x44 DUP3 ADD MSTORE PUSH1 0x64 ADD PUSH2 0xA74 JUMP JUMPDEST PUSH1 0x0 DUP3 DUP2 MSTORE PUSH1 0x12 PUSH1 0x20 SWAP1 DUP2 MSTORE PUSH1 0x40 DUP1 DUP4 KECCAK256 CALLER DUP5 MSTORE SWAP1 SWAP2 MSTORE DUP2 KECCAK256 SWAP1 PUSH1 0x2 DUP4 PUSH1 0x2 DUP2 GT ISZERO PUSH2 0x2105 JUMPI PUSH2 0x2105 PUSH2 0x43A5 JUMP JUMPDEST EQ SWAP1 POP PUSH1 0x0 DUP2 ISZERO PUSH2 0x2156 JUMPI POP DUP2 SLOAD PUSH1 0x1 PUSH1 0x1 PUSH1 0x80 SHL SUB DUP1 DUP3 AND DUP5 SSTORE PUSH1 0x0 DUP7 DUP2 MSTORE PUSH1 0x14 PUSH1 0x20 MSTORE PUSH1 0x40 DUP2 KECCAK256 DUP1 SLOAD PUSH1 0x1 PUSH1 0x80 SHL SWAP1 SWAP5 DIV SWAP1 SWAP3 AND SWAP3 DUP4 SWAP3 SWAP2 SWAP1 PUSH2 0x214B SWAP1 DUP5 SWAP1 PUSH2 0x44F5 JUMP JUMPDEST SWAP1 SWAP2 SSTORE POP PUSH2 0x219F SWAP1 POP JUMP JUMPDEST POP DUP2 SLOAD PUSH16 0xFFFFFFFFFFFFFFFFFFFFFFFFFFFFFFFF NOT DUP2 AND DUP4 SSTORE PUSH1 0x0 DUP6 DUP2 MSTORE PUSH1 0x13 PUSH1 0x20 MSTORE PUSH1 0x40 DUP2 KECCAK256 DUP1 SLOAD PUSH1 0x1 PUSH1 0x1 PUSH1 0x80 SHL SUB SWAP1 SWAP4 AND SWAP3 DUP4 SWAP3 SWAP1 PUSH2 0x2199 SWAP1 DUP5 SWAP1 PUSH2 0x44F5 JUMP JUMPDEST SWAP1 SWAP2 SSTORE POP POP JUMPDEST PUSH1 0x0 DUP2 GT PUSH2 0x21E5 JUMPI PUSH1 0x40 MLOAD PUSH3 0x461BCD PUSH1 0xE5 SHL DUP2 MSTORE PUSH1 0x20 PUSH1 0x4 DUP3 ADD MSTORE PUSH1 0x13 PUSH1 0x24 DUP3 ADD MSTORE PUSH19 0x4E6F207374616B6520746F207265636C61696D PUSH1 0x68 SHL PUSH1 0x44 DUP3 ADD MSTORE PUSH1 0x64 ADD PUSH2 0xA74 JUMP JUMPDEST PUSH1 0x40 MLOAD PUSH4 0xA9059CBB PUSH1 0xE0 SHL DUP2 MSTORE PUSH1 0x1 PUSH1 0x1 PUSH1 0xA0 SHL SUB PUSH32 0x0 AND SWAP1 PUSH4 0xA9059CBB SWAP1 PUSH2 0x2233 SWAP1 CALLER SWAP1 DUP6 SWAP1 PUSH1 0x4 ADD PUSH2 0x4420 JUMP JUMPDEST PUSH1 0x20 PUSH1 0x40 MLOAD DUP1 DUP4 SUB DUP2 PUSH1 0x0 DUP8 GAS CALL ISZERO DUP1 ISZERO PUSH2 0x2252 JUMPI RETURNDATASIZE PUSH1 0x0 DUP1 RETURNDATACOPY RETURNDATASIZE PUSH1 0x0 REVERT JUMPDEST POP POP POP POP PUSH1 0x40 MLOAD RETURNDATASIZE PUSH1 0x1F NOT PUSH1 0x1F DUP3 ADD AND DUP3 ADD DUP1 PUSH1 0x40 MSTORE POP DUP2 ADD SWAP1 PUSH2 0x2276 SWAP2 SWAP1 PUSH2 0x4439 JUMP JUMPDEST POP PUSH1 0x40 DUP1 MLOAD DUP7 DUP2 MSTORE PUSH1 0x20 DUP2 ADD DUP4 SWAP1 MSTORE CALLER SWAP2 PUSH32 0x8DE0E2066C69956866611C24AED3568D88691D0EAC248EE5496A6C9F164F3004 SWAP2 ADD PUSH2 0x1608 JUMP JUMPDEST PUSH1 0x0 DUP1 PUSH1 0x0 DUP1 PUSH1 0x0 PUSH1 0x60 PUSH1 0x0 PUSH1 0x1C PUSH1 0x0 DUP10 DUP2 MSTORE PUSH1 0x20 ADD SWAP1 DUP2 MSTORE PUSH1 0x20 ADD PUSH1 0x0 KECCAK256 PUSH1 0x40 MLOAD DUP1 PUSH1 0xC0 ADD PUSH1 0x40 MSTORE SWAP1 DUP2 PUSH1 0x0 DUP3 ADD PUSH1 0x0 SWAP1 SLOAD SWAP1 PUSH2 0x100 EXP SWAP1 DIV PUSH1 0xFF AND PUSH1 0xFF AND PUSH1 0xFF AND DUP2 MSTORE PUSH1 0x20 ADD PUSH1 0x1 DUP3 ADD SLOAD DUP2 MSTORE PUSH1 0x20 ADD PUSH1 0x2 DUP3 ADD SLOAD DUP2 MSTORE PUSH1 0x20 ADD PUSH1 0x3 DUP3 ADD SLOAD DUP2 MSTORE PUSH1 0x20 ADD PUSH1 0x4 DUP3 ADD SLOAD DUP2 MSTORE PUSH1 0x20 ADD PUSH1 0x5 DUP3 ADD DUP1 SLOAD PUSH2 0x232E SWAP1 PUSH2 0x4484 JUMP JUMPDEST DUP1 PUSH1 0x1F ADD PUSH1 0x20 DUP1 SWAP2 DIV MUL PUSH1 0x20 ADD PUSH1 0x40 MLOAD SWAP1 DUP2 ADD PUSH1 0x40 MSTORE DUP1 SWAP3 SWAP2 SWAP1 DUP2 DUP2 MSTORE PUSH1 0x20 ADD DUP3 DUP1 SLOAD PUSH2 0x235A SWAP1 PUSH2 0x4484 JUMP JUMPDEST DUP1 ISZERO PUSH2 0x23A7 JUMPI DUP1 PUSH1 0x1F LT PUSH2 0x237C JUMPI PUSH2 0x100 DUP1 DUP4 SLOAD DIV MUL DUP4 MSTORE SWAP2 PUSH1 0x20 ADD SWAP2 PUSH2 0x23A7 JUMP JUMPDEST DUP3 ADD SWAP2 SWAP1 PUSH1 0x0 MSTORE PUSH1 0x20 PUSH1 0x0 KECCAK256 SWAP1 JUMPDEST DUP2 SLOAD DUP2 MSTORE SWAP1 PUSH1 0x1 ADD SWAP1 PUSH1 0x20 ADD DUP1 DUP4 GT PUSH2 0x238A JUMPI DUP3 SWAP1 SUB PUSH1 0x1F AND DUP3 ADD SWAP2 JUMPDEST POP POP POP SWAP2 SWAP1 SWAP3 MSTORE POP POP DUP2 MLOAD PUSH1 0x20 DUP4 ADD MLOAD PUSH1 0x40 DUP5 ADD MLOAD PUSH1 0x60 DUP6 ADD MLOAD PUSH1 0x80 DUP7 ADD MLOAD PUSH1 0xA0 SWAP1 SWAP7 ADD MLOAD SWAP4 SWAP15 SWAP3 SWAP14 POP SWAP1 SWAP12 POP SWAP10 POP SWAP3 SWAP8 POP SWAP6 POP SWAP1 SWAP4 POP POP POP POP JUMP JUMPDEST PUSH1 0x60 PUSH1 0x4 DUP1 SLOAD PUSH2 0x116C SWAP1 PUSH2 0x4484 JUMP JUMPDEST PUSH2 0x23FA PUSH2 0x2ABA JUMP JUMPDEST PUSH1 0x6 SLOAD PUSH1 0x1 PUSH1 0x1 PUSH1 0xA0 SHL SUB AND CALLER EQ PUSH2 0x2454 JUMPI PUSH1 0x40 MLOAD PUSH3 0x461BCD PUSH1 0xE5 SHL DUP2 MSTORE PUSH1 0x20 PUSH1 0x4 DUP3 ADD MSTORE PUSH1 0x1E PUSH1 0x24 DUP3 ADD MSTORE PUSH32 0x4F6E6C79206F776E65722063616E207365742072657761726420726174650000 PUSH1 0x44 DUP3 ADD MSTORE PUSH1 0x64 ADD PUSH2 0xA74 JUMP JUMPDEST PUSH1 0x8 SLOAD DUP2 SUB PUSH2 0x24BA JUMPI PUSH1 0x40 MLOAD PUSH3 0x461BCD PUSH1 0xE5 SHL DUP2 MSTORE PUSH1 0x20 PUSH1 0x4 DUP3 ADD MSTORE PUSH1 0x2C PUSH1 0x24 DUP3 ADD MSTORE PUSH32 0x4E65772072617465206D75737420626520646966666572656E742066726F6D20 PUSH1 0x44 DUP3 ADD MSTORE PUSH12 0x63757272656E742072617465 PUSH1 0xA0 SHL PUSH1 0x64 DUP3 ADD MSTORE PUSH1 0x84 ADD PUSH2 0xA74 JUMP JUMPDEST PUSH2 0x24C2 PUSH2 0x2AF1 JUMP JUMPDEST PUSH1 0x8 DUP2 SWAP1 SSTORE PUSH1 0x6 SLOAD PUSH1 0x1 PUSH1 0x1 PUSH1 0xA0 SHL SUB AND PUSH1 0x1 PUSH1 0x1 PUSH1 0xA0 SHL SUB AND PUSH32 0xB3986383B0FC50BEE9161915D3B51288BB862A90998C77D4F67033FC57837C00 DUP3 PUSH1 0x40 MLOAD PUSH2 0x13A2 SWAP2 DUP2 MSTORE PUSH1 0x20 ADD SWAP1 JUMP JUMPDEST PUSH1 0x0 CALLER PUSH2 0x11FD DUP2 DUP6 DUP6 PUSH2 0x2CFE JUMP JUMPDEST PUSH1 0x0 PUSH1 0x8 SLOAD PUSH1 0x0 SUB PUSH2 0x252E JUMPI POP PUSH1 0xA SLOAD SWAP1 JUMP JUMPDEST PUSH1 0x0 PUSH1 0xD SLOAD PUSH1 0x7 SLOAD GT PUSH2 0x2542 JUMPI PUSH1 0x0 PUSH2 0x2552 JUMP JUMPDEST PUSH1 0xD SLOAD PUSH1 0x7 SLOAD PUSH2 0x2552 SWAP2 SWAP1 PUSH2 0x44F5 JUMP JUMPDEST SWAP1 POP PUSH1 0x0 PUSH1 0x8 SLOAD PUSH8 0xDE0B6B3A7640000 DUP4 PUSH2 0x256D SWAP2 SWAP1 PUSH2 0x4548 JUMP JUMPDEST PUSH2 0x2577 SWAP2 SWAP1 PUSH2 0x455F JUMP JUMPDEST SWAP1 POP DUP1 PUSH1 0xA SLOAD PUSH2 0x2587 SWAP2 SWAP1 PUSH2 0x4471 JUMP JUMPDEST SWAP3 POP POP POP SWAP1 JUMP JUMPDEST PUSH1 0x1D PUSH1 0x20 MSTORE PUSH1 0x0 SWAP1 DUP2 MSTORE PUSH1 0x40 SWAP1 KECCAK256 DUP1 SLOAD PUSH1 0x1 DUP3 ADD SLOAD PUSH1 0x2 DUP4 ADD SLOAD PUSH1 0x3 DUP5 ADD SLOAD PUSH1 0x4 DUP6 ADD SLOAD PUSH1 0x5 DUP7 ADD DUP1 SLOAD PUSH1 0xFF SWAP1 SWAP7 AND SWAP7 SWAP5 SWAP6 SWAP4 SWAP5 SWAP3 SWAP4 SWAP2 SWAP3 SWAP2 PUSH2 0x1F81 SWAP1 PUSH2 0x4484 JUMP JUMPDEST PUSH1 0x40 MLOAD PUSH4 0xB4B5EA57 PUSH1 0xE0 SHL DUP2 MSTORE ADDRESS PUSH1 0x4 DUP3 ADD MSTORE PUSH1 0x0 SWAP1 PUSH32 0x0 PUSH1 0x1 PUSH1 0x1 PUSH1 0xA0 SHL SUB AND SWAP1 PUSH4 0xB4B5EA57 SWAP1 PUSH1 0x24 ADD PUSH1 0x20 PUSH1 0x40 MLOAD DUP1 DUP4 SUB DUP2 DUP7 GAS STATICCALL ISZERO DUP1 ISZERO PUSH2 0x2637 JUMPI RETURNDATASIZE PUSH1 0x0 DUP1 RETURNDATACOPY RETURNDATASIZE PUSH1 0x0 REVERT JUMPDEST POP POP POP POP PUSH1 0x40 MLOAD RETURNDATASIZE PUSH1 0x1F NOT PUSH1 0x1F DUP3 ADD AND DUP3 ADD DUP1 PUSH1 0x40 MSTORE POP DUP2 ADD SWAP1 PUSH2 0x265B SWAP2 SWAP1 PUSH2 0x4508 JUMP JUMPDEST SWAP1 POP SWAP1 JUMP JUMPDEST PUSH2 0x2668 PUSH2 0x2D5D JUMP JUMPDEST PUSH1 0x1 PUSH1 0x1 PUSH1 0xA0 SHL SUB DUP2 AND PUSH2 0x2692 JUMPI PUSH1 0x40 MLOAD PUSH4 0x1E4FBDF7 PUSH1 0xE0 SHL DUP2 MSTORE PUSH1 0x0 PUSH1 0x4 DUP3 ADD MSTORE PUSH1 0x24 ADD PUSH2 0xA74 JUMP JUMPDEST PUSH2 0x115A DUP2 PUSH2 0x38EC JUMP JUMPDEST PUSH1 0x1 PUSH1 0x1 PUSH1 0xA0 SHL SUB DUP2 AND PUSH1 0x0 SWAP1 DUP2 MSTORE PUSH1 0xF PUSH1 0x20 SWAP1 DUP2 MSTORE PUSH1 0x40 DUP1 DUP4 KECCAK256 SLOAD SWAP2 DUP4 SWAP1 MSTORE DUP3 KECCAK256 SLOAD ISZERO PUSH2 0x1203 JUMPI PUSH1 0x0 PUSH2 0x26CD PUSH2 0x3E03 JUMP JUMPDEST PUSH1 0x1 PUSH1 0x1 PUSH1 0xA0 SHL SUB DUP6 AND PUSH1 0x0 SWAP1 DUP2 MSTORE PUSH1 0xE PUSH1 0x20 MSTORE PUSH1 0x40 SWAP1 KECCAK256 SLOAD SWAP1 SWAP2 POP PUSH8 0xDE0B6B3A7640000 SWAP1 PUSH2 0x26FD SWAP1 DUP4 PUSH2 0x44F5 JUMP JUMPDEST PUSH1 0x1 PUSH1 0x1 PUSH1 0xA0 SHL SUB DUP7 AND PUSH1 0x0 SWAP1 DUP2 MSTORE PUSH1 0x20 DUP2 SWAP1 MSTORE PUSH1 0x40 SWAP1 KECCAK256 SLOAD PUSH2 0x2720 SWAP2 SWAP1 PUSH2 0x4548 JUMP JUMPDEST PUSH2 0x272A SWAP2 SWAP1 PUSH2 0x455F JUMP JUMPDEST PUSH2 0x2734 SWAP1 DUP4 PUSH2 0x4471 JUMP JUMPDEST SWAP5 SWAP4 POP POP POP POP JUMP JUMPDEST PUSH2 0x2744 PUSH2 0x2ABA JUMP JUMPDEST PUSH1 0x0 DUP2 GT PUSH2 0x2764 JUMPI PUSH1 0x40 MLOAD PUSH3 0x461BCD PUSH1 0xE5 SHL DUP2 MSTORE PUSH1 0x4 ADD PUSH2 0xA74 SWAP1 PUSH2 0x44BE JUMP JUMPDEST PUSH1 0xC SLOAD DUP2 PUSH1 0xB SLOAD PUSH2 0x2775 SWAP2 SWAP1 PUSH2 0x4471 JUMP JUMPDEST GT ISZERO PUSH2 0x27C3 JUMPI PUSH1 0x40 MLOAD PUSH3 0x461BCD PUSH1 0xE5 SHL DUP2 MSTORE PUSH1 0x20 PUSH1 0x4 DUP3 ADD MSTORE PUSH1 0x17 PUSH1 0x24 DUP3 ADD MSTORE PUSH32 0x44656C65676174696F6E20636170206578636565646564000000000000000000 PUSH1 0x44 DUP3 ADD MSTORE PUSH1 0x64 ADD PUSH2 0xA74 JUMP JUMPDEST PUSH2 0x27CB PUSH2 0x2AF1 JUMP JUMPDEST PUSH2 0x27D4 CALLER PUSH2 0x2D8A JUMP JUMPDEST PUSH1 0x0 PUSH2 0x27E3 PUSH3 0x93A80 TIMESTAMP PUSH2 0x4471 JUMP JUMPDEST SWAP1 POP PUSH2 0x27ED PUSH2 0x2E76 JUMP JUMPDEST ISZERO PUSH2 0x280F JUMPI PUSH2 0x27FF PUSH3 0x93A80 TIMESTAMP PUSH2 0x4471 JUMP JUMPDEST PUSH2 0x280C SWAP1 PUSH3 0x3F480 PUSH2 0x4471 JUMP JUMPDEST SWAP1 POP JUMPDEST CALLER PUSH1 0x0 SWAP1 DUP2 MSTORE PUSH1 0x15 PUSH1 0x20 MSTORE PUSH1 0x40 SWAP1 KECCAK256 SLOAD DUP2 GT ISZERO PUSH2 0x2873 JUMPI CALLER PUSH1 0x0 DUP2 DUP2 MSTORE PUSH1 0x15 PUSH1 0x20 MSTORE PUSH1 0x40 SWAP1 DUP2 SWAP1 KECCAK256 DUP4 SWAP1 SSTORE MLOAD PUSH32 0x308C23D85188A2D929B33A8748FDC757B93D1E422046A4237967A2D17D4ECA93 SWAP1 PUSH2 0x286A SWAP1 DUP5 DUP2 MSTORE PUSH1 0x20 ADD SWAP1 JUMP JUMPDEST PUSH1 0x40 MLOAD DUP1 SWAP2 SUB SWAP1 LOG2 JUMPDEST PUSH2 0x287D CALLER DUP4 PUSH2 0x3EBB JUMP JUMPDEST DUP2 PUSH1 0xB PUSH1 0x0 DUP3 DUP3 SLOAD PUSH2 0x288F SWAP2 SWAP1 PUSH2 0x4471 JUMP JUMPDEST SWAP1 SWAP2 SSTORE POP POP PUSH1 0x9 SLOAD CALLER PUSH1 0x0 DUP2 DUP2 MSTORE PUSH1 0xE PUSH1 0x20 MSTORE PUSH1 0x40 SWAP1 DUP2 SWAP1 KECCAK256 SWAP3 SWAP1 SWAP3 SSTORE SWAP1 MLOAD PUSH4 0x23B872DD PUSH1 0xE0 SHL DUP2 MSTORE PUSH1 0x4 DUP2 ADD SWAP2 SWAP1 SWAP2 MSTORE ADDRESS PUSH1 0x24 DUP3 ADD MSTORE PUSH1 0x44 DUP2 ADD DUP4 SWAP1 MSTORE PUSH1 0x1 PUSH1 0x1 PUSH1 0xA0 SHL SUB PUSH32 0x0 AND SWAP1 PUSH4 0x23B872DD SWAP1 PUSH1 0x64 ADD PUSH1 0x20 PUSH1 0x40 MLOAD DUP1 DUP4 SUB DUP2 PUSH1 0x0 DUP8 GAS CALL ISZERO DUP1 ISZERO PUSH2 0x2920 JUMPI RETURNDATASIZE PUSH1 0x0 DUP1 RETURNDATACOPY RETURNDATASIZE PUSH1 0x0 REVERT JUMPDEST POP POP POP POP PUSH1 0x40 MLOAD RETURNDATASIZE PUSH1 0x1F NOT PUSH1 0x1F DUP3 ADD AND DUP3 ADD DUP1 PUSH1 0x40 MSTORE POP DUP2 ADD SWAP1 PUSH2 0x2944 SWAP2 SWAP1 PUSH2 0x4439 JUMP JUMPDEST POP PUSH1 0x40 MLOAD PUSH4 0x17066A57 PUSH1 0xE2 SHL DUP2 MSTORE ADDRESS PUSH1 0x4 DUP3 ADD MSTORE PUSH32 0x0 PUSH1 0x1 PUSH1 0x1 PUSH1 0xA0 SHL SUB AND SWAP1 PUSH4 0x5C19A95C SWAP1 PUSH1 0x24 ADD PUSH1 0x0 PUSH1 0x40 MLOAD DUP1 DUP4 SUB DUP2 PUSH1 0x0 DUP8 DUP1 EXTCODESIZE ISZERO DUP1 ISZERO PUSH2 0x29A6 JUMPI PUSH1 0x0 DUP1 REVERT JUMPDEST POP GAS CALL ISZERO DUP1 ISZERO PUSH2 0x29BA JUMPI RETURNDATASIZE PUSH1 0x0 DUP1 RETURNDATACOPY RETURNDATASIZE PUSH1 0x0 REVERT JUMPDEST POP POP PUSH1 0x40 MLOAD DUP5 DUP2 MSTORE CALLER SWAP3 POP PUSH32 0x35DB3D768E685509E031BAE369804CA7DC6656AF739E079F1D3312CADC7B19D8 SWAP2 POP PUSH1 0x20 ADD PUSH1 0x40 MLOAD DUP1 SWAP2 SUB SWAP1 LOG2 POP PUSH2 0x115A PUSH1 0x1 PUSH1 0x5 SSTORE JUMP JUMPDEST PUSH1 0x0 DUP1 PUSH1 0x0 DUP1 PUSH1 0x0 PUSH1 0x60 PUSH1 0x1E SLOAD DUP8 LT PUSH2 0x2A59 JUMPI PUSH1 0x40 MLOAD PUSH3 0x461BCD PUSH1 0xE5 SHL DUP2 MSTORE PUSH1 0x20 PUSH1 0x4 DUP3 ADD MSTORE PUSH1 0x18 PUSH1 0x24 DUP3 ADD MSTORE PUSH32 0x566F746520696E646578206F7574206F6620626F756E64730000000000000000 PUSH1 0x44 DUP3 ADD MSTORE PUSH1 0x64 ADD PUSH2 0xA74 JUMP JUMPDEST PUSH1 0x0 DUP8 DUP2 MSTORE PUSH1 0x1D PUSH1 0x20 SWAP1 DUP2 MSTORE PUSH1 0x40 DUP1 DUP4 KECCAK256 DUP2 MLOAD PUSH1 0xC0 DUP2 ADD DUP4 MSTORE DUP2 SLOAD PUSH1 0xFF AND DUP2 MSTORE PUSH1 0x1 DUP3 ADD SLOAD SWAP4 DUP2 ADD SWAP4 SWAP1 SWAP4 MSTORE PUSH1 0x2 DUP2 ADD SLOAD SWAP2 DUP4 ADD SWAP2 SWAP1 SWAP2 MSTORE PUSH1 0x3 DUP2 ADD SLOAD PUSH1 0x60 DUP4 ADD MSTORE PUSH1 0x4 DUP2 ADD SLOAD PUSH1 0x80 DUP4 ADD MSTORE PUSH1 0x5 DUP2 ADD DUP1 SLOAD PUSH1 0xA0 DUP5 ADD SWAP2 SWAP1 PUSH2 0x232E SWAP1 PUSH2 0x4484 JUMP JUMPDEST PUSH1 0x2 PUSH1 0x5 SLOAD SUB PUSH2 0x2ADD JUMPI PUSH1 0x40 MLOAD PUSH4 0x3EE5AEB5 PUSH1 0xE0 SHL DUP2 MSTORE PUSH1 0x4 ADD PUSH1 0x40 MLOAD DUP1 SWAP2 SUB SWAP1 REVERT JUMPDEST PUSH1 0x2 PUSH1 0x5 SSTORE JUMP JUMPDEST PUSH2 0x1ADC DUP4 DUP4 DUP4 PUSH1 0x1 PUSH2 0x3EF1 JUMP JUMPDEST PUSH1 0x0 PUSH2 0x2AFC PUSH1 0x2 SLOAD SWAP1 JUMP JUMPDEST PUSH1 0x8 SLOAD PUSH1 0x7 SLOAD PUSH1 0xD SLOAD PUSH1 0x9 SLOAD PUSH1 0xA SLOAD SWAP5 SWAP6 POP SWAP3 SWAP4 SWAP2 SWAP3 SWAP1 SWAP2 PUSH1 0x0 DUP7 SWAP1 SUB PUSH2 0x2B29 JUMPI POP POP TIMESTAMP PUSH1 0xA SSTORE POP POP POP POP JUMP JUMPDEST PUSH1 0x0 PUSH2 0x2B35 DUP3 TIMESTAMP PUSH2 0x44F5 JUMP JUMPDEST SWAP1 POP PUSH1 0x0 PUSH2 0x2B43 DUP8 DUP4 PUSH2 0x4548 JUMP JUMPDEST SWAP1 POP DUP5 DUP7 GT PUSH2 0x2B93 JUMPI TIMESTAMP PUSH1 0xA SSTORE PUSH1 0x40 DUP1 MLOAD DUP6 DUP2 MSTORE PUSH1 0x0 PUSH1 0x20 DUP3 ADD MSTORE PUSH32 0xE59E5A83A27F440A8E234A0A6E659A7F1CC16A6D0E37AA05A24F2C407521EA0E SWAP2 ADD PUSH1 0x40 MLOAD DUP1 SWAP2 SUB SWAP1 LOG1 POP POP POP POP POP POP POP POP JUMP JUMPDEST PUSH1 0x0 PUSH2 0x2B9F DUP7 DUP9 PUSH2 0x44F5 JUMP JUMPDEST SWAP1 POP DUP1 DUP3 GT ISZERO PUSH2 0x2BAD JUMPI DUP1 SWAP2 POP JUMPDEST PUSH1 0x0 DUP10 PUSH2 0x2BC2 PUSH8 0xDE0B6B3A7640000 DUP6 PUSH2 0x4548 JUMP JUMPDEST PUSH2 0x2BCC SWAP2 SWAP1 PUSH2 0x455F JUMP JUMPDEST SWAP1 POP PUSH1 0x0 PUSH2 0x2BDA DUP3 DUP9 PUSH2 0x4471 JUMP JUMPDEST SWAP1 POP PUSH1 0x0 PUSH2 0x2BE8 DUP6 DUP11 PUSH2 0x4471 JUMP JUMPDEST PUSH1 0x9 DUP4 SWAP1 SSTORE PUSH1 0xD DUP2 SWAP1 SSTORE TIMESTAMP PUSH1 0xA SSTORE PUSH1 0x40 DUP1 MLOAD DUP5 DUP2 MSTORE PUSH1 0x20 DUP2 ADD DUP9 SWAP1 MSTORE SWAP2 SWAP3 POP PUSH32 0xE59E5A83A27F440A8E234A0A6E659A7F1CC16A6D0E37AA05A24F2C407521EA0E SWAP2 ADD PUSH1 0x40 MLOAD DUP1 SWAP2 SUB SWAP1 LOG1 PUSH1 0x40 DUP1 MLOAD DUP7 DUP2 MSTORE PUSH1 0x20 DUP2 ADD DUP5 SWAP1 MSTORE TIMESTAMP DUP2 DUP4 ADD MSTORE SWAP1 MLOAD PUSH32 0x6AE8EE960D83517F7FA993AD7A0E16E33D9655A23FF41EEFC62BDB289C7A8E5F SWAP2 DUP2 SWAP1 SUB PUSH1 0x60 ADD SWAP1 LOG1 POP POP POP POP POP POP POP POP POP POP POP POP JUMP JUMPDEST PUSH1 0x1 PUSH1 0x1 PUSH1 0xA0 SHL SUB DUP4 DUP2 AND PUSH1 0x0 SWAP1 DUP2 MSTORE PUSH1 0x1 PUSH1 0x20 SWAP1 DUP2 MSTORE PUSH1 0x40 DUP1 DUP4 KECCAK256 SWAP4 DUP7 AND DUP4 MSTORE SWAP3 SWAP1 MSTORE KECCAK256 SLOAD PUSH1 0x0 NOT DUP2 LT ISZERO PUSH2 0x2CF8 JUMPI DUP2 DUP2 LT ISZERO PUSH2 0x2CE9 JUMPI PUSH1 0x40 MLOAD PUSH4 0x7DC7A0D9 PUSH1 0xE1 SHL DUP2 MSTORE PUSH1 0x1 PUSH1 0x1 PUSH1 0xA0 SHL SUB DUP5 AND PUSH1 0x4 DUP3 ADD MSTORE PUSH1 0x24 DUP2 ADD DUP3 SWAP1 MSTORE PUSH1 0x44 DUP2 ADD DUP4 SWAP1 MSTORE PUSH1 0x64 ADD PUSH2 0xA74 JUMP JUMPDEST PUSH2 0x2CF8 DUP5 DUP5 DUP5 DUP5 SUB PUSH1 0x0 PUSH2 0x3EF1 JUMP JUMPDEST POP POP POP POP JUMP JUMPDEST PUSH1 0x1 PUSH1 0x1 PUSH1 0xA0 SHL SUB DUP4 AND PUSH2 0x2D28 JUMPI PUSH1 0x40 MLOAD PUSH4 0x4B637E8F PUSH1 0xE1 SHL DUP2 MSTORE PUSH1 0x0 PUSH1 0x4 DUP3 ADD MSTORE PUSH1 0x24 ADD PUSH2 0xA74 JUMP JUMPDEST PUSH1 0x1 PUSH1 0x1 PUSH1 0xA0 SHL SUB DUP3 AND PUSH2 0x2D52 JUMPI PUSH1 0x40 MLOAD PUSH4 0xEC442F05 PUSH1 0xE0 SHL DUP2 MSTORE PUSH1 0x0 PUSH1 0x4 DUP3 ADD MSTORE PUSH1 0x24 ADD PUSH2 0xA74 JUMP JUMPDEST PUSH2 0x1ADC DUP4 DUP4 DUP4 PUSH2 0x3FC6 JUMP JUMPDEST PUSH1 0x6 SLOAD PUSH1 0x1 PUSH1 0x1 PUSH1 0xA0 SHL SUB AND CALLER EQ PUSH2 0x17E8 JUMPI PUSH1 0x40 MLOAD PUSH4 0x118CDAA7 PUSH1 0xE0 SHL DUP2 MSTORE CALLER PUSH1 0x4 DUP3 ADD MSTORE PUSH1 0x24 ADD PUSH2 0xA74 JUMP JUMPDEST PUSH1 0x1 PUSH1 0x1 PUSH1 0xA0 SHL SUB DUP2 AND PUSH1 0x0 SWAP1 DUP2 MSTORE PUSH1 0x20 DUP2 DUP2 MSTORE PUSH1 0x40 DUP1 DUP4 KECCAK256 SLOAD PUSH1 0x9 SLOAD PUSH1 0xE SWAP1 SWAP4 MSTORE SWAP3 KECCAK256 SLOAD DUP3 ISZERO PUSH2 0x2CF8 JUMPI PUSH1 0x0 PUSH8 0xDE0B6B3A7640000 PUSH2 0x2DCA DUP4 DUP6 PUSH2 0x44F5 JUMP JUMPDEST PUSH2 0x2DD4 SWAP1 DUP7 PUSH2 0x4548 JUMP JUMPDEST PUSH2 0x2DDE SWAP2 SWAP1 PUSH2 0x455F JUMP JUMPDEST SWAP1 POP DUP1 ISZERO PUSH2 0x2E6F JUMPI PUSH1 0x1 PUSH1 0x1 PUSH1 0xA0 SHL SUB DUP6 AND PUSH1 0x0 SWAP1 DUP2 MSTORE PUSH1 0xF PUSH1 0x20 MSTORE PUSH1 0x40 DUP2 KECCAK256 DUP1 SLOAD DUP4 SWAP3 SWAP1 PUSH2 0x2E0E SWAP1 DUP5 SWAP1 PUSH2 0x4471 JUMP JUMPDEST SWAP1 SWAP2 SSTORE POP POP PUSH1 0x1 PUSH1 0x1 PUSH1 0xA0 SHL SUB DUP6 AND PUSH1 0x0 DUP2 DUP2 MSTORE PUSH1 0xE PUSH1 0x20 SWAP1 DUP2 MSTORE PUSH1 0x40 DUP1 DUP4 KECCAK256 DUP8 SWAP1 SSTORE PUSH1 0xF DUP3 MSTORE SWAP2 DUP3 SWAP1 KECCAK256 SLOAD DUP3 MLOAD DUP6 DUP2 MSTORE SWAP2 DUP3 ADD MSTORE PUSH32 0x5B9AAF4CC5141C090A75F8B8A627863EBA92DF81F0C83C096350DA9B79AEDD04 SWAP2 ADD PUSH1 0x40 MLOAD DUP1 SWAP2 SUB SWAP1 LOG2 JUMPDEST POP POP POP POP POP JUMP JUMPDEST PUSH1 0x16 SLOAD PUSH1 0x0 SWAP1 DUP2 PUSH1 0xA DUP3 GT PUSH2 0x2E8C JUMPI PUSH1 0x0 PUSH2 0x2E97 JUMP JUMPDEST PUSH2 0x2E97 PUSH1 0xA DUP4 PUSH2 0x44F5 JUMP JUMPDEST SWAP1 POP PUSH1 0x0 GAS SWAP1 POP DUP3 JUMPDEST DUP3 DUP2 GT ISZERO PUSH2 0x2F08 JUMPI PUSH2 0xC350 GAS PUSH2 0x2EB6 SWAP1 DUP5 PUSH2 0x44F5 JUMP JUMPDEST GT PUSH2 0x2F08 JUMPI PUSH1 0x0 DUP2 DUP2 MSTORE PUSH1 0x17 PUSH1 0x20 MSTORE PUSH1 0x40 SWAP1 KECCAK256 SLOAD PUSH1 0xFF AND DUP1 PUSH2 0x2EE6 JUMPI POP PUSH1 0x0 DUP2 DUP2 MSTORE PUSH1 0x18 PUSH1 0x20 MSTORE PUSH1 0x40 SWAP1 KECCAK256 SLOAD PUSH1 0xFF AND JUMPDEST ISZERO PUSH2 0x2EF6 JUMPI PUSH1 0x1 SWAP5 POP POP POP POP POP SWAP1 JUMP JUMPDEST DUP1 PUSH2 0x2F00 DUP2 PUSH2 0x4581 JUMP JUMPDEST SWAP2 POP POP PUSH2 0x2EA0 JUMP JUMPDEST POP PUSH1 0x0 SWAP4 POP POP POP POP SWAP1 JUMP JUMPDEST PUSH1 0x1 PUSH1 0x1 PUSH1 0xA0 SHL SUB DUP3 AND PUSH2 0x2F3D JUMPI PUSH1 0x40 MLOAD PUSH4 0x4B637E8F PUSH1 0xE1 SHL DUP2 MSTORE PUSH1 0x0 PUSH1 0x4 DUP3 ADD MSTORE PUSH1 0x24 ADD PUSH2 0xA74 JUMP JUMPDEST PUSH2 0x1B0D DUP3 PUSH1 0x0 DUP4 PUSH2 0x3FC6 JUMP JUMPDEST PUSH1 0x6 SLOAD PUSH1 0x1 PUSH1 0x1 PUSH1 0xA0 SHL SUB AND CALLER EQ PUSH2 0x2FA3 JUMPI PUSH1 0x40 MLOAD PUSH3 0x461BCD PUSH1 0xE5 SHL DUP2 MSTORE PUSH1 0x20 PUSH1 0x4 DUP3 ADD MSTORE PUSH1 0x19 PUSH1 0x24 DUP3 ADD MSTORE PUSH32 0x4F6E6C79206F776E65722063616E206361737420766F74657300000000000000 PUSH1 0x44 DUP3 ADD MSTORE PUSH1 0x64 ADD PUSH2 0xA74 JUMP JUMPDEST PUSH1 0x1 DUP3 PUSH1 0xFF AND GT ISZERO PUSH2 0x2FEF JUMPI PUSH1 0x40 MLOAD PUSH3 0x461BCD PUSH1 0xE5 SHL DUP2 MSTORE PUSH1 0x20 PUSH1 0x4 DUP3 ADD MSTORE PUSH1 0x15 PUSH1 0x24 DUP3 ADD MSTORE PUSH21 0x496E76616C696420737570706F72742076616C7565 PUSH1 0x58 SHL PUSH1 0x44 DUP3 ADD MSTORE PUSH1 0x64 ADD PUSH2 0xA74 JUMP JUMPDEST PUSH1 0x0 DUP4 DUP2 MSTORE PUSH1 0x19 PUSH1 0x20 MSTORE PUSH1 0x40 SWAP1 KECCAK256 SLOAD PUSH1 0xFF AND ISZERO PUSH2 0x304E JUMPI PUSH1 0x40 MLOAD PUSH3 0x461BCD PUSH1 0xE5 SHL DUP2 MSTORE PUSH1 0x20 PUSH1 0x4 DUP3 ADD MSTORE PUSH1 0x1E PUSH1 0x24 DUP3 ADD MSTORE PUSH32 0x416C726561647920766F746564206F6E20746869732070726F706F73616C0000 PUSH1 0x44 DUP3 ADD MSTORE PUSH1 0x64 ADD PUSH2 0xA74 JUMP JUMPDEST PUSH1 0x40 MLOAD PUSH4 0x1F27A4F3 PUSH1 0xE1 SHL DUP2 MSTORE PUSH1 0x4 DUP2 ADD DUP5 SWAP1 MSTORE PUSH1 0x0 SWAP1 PUSH32 0x0 PUSH1 0x1 PUSH1 0x1 PUSH1 0xA0 SHL SUB AND SWAP1 PUSH4 0x3E4F49E6 SWAP1 PUSH1 0x24 ADD PUSH1 0x20 PUSH1 0x40 MLOAD DUP1 DUP4 SUB DUP2 DUP7 GAS STATICCALL ISZERO DUP1 ISZERO PUSH2 0x30B6 JUMPI RETURNDATASIZE PUSH1 0x0 DUP1 RETURNDATACOPY RETURNDATASIZE PUSH1 0x0 REVERT JUMPDEST POP POP POP POP PUSH1 0x40 MLOAD RETURNDATASIZE PUSH1 0x1F NOT PUSH1 0x1F DUP3 ADD AND DUP3 ADD DUP1 PUSH1 0x40 MSTORE POP DUP2 ADD SWAP1 PUSH2 0x30DA SWAP2 SWAP1 PUSH2 0x43FF JUMP JUMPDEST SWAP1 POP PUSH1 0x1 DUP2 PUSH1 0x7 DUP2 GT ISZERO PUSH2 0x30F0 JUMPI PUSH2 0x30F0 PUSH2 0x43A5 JUMP JUMPDEST EQ DUP1 PUSH2 0x310D JUMPI POP PUSH1 0x0 DUP2 PUSH1 0x7 DUP2 GT ISZERO PUSH2 0x310B JUMPI PUSH2 0x310B PUSH2 0x43A5 JUMP JUMPDEST EQ JUMPDEST PUSH2 0x3159 JUMPI PUSH1 0x40 MLOAD PUSH3 0x461BCD PUSH1 0xE5 SHL DUP2 MSTORE PUSH1 0x20 PUSH1 0x4 DUP3 ADD MSTORE PUSH1 0x1D PUSH1 0x24 DUP3 ADD MSTORE PUSH32 0x50726F706F73616C206E6F7420696E20766F74696E6720706572696F64000000 PUSH1 0x44 DUP3 ADD MSTORE PUSH1 0x64 ADD PUSH2 0xA74 JUMP JUMPDEST PUSH1 0x40 MLOAD PUSH4 0xB4B5EA57 PUSH1 0xE0 SHL DUP2 MSTORE ADDRESS PUSH1 0x4 DUP3 ADD MSTORE PUSH1 0x0 SWAP1 PUSH32 0x0 PUSH1 0x1 PUSH1 0x1 PUSH1 0xA0 SHL SUB AND SWAP1 PUSH4 0xB4B5EA57 SWAP1 PUSH1 0x24 ADD PUSH1 0x20 PUSH1 0x40 MLOAD DUP1 DUP4 SUB DUP2 DUP7 GAS STATICCALL ISZERO DUP1 ISZERO PUSH2 0x31C0 JUMPI RETURNDATASIZE PUSH1 0x0 DUP1 RETURNDATACOPY RETURNDATASIZE PUSH1 0x0 REVERT JUMPDEST POP POP POP POP PUSH1 0x40 MLOAD RETURNDATASIZE PUSH1 0x1F NOT PUSH1 0x1F DUP3 ADD AND DUP3 ADD DUP1 PUSH1 0x40 MSTORE POP DUP2 ADD SWAP1 PUSH2 0x31E4 SWAP2 SWAP1 PUSH2 0x4508 JUMP JUMPDEST SWAP1 POP PUSH1 0x1 PUSH1 0x19 PUSH1 0x0 DUP8 DUP2 MSTORE PUSH1 0x20 ADD SWAP1 DUP2 MSTORE PUSH1 0x20 ADD PUSH1 0x0 KECCAK256 PUSH1 0x0 PUSH2 0x100 EXP DUP2 SLOAD DUP2 PUSH1 0xFF MUL NOT AND SWAP1 DUP4 ISZERO ISZERO MUL OR SWAP1 SSTORE POP DUP4 PUSH1 0x1A PUSH1 0x0 DUP8 DUP2 MSTORE PUSH1 0x20 ADD SWAP1 DUP2 MSTORE PUSH1 0x20 ADD PUSH1 0x0 KECCAK256 PUSH1 0x0 PUSH2 0x100 EXP DUP2 SLOAD DUP2 PUSH1 0xFF MUL NOT AND SWAP1 DUP4 PUSH1 0xFF AND MUL OR SWAP1 SSTORE POP PUSH1 0x0 PUSH1 0x40 MLOAD DUP1 PUSH1 0xC0 ADD PUSH1 0x40 MSTORE DUP1 DUP7 PUSH1 0xFF AND DUP2 MSTORE PUSH1 0x20 ADD NUMBER DUP2 MSTORE PUSH1 0x20 ADD PUSH1 0x0 DUP1 SHL DUP2 MSTORE PUSH1 0x20 ADD TIMESTAMP DUP2 MSTORE PUSH1 0x20 ADD DUP4 DUP2 MSTORE PUSH1 0x20 ADD DUP6 DUP2 MSTORE POP SWAP1 POP DUP1 PUSH1 0x1C PUSH1 0x0 DUP9 DUP2 MSTORE PUSH1 0x20 ADD SWAP1 DUP2 MSTORE PUSH1 0x20 ADD PUSH1 0x0 KECCAK256 PUSH1 0x0 DUP3 ADD MLOAD DUP2 PUSH1 0x0 ADD PUSH1 0x0 PUSH2 0x100 EXP DUP2 SLOAD DUP2 PUSH1 0xFF MUL NOT AND SWAP1 DUP4 PUSH1 0xFF AND MUL OR SWAP1 SSTORE POP PUSH1 0x20 DUP3 ADD MLOAD DUP2 PUSH1 0x1 ADD SSTORE PUSH1 0x40 DUP3 ADD MLOAD DUP2 PUSH1 0x2 ADD SSTORE PUSH1 0x60 DUP3 ADD MLOAD DUP2 PUSH1 0x3 ADD SSTORE PUSH1 0x80 DUP3 ADD MLOAD DUP2 PUSH1 0x4 ADD SSTORE PUSH1 0xA0 DUP3 ADD MLOAD DUP2 PUSH1 0x5 ADD SWAP1 DUP2 PUSH2 0x32E7 SWAP2 SWAP1 PUSH2 0x45DE JUMP JUMPDEST POP POP PUSH1 0x1E SLOAD PUSH1 0x0 SWAP1 DUP2 MSTORE PUSH1 0x1D PUSH1 0x20 SWAP1 DUP2 MSTORE PUSH1 0x40 SWAP2 DUP3 SWAP1 KECCAK256 DUP5 MLOAD DUP2 SLOAD PUSH1 0xFF NOT AND PUSH1 0xFF SWAP1 SWAP2 AND OR DUP2 SSTORE SWAP1 DUP5 ADD MLOAD PUSH1 0x1 DUP3 ADD SSTORE SWAP1 DUP4 ADD MLOAD PUSH1 0x2 DUP3 ADD SSTORE PUSH1 0x60 DUP4 ADD MLOAD PUSH1 0x3 DUP3 ADD SSTORE PUSH1 0x80 DUP4 ADD MLOAD PUSH1 0x4 DUP3 ADD SSTORE PUSH1 0xA0 DUP4 ADD MLOAD DUP4 SWAP3 POP PUSH1 0x5 DUP3 ADD SWAP1 PUSH2 0x334B SWAP1 DUP3 PUSH2 0x45DE JUMP JUMPDEST POP POP PUSH1 0x1E DUP1 SLOAD SWAP2 POP PUSH1 0x0 PUSH2 0x335E DUP4 PUSH2 0x469E JUMP JUMPDEST SWAP2 SWAP1 POP SSTORE POP DUP2 PUSH1 0x1F PUSH1 0x3 ADD PUSH1 0x0 DUP3 DUP3 SLOAD PUSH2 0x3378 SWAP2 SWAP1 PUSH2 0x4471 JUMP JUMPDEST SWAP1 SWAP2 SSTORE POP POP PUSH1 0x1E SLOAD PUSH1 0x22 SLOAD PUSH2 0x338D SWAP2 SWAP1 PUSH2 0x455F JUMP JUMPDEST PUSH1 0x23 SSTORE PUSH1 0x40 MLOAD PUSH4 0xACF0271 PUSH1 0xE3 SHL DUP2 MSTORE PUSH1 0x4 DUP2 ADD DUP8 SWAP1 MSTORE PUSH1 0xFF DUP7 AND PUSH1 0x24 DUP3 ADD MSTORE PUSH32 0x0 PUSH1 0x1 PUSH1 0x1 PUSH1 0xA0 SHL SUB AND SWAP1 PUSH4 0x56781388 SWAP1 PUSH1 0x44 ADD PUSH1 0x0 PUSH1 0x40 MLOAD DUP1 DUP4 SUB DUP2 PUSH1 0x0 DUP8 DUP1 EXTCODESIZE ISZERO DUP1 ISZERO PUSH2 0x33FB JUMPI PUSH1 0x0 DUP1 REVERT JUMPDEST POP GAS CALL ISZERO DUP1 ISZERO PUSH2 0x340F JUMPI RETURNDATASIZE PUSH1 0x0 DUP1 RETURNDATACOPY RETURNDATASIZE PUSH1 0x0 REVERT JUMPDEST POP POP POP POP PUSH1 0x1 NUMBER PUSH2 0x3420 SWAP2 SWAP1 PUSH2 0x44F5 JUMP JUMPDEST PUSH1 0x0 DUP8 DUP2 MSTORE PUSH1 0x1C PUSH1 0x20 MSTORE PUSH1 0x40 DUP2 KECCAK256 SWAP2 BLOCKHASH PUSH1 0x2 SWAP1 SWAP3 ADD DUP3 SWAP1 SSTORE PUSH1 0x1E SLOAD PUSH1 0x1D SWAP2 SWAP1 PUSH2 0x344B SWAP1 PUSH1 0x1 SWAP1 PUSH2 0x44F5 JUMP JUMPDEST DUP2 MSTORE PUSH1 0x20 ADD SWAP1 DUP2 MSTORE PUSH1 0x20 ADD PUSH1 0x0 KECCAK256 PUSH1 0x2 ADD DUP2 SWAP1 SSTORE POP DUP6 PUSH32 0x7E93FC3C3724F0D8FD590530618BF27708290AD2461C84E4944894AB0131A8AE DUP7 NUMBER PUSH1 0x1C PUSH1 0x0 DUP12 DUP2 MSTORE PUSH1 0x20 ADD SWAP1 DUP2 MSTORE PUSH1 0x20 ADD PUSH1 0x0 KECCAK256 PUSH1 0x2 ADD SLOAD PUSH1 0x40 MLOAD PUSH2 0x34C0 SWAP4 SWAP3 SWAP2 SWAP1 PUSH1 0xFF SWAP4 SWAP1 SWAP4 AND DUP4 MSTORE PUSH1 0x20 DUP4 ADD SWAP2 SWAP1 SWAP2 MSTORE PUSH1 0x40 DUP3 ADD MSTORE PUSH1 0x60 ADD SWAP1 JUMP JUMPDEST PUSH1 0x40 MLOAD DUP1 SWAP2 SUB SWAP1 LOG2 DUP4 MLOAD ISZERO PUSH2 0x3526 JUMPI DUP6 PUSH32 0xE1E5D0E9CD2D2AE081AEDF8A8DE8B57B91B1ED3BCC7962C21F13B93670F93647 DUP7 NUMBER PUSH1 0x1C PUSH1 0x0 DUP12 DUP2 MSTORE PUSH1 0x20 ADD SWAP1 DUP2 MSTORE PUSH1 0x20 ADD PUSH1 0x0 KECCAK256 PUSH1 0x2 ADD SLOAD DUP7 DUP10 PUSH1 0x40 MLOAD PUSH2 0x351D SWAP6 SWAP5 SWAP4 SWAP3 SWAP2 SWAP1 PUSH2 0x46B7 JUMP JUMPDEST PUSH1 0x40 MLOAD DUP1 SWAP2 SUB SWAP1 LOG2 JUMPDEST POP POP POP POP POP POP JUMP JUMPDEST PUSH1 0x16 SLOAD DUP2 GT ISZERO PUSH2 0x3569 JUMPI PUSH1 0x16 DUP2 SWAP1 SSTORE PUSH1 0x40 MLOAD DUP2 SWAP1 PUSH32 0x738245544E121DEF2724A4BC087112610A7A03C8518881B71CBD922D850EAF09 SWAP1 PUSH1 0x0 SWAP1 LOG2 JUMPDEST PUSH1 0x40 MLOAD PUSH4 0x1F27A4F3 PUSH1 0xE1 SHL DUP2 MSTORE PUSH1 0x4 DUP2 ADD DUP3 SWAP1 MSTORE PUSH32 0x0 PUSH1 0x1 PUSH1 0x1 PUSH1 0xA0 SHL SUB AND SWAP1 PUSH4 0x3E4F49E6 SWAP1 PUSH1 0x24 ADD PUSH1 0x20 PUSH1 0x40 MLOAD DUP1 DUP4 SUB DUP2 DUP7 GAS STATICCALL SWAP3 POP POP POP DUP1 ISZERO PUSH2 0x35EA JUMPI POP PUSH1 0x40 DUP1 MLOAD PUSH1 0x1F RETURNDATASIZE SWAP1 DUP2 ADD PUSH1 0x1F NOT AND DUP3 ADD SWAP1 SWAP3 MSTORE PUSH2 0x35E7 SWAP2 DUP2 ADD SWAP1 PUSH2 0x43FF JUMP JUMPDEST PUSH1 0x1 JUMPDEST PUSH2 0x365B JUMPI PUSH1 0x0 DUP2 DUP2 MSTORE PUSH1 0x17 PUSH1 0x20 MSTORE PUSH1 0x40 SWAP1 KECCAK256 SLOAD PUSH1 0xFF AND ISZERO PUSH2 0x3643 JUMPI PUSH1 0x0 DUP2 DUP2 MSTORE PUSH1 0x17 PUSH1 0x20 MSTORE PUSH1 0x40 DUP1 DUP3 KECCAK256 DUP1 SLOAD PUSH1 0xFF NOT AND SWAP1 SSTORE MLOAD DUP3 SWAP2 PUSH32 0xAAE1ED8B74416B955E14C0B0B71467355257BA6D0A08C9B6F39D8479F6F3D354 SWAP2 LOG2 JUMPDEST PUSH1 0x0 SWAP1 DUP2 MSTORE PUSH1 0x18 PUSH1 0x20 MSTORE PUSH1 0x40 SWAP1 KECCAK256 DUP1 SLOAD PUSH1 0xFF NOT AND SWAP1 SSTORE JUMP JUMPDEST PUSH1 0x0 PUSH1 0x1 DUP3 PUSH1 0x7 DUP2 GT ISZERO PUSH2 0x3671 JUMPI PUSH2 0x3671 PUSH2 0x43A5 JUMP JUMPDEST EQ DUP1 PUSH2 0x368E JUMPI POP PUSH1 0x0 DUP3 PUSH1 0x7 DUP2 GT ISZERO PUSH2 0x368C JUMPI PUSH2 0x368C PUSH2 0x43A5 JUMP JUMPDEST EQ JUMPDEST SWAP1 POP DUP1 DUP1 ISZERO PUSH2 0x36AC JUMPI POP PUSH1 0x0 DUP4 DUP2 MSTORE PUSH1 0x17 PUSH1 0x20 MSTORE PUSH1 0x40 SWAP1 KECCAK256 SLOAD PUSH1 0xFF AND ISZERO JUMPDEST ISZERO PUSH2 0x3731 JUMPI PUSH1 0x0 DUP4 DUP2 MSTORE PUSH1 0x17 PUSH1 0x20 MSTORE PUSH1 0x40 DUP1 DUP3 KECCAK256 DUP1 SLOAD PUSH1 0xFF NOT AND PUSH1 0x1 OR SWAP1 SSTORE MLOAD DUP5 SWAP2 PUSH32 0x371F68ADF986BEF1A3B7917C0747454C6A25610192C30A1009CCC33DC90F3423 SWAP2 LOG2 DUP3 PUSH32 0x6147C657C509B611C5B884671C7CB0DA0E1EED364B561E0E9D48789B79421525 PUSH1 0x0 DUP5 PUSH1 0x40 MLOAD PUSH2 0x3724 SWAP3 SWAP2 SWAP1 PUSH2 0x4704 JUMP JUMPDEST PUSH1 0x40 MLOAD DUP1 SWAP2 SUB SWAP1 LOG2 PUSH2 0x37CB JUMP JUMPDEST DUP1 ISZERO DUP1 ISZERO PUSH2 0x374D JUMPI POP PUSH1 0x0 DUP4 DUP2 MSTORE PUSH1 0x17 PUSH1 0x20 MSTORE PUSH1 0x40 SWAP1 KECCAK256 SLOAD PUSH1 0xFF AND JUMPDEST ISZERO PUSH2 0x37CB JUMPI PUSH1 0x0 DUP4 DUP2 MSTORE PUSH1 0x17 PUSH1 0x20 MSTORE PUSH1 0x40 DUP1 DUP3 KECCAK256 DUP1 SLOAD PUSH1 0xFF NOT AND SWAP1 SSTORE MLOAD DUP5 SWAP2 PUSH32 0xAAE1ED8B74416B955E14C0B0B71467355257BA6D0A08C9B6F39D8479F6F3D354 SWAP2 LOG2 DUP3 PUSH32 0x6147C657C509B611C5B884671C7CB0DA0E1EED364B561E0E9D48789B79421525 PUSH1 0x1 DUP5 PUSH1 0x40 MLOAD PUSH2 0x37C2 SWAP3 SWAP2 SWAP1 PUSH2 0x4704 JUMP JUMPDEST PUSH1 0x40 MLOAD DUP1 SWAP2 SUB SWAP1 LOG2 JUMPDEST PUSH1 0x40 MLOAD PUSH4 0x2D63F693 PUSH1 0xE0 SHL DUP2 MSTORE PUSH1 0x4 DUP2 ADD DUP5 SWAP1 MSTORE PUSH32 0x0 PUSH1 0x1 PUSH1 0x1 PUSH1 0xA0 SHL SUB AND SWAP1 PUSH4 0x2D63F693 SWAP1 PUSH1 0x24 ADD PUSH1 0x20 PUSH1 0x40 MLOAD DUP1 DUP4 SUB DUP2 DUP7 GAS STATICCALL SWAP3 POP POP POP DUP1 ISZERO PUSH2 0x384C JUMPI POP PUSH1 0x40 DUP1 MLOAD PUSH1 0x1F RETURNDATASIZE SWAP1 DUP2 ADD PUSH1 0x1F NOT AND DUP3 ADD SWAP1 SWAP3 MSTORE PUSH2 0x3849 SWAP2 DUP2 ADD SWAP1 PUSH2 0x4508 JUMP JUMPDEST PUSH1 0x1 JUMPDEST PUSH2 0x386B JUMPI PUSH1 0x0 DUP4 DUP2 MSTORE PUSH1 0x18 PUSH1 0x20 MSTORE PUSH1 0x40 SWAP1 KECCAK256 DUP1 SLOAD PUSH1 0xFF NOT AND SWAP1 SSTORE PUSH2 0x38C2 JUMP JUMPDEST NUMBER DUP1 DUP3 GT DUP1 ISZERO PUSH2 0x3885 JUMPI POP PUSH1 0x1B SLOAD PUSH2 0x3883 DUP3 DUP5 PUSH2 0x44F5 JUMP JUMPDEST LT JUMPDEST ISZERO PUSH2 0x38A8 JUMPI PUSH1 0x0 DUP6 DUP2 MSTORE PUSH1 0x18 PUSH1 0x20 MSTORE PUSH1 0x40 SWAP1 KECCAK256 DUP1 SLOAD PUSH1 0xFF NOT AND PUSH1 0x1 OR SWAP1 SSTORE PUSH2 0x38BF JUMP JUMPDEST PUSH1 0x0 DUP6 DUP2 MSTORE PUSH1 0x18 PUSH1 0x20 MSTORE PUSH1 0x40 SWAP1 KECCAK256 DUP1 SLOAD PUSH1 0xFF NOT AND SWAP1 SSTORE JUMPDEST POP POP JUMPDEST PUSH1 0x0 DUP4 DUP2 MSTORE PUSH1 0x11 PUSH1 0x20 MSTORE PUSH1 0x40 DUP2 KECCAK256 SLOAD SWAP1 SUB PUSH2 0x1ADC JUMPI POP POP PUSH1 0x0 SWAP1 DUP2 MSTORE PUSH1 0x11 PUSH1 0x20 MSTORE PUSH1 0x40 SWAP1 KECCAK256 TIMESTAMP SWAP1 SSTORE JUMP JUMPDEST PUSH1 0x6 DUP1 SLOAD PUSH1 0x1 PUSH1 0x1 PUSH1 0xA0 SHL SUB DUP4 DUP2 AND PUSH1 0x1 PUSH1 0x1 PUSH1 0xA0 SHL SUB NOT DUP4 AND DUP2 OR SWAP1 SWAP4 SSTORE PUSH1 0x40 MLOAD SWAP2 AND SWAP2 SWAP1 DUP3 SWAP1 PUSH32 0x8BE0079C531659141344CD1FD0A4F28419497F9722A3DAAFE3B4186F6B6457E0 SWAP1 PUSH1 0x0 SWAP1 LOG3 POP POP JUMP JUMPDEST PUSH1 0x40 MLOAD PUSH4 0x1F27A4F3 PUSH1 0xE1 SHL DUP2 MSTORE PUSH1 0x4 DUP2 ADD DUP3 SWAP1 MSTORE PUSH1 0x0 SWAP1 PUSH32 0x0 PUSH1 0x1 PUSH1 0x1 PUSH1 0xA0 SHL SUB AND SWAP1 PUSH4 0x3E4F49E6 SWAP1 PUSH1 0x24 ADD PUSH1 0x20 PUSH1 0x40 MLOAD DUP1 DUP4 SUB DUP2 DUP7 GAS STATICCALL ISZERO DUP1 ISZERO PUSH2 0x39A6 JUMPI RETURNDATASIZE PUSH1 0x0 DUP1 RETURNDATACOPY RETURNDATASIZE PUSH1 0x0 REVERT JUMPDEST POP POP POP POP PUSH1 0x40 MLOAD RETURNDATASIZE PUSH1 0x1F NOT PUSH1 0x1F DUP3 ADD AND DUP3 ADD DUP1 PUSH1 0x40 MSTORE POP DUP2 ADD SWAP1 PUSH2 0x39CA SWAP2 SWAP1 PUSH2 0x43FF JUMP JUMPDEST SWAP1 POP PUSH1 0x1 DUP2 PUSH1 0x7 DUP2 GT ISZERO PUSH2 0x39E0 JUMPI PUSH2 0x39E0 PUSH2 0x43A5 JUMP JUMPDEST EQ DUP1 PUSH2 0x39FD JUMPI POP PUSH1 0x0 DUP2 PUSH1 0x7 DUP2 GT ISZERO PUSH2 0x39FB JUMPI PUSH2 0x39FB PUSH2 0x43A5 JUMP JUMPDEST EQ JUMPDEST ISZERO PUSH2 0x3B4F JUMPI PUSH1 0x0 DUP3 DUP2 MSTORE PUSH1 0x10 PUSH1 0x20 SWAP1 DUP2 MSTORE PUSH1 0x40 DUP1 DUP4 KECCAK256 DUP1 SLOAD PUSH1 0xFF NOT AND PUSH1 0x1 OR SWAP1 SSTORE PUSH1 0x19 SWAP1 SWAP2 MSTORE SWAP1 KECCAK256 SLOAD PUSH1 0xFF AND DUP1 ISZERO PUSH2 0x3A44 JUMPI POP PUSH1 0x0 DUP3 DUP2 MSTORE PUSH1 0x1A PUSH1 0x20 MSTORE PUSH1 0x40 SWAP1 KECCAK256 SLOAD PUSH1 0xFF AND ISZERO JUMPDEST ISZERO PUSH2 0x3B15 JUMPI PUSH1 0x0 DUP3 DUP2 MSTORE PUSH1 0x14 PUSH1 0x20 MSTORE PUSH1 0x40 SWAP1 KECCAK256 SLOAD ISZERO PUSH2 0x3B15 JUMPI PUSH32 0x0 PUSH1 0x1 PUSH1 0x1 PUSH1 0xA0 SHL SUB AND PUSH4 0xA9059CBB PUSH2 0x3A9E PUSH1 0x6 SLOAD PUSH1 0x1 PUSH1 0x1 PUSH1 0xA0 SHL SUB AND SWAP1 JUMP JUMPDEST PUSH1 0x0 DUP6 DUP2 MSTORE PUSH1 0x14 PUSH1 0x20 MSTORE PUSH1 0x40 SWAP1 DUP2 SWAP1 KECCAK256 SLOAD SWAP1 MLOAD PUSH1 0x1 PUSH1 0x1 PUSH1 0xE0 SHL SUB NOT PUSH1 0xE0 DUP6 SWAP1 SHL AND DUP2 MSTORE PUSH2 0x3AD0 SWAP3 SWAP2 SWAP1 PUSH1 0x4 ADD PUSH2 0x4420 JUMP JUMPDEST PUSH1 0x20 PUSH1 0x40 MLOAD DUP1 DUP4 SUB DUP2 PUSH1 0x0 DUP8 GAS CALL ISZERO DUP1 ISZERO PUSH2 0x3AEF JUMPI RETURNDATASIZE PUSH1 0x0 DUP1 RETURNDATACOPY RETURNDATASIZE PUSH1 0x0 REVERT JUMPDEST POP POP POP POP PUSH1 0x40 MLOAD RETURNDATASIZE PUSH1 0x1F NOT PUSH1 0x1F DUP3 ADD AND DUP3 ADD DUP1 PUSH1 0x40 MSTORE POP DUP2 ADD SWAP1 PUSH2 0x3B13 SWAP2 SWAP1 PUSH2 0x4439 JUMP JUMPDEST POP JUMPDEST PUSH1 0x40 MLOAD PUSH1 0x0 DUP2 MSTORE DUP3 SWAP1 PUSH32 0xB8BD1C2BF2AFDFDAD72ADF1C6A383EF5B20D65E6041C69ADB823396D343F76D6 SWAP1 PUSH1 0x20 ADD PUSH1 0x40 MLOAD DUP1 SWAP2 SUB SWAP1 LOG2 POP POP JUMP JUMPDEST PUSH1 0x0 PUSH1 0x4 DUP3 PUSH1 0x7 DUP2 GT ISZERO PUSH2 0x3B65 JUMPI PUSH2 0x3B65 PUSH2 0x43A5 JUMP JUMPDEST EQ DUP1 PUSH2 0x3B82 JUMPI POP PUSH1 0x7 DUP3 PUSH1 0x7 DUP2 GT ISZERO PUSH2 0x3B80 JUMPI PUSH2 0x3B80 PUSH2 0x43A5 JUMP JUMPDEST EQ JUMPDEST PUSH2 0x3B8D JUMPI PUSH1 0x0 PUSH2 0x3B90 JUMP JUMPDEST PUSH1 0x1 JUMPDEST SWAP1 POP DUP1 PUSH1 0xFF AND PUSH1 0x1 EQ PUSH2 0x3BA4 JUMPI PUSH1 0x1 PUSH2 0x3BA7 JUMP JUMPDEST PUSH1 0x2 JUMPDEST PUSH1 0x0 DUP5 DUP2 MSTORE PUSH1 0x10 PUSH1 0x20 MSTORE PUSH1 0x40 SWAP1 KECCAK256 DUP1 SLOAD PUSH1 0xFF NOT AND PUSH1 0x1 DUP4 PUSH1 0x2 DUP2 GT ISZERO PUSH2 0x3BCF JUMPI PUSH2 0x3BCF PUSH2 0x43A5 JUMP JUMPDEST MUL OR SWAP1 SSTORE POP PUSH1 0x0 DUP4 DUP2 MSTORE PUSH1 0x19 PUSH1 0x20 MSTORE PUSH1 0x40 SWAP1 KECCAK256 SLOAD PUSH1 0xFF AND DUP1 ISZERO PUSH2 0x3C05 JUMPI POP PUSH1 0x0 DUP4 DUP2 MSTORE PUSH1 0x1A PUSH1 0x20 MSTORE PUSH1 0x40 SWAP1 KECCAK256 SLOAD PUSH1 0xFF DUP3 DUP2 AND SWAP2 AND EQ JUMPDEST ISZERO PUSH2 0x3DC6 JUMPI DUP1 PUSH1 0xFF AND PUSH1 0x1 EQ DUP1 ISZERO PUSH2 0x3C2A JUMPI POP PUSH1 0x0 DUP4 DUP2 MSTORE PUSH1 0x13 PUSH1 0x20 MSTORE PUSH1 0x40 SWAP1 KECCAK256 SLOAD ISZERO ISZERO JUMPDEST ISZERO PUSH2 0x3CEB JUMPI PUSH32 0x0 PUSH1 0x1 PUSH1 0x1 PUSH1 0xA0 SHL SUB AND PUSH4 0xA9059CBB PUSH2 0x3C70 PUSH1 0x6 SLOAD PUSH1 0x1 PUSH1 0x1 PUSH1 0xA0 SHL SUB AND SWAP1 JUMP JUMPDEST PUSH1 0x0 DUP7 DUP2 MSTORE PUSH1 0x13 PUSH1 0x20 MSTORE PUSH1 0x40 SWAP1 DUP2 SWAP1 KECCAK256 SLOAD SWAP1 MLOAD PUSH1 0x1 PUSH1 0x1 PUSH1 0xE0 SHL SUB NOT PUSH1 0xE0 DUP6 SWAP1 SHL AND DUP2 MSTORE PUSH2 0x3CA2 SWAP3 SWAP2 SWAP1 PUSH1 0x4 ADD PUSH2 0x4420 JUMP JUMPDEST PUSH1 0x20 PUSH1 0x40 MLOAD DUP1 DUP4 SUB DUP2 PUSH1 0x0 DUP8 GAS CALL ISZERO DUP1 ISZERO PUSH2 0x3CC1 JUMPI RETURNDATASIZE PUSH1 0x0 DUP1 RETURNDATACOPY RETURNDATASIZE PUSH1 0x0 REVERT JUMPDEST POP POP POP POP PUSH1 0x40 MLOAD RETURNDATASIZE PUSH1 0x1F NOT PUSH1 0x1F DUP3 ADD AND DUP3 ADD DUP1 PUSH1 0x40 MSTORE POP DUP2 ADD SWAP1 PUSH2 0x3CE5 SWAP2 SWAP1 PUSH2 0x4439 JUMP JUMPDEST POP PUSH2 0x3DC6 JUMP JUMPDEST PUSH1 0xFF DUP2 AND ISZERO DUP1 ISZERO PUSH2 0x3D09 JUMPI POP PUSH1 0x0 DUP4 DUP2 MSTORE PUSH1 0x14 PUSH1 0x20 MSTORE PUSH1 0x40 SWAP1 KECCAK256 SLOAD ISZERO ISZERO JUMPDEST ISZERO PUSH2 0x3DC6 JUMPI PUSH32 0x0 PUSH1 0x1 PUSH1 0x1 PUSH1 0xA0 SHL SUB AND PUSH4 0xA9059CBB PUSH2 0x3D4F PUSH1 0x6 SLOAD PUSH1 0x1 PUSH1 0x1 PUSH1 0xA0 SHL SUB AND SWAP1 JUMP JUMPDEST PUSH1 0x0 DUP7 DUP2 MSTORE PUSH1 0x14 PUSH1 0x20 MSTORE PUSH1 0x40 SWAP1 DUP2 SWAP1 KECCAK256 SLOAD SWAP1 MLOAD PUSH1 0x1 PUSH1 0x1 PUSH1 0xE0 SHL SUB NOT PUSH1 0xE0 DUP6 SWAP1 SHL AND DUP2 MSTORE PUSH2 0x3D81 SWAP3 SWAP2 SWAP1 PUSH1 0x4 ADD PUSH2 0x4420 JUMP JUMPDEST PUSH1 0x20 PUSH1 0x40 MLOAD DUP1 DUP4 SUB DUP2 PUSH1 0x0 DUP8 GAS CALL ISZERO DUP1 ISZERO PUSH2 0x3DA0 JUMPI RETURNDATASIZE PUSH1 0x0 DUP1 RETURNDATACOPY RETURNDATASIZE PUSH1 0x0 REVERT JUMPDEST POP POP POP POP PUSH1 0x40 MLOAD RETURNDATASIZE PUSH1 0x1F NOT PUSH1 0x1F DUP3 ADD AND DUP3 ADD DUP1 PUSH1 0x40 MSTORE POP DUP2 ADD SWAP1 PUSH2 0x3DC4 SWAP2 SWAP1 PUSH2 0x4439 JUMP JUMPDEST POP JUMPDEST PUSH1 0x40 MLOAD PUSH1 0xFF DUP3 AND DUP2 MSTORE DUP4 SWAP1 PUSH32 0xB8BD1C2BF2AFDFDAD72ADF1C6A383EF5B20D65E6041C69ADB823396D343F76D6 SWAP1 PUSH1 0x20 ADD PUSH1 0x40 MLOAD DUP1 SWAP2 SUB SWAP1 LOG2 POP POP POP JUMP JUMPDEST PUSH1 0x7 SLOAD PUSH1 0xD SLOAD PUSH1 0x9 SLOAD PUSH1 0x8 SLOAD PUSH1 0x0 SWAP4 SWAP3 SWAP2 SWAP1 DUP3 DUP5 GT PUSH2 0x3E24 JUMPI POP SWAP4 SWAP3 POP POP POP JUMP JUMPDEST PUSH1 0x0 PUSH1 0xA SLOAD TIMESTAMP PUSH2 0x3E34 SWAP2 SWAP1 PUSH2 0x44F5 JUMP JUMPDEST SWAP1 POP PUSH1 0x0 PUSH2 0x3E42 DUP4 DUP4 PUSH2 0x4548 JUMP JUMPDEST SWAP1 POP PUSH1 0x0 PUSH2 0x3E4F PUSH1 0x2 SLOAD SWAP1 JUMP JUMPDEST SWAP1 POP PUSH1 0x0 PUSH2 0x3E5D DUP8 DUP10 PUSH2 0x44F5 JUMP JUMPDEST SWAP1 POP PUSH1 0x0 DUP2 DUP5 GT PUSH2 0x3E6E JUMPI DUP4 PUSH2 0x3E70 JUMP JUMPDEST DUP2 JUMPDEST SWAP1 POP DUP3 ISZERO PUSH2 0x3EAD JUMPI DUP3 PUSH2 0x3E8B PUSH8 0xDE0B6B3A7640000 DUP4 PUSH2 0x4548 JUMP JUMPDEST PUSH2 0x3E95 SWAP2 SWAP1 PUSH2 0x455F JUMP JUMPDEST PUSH2 0x3E9F SWAP1 DUP9 PUSH2 0x4471 JUMP JUMPDEST SWAP10 POP POP POP POP POP POP POP POP POP POP SWAP1 JUMP JUMPDEST POP SWAP5 SWAP9 SWAP8 POP POP POP POP POP POP POP POP JUMP JUMPDEST PUSH1 0x1 PUSH1 0x1 PUSH1 0xA0 SHL SUB DUP3 AND PUSH2 0x3EE5 JUMPI PUSH1 0x40 MLOAD PUSH4 0xEC442F05 PUSH1 0xE0 SHL DUP2 MSTORE PUSH1 0x0 PUSH1 0x4 DUP3 ADD MSTORE PUSH1 0x24 ADD PUSH2 0xA74 JUMP JUMPDEST PUSH2 0x1B0D PUSH1 0x0 DUP4 DUP4 PUSH2 0x3FC6 JUMP JUMPDEST PUSH1 0x1 PUSH1 0x1 PUSH1 0xA0 SHL SUB DUP5 AND PUSH2 0x3F1B JUMPI PUSH1 0x40 MLOAD PUSH4 0xE602DF05 PUSH1 0xE0 SHL DUP2 MSTORE PUSH1 0x0 PUSH1 0x4 DUP3 ADD MSTORE PUSH1 0x24 ADD PUSH2 0xA74 JUMP JUMPDEST PUSH1 0x1 PUSH1 0x1 PUSH1 0xA0 SHL SUB DUP4 AND PUSH2 0x3F45 JUMPI PUSH1 0x40 MLOAD PUSH4 0x4A1406B1 PUSH1 0xE1 SHL DUP2 MSTORE PUSH1 0x0 PUSH1 0x4 DUP3 ADD MSTORE PUSH1 0x24 ADD PUSH2 0xA74 JUMP JUMPDEST PUSH1 0x1 PUSH1 0x1 PUSH1 0xA0 SHL SUB DUP1 DUP6 AND PUSH1 0x0 SWAP1 DUP2 MSTORE PUSH1 0x1 PUSH1 0x20 SWAP1 DUP2 MSTORE PUSH1 0x40 DUP1 DUP4 KECCAK256 SWAP4 DUP8 AND DUP4 MSTORE SWAP3 SWAP1 MSTORE KECCAK256 DUP3 SWAP1 SSTORE DUP1 ISZERO PUSH2 0x2CF8 JUMPI DUP3 PUSH1 0x1 PUSH1 0x1 PUSH1 0xA0 SHL SUB AND DUP5 PUSH1 0x1 PUSH1 0x1 PUSH1 0xA0 SHL SUB AND PUSH32 0x8C5BE1E5EBEC7D5BD14F71427D1E84F3DD0314C0F7B2291E5B200AC8C7C3B925 DUP5 PUSH1 0x40 MLOAD PUSH2 0x3FB8 SWAP2 DUP2 MSTORE PUSH1 0x20 ADD SWAP1 JUMP JUMPDEST PUSH1 0x40 MLOAD DUP1 SWAP2 SUB SWAP1 LOG3 POP POP POP POP JUMP JUMPDEST PUSH1 0x1 PUSH1 0x1 PUSH1 0xA0 SHL SUB DUP4 AND PUSH2 0x3FF1 JUMPI DUP1 PUSH1 0x2 PUSH1 0x0 DUP3 DUP3 SLOAD PUSH2 0x3FE6 SWAP2 SWAP1 PUSH2 0x4471 JUMP JUMPDEST SWAP1 SWAP2 SSTORE POP PUSH2 0x4063 SWAP1 POP JUMP JUMPDEST PUSH1 0x1 PUSH1 0x1 PUSH1 0xA0 SHL SUB DUP4 AND PUSH1 0x0 SWAP1 DUP2 MSTORE PUSH1 0x20 DUP2 SWAP1 MSTORE PUSH1 0x40 SWAP1 KECCAK256 SLOAD DUP2 DUP2 LT ISZERO PUSH2 0x4044 JUMPI PUSH1 0x40 MLOAD PUSH4 0x391434E3 PUSH1 0xE2 SHL DUP2 MSTORE PUSH1 0x1 PUSH1 0x1 PUSH1 0xA0 SHL SUB DUP6 AND PUSH1 0x4 DUP3 ADD MSTORE PUSH1 0x24 DUP2 ADD DUP3 SWAP1 MSTORE PUSH1 0x44 DUP2 ADD DUP4 SWAP1 MSTORE PUSH1 0x64 ADD PUSH2 0xA74 JUMP JUMPDEST PUSH1 0x1 PUSH1 0x1 PUSH1 0xA0 SHL SUB DUP5 AND PUSH1 0x0 SWAP1 DUP2 MSTORE PUSH1 0x20 DUP2 SWAP1 MSTORE PUSH1 0x40 SWAP1 KECCAK256 SWAP1 DUP3 SWAP1 SUB SWAP1 SSTORE JUMPDEST PUSH1 0x1 PUSH1 0x1 PUSH1 0xA0 SHL SUB DUP3 AND PUSH2 0x407F JUMPI PUSH1 0x2 DUP1 SLOAD DUP3 SWAP1 SUB SWAP1 SSTORE PUSH2 0x409E JUMP JUMPDEST PUSH1 0x1 PUSH1 0x1 PUSH1 0xA0 SHL SUB DUP3 AND PUSH1 0x0 SWAP1 DUP2 MSTORE PUSH1 0x20 DUP2 SWAP1 MSTORE PUSH1 0x40 SWAP1 KECCAK256 DUP1 SLOAD DUP3 ADD SWAP1 SSTORE JUMPDEST DUP2 PUSH1 0x1 PUSH1 0x1 PUSH1 0xA0 SHL SUB AND DUP4 PUSH1 0x1 PUSH1 0x1 PUSH1 0xA0 SHL SUB AND PUSH32 0xDDF252AD1BE2C89B69C2B068FC378DAA952BA7F163C4A11628F55A4DF523B3EF DUP4 PUSH1 0x40 MLOAD PUSH2 0x40E3 SWAP2 DUP2 MSTORE PUSH1 0x20 ADD SWAP1 JUMP JUMPDEST PUSH1 0x40 MLOAD DUP1 SWAP2 SUB SWAP1 LOG3 POP POP POP JUMP JUMPDEST PUSH1 0x0 PUSH1 0x20 DUP3 DUP5 SUB SLT ISZERO PUSH2 0x4102 JUMPI PUSH1 0x0 DUP1 REVERT JUMPDEST POP CALLDATALOAD SWAP2 SWAP1 POP JUMP JUMPDEST PUSH1 0x0 DUP2 MLOAD DUP1 DUP5 MSTORE PUSH1 0x0 JUMPDEST DUP2 DUP2 LT ISZERO PUSH2 0x412F JUMPI PUSH1 0x20 DUP2 DUP6 ADD DUP2 ADD MLOAD DUP7 DUP4 ADD DUP3 ADD MSTORE ADD PUSH2 0x4113 JUMP JUMPDEST POP PUSH1 0x0 PUSH1 0x20 DUP3 DUP7 ADD ADD MSTORE PUSH1 0x20 PUSH1 0x1F NOT PUSH1 0x1F DUP4 ADD AND DUP6 ADD ADD SWAP2 POP POP SWAP3 SWAP2 POP POP JUMP JUMPDEST PUSH1 0x20 DUP2 MSTORE PUSH1 0x0 PUSH2 0x13D3 PUSH1 0x20 DUP4 ADD DUP5 PUSH2 0x4109 JUMP JUMPDEST DUP1 CALLDATALOAD PUSH1 0x1 PUSH1 0x1 PUSH1 0xA0 SHL SUB DUP2 AND DUP2 EQ PUSH2 0x4179 JUMPI PUSH1 0x0 DUP1 REVERT JUMPDEST SWAP2 SWAP1 POP JUMP JUMPDEST PUSH1 0x0 DUP1 PUSH1 0x40 DUP4 DUP6 SUB SLT ISZERO PUSH2 0x4191 JUMPI PUSH1 0x0 DUP1 REVERT JUMPDEST PUSH2 0x419A DUP4 PUSH2 0x4162 JUMP JUMPDEST SWAP5 PUSH1 0x20 SWAP4 SWAP1 SWAP4 ADD CALLDATALOAD SWAP4 POP POP POP JUMP JUMPDEST PUSH1 0x0 DUP1 PUSH1 0x0 PUSH1 0x60 DUP5 DUP7 SUB SLT ISZERO PUSH2 0x41BD JUMPI PUSH1 0x0 DUP1 REVERT JUMPDEST PUSH2 0x41C6 DUP5 PUSH2 0x4162 JUMP JUMPDEST SWAP3 POP PUSH2 0x41D4 PUSH1 0x20 DUP6 ADD PUSH2 0x4162 JUMP JUMPDEST SWAP2 POP PUSH1 0x40 DUP5 ADD CALLDATALOAD SWAP1 POP SWAP3 POP SWAP3 POP SWAP3 JUMP JUMPDEST DUP1 CALLDATALOAD PUSH1 0xFF DUP2 AND DUP2 EQ PUSH2 0x4179 JUMPI PUSH1 0x0 DUP1 REVERT JUMPDEST PUSH4 0x4E487B71 PUSH1 0xE0 SHL PUSH1 0x0 MSTORE PUSH1 0x41 PUSH1 0x4 MSTORE PUSH1 0x24 PUSH1 0x0 REVERT JUMPDEST PUSH1 0x0 DUP1 PUSH1 0x0 PUSH1 0x60 DUP5 DUP7 SUB SLT ISZERO PUSH2 0x4220 JUMPI PUSH1 0x0 DUP1 REVERT JUMPDEST DUP4 CALLDATALOAD SWAP3 POP PUSH2 0x4230 PUSH1 0x20 DUP6 ADD PUSH2 0x41E4 JUMP JUMPDEST SWAP2 POP PUSH1 0x40 DUP5 ADD CALLDATALOAD PUSH8 0xFFFFFFFFFFFFFFFF DUP1 DUP3 GT ISZERO PUSH2 0x424D JUMPI PUSH1 0x0 DUP1 REVERT JUMPDEST DUP2 DUP7 ADD SWAP2 POP DUP7 PUSH1 0x1F DUP4 ADD SLT PUSH2 0x4261 JUMPI PUSH1 0x0 DUP1 REVERT JUMPDEST DUP2 CALLDATALOAD DUP2 DUP2 GT ISZERO PUSH2 0x4273 JUMPI PUSH2 0x4273 PUSH2 0x41F5 JUMP JUMPDEST PUSH1 0x40 MLOAD PUSH1 0x1F DUP3 ADD PUSH1 0x1F NOT SWAP1 DUP2 AND PUSH1 0x3F ADD AND DUP2 ADD SWAP1 DUP4 DUP3 GT DUP2 DUP4 LT OR ISZERO PUSH2 0x429B JUMPI PUSH2 0x429B PUSH2 0x41F5 JUMP JUMPDEST DUP2 PUSH1 0x40 MSTORE DUP3 DUP2 MSTORE DUP10 PUSH1 0x20 DUP5 DUP8 ADD ADD GT ISZERO PUSH2 0x42B4 JUMPI PUSH1 0x0 DUP1 REVERT JUMPDEST DUP3 PUSH1 0x20 DUP7 ADD PUSH1 0x20 DUP4 ADD CALLDATACOPY PUSH1 0x0 PUSH1 0x20 DUP5 DUP4 ADD ADD MSTORE DUP1 SWAP6 POP POP POP POP POP POP SWAP3 POP SWAP3 POP SWAP3 JUMP JUMPDEST PUSH1 0x0 DUP1 PUSH1 0x40 DUP4 DUP6 SUB SLT ISZERO PUSH2 0x42E9 JUMPI PUSH1 0x0 DUP1 REVERT JUMPDEST DUP3 CALLDATALOAD SWAP2 POP PUSH2 0x42F9 PUSH1 0x20 DUP5 ADD PUSH2 0x4162 JUMP JUMPDEST SWAP1 POP SWAP3 POP SWAP3 SWAP1 POP JUMP JUMPDEST PUSH1 0x0 DUP1 PUSH1 0x40 DUP4 DUP6 SUB SLT ISZERO PUSH2 0x4315 JUMPI PUSH1 0x0 DUP1 REVERT JUMPDEST DUP3 CALLDATALOAD SWAP2 POP PUSH2 0x42F9 PUSH1 0x20 DUP5 ADD PUSH2 0x41E4 JUMP JUMPDEST PUSH1 0x0 DUP1 PUSH1 0x0 PUSH1 0x60 DUP5 DUP7 SUB SLT ISZERO PUSH2 0x433A JUMPI PUSH1 0x0 DUP1 REVERT JUMPDEST DUP4 CALLDATALOAD SWAP3 POP PUSH2 0x41D4 PUSH1 0x20 DUP6 ADD PUSH2 0x41E4 JUMP JUMPDEST PUSH1 0x0 PUSH1 0x20 DUP3 DUP5 SUB SLT ISZERO PUSH2 0x435C JUMPI PUSH1 0x0 DUP1 REVERT JUMPDEST PUSH2 0x13D3 DUP3 PUSH2 0x4162 JUMP JUMPDEST PUSH1 0xFF DUP8 AND DUP2 MSTORE DUP6 PUSH1 0x20 DUP3 ADD MSTORE DUP5 PUSH1 0x40 DUP3 ADD MSTORE DUP4 PUSH1 0x60 DUP3 ADD MSTORE DUP3 PUSH1 0x80 DUP3 ADD MSTORE PUSH1 0xC0 PUSH1 0xA0 DUP3 ADD MSTORE PUSH1 0x0 PUSH2 0x4399 PUSH1 0xC0 DUP4 ADD DUP5 PUSH2 0x4109 JUMP JUMPDEST SWAP9 SWAP8 POP POP POP POP POP POP POP POP JUMP JUMPDEST PUSH4 0x4E487B71 PUSH1 0xE0 SHL PUSH1 0x0 MSTORE PUSH1 0x21 PUSH1 0x4 MSTORE PUSH1 0x24 PUSH1 0x0 REVERT JUMPDEST PUSH1 0x20 DUP2 ADD PUSH1 0x3 DUP4 LT PUSH2 0x43CF JUMPI PUSH2 0x43CF PUSH2 0x43A5 JUMP JUMPDEST SWAP2 SWAP1 MSTORE SWAP1 JUMP JUMPDEST PUSH1 0x0 DUP1 PUSH1 0x40 DUP4 DUP6 SUB SLT ISZERO PUSH2 0x43E8 JUMPI PUSH1 0x0 DUP1 REVERT JUMPDEST PUSH2 0x43F1 DUP4 PUSH2 0x4162 JUMP JUMPDEST SWAP2 POP PUSH2 0x42F9 PUSH1 0x20 DUP5 ADD PUSH2 0x4162 JUMP JUMPDEST PUSH1 0x0 PUSH1 0x20 DUP3 DUP5 SUB SLT ISZERO PUSH2 0x4411 JUMPI PUSH1 0x0 DUP1 REVERT JUMPDEST DUP2 MLOAD PUSH1 0x8 DUP2 LT PUSH2 0x13D3 JUMPI PUSH1 0x0 DUP1 REVERT JUMPDEST PUSH1 0x1 PUSH1 0x1 PUSH1 0xA0 SHL SUB SWAP3 SWAP1 SWAP3 AND DUP3 MSTORE PUSH1 0x20 DUP3 ADD MSTORE PUSH1 0x40 ADD SWAP1 JUMP JUMPDEST PUSH1 0x0 PUSH1 0x20 DUP3 DUP5 SUB SLT ISZERO PUSH2 0x444B JUMPI PUSH1 0x0 DUP1 REVERT JUMPDEST DUP2 MLOAD DUP1 ISZERO ISZERO DUP2 EQ PUSH2 0x13D3 JUMPI PUSH1 0x0 DUP1 REVERT JUMPDEST PUSH4 0x4E487B71 PUSH1 0xE0 SHL PUSH1 0x0 MSTORE PUSH1 0x11 PUSH1 0x4 MSTORE PUSH1 0x24 PUSH1 0x0 REVERT JUMPDEST DUP1 DUP3 ADD DUP1 DUP3 GT ISZERO PUSH2 0x1203 JUMPI PUSH2 0x1203 PUSH2 0x445B JUMP JUMPDEST PUSH1 0x1 DUP2 DUP2 SHR SWAP1 DUP3 AND DUP1 PUSH2 0x4498 JUMPI PUSH1 0x7F DUP3 AND SWAP2 POP JUMPDEST PUSH1 0x20 DUP3 LT DUP2 SUB PUSH2 0x44B8 JUMPI PUSH4 0x4E487B71 PUSH1 0xE0 SHL PUSH1 0x0 MSTORE PUSH1 0x22 PUSH1 0x4 MSTORE PUSH1 0x24 PUSH1 0x0 REVERT JUMPDEST POP SWAP2 SWAP1 POP JUMP JUMPDEST PUSH1 0x20 DUP1 DUP3 MSTORE PUSH1 0x1D SWAP1 DUP3 ADD MSTORE PUSH32 0x416D6F756E74206D7573742062652067726561746572207468616E2030000000 PUSH1 0x40 DUP3 ADD MSTORE PUSH1 0x60 ADD SWAP1 JUMP JUMPDEST DUP2 DUP2 SUB DUP2 DUP2 GT ISZERO PUSH2 0x1203 JUMPI PUSH2 0x1203 PUSH2 0x445B JUMP JUMPDEST PUSH1 0x0 PUSH1 0x20 DUP3 DUP5 SUB SLT ISZERO PUSH2 0x451A JUMPI PUSH1 0x0 DUP1 REVERT JUMPDEST POP MLOAD SWAP2 SWAP1 POP JUMP JUMPDEST PUSH1 0x1 PUSH1 0x1 PUSH1 0x80 SHL SUB DUP2 DUP2 AND DUP4 DUP3 AND ADD SWAP1 DUP1 DUP3 GT ISZERO PUSH2 0x4541 JUMPI PUSH2 0x4541 PUSH2 0x445B JUMP JUMPDEST POP SWAP3 SWAP2 POP POP JUMP JUMPDEST DUP1 DUP3 MUL DUP2 ISZERO DUP3 DUP3 DIV DUP5 EQ OR PUSH2 0x1203 JUMPI PUSH2 0x1203 PUSH2 0x445B JUMP JUMPDEST PUSH1 0x0 DUP3 PUSH2 0x457C JUMPI PUSH4 0x4E487B71 PUSH1 0xE0 SHL PUSH1 0x0 MSTORE PUSH1 0x12 PUSH1 0x4 MSTORE PUSH1 0x24 PUSH1 0x0 REVERT JUMPDEST POP DIV SWAP1 JUMP JUMPDEST PUSH1 0x0 DUP2 PUSH2 0x4590 JUMPI PUSH2 0x4590 PUSH2 0x445B JUMP JUMPDEST POP PUSH1 0x0 NOT ADD SWAP1 JUMP JUMPDEST PUSH1 0x1F DUP3 GT ISZERO PUSH2 0x1ADC JUMPI PUSH1 0x0 DUP2 DUP2 MSTORE PUSH1 0x20 DUP2 KECCAK256 PUSH1 0x1F DUP6 ADD PUSH1 0x5 SHR DUP2 ADD PUSH1 0x20 DUP7 LT ISZERO PUSH2 0x45BF JUMPI POP DUP1 JUMPDEST PUSH1 0x1F DUP6 ADD PUSH1 0x5 SHR DUP3 ADD SWAP2 POP JUMPDEST DUP2 DUP2 LT ISZERO PUSH2 0x3526 JUMPI DUP3 DUP2 SSTORE PUSH1 0x1 ADD PUSH2 0x45CB JUMP JUMPDEST DUP2 MLOAD PUSH8 0xFFFFFFFFFFFFFFFF DUP2 GT ISZERO PUSH2 0x45F8 JUMPI PUSH2 0x45F8 PUSH2 0x41F5 JUMP JUMPDEST PUSH2 0x460C DUP2 PUSH2 0x4606 DUP5 SLOAD PUSH2 0x4484 JUMP JUMPDEST DUP5 PUSH2 0x4598 JUMP JUMPDEST PUSH1 0x20 DUP1 PUSH1 0x1F DUP4 GT PUSH1 0x1 DUP2 EQ PUSH2 0x4641 JUMPI PUSH1 0x0 DUP5 ISZERO PUSH2 0x4629 JUMPI POP DUP6 DUP4 ADD MLOAD JUMPDEST PUSH1 0x0 NOT PUSH1 0x3 DUP7 SWAP1 SHL SHR NOT AND PUSH1 0x1 DUP6 SWAP1 SHL OR DUP6 SSTORE PUSH2 0x3526 JUMP JUMPDEST PUSH1 0x0 DUP6 DUP2 MSTORE PUSH1 0x20 DUP2 KECCAK256 PUSH1 0x1F NOT DUP7 AND SWAP2 JUMPDEST DUP3 DUP2 LT ISZERO PUSH2 0x4670 JUMPI DUP9 DUP7 ADD MLOAD DUP3 SSTORE SWAP5 DUP5 ADD SWAP5 PUSH1 0x1 SWAP1 SWAP2 ADD SWAP1 DUP5 ADD PUSH2 0x4651 JUMP JUMPDEST POP DUP6 DUP3 LT ISZERO PUSH2 0x468E JUMPI DUP8 DUP6 ADD MLOAD PUSH1 0x0 NOT PUSH1 0x3 DUP9 SWAP1 SHL PUSH1 0xF8 AND SHR NOT AND DUP2 SSTORE JUMPDEST POP POP POP POP POP PUSH1 0x1 SWAP1 DUP2 SHL ADD SWAP1 SSTORE POP JUMP JUMPDEST PUSH1 0x0 PUSH1 0x1 DUP3 ADD PUSH2 0x46B0 JUMPI PUSH2 0x46B0 PUSH2 0x445B JUMP JUMPDEST POP PUSH1 0x1 ADD SWAP1 JUMP JUMPDEST PUSH1 0xFF DUP7 AND DUP2 MSTORE DUP5 PUSH1 0x20 DUP3 ADD MSTORE DUP4 PUSH1 0x40 DUP3 ADD MSTORE DUP3 PUSH1 0x60 DUP3 ADD MSTORE PUSH1 0xA0 PUSH1 0x80 DUP3 ADD MSTORE PUSH1 0x0 PUSH2 0x46E5 PUSH1 0xA0 DUP4 ADD DUP5 PUSH2 0x4109 JUMP JUMPDEST SWAP8 SWAP7 POP POP POP POP POP POP POP JUMP JUMPDEST PUSH1 0x8 DUP2 LT PUSH2 0x4700 JUMPI PUSH2 0x4700 PUSH2 0x43A5 JUMP JUMPDEST SWAP1 MSTORE JUMP JUMPDEST PUSH1 0x40 DUP2 ADD PUSH2 0x4712 DUP3 DUP6 PUSH2 0x46F0 JUMP JUMPDEST PUSH2 0x13D3 PUSH1 0x20 DUP4 ADD DUP5 PUSH2 0x46F0 JUMP INVALID LOG2 PUSH5 0x6970667358 0x22 SLT KECCAK256 PUSH18 0x7DE8B43B21359765D791DBBD428C6CAEBBBA PUSH26 0x4897B94D5BE0D394516BF55B64736F6C63430008150033000000 "},"methodIdentifiers":{"BASIS_POINTS()":"e1f1c4a7","COMPOUND_GOVERNOR()":"8ad4bba2","COMP_TOKEN()":"10d41083","DELEGATE_REWARD_PERCENT()":"e1ac18e0","DELEGATION_CAP_PERCENT()":"0549f067","MAX_PROPOSAL_RESOLUTION_TIME()":"be8363cd","MIN_LOCK_PERIOD()":"385dc3df","REWARD_PRECISION()":"3d6aa5e1","activeProposals(uint256)":"e40824f8","allVotes(uint256)":"de63f432","allowance(address,address)":"dd62ed3e","approve(address,uint256)":"095ea7b3","availableRewards()":"879d9090","balanceOf(address)":"70a08231","blocksPerDay()":"4cfea68a","castVote(uint256,uint8)":"56781388","castVote(uint256,uint8,string)":"470b7622","claimRewards()":"372500ab","contractVoteDirection(uint256)":"27be553b","contractVoted(uint256)":"bdd3e805","decimals()":"313ce567","delegateInfo()":"8aba3382","delegationCap()":"43c79ad0","getContractVotingPower()":"ed6b780d","getContractVotingPowerAt(uint256)":"39d2a199","getPendingRewards(address)":"f6ed2017","getProposalStake(uint256,address)":"558a2dcc","getTotalVotesCast()":"92e2c6d2","getVoteByIndex(uint256)":"fe86e057","getVoteInfo(uint256)":"8d824273","lastRewarded()":"d133a00e","latestProposalId()":"7f0edf33","name()":"06fdde03","owner()":"8da5cb5b","ownerDeposit(uint256)":"141833dc","ownerWithdraw(uint256)":"33f707d1","pendingProposals(uint256)":"6a61cf61","proposalCreationTime(uint256)":"dafad631","proposalOutcomes(uint256)":"a9c0310d","proposalStakes(uint256,address)":"8ea15be6","reclaimStake(uint256)":"85c6ccca","renounceOwnership()":"715018a6","resolveProposal(uint256)":"0062804e","rewardIndex()":"e9ee2fa9","rewardRate()":"7b0a47ee","rewardsUntil()":"d74e7a3a","setBlocksPerDay(uint256)":"353b6c2c","setRewardRate(uint256)":"9e447fc6","stakeForProposal(uint256,uint8,uint256)":"5d95750e","startRewardIndex(address)":"a7926ada","symbol()":"95d89b41","totalDelegatedCOMP()":"79fcfef1","totalPendingRewards()":"ec1371f2","totalStakesAgainst(uint256)":"057e1680","totalStakesFor(uint256)":"baf98372","totalSupply()":"18160ddd","transfer(address,uint256)":"a9059cbb","transferFrom(address,address,uint256)":"23b872dd","transferOwnership(address)":"f2fde38b","unclaimedRewards(address)":"949813b8","unlockTime(address)":"76b467b7","userDeposit(uint256)":"f868e766","userWithdraw(uint256)":"3b9056bf","voteCount()":"c6384071","voteInfo(uint256)":"8494ff35"}}}}}