{"contracts/CompensatorFactory.sol":{"CompensatorFactory":{"abi":[{"inputs":[{"internalType":"address","name":"_compToken","type":"address"},{"internalType":"address","name":"_compoundGovernor","type":"address"}],"stateMutability":"nonpayable","type":"constructor"},{"anonymous":false,"inputs":[{"indexed":true,"internalType":"address","name":"owner","type":"address"},{"indexed":true,"internalType":"address","name":"compensator","type":"address"}],"name":"CompensatorCreated","type":"event"},{"inputs":[],"name":"COMPOUND_GOVERNOR","outputs":[{"internalType":"address","name":"","type":"address"}],"stateMutability":"view","type":"function"},{"inputs":[],"name":"COMP_TOKEN","outputs":[{"internalType":"address","name":"","type":"address"}],"stateMutability":"view","type":"function"},{"inputs":[{"internalType":"uint256","name":"","type":"uint256"}],"name":"compensators","outputs":[{"internalType":"address","name":"","type":"address"}],"stateMutability":"view","type":"function"},{"inputs":[{"internalType":"address","name":"owner","type":"address"}],"name":"createCompensator","outputs":[{"internalType":"address","name":"","type":"address"}],"stateMutability":"nonpayable","type":"function"},{"inputs":[],"name":"createCompensatorForSelf","outputs":[{"internalType":"address","name":"","type":"address"}],"stateMutability":"nonpayable","type":"function"},{"inputs":[{"internalType":"address","name":"owner","type":"address"}],"name":"getCompensator","outputs":[{"internalType":"address","name":"","type":"address"}],"stateMutability":"view","type":"function"},{"inputs":[{"internalType":"uint256","name":"offset","type":"uint256"},{"internalType":"uint256","name":"limit","type":"uint256"}],"name":"getCompensators","outputs":[{"internalType":"address[]","name":"","type":"address[]"}],"stateMutability":"view","type":"function"},{"inputs":[],"name":"getCompensatorsCount","outputs":[{"internalType":"uint256","name":"","type":"uint256"}],"stateMutability":"view","type":"function"},{"inputs":[{"internalType":"address","name":"owner","type":"address"}],"name":"hasCompensator","outputs":[{"internalType":"bool","name":"","type":"bool"}],"stateMutability":"view","type":"function"},{"inputs":[{"internalType":"address","name":"owner","type":"address"}],"name":"ownerToCompensator","outputs":[{"internalType":"address","name":"compensator","type":"address"}],"stateMutability":"view","type":"function"}],"evm":{"bytecode":{"linkReferences":{},"object":"60c060405234801561001057600080fd5b5060405161581c38038061581c83398101604081905261002f9161011d565b6001600160a01b03821661008a5760405162461bcd60e51b815260206004820152601a60248201527f496e76616c696420434f4d5020746f6b656e206164647265737300000000000060448201526064015b60405180910390fd5b6001600160a01b0381166100ea5760405162461bcd60e51b815260206004820152602160248201527f496e76616c696420436f6d706f756e6420476f7665726e6f72206164647265736044820152607360f81b6064820152608401610081565b6001600160a01b039182166080521660a052610150565b80516001600160a01b038116811461011857600080fd5b919050565b6000806040838503121561013057600080fd5b61013983610101565b915061014760208401610101565b90509250929050565b60805160a05161569a61018260003960008181610185015261045a01526000818160dd0152610439015261569a6000f3fe60806040523480156200001157600080fd5b5060043610620000ab5760003560e01c80638ad4bba2116200006e5780638ad4bba2146200017f578063a1478c9814620001a7578063cb97922f14620001d6578063cf199bf914620001fc578063eb208934146200021357600080fd5b806306d10acf14620000b057806310d4108314620000d75780632738270914620000ff578063461f931c1462000141578063767829cb146200016d575b600080fd5b620000ba6200022a565b6040516001600160a01b0390911681526020015b60405180910390f35b620000ba7f000000000000000000000000000000000000000000000000000000000000000081565b620001306200011036600462000598565b6001600160a01b0390811660009081526001602052604090205416151590565b6040519015158152602001620000ce565b620000ba6200015236600462000598565b6001602052600090815260409020546001600160a01b031681565b600054604051908152602001620000ce565b620000ba7f000000000000000000000000000000000000000000000000000000000000000081565b620000ba620001b836600462000598565b6001600160a01b039081166000908152600160205260409020541690565b620001ed620001e7366004620005ca565b6200023c565b604051620000ce9190620005ed565b620000ba6200020d36600462000598565b62000375565b620000ba620002243660046200063c565b6200055f565b6000620002373362000375565b905090565b600054606090801580620002505750808410155b156200026d5750506040805160008152602081019091526200036f565b82816200027b828762000682565b111562000291576200028e858362000698565b90505b60008167ffffffffffffffff811115620002af57620002af62000656565b604051908082528060200260200182016040528015620002d9578160200160208202803683370190505b50905060005b8281101562000369576000620002f6828962000682565b81548110620003095762000309620006ae565b9060005260206000200160009054906101000a90046001600160a01b03168282815181106200033c576200033c620006ae565b6001600160a01b0390921660209283029190910190910152806200036081620006c4565b915050620002df565b50925050505b92915050565b60006001600160a01b038216620003cb5760405162461bcd60e51b8152602060048201526015602482015274496e76616c6964206f776e6572206164647265737360581b60448201526064015b60405180910390fd5b6001600160a01b038281166000908152600160205260409020541615620004355760405162461bcd60e51b815260206004820152601f60248201527f4f776e657220616c726561647920686173206120436f6d70656e7361746f72006044820152606401620003c2565b60007f00000000000000000000000000000000000000000000000000000000000000007f00000000000000000000000000000000000000000000000000000000000000008460405162000488906200058a565b6001600160a01b03938416815291831660208301529091166040820152606001604051809103906000f080158015620004c5573d6000803e3d6000fd5b5060008054600181810183557f290decd9548b62a8d60345a988386fc84ba6bc95484008f6362f93160ef3e56390910180546001600160a01b038086166001600160a01b03199283168117909355881680855260209390935260408085208054909216831790915551939450849390927ff9b38e7b6f2e9bb6ed0b9563c8b238a143966cd57e2d39c7b486b73a808d641e91a39392505050565b600081815481106200057057600080fd5b6000918252602090912001546001600160a01b0316905081565b614f8480620006e183390190565b600060208284031215620005ab57600080fd5b81356001600160a01b0381168114620005c357600080fd5b9392505050565b60008060408385031215620005de57600080fd5b50508035926020909101359150565b6020808252825182820181905260009190848201906040850190845b81811015620006305783516001600160a01b03168352928401929184019160010162000609565b50909695505050505050565b6000602082840312156200064f57600080fd5b5035919050565b634e487b7160e01b600052604160045260246000fd5b634e487b7160e01b600052601160045260246000fd5b808201808211156200036f576200036f6200066c565b818103818111156200036f576200036f6200066c565b634e487b7160e01b600052603260045260246000fd5b600060018201620006d957620006d96200066c565b506001019056fe60c0604052611964601b553480156200001757600080fd5b5060405162004f8438038062004f848339810160408190526200003a9162000405565b806040518060400160405280600b81526020016a21b7b6b832b739b0ba37b960a91b8152506040518060400160405280600b81526020016a21a7a6a822a729a0aa27a960a91b8152508160039081620000949190620004f4565b506004620000a38282620004f4565b50506001600555506001600160a01b038116620000db57604051631e4fbdf760e01b8152600060048201526024015b60405180910390fd5b620000e68162000396565b506001600160a01b0383166200013f5760405162461bcd60e51b815260206004820152601a60248201527f496e76616c696420434f4d5020746f6b656e20616464726573730000000000006044820152606401620000d2565b6001600160a01b038216620001a15760405162461bcd60e51b815260206004820152602160248201527f496e76616c696420436f6d706f756e6420476f7665726e6f72206164647265736044820152607360f81b6064820152608401620000d2565b6001600160a01b038116620001f95760405162461bcd60e51b815260206004820152601560248201527f496e76616c6964206f776e6572206164647265737300000000000000000000006044820152606401620000d2565b6001600160a01b03808416608081905290831660a052670de0b6b3a7640000600955604080516318160ddd60e01b81529051600092916318160ddd9160048083019260209291908290030181865afa1580156200025a573d6000803e3d6000fd5b505050506040513d601f19601f82011682018060405250810190620002809190620005c0565b905060008111620002d45760405162461bcd60e51b815260206004820152601960248201527f496e76616c696420434f4d5020746f74616c20737570706c79000000000000006044820152606401620000d2565b600c54612710620002e86101f484620005da565b620002f4919062000606565b600c819055620003475760405162461bcd60e51b815260206004820152601860248201527f44656c65676174696f6e2063617020746f6f20736d616c6c00000000000000006044820152606401620000d2565b600c5460408051838152602081019290925281018390527fc72f87e837aeb21e01377ca632cdae4e68649b7216568ff0a62e4cbdcee740089060600160405180910390a1505050505062000629565b600680546001600160a01b038381166001600160a01b0319831681179093556040519116919082907f8be0079c531659141344cd1fd0a4f28419497f9722a3daafe3b4186f6b6457e090600090a35050565b80516001600160a01b03811681146200040057600080fd5b919050565b6000806000606084860312156200041b57600080fd5b6200042684620003e8565b92506200043660208501620003e8565b91506200044660408501620003e8565b90509250925092565b634e487b7160e01b600052604160045260246000fd5b600181811c908216806200047a57607f821691505b6020821081036200049b57634e487b7160e01b600052602260045260246000fd5b50919050565b601f821115620004ef57600081815260208120601f850160051c81016020861015620004ca5750805b601f850160051c820191505b81811015620004eb57828155600101620004d6565b5050505b505050565b81516001600160401b038111156200051057620005106200044f565b620005288162000521845462000465565b84620004a1565b602080601f831160018114620005605760008415620005475750858301515b600019600386901b1c1916600185901b178555620004eb565b600085815260208120601f198616915b82811015620005915788860151825594840194600190910190840162000570565b5085821015620005b05787850151600019600388901b60f8161c191681555b5050505050600190811b01905550565b600060208284031215620005d357600080fd5b5051919050565b80820281158282048414176200060057634e487b7160e01b600052601160045260246000fd5b92915050565b6000826200062457634e487b7160e01b600052601260045260246000fd5b500490565b60805160a0516148786200070c6000396000818161075401528181610af701528181611c1e015281816130700152818161317b01528181613283015281816134de015281816136b1015281816139130152613a8901526000818161046d01528181610d5501528181610e6801528181610f950152818161104a015281816112b60152818161155b015281816117360152818161180b01528181611a1401528181611e7001528181612205015281816125f1015281816128e0015281816129630152818161321101528181613bb601528181613d710152613e3901526148786000f3fe608060405234801561001057600080fd5b50600436106103da5760003560e01c806385c6ccca1161020a578063be8363cd11610125578063e1f1c4a7116100b8578063ed6b780d11610087578063ed6b780d146109b9578063f2fde38b146109c1578063f6ed2017146109d4578063f868e766146109e7578063fe86e057146109fa57600080fd5b8063e1f1c4a71461097b578063e40824f814610984578063e9ee2fa9146109a7578063ec1371f2146109b057600080fd5b8063dafad631116100f4578063dafad63114610906578063dd62ed3e14610926578063de63f4321461095f578063e1ac18e01461097257600080fd5b8063be8363cd146108e2578063c6384071146108ec578063d133a00e146108f5578063d74e7a3a146108fe57600080fd5b8063949813b81161019d578063a9059cbb1161016c578063a9059cbb1461085c578063a9c0310d1461086f578063baf983721461089f578063bdd3e805146108bf57600080fd5b8063949813b81461080157806395d89b41146108215780639e447fc614610829578063a7926ada1461083c57600080fd5b80638d824273116101d95780638d824273146107765780638da5cb5b146107895780638ea15be61461079a57806392e2c6d2146107f957600080fd5b806385c6ccca146106f1578063879d9090146107045780638aba33821461070d5780638ad4bba21461074f57600080fd5b80633b9056bf116102fa5780636a61cf611161028d57806379fcfef11161025c57806379fcfef1146106b15780637b0a47ee146106ba5780637f0edf33146106c35780638494ff35146106cc57600080fd5b80636a61cf611461063d57806370a0823114610660578063715018a61461068957806376b467b71461069157600080fd5b80634cfea68a116102c95780634cfea68a1461059a578063558a2dcc146105a357806356781388146106175780635d95750e1461062a57600080fd5b80633b9056bf1461055c5780633d6aa5e11461056f57806343c79ad01461057e578063470b76221461058757600080fd5b806323b872dd11610372578063353b6c2c11610341578063353b6c2c14610524578063372500ab14610537578063385dc3df1461053f57806339d2a1991461054957600080fd5b806323b872dd146104c257806327be553b146104d5578063313ce5671461050a57806333f707d11461051157600080fd5b8063095ea7b3116103ae578063095ea7b31461044557806310d4108314610468578063141833dc146104a757806318160ddd146104ba57600080fd5b806262804e146103df5780630549f067146103f4578063057e16801461041057806306fdde0314610430575b600080fd5b6103f26103ed3660046141dd565b610a0d565b005b6103fd6101f481565b6040519081526020015b60405180910390f35b6103fd61041e3660046141dd565b60146020526000908152604090205481565b610438611166565b604051610407919061423c565b61045861045336600461426b565b6111f8565b6040519015158152602001610407565b61048f7f000000000000000000000000000000000000000000000000000000000000000081565b6040516001600160a01b039091168152602001610407565b6103f26104b53660046141dd565b611212565b6002546103fd565b6104586104d0366004614295565b6113bd565b6104f86104e33660046141dd565b601a6020526000908152604090205460ff1681565b60405160ff9091168152602001610407565b60126104f8565b6103f261051f3660046141dd565b6113e3565b6103f26105323660046141dd565b611627565b6103f261168a565b6103fd62093a8081565b6103fd6105573660046141dd565b6117f3565b6103f261056a3660046141dd565b61187e565b6103fd670de0b6b3a764000081565b6103fd600c5481565b6103f26105953660046142f8565b611ac8565b6103fd601b5481565b6106026105b13660046143c3565b60009182526012602090815260408084206001600160a01b03939093168452918152918190208151808301909252546001600160801b03808216808452600160801b90920416919092018190529091565b60408051928352602083019190915201610407565b6103f26106253660046143ef565b611aea565b6103f2610638366004614412565b611b1a565b61045861064b3660046141dd565b60186020526000908152604090205460ff1681565b6103fd61066e366004614437565b6001600160a01b031660009081526020819052604090205490565b6103f2611f36565b6103fd61069f366004614437565b60156020526000908152604090205481565b6103fd600b5481565b6103fd60085481565b6103fd60165481565b6106df6106da3660046141dd565b611f48565b60405161040796959493929190614452565b6103f26106ff3660046141dd565b61200d565b6103fd60075481565b601f54602054602154602254602354610727949392919085565b604080519586526020860194909452928401919091526060830152608082015260a001610407565b61048f7f000000000000000000000000000000000000000000000000000000000000000081565b6106df6107843660046141dd565b6122b8565b6006546001600160a01b031661048f565b6107d96107a83660046143c3565b60126020908152600092835260408084209091529082529020546001600160801b0380821691600160801b90041682565b604080516001600160801b03938416815292909116602083015201610407565b601e546103fd565b6103fd61080f366004614437565b600f6020526000908152604090205481565b6104386123ec565b6103f26108373660046141dd565b6123fb565b6103fd61084a366004614437565b600e6020526000908152604090205481565b61045861086a36600461426b565b612516565b61089261087d3660046141dd565b60106020526000908152604090205460ff1681565b60405161040791906144a8565b6103fd6108ad3660046141dd565b60136020526000908152604090205481565b6104586108cd3660046141dd565b60196020526000908152604090205460ff1681565b6103fd62278d0081565b6103fd601e5481565b6103fd600a5481565b6103fd612524565b6103fd6109143660046141dd565b60116020526000908152604090205481565b6103fd6109343660046144c2565b6001600160a01b03918216600090815260016020908152604080832093909416825291909152205490565b6106df61096d3660046141dd565b612597565b6103fd6107d081565b6103fd61271081565b6104586109923660046141dd565b60176020526000908152604090205460ff1681565b6103fd60095481565b6103fd600d5481565b6103fd6125d9565b6103f26109cf366004614437565b612669565b6103fd6109e2366004614437565b6126a4565b6103f26109f53660046141dd565b612745565b6106df610a083660046141dd565b612a07565b610a15612ac3565b60008181526010602052604081205460ff166002811115610a3857610a38614492565b14610a865760405162461bcd60e51b8152602060048201526019602482015278141c9bdc1bdcd85b08185b1c9958591e481c995cdbdb1d9959603a1b60448201526064015b60405180910390fd5b600081815260116020526040902054610ae15760405162461bcd60e51b815260206004820152601760248201527f50726f706f73616c20646f6573206e6f742065786973740000000000000000006044820152606401610a7d565b604051631f27a4f360e11b8152600481018290527f00000000000000000000000000000000000000000000000000000000000000006001600160a01b031690633e4f49e690602401602060405180830381865afa925050508015610b62575060408051601f3d908101601f19168201909252610b5f918101906144ec565b60015b610ba45760405162461bcd60e51b8152602060048201526013602482015272125b9d985b1a59081c1c9bdc1bdcd85b081251606a1b6044820152606401610a7d565b6004816007811115610bb857610bb8614492565b1480610bd557506003816007811115610bd357610bd3614492565b145b80610bf157506006816007811115610bef57610bef614492565b145b80610c0d57506002816007811115610c0b57610c0b614492565b145b80610c2957506007816007811115610c2757610c27614492565b145b610c755760405162461bcd60e51b815260206004820152601960248201527f50726f706f73616c206e6f7420796574207265736f6c766564000000000000006044820152606401610a7d565b60006004826007811115610c8b57610c8b614492565b1480610ca857506007826007811115610ca657610ca6614492565b145b15610cb557506001610cb9565b5060005b8060ff16600114610ccb576001610cce565b60025b6000848152601060205260409020805460ff19166001836002811115610cf657610cf6614492565b021790555060008381526019602052604081205460ff168015610d2c57506000848152601a602052604090205460ff8381169116145b90508015610f5a578160ff16600103610e525760008481526013602052604090205415610e4d577f00000000000000000000000000000000000000000000000000000000000000006001600160a01b031663a9059cbb610d946006546001600160a01b031690565b600087815260136020526040908190205490516001600160e01b031960e085901b168152610dc692919060040161450d565b6020604051808303816000875af1158015610de5573d6000803e3d6000fd5b505050506040513d601f19601f82011682018060405250810190610e099190614526565b506001601f6000016000828254610e20919061455e565b90915550506000848152601360205260408120546021805491929091610e4790849061455e565b90915550505b6110c4565b60008481526014602052604090205415610e4d577f00000000000000000000000000000000000000000000000000000000000000006001600160a01b031663a9059cbb610ea76006546001600160a01b031690565b600087815260146020526040908190205490516001600160e01b031960e085901b168152610ed992919060040161450d565b6020604051808303816000875af1158015610ef8573d6000803e3d6000fd5b505050506040513d601f19601f82011682018060405250810190610f1c9190614526565b506001601f6000016000828254610f33919061455e565b90915550506000848152601460205260408120546021805491929091610e4790849061455e565b6000848152601360205260409020541561100f576000848152601360205260409081902054905163a9059cbb60e01b81526001600160a01b037f0000000000000000000000000000000000000000000000000000000000000000169163a9059cbb91610fca91309160040161450d565b6020604051808303816000875af1158015610fe9573d6000803e3d6000fd5b505050506040513d601f19601f8201168201806040525081019061100d9190614526565b505b600084815260146020526040902054156110c4576000848152601460205260409081902054905163a9059cbb60e01b81526001600160a01b037f0000000000000000000000000000000000000000000000000000000000000000169163a9059cbb9161107f91309160040161450d565b6020604051808303816000875af115801561109e573d6000803e3d6000fd5b505050506040513d601f19601f820116820180604052508101906110c29190614526565b505b6001601f60010160008282546110da919061455e565b9091555050601f5460208054602154604080519485529284019190915282820152517f355935019d4bea1e3d4292ae0d5bb626009619ceed2e19671b61aa405fc788939181900360600190a160405160ff83169085907f42af0d2d7b5985c66a12ed8634edd91f277c4254189c9de953eff76546526e2090600090a35050506111636001600555565b50565b60606003805461117590614571565b80601f01602080910402602001604051908101604052809291908181526020018280546111a190614571565b80156111ee5780601f106111c3576101008083540402835291602001916111ee565b820191906000526020600020905b8154815290600101906020018083116111d157829003601f168201915b5050505050905090565b600033611206818585612aed565b60019150505b92915050565b61121a612ac3565b6006546001600160a01b0316331461126d5760405162461bcd60e51b815260206004820152601660248201527513db9b1e481bdddb995c8818d85b8819195c1bdcda5d60521b6044820152606401610a7d565b6000811161128d5760405162461bcd60e51b8152600401610a7d906145ab565b611295612afa565b80600760008282546112a7919061455e565b90915550506001600160a01b037f0000000000000000000000000000000000000000000000000000000000000000166323b872dd6112ed6006546001600160a01b031690565b6040516001600160e01b031960e084901b1681526001600160a01b039091166004820152306024820152604481018490526064016020604051808303816000875af1158015611340573d6000803e3d6000fd5b505050506040513d601f19601f820116820180604052508101906113649190614526565b506006546001600160a01b03166001600160a01b03167fc286f3b83e4f244dafdd6f12a30c1792eb5c99ba0ee6cb1181aaf6eac30286e8826040516113ab91815260200190565b60405180910390a26111636001600555565b6000336113cb858285612c88565b6113d6858585612d07565b60019150505b9392505050565b6113eb612ac3565b6006546001600160a01b031633146114455760405162461bcd60e51b815260206004820152601760248201527f4f6e6c79206f776e65722063616e2077697468647261770000000000000000006044820152606401610a7d565b600081116114655760405162461bcd60e51b8152600401610a7d906145ab565b600754600d54600061147f6006546001600160a01b031690565b9050600061148d83856145e2565b9050808511156114df5760405162461bcd60e51b815260206004820181905260248201527f416d6f756e74206578636565647320617661696c61626c6520726577617264736044820152606401610a7d565b6114e7612afa565b848410156115375760405162461bcd60e51b815260206004820152601e60248201527f496e73756666696369656e7420617661696c61626c65207265776172647300006044820152606401610a7d565b61154185856145e2565b60075560405163a9059cbb60e01b81526001600160a01b037f0000000000000000000000000000000000000000000000000000000000000000169063a9059cbb90611592908590899060040161450d565b6020604051808303816000875af11580156115b1573d6000803e3d6000fd5b505050506040513d601f19601f820116820180604052508101906115d59190614526565b50816001600160a01b03167f13c461eb29f5d65800bbef5a5b05a06ea13b8b2ef4b889ee170f149bc1c8f8bd8660405161161191815260200190565b60405180910390a2505050506111636001600555565b61162f612d66565b600081118015611640575061c35081105b6116855760405162461bcd60e51b8152602060048201526016602482015275496e76616c696420626c6f636b73207065722064617960501b6044820152606401610a7d565b601b55565b611692612ac3565b61169a612afa565b6116a333612d93565b336000908152600f6020526040902054806116f65760405162461bcd60e51b81526020600482015260136024820152724e6f207265776172647320746f20636c61696d60681b6044820152606401610a7d565b336000908152600f60205260408120819055600d805483929061171a9084906145e2565b909155505060405163a9059cbb60e01b81526001600160a01b037f0000000000000000000000000000000000000000000000000000000000000000169063a9059cbb9061176d903390859060040161450d565b6020604051808303816000875af115801561178c573d6000803e3d6000fd5b505050506040513d601f19601f820116820180604052508101906117b09190614526565b5060405181815233907f1f89f96333d3133000ee447473151fa9606543368f02271c9d95ae14f13bcc679060200160405180910390a2506117f16001600555565b565b60405163b4b5ea5760e01b81523060048201526000907f00000000000000000000000000000000000000000000000000000000000000006001600160a01b03169063b4b5ea5790602401602060405180830381865afa15801561185a573d6000803e3d6000fd5b505050506040513d601f19601f8201168201806040525081019061120c91906145f5565b611886612ac3565b600081116118a65760405162461bcd60e51b8152600401610a7d906145ab565b336000908152601560205260409020544210156118f65760405162461bcd60e51b815260206004820152600e60248201526d10d3d354081a5cc81b1bd8dad95960921b6044820152606401610a7d565b6118fe612e7f565b156119665760405162461bcd60e51b815260206004820152603260248201527f43616e6e6f7420776974686472617720647572696e6720616374697665206f726044820152712070656e64696e672070726f706f73616c7360701b6064820152608401610a7d565b336000908152602081905260409020548111156119bc5760405162461bcd60e51b8152602060048201526014602482015273496e73756666696369656e742062616c616e636560601b6044820152606401610a7d565b6119c4612afa565b6119cd33612d93565b6119d73382612f1c565b80600b60008282546119e991906145e2565b9091555050600954336000818152600e60205260409081902092909255905163a9059cbb60e01b81527f00000000000000000000000000000000000000000000000000000000000000006001600160a01b03169163a9059cbb91611a529190859060040161450d565b6020604051808303816000875af1158015611a71573d6000803e3d6000fd5b505050506040513d601f19601f82011682018060405250810190611a959190614526565b5060405181815233907f98824d89d47225910d3e61aa38b640d29d58b43e2dc47b4d986a588c88e0a2a8906020016113ab565b611ad0612ac3565b611adb838383612f52565b611ae56001600555565b505050565b611af2612ac3565b611b0c828260405180602001604052806000815250612f52565b611b166001600555565b5050565b611b22612ac3565b60ff82161580611b3557508160ff166001145b611b795760405162461bcd60e51b8152602060048201526015602482015274496e76616c696420737570706f72742076616c756560581b6044820152606401610a7d565b60008111611b995760405162461bcd60e51b8152600401610a7d906145ab565b60008381526010602052604081205460ff166002811115611bbc57611bbc614492565b14611c055760405162461bcd60e51b8152602060048201526019602482015278141c9bdc1bdcd85b08185b1c9958591e481c995cdbdb1d9959603a1b6044820152606401610a7d565b604051631f27a4f360e11b8152600481018490526000907f00000000000000000000000000000000000000000000000000000000000000006001600160a01b031690633e4f49e690602401602060405180830381865afa158015611c6d573d6000803e3d6000fd5b505050506040513d601f19601f82011682018060405250810190611c9191906144ec565b90506001816007811115611ca757611ca7614492565b14611d065760405162461bcd60e51b815260206004820152602960248201527f5374616b696e67206f6e6c7920616c6c6f77656420666f72206163746976652060448201526870726f706f73616c7360b81b6064820152608401610a7d565b611d0f84613660565b6000848152601160205260408120549003611d365760008481526011602052604090204290555b8260ff16600103611dc557600084815260126020908152604080832033845290915281208054849290611d739084906001600160801b031661460e565b92506101000a8154816001600160801b0302191690836001600160801b0316021790555081601360008681526020019081526020016000206000828254611dba919061455e565b90915550611e4e9050565b600084815260126020908152604080832033845290915290208054839190601090611e01908490600160801b90046001600160801b031661460e565b92506101000a8154816001600160801b0302191690836001600160801b0316021790555081601460008681526020019081526020016000206000828254611e48919061455e565b90915550505b6040516323b872dd60e01b8152336004820152306024820152604481018390527f00000000000000000000000000000000000000000000000000000000000000006001600160a01b0316906323b872dd906064016020604051808303816000875af1158015611ec1573d6000803e3d6000fd5b505050506040513d601f19601f82011682018060405250810190611ee59190614526565b506040805185815260ff8516602082015290810183905233907fffdf8f2eae7f0d227669096500eec70780fb16cae4c11b9d49e542b483e5f48c9060600160405180910390a250611ae56001600555565b611f3e612d66565b6117f16000613a1e565b601c6020526000908152604090208054600182015460028301546003840154600485015460058601805460ff90961696949593949293919291611f8a90614571565b80601f0160208091040260200160405190810160405280929190818152602001828054611fb690614571565b80156120035780601f10611fd857610100808354040283529160200191612003565b820191906000526020600020905b815481529060010190602001808311611fe657829003601f168201915b5050505050905086565b612015612ac3565b60008181526010602052604081205460ff16600281111561203857612038614492565b148015612060575060008181526011602052604090205461205d9062278d009061455e565b42115b1561206e5761206e81613a70565b60008181526010602052604081205460ff169081600281111561209357612093614492565b036120e05760405162461bcd60e51b815260206004820152601960248201527f50726f706f73616c206e6f74207265736f6c76656420796574000000000000006044820152606401610a7d565b6000828152601260209081526040808320338452909152812090600283600281111561210e5761210e614492565b1490506000811561215f575081546001600160801b03808216845560008681526014602052604081208054600160801b90940490921692839291906121549084906145e2565b909155506121a89050565b5081546fffffffffffffffffffffffffffffffff1981168355600085815260136020526040812080546001600160801b03909316928392906121a29084906145e2565b90915550505b600081116121ee5760405162461bcd60e51b81526020600482015260136024820152724e6f207374616b6520746f207265636c61696d60681b6044820152606401610a7d565b60405163a9059cbb60e01b81526001600160a01b037f0000000000000000000000000000000000000000000000000000000000000000169063a9059cbb9061223c903390859060040161450d565b6020604051808303816000875af115801561225b573d6000803e3d6000fd5b505050506040513d601f19601f8201168201806040525081019061227f9190614526565b50604080518681526020810183905233917f81323285f798ccfb1659756dd71bc5f0e27619e40f243ccf85ace3da6608336f9101611611565b600080600080600060606000601c60008981526020019081526020016000206040518060c00160405290816000820160009054906101000a900460ff1660ff1660ff1681526020016001820154815260200160028201548152602001600382015481526020016004820154815260200160058201805461233790614571565b80601f016020809104026020016040519081016040528092919081815260200182805461236390614571565b80156123b05780601f10612385576101008083540402835291602001916123b0565b820191906000526020600020905b81548152906001019060200180831161239357829003601f168201915b5050509190925250508151602083015160408401516060850151608086015160a090960151939e929d50909b5099509297509550909350505050565b60606004805461117590614571565b612403612ac3565b6006546001600160a01b0316331461245d5760405162461bcd60e51b815260206004820152601e60248201527f4f6e6c79206f776e65722063616e2073657420726577617264207261746500006044820152606401610a7d565b60085481036124c35760405162461bcd60e51b815260206004820152602c60248201527f4e65772072617465206d75737420626520646966666572656e742066726f6d2060448201526b63757272656e74207261746560a01b6064820152608401610a7d565b6124cb612afa565b60088190556006546001600160a01b03166001600160a01b03167fb3986383b0fc50bee9161915d3b51288bb862a90998c77d4f67033fc57837c00826040516113ab91815260200190565b600033611206818585612d07565b60006008546000036125375750600a5490565b6000600d546007541161254b57600061255b565b600d5460075461255b91906145e2565b90506000600854670de0b6b3a7640000836125769190614635565b612580919061464c565b905080600a54612590919061455e565b9250505090565b601d6020526000908152604090208054600182015460028301546003840154600485015460058601805460ff90961696949593949293919291611f8a90614571565b60405163b4b5ea5760e01b81523060048201526000907f00000000000000000000000000000000000000000000000000000000000000006001600160a01b03169063b4b5ea5790602401602060405180830381865afa158015612640573d6000803e3d6000fd5b505050506040513d601f19601f8201168201806040525081019061266491906145f5565b905090565b612671612d66565b6001600160a01b03811661269b57604051631e4fbdf760e01b815260006004820152602401610a7d565b61116381613a1e565b6001600160a01b0381166000908152600f6020908152604080832054918390528220541561120c5760006126d6613ef0565b6001600160a01b0385166000908152600e6020526040902054909150670de0b6b3a76400009061270690836145e2565b6001600160a01b0386166000908152602081905260409020546127299190614635565b612733919061464c565b61273d908361455e565b949350505050565b61274d612ac3565b6000811161276d5760405162461bcd60e51b8152600401610a7d906145ab565b600c5481600b5461277e919061455e565b11156127cc5760405162461bcd60e51b815260206004820152601760248201527f44656c65676174696f6e206361702065786365656465640000000000000000006044820152606401610a7d565b6127d4612afa565b6127dd33612d93565b60006127ec62093a804261455e565b90506127f6612e7f565b156128185761280862093a804261455e565b612815906203f48061455e565b90505b3360009081526015602052604090205481111561287c573360008181526015602052604090819020839055517f308c23d85188a2d929b33a8748fdc757b93d1e422046a4237967a2d17d4eca93906128739084815260200190565b60405180910390a25b6128863383613fa8565b81600b6000828254612898919061455e565b9091555050600954336000818152600e6020526040908190209290925590516323b872dd60e01b81526004810191909152306024820152604481018390526001600160a01b037f000000000000000000000000000000000000000000000000000000000000000016906323b872dd906064016020604051808303816000875af1158015612929573d6000803e3d6000fd5b505050506040513d601f19601f8201168201806040525081019061294d9190614526565b506040516317066a5760e21b81523060048201527f00000000000000000000000000000000000000000000000000000000000000006001600160a01b031690635c19a95c90602401600060405180830381600087803b1580156129af57600080fd5b505af11580156129c3573d6000803e3d6000fd5b50506040518481523392507f35db3d768e685509e031bae369804ca7dc6656af739e079f1d3312cadc7b19d8915060200160405180910390a2506111636001600555565b60008060008060006060601e548710612a625760405162461bcd60e51b815260206004820152601860248201527f566f746520696e646578206f7574206f6620626f756e647300000000000000006044820152606401610a7d565b6000878152601d60209081526040808320815160c081018352815460ff168152600182015493810193909352600281015491830191909152600381015460608301526004810154608083015260058101805460a08401919061233790614571565b600260055403612ae657604051633ee5aeb560e01b815260040160405180910390fd5b6002600555565b611ae58383836001613fde565b6000612b0560025490565b600854600754600d54600954600a549495509293919290916000869003612b3257505042600a5550505050565b6000612b3e82426145e2565b90506000612b4c8783614635565b9050848611612b9c5742600a5560408051858152600060208201527fe59e5a83a27f440a8e234a0a6e659a7f1cc16a6d0e37aa05a24f2c407521ea0e910160405180910390a15050505050505050565b6000612ba886886145e2565b905080821115612bb6578091505b600089612bcb670de0b6b3a764000085614635565b612bd5919061464c565b90506000612be3828861455e565b90506000612bf1858a61455e565b6009839055600d81905542600a5560408051848152602081018890529192507fe59e5a83a27f440a8e234a0a6e659a7f1cc16a6d0e37aa05a24f2c407521ea0e910160405180910390a16040805186815260208101849052428183015290517f6ae8ee960d83517f7fa993ad7a0e16e33d9655a23ff41eefc62bdb289c7a8e5f9181900360600190a1505050505050505050505050565b6001600160a01b03838116600090815260016020908152604080832093861683529290522054600019811015612d015781811015612cf257604051637dc7a0d960e11b81526001600160a01b03841660048201526024810182905260448101839052606401610a7d565b612d0184848484036000613fde565b50505050565b6001600160a01b038316612d3157604051634b637e8f60e11b815260006004820152602401610a7d565b6001600160a01b038216612d5b5760405163ec442f0560e01b815260006004820152602401610a7d565b611ae58383836140b3565b6006546001600160a01b031633146117f15760405163118cdaa760e01b8152336004820152602401610a7d565b6001600160a01b03811660009081526020818152604080832054600954600e9093529220548215612d01576000670de0b6b3a7640000612dd383856145e2565b612ddd9086614635565b612de7919061464c565b90508015612e78576001600160a01b0385166000908152600f602052604081208054839290612e1790849061455e565b90915550506001600160a01b0385166000818152600e60209081526040808320879055600f825291829020548251858152918201527f5b9aaf4cc5141c090a75f8b8a627863eba92df81f0c83c096350da9b79aedd04910160405180910390a25b5050505050565b60165460009081600a8211612e95576000612ea0565b612ea0600a836145e2565b905060005a9050825b82811115612f115761c3505a612ebf90846145e2565b11612f115760008181526017602052604090205460ff1680612eef575060008181526018602052604090205460ff165b15612eff57600194505050505090565b80612f098161466e565b915050612ea9565b506000935050505090565b6001600160a01b038216612f4657604051634b637e8f60e11b815260006004820152602401610a7d565b611b16826000836140b3565b6006546001600160a01b03163314612fac5760405162461bcd60e51b815260206004820152601960248201527f4f6e6c79206f776e65722063616e206361737420766f746573000000000000006044820152606401610a7d565b60018260ff161115612ff85760405162461bcd60e51b8152602060048201526015602482015274496e76616c696420737570706f72742076616c756560581b6044820152606401610a7d565b60008381526019602052604090205460ff16156130575760405162461bcd60e51b815260206004820152601e60248201527f416c726561647920766f746564206f6e20746869732070726f706f73616c00006044820152606401610a7d565b604051631f27a4f360e11b8152600481018490526000907f00000000000000000000000000000000000000000000000000000000000000006001600160a01b031690633e4f49e690602401602060405180830381865afa1580156130bf573d6000803e3d6000fd5b505050506040513d601f19601f820116820180604052508101906130e391906144ec565b905060018160078111156130f9576130f9614492565b14806131165750600081600781111561311457613114614492565b145b6131625760405162461bcd60e51b815260206004820152601d60248201527f50726f706f73616c206e6f7420696e20766f74696e6720706572696f640000006044820152606401610a7d565b604051632d63f69360e01b8152600481018590526000907f00000000000000000000000000000000000000000000000000000000000000006001600160a01b031690632d63f69390602401602060405180830381865afa1580156131ca573d6000803e3d6000fd5b505050506040513d601f19601f820116820180604052508101906131ee91906145f5565b60405163b4b5ea5760e01b81523060048201529091506000906001600160a01b037f0000000000000000000000000000000000000000000000000000000000000000169063b4b5ea5790602401602060405180830381865afa158015613258573d6000803e3d6000fd5b505050506040513d601f19601f8201168201806040525081019061327c91906145f5565b90506000807f00000000000000000000000000000000000000000000000000000000000000006001600160a01b031663544ffc9c896040518263ffffffff1660e01b81526004016132cf91815260200190565b606060405180830381865afa1580156132ec573d6000803e3d6000fd5b505050506040513d601f19601f820116820180604052508101906133109190614685565b50915091506001601960008a815260200190815260200160002060006101000a81548160ff02191690831515021790555086601a60008a815260200190815260200160002060006101000a81548160ff021916908360ff16021790555060006040518060c001604052808960ff1681526020014381526020016000801b815260200142815260200185815260200188815250905080601c60008b815260200190815260200160002060008201518160000160006101000a81548160ff021916908360ff1602179055506020820151816001015560408201518160020155606082015181600301556080820151816004015560a08201518160050190816134169190614701565b5050601e546000908152601d60209081526040918290208451815460ff191660ff909116178155908401516001820155908301516002820155606083015160038201556080830151600482015560a0830151839250600582019061347a9082614701565b5050601e80549150600061348d836147c1565b919050555083601f60030160008282546134a7919061455e565b9091555050601e546022546134bc919061464c565b602355604051630acf027160e31b8152600481018a905260ff891660248201527f00000000000000000000000000000000000000000000000000000000000000006001600160a01b031690635678138890604401600060405180830381600087803b15801561352a57600080fd5b505af115801561353e573d6000803e3d6000fd5b5050505060014361354f91906145e2565b60008a8152601c6020526040812091406002909201829055601e54601d919061357a906001906145e2565b815260200190815260200160002060020181905550887f7e93fc3c3724f0d8fd590530618bf27708290ad2461c84e4944894ab0131a8ae8943601c60008e8152602001908152602001600020600201546040516135ef9392919060ff9390931683526020830191909152604082015260600190565b60405180910390a286511561365557887fe1e5d0e9cd2d2ae081aedf8a8de8b57b91b1ed3bcc7962c21f13b93670f936478943601c60008e815260200190815260200160002060020154888c60405161364c9594939291906147da565b60405180910390a25b505050505050505050565b60165481111561369b57601681905560405181907f738245544e121def2724a4bc087112610a7a03c8518881b71cbd922d850eaf0990600090a25b604051631f27a4f360e11b8152600481018290527f00000000000000000000000000000000000000000000000000000000000000006001600160a01b031690633e4f49e690602401602060405180830381865afa92505050801561371c575060408051601f3d908101601f19168201909252613719918101906144ec565b60015b61378d5760008181526017602052604090205460ff161561377557600081815260176020526040808220805460ff191690555182917faae1ed8b74416b955e14c0b0b71467355257ba6d0a08c9b6f39d8479f6f3d35491a25b6000908152601860205260409020805460ff19169055565b600060018260078111156137a3576137a3614492565b14806137c0575060008260078111156137be576137be614492565b145b90508080156137de575060008381526017602052604090205460ff16155b1561386357600083815260176020526040808220805460ff191660011790555184917f371f68adf986bef1a3b7917c0747454c6a25610192c30a1009ccc33dc90f342391a2827f6147c657c509b611c5b884671c7cb0da0e1eed364b561e0e9d48789b79421525600084604051613856929190614827565b60405180910390a26138fd565b8015801561387f575060008381526017602052604090205460ff165b156138fd57600083815260176020526040808220805460ff191690555184917faae1ed8b74416b955e14c0b0b71467355257ba6d0a08c9b6f39d8479f6f3d35491a2827f6147c657c509b611c5b884671c7cb0da0e1eed364b561e0e9d48789b794215256001846040516138f4929190614827565b60405180910390a25b604051632d63f69360e01b8152600481018490527f00000000000000000000000000000000000000000000000000000000000000006001600160a01b031690632d63f69390602401602060405180830381865afa92505050801561397e575060408051601f3d908101601f1916820190925261397b918101906145f5565b60015b61399d576000838152601860205260409020805460ff191690556139f4565b4380821180156139b75750601b546139b582846145e2565b105b156139da576000858152601860205260409020805460ff191660011790556139f1565b6000858152601860205260409020805460ff191690555b50505b6000838152601160205260408120549003611ae55750506000908152601160205260409020429055565b600680546001600160a01b038381166001600160a01b0319831681179093556040519116919082907f8be0079c531659141344cd1fd0a4f28419497f9722a3daafe3b4186f6b6457e090600090a35050565b604051631f27a4f360e11b8152600481018290526000907f00000000000000000000000000000000000000000000000000000000000000006001600160a01b031690633e4f49e690602401602060405180830381865afa158015613ad8573d6000803e3d6000fd5b505050506040513d601f19601f82011682018060405250810190613afc91906144ec565b90506001816007811115613b1257613b12614492565b1480613b2f57506000816007811115613b2d57613b2d614492565b145b15613c6a576000828152601060209081526040808320805460ff19166001179055601990915290205460ff168015613b7657506000828152601a602052604090205460ff16155b15613c305760008281526014602052604090205415613c30576000828152601460205260409081902054905163a9059cbb60e01b81526001600160a01b037f0000000000000000000000000000000000000000000000000000000000000000169163a9059cbb91613beb91309160040161450d565b6020604051808303816000875af1158015613c0a573d6000803e3d6000fd5b505050506040513d601f19601f82011682018060405250810190613c2e9190614526565b505b6040516000815282907fb8bd1c2bf2afdfdad72adf1c6a383ef5b20d65e6041c69adb823396d343f76d69060200160405180910390a25050565b60006004826007811115613c8057613c80614492565b1480613c9d57506007826007811115613c9b57613c9b614492565b145b613ca8576000613cab565b60015b90508060ff16600114613cbf576001613cc2565b60025b6000848152601060205260409020805460ff19166001836002811115613cea57613cea614492565b021790555060008381526019602052604090205460ff168015613d2057506000838152601a602052604090205460ff8281169116145b15613eb3578060ff166001148015613d45575060008381526013602052604090205415155b15613def576000838152601360205260409081902054905163a9059cbb60e01b81526001600160a01b037f0000000000000000000000000000000000000000000000000000000000000000169163a9059cbb91613da691309160040161450d565b6020604051808303816000875af1158015613dc5573d6000803e3d6000fd5b505050506040513d601f19601f82011682018060405250810190613de99190614526565b50613eb3565b60ff8116158015613e0d575060008381526014602052604090205415155b15613eb3576000838152601460205260409081902054905163a9059cbb60e01b81526001600160a01b037f0000000000000000000000000000000000000000000000000000000000000000169163a9059cbb91613e6e91309160040161450d565b6020604051808303816000875af1158015613e8d573d6000803e3d6000fd5b505050506040513d601f19601f82011682018060405250810190613eb19190614526565b505b60405160ff8216815283907fb8bd1c2bf2afdfdad72adf1c6a383ef5b20d65e6041c69adb823396d343f76d69060200160405180910390a2505050565b600754600d54600954600854600093929190828411613f1157509392505050565b6000600a5442613f2191906145e2565b90506000613f2f8383614635565b90506000613f3c60025490565b90506000613f4a87896145e2565b90506000818411613f5b5783613f5d565b815b90508215613f9a5782613f78670de0b6b3a764000083614635565b613f82919061464c565b613f8c908861455e565b995050505050505050505090565b509498975050505050505050565b6001600160a01b038216613fd25760405163ec442f0560e01b815260006004820152602401610a7d565b611b16600083836140b3565b6001600160a01b0384166140085760405163e602df0560e01b815260006004820152602401610a7d565b6001600160a01b03831661403257604051634a1406b160e11b815260006004820152602401610a7d565b6001600160a01b0380851660009081526001602090815260408083209387168352929052208290558015612d0157826001600160a01b0316846001600160a01b03167f8c5be1e5ebec7d5bd14f71427d1e84f3dd0314c0f7b2291e5b200ac8c7c3b925846040516140a591815260200190565b60405180910390a350505050565b6001600160a01b0383166140de5780600260008282546140d3919061455e565b909155506141509050565b6001600160a01b038316600090815260208190526040902054818110156141315760405163391434e360e21b81526001600160a01b03851660048201526024810182905260448101839052606401610a7d565b6001600160a01b03841660009081526020819052604090209082900390555b6001600160a01b03821661416c5760028054829003905561418b565b6001600160a01b03821660009081526020819052604090208054820190555b816001600160a01b0316836001600160a01b03167fddf252ad1be2c89b69c2b068fc378daa952ba7f163c4a11628f55a4df523b3ef836040516141d091815260200190565b60405180910390a3505050565b6000602082840312156141ef57600080fd5b5035919050565b6000815180845260005b8181101561421c57602081850181015186830182015201614200565b506000602082860101526020601f19601f83011685010191505092915050565b6020815260006113dc60208301846141f6565b80356001600160a01b038116811461426657600080fd5b919050565b6000806040838503121561427e57600080fd5b6142878361424f565b946020939093013593505050565b6000806000606084860312156142aa57600080fd5b6142b38461424f565b92506142c16020850161424f565b9150604084013590509250925092565b803560ff8116811461426657600080fd5b634e487b7160e01b600052604160045260246000fd5b60008060006060848603121561430d57600080fd5b8335925061431d602085016142d1565b9150604084013567ffffffffffffffff8082111561433a57600080fd5b818601915086601f83011261434e57600080fd5b813581811115614360576143606142e2565b604051601f8201601f19908116603f01168101908382118183101715614388576143886142e2565b816040528281528960208487010111156143a157600080fd5b8260208601602083013760006020848301015280955050505050509250925092565b600080604083850312156143d657600080fd5b823591506143e66020840161424f565b90509250929050565b6000806040838503121561440257600080fd5b823591506143e6602084016142d1565b60008060006060848603121561442757600080fd5b833592506142c1602085016142d1565b60006020828403121561444957600080fd5b6113dc8261424f565b60ff8716815285602082015284604082015283606082015282608082015260c060a0820152600061448660c08301846141f6565b98975050505050505050565b634e487b7160e01b600052602160045260246000fd5b60208101600383106144bc576144bc614492565b91905290565b600080604083850312156144d557600080fd5b6144de8361424f565b91506143e66020840161424f565b6000602082840312156144fe57600080fd5b8151600881106113dc57600080fd5b6001600160a01b03929092168252602082015260400190565b60006020828403121561453857600080fd5b815180151581146113dc57600080fd5b634e487b7160e01b600052601160045260246000fd5b8082018082111561120c5761120c614548565b600181811c9082168061458557607f821691505b6020821081036145a557634e487b7160e01b600052602260045260246000fd5b50919050565b6020808252601d908201527f416d6f756e74206d7573742062652067726561746572207468616e2030000000604082015260600190565b8181038181111561120c5761120c614548565b60006020828403121561460757600080fd5b5051919050565b6001600160801b0381811683821601908082111561462e5761462e614548565b5092915050565b808202811582820484141761120c5761120c614548565b60008261466957634e487b7160e01b600052601260045260246000fd5b500490565b60008161467d5761467d614548565b506000190190565b60008060006060848603121561469a57600080fd5b8351925060208401519150604084015190509250925092565b601f821115611ae557600081815260208120601f850160051c810160208610156146da5750805b601f850160051c820191505b818110156146f9578281556001016146e6565b505050505050565b815167ffffffffffffffff81111561471b5761471b6142e2565b61472f816147298454614571565b846146b3565b602080601f831160018114614764576000841561474c5750858301515b600019600386901b1c1916600185901b1785556146f9565b600085815260208120601f198616915b8281101561479357888601518255948401946001909101908401614774565b50858210156147b15787850151600019600388901b60f8161c191681555b5050505050600190811b01905550565b6000600182016147d3576147d3614548565b5060010190565b60ff8616815284602082015283604082015282606082015260a06080820152600061480860a08301846141f6565b979650505050505050565b6008811061482357614823614492565b9052565b604081016148358285614813565b6113dc602083018461481356fea264697066735822122043c75cd183ee1f18738cfcd2d463702933501f13568b8ad881c11bcbc34c6b3364736f6c63430008150033a26469706673582212203ff15d9e242554a00f101e3aa7fa32e4391d15e99b4588f624f363f05a6714c664736f6c63430008150033","opcodes":"PUSH1 0xC0 PUSH1 0x40 MSTORE CALLVALUE DUP1 ISZERO PUSH2 0x10 JUMPI PUSH1 0x0 DUP1 REVERT JUMPDEST POP PUSH1 0x40 MLOAD PUSH2 0x581C CODESIZE SUB DUP1 PUSH2 0x581C DUP4 CODECOPY DUP2 ADD PUSH1 0x40 DUP2 SWAP1 MSTORE PUSH2 0x2F SWAP2 PUSH2 0x11D JUMP JUMPDEST PUSH1 0x1 PUSH1 0x1 PUSH1 0xA0 SHL SUB DUP3 AND PUSH2 0x8A JUMPI PUSH1 0x40 MLOAD PUSH3 0x461BCD PUSH1 0xE5 SHL DUP2 MSTORE PUSH1 0x20 PUSH1 0x4 DUP3 ADD MSTORE PUSH1 0x1A PUSH1 0x24 DUP3 ADD MSTORE PUSH32 0x496E76616C696420434F4D5020746F6B656E2061646472657373000000000000 PUSH1 0x44 DUP3 ADD MSTORE PUSH1 0x64 ADD JUMPDEST PUSH1 0x40 MLOAD DUP1 SWAP2 SUB SWAP1 REVERT JUMPDEST PUSH1 0x1 PUSH1 0x1 PUSH1 0xA0 SHL SUB DUP2 AND PUSH2 0xEA JUMPI PUSH1 0x40 MLOAD PUSH3 0x461BCD PUSH1 0xE5 SHL DUP2 MSTORE PUSH1 0x20 PUSH1 0x4 DUP3 ADD MSTORE PUSH1 0x21 PUSH1 0x24 DUP3 ADD MSTORE PUSH32 0x496E76616C696420436F6D706F756E6420476F7665726E6F7220616464726573 PUSH1 0x44 DUP3 ADD MSTORE PUSH1 0x73 PUSH1 0xF8 SHL PUSH1 0x64 DUP3 ADD MSTORE PUSH1 0x84 ADD PUSH2 0x81 JUMP JUMPDEST PUSH1 0x1 PUSH1 0x1 PUSH1 0xA0 SHL SUB SWAP2 DUP3 AND PUSH1 0x80 MSTORE AND PUSH1 0xA0 MSTORE PUSH2 0x150 JUMP JUMPDEST DUP1 MLOAD PUSH1 0x1 PUSH1 0x1 PUSH1 0xA0 SHL SUB DUP2 AND DUP2 EQ PUSH2 0x118 JUMPI PUSH1 0x0 DUP1 REVERT JUMPDEST SWAP2 SWAP1 POP JUMP JUMPDEST PUSH1 0x0 DUP1 PUSH1 0x40 DUP4 DUP6 SUB SLT ISZERO PUSH2 0x130 JUMPI PUSH1 0x0 DUP1 REVERT JUMPDEST PUSH2 0x139 DUP4 PUSH2 0x101 JUMP JUMPDEST SWAP2 POP PUSH2 0x147 PUSH1 0x20 DUP5 ADD PUSH2 0x101 JUMP JUMPDEST SWAP1 POP SWAP3 POP SWAP3 SWAP1 POP JUMP JUMPDEST PUSH1 0x80 MLOAD PUSH1 0xA0 MLOAD PUSH2 0x569A PUSH2 0x182 PUSH1 0x0 CODECOPY PUSH1 0x0 DUP2 DUP2 PUSH2 0x185 ADD MSTORE PUSH2 0x45A ADD MSTORE PUSH1 0x0 DUP2 DUP2 PUSH1 0xDD ADD MSTORE PUSH2 0x439 ADD MSTORE PUSH2 0x569A PUSH1 0x0 RETURN INVALID PUSH1 0x80 PUSH1 0x40 MSTORE CALLVALUE DUP1 ISZERO PUSH3 0x11 JUMPI PUSH1 0x0 DUP1 REVERT JUMPDEST POP PUSH1 0x4 CALLDATASIZE LT PUSH3 0xAB JUMPI PUSH1 0x0 CALLDATALOAD PUSH1 0xE0 SHR DUP1 PUSH4 0x8AD4BBA2 GT PUSH3 0x6E JUMPI DUP1 PUSH4 0x8AD4BBA2 EQ PUSH3 0x17F JUMPI DUP1 PUSH4 0xA1478C98 EQ PUSH3 0x1A7 JUMPI DUP1 PUSH4 0xCB97922F EQ PUSH3 0x1D6 JUMPI DUP1 PUSH4 0xCF199BF9 EQ PUSH3 0x1FC JUMPI DUP1 PUSH4 0xEB208934 EQ PUSH3 0x213 JUMPI PUSH1 0x0 DUP1 REVERT JUMPDEST DUP1 PUSH4 0x6D10ACF EQ PUSH3 0xB0 JUMPI DUP1 PUSH4 0x10D41083 EQ PUSH3 0xD7 JUMPI DUP1 PUSH4 0x27382709 EQ PUSH3 0xFF JUMPI DUP1 PUSH4 0x461F931C EQ PUSH3 0x141 JUMPI DUP1 PUSH4 0x767829CB EQ PUSH3 0x16D JUMPI JUMPDEST PUSH1 0x0 DUP1 REVERT JUMPDEST PUSH3 0xBA PUSH3 0x22A JUMP JUMPDEST PUSH1 0x40 MLOAD PUSH1 0x1 PUSH1 0x1 PUSH1 0xA0 SHL SUB SWAP1 SWAP2 AND DUP2 MSTORE PUSH1 0x20 ADD JUMPDEST PUSH1 0x40 MLOAD DUP1 SWAP2 SUB SWAP1 RETURN JUMPDEST PUSH3 0xBA PUSH32 0x0 DUP2 JUMP JUMPDEST PUSH3 0x130 PUSH3 0x110 CALLDATASIZE PUSH1 0x4 PUSH3 0x598 JUMP JUMPDEST PUSH1 0x1 PUSH1 0x1 PUSH1 0xA0 SHL SUB SWAP1 DUP2 AND PUSH1 0x0 SWAP1 DUP2 MSTORE PUSH1 0x1 PUSH1 0x20 MSTORE PUSH1 0x40 SWAP1 KECCAK256 SLOAD AND ISZERO ISZERO SWAP1 JUMP JUMPDEST PUSH1 0x40 MLOAD SWAP1 ISZERO ISZERO DUP2 MSTORE PUSH1 0x20 ADD PUSH3 0xCE JUMP JUMPDEST PUSH3 0xBA PUSH3 0x152 CALLDATASIZE PUSH1 0x4 PUSH3 0x598 JUMP JUMPDEST PUSH1 0x1 PUSH1 0x20 MSTORE PUSH1 0x0 SWAP1 DUP2 MSTORE PUSH1 0x40 SWAP1 KECCAK256 SLOAD PUSH1 0x1 PUSH1 0x1 PUSH1 0xA0 SHL SUB AND DUP2 JUMP JUMPDEST PUSH1 0x0 SLOAD PUSH1 0x40 MLOAD SWAP1 DUP2 MSTORE PUSH1 0x20 ADD PUSH3 0xCE JUMP JUMPDEST PUSH3 0xBA PUSH32 0x0 DUP2 JUMP JUMPDEST PUSH3 0xBA PUSH3 0x1B8 CALLDATASIZE PUSH1 0x4 PUSH3 0x598 JUMP JUMPDEST PUSH1 0x1 PUSH1 0x1 PUSH1 0xA0 SHL SUB SWAP1 DUP2 AND PUSH1 0x0 SWAP1 DUP2 MSTORE PUSH1 0x1 PUSH1 0x20 MSTORE PUSH1 0x40 SWAP1 KECCAK256 SLOAD AND SWAP1 JUMP JUMPDEST PUSH3 0x1ED PUSH3 0x1E7 CALLDATASIZE PUSH1 0x4 PUSH3 0x5CA JUMP JUMPDEST PUSH3 0x23C JUMP JUMPDEST PUSH1 0x40 MLOAD PUSH3 0xCE SWAP2 SWAP1 PUSH3 0x5ED JUMP JUMPDEST PUSH3 0xBA PUSH3 0x20D CALLDATASIZE PUSH1 0x4 PUSH3 0x598 JUMP JUMPDEST PUSH3 0x375 JUMP JUMPDEST PUSH3 0xBA PUSH3 0x224 CALLDATASIZE PUSH1 0x4 PUSH3 0x63C JUMP JUMPDEST PUSH3 0x55F JUMP JUMPDEST PUSH1 0x0 PUSH3 0x237 CALLER PUSH3 0x375 JUMP JUMPDEST SWAP1 POP SWAP1 JUMP JUMPDEST PUSH1 0x0 SLOAD PUSH1 0x60 SWAP1 DUP1 ISZERO DUP1 PUSH3 0x250 JUMPI POP DUP1 DUP5 LT ISZERO JUMPDEST ISZERO PUSH3 0x26D JUMPI POP POP PUSH1 0x40 DUP1 MLOAD PUSH1 0x0 DUP2 MSTORE PUSH1 0x20 DUP2 ADD SWAP1 SWAP2 MSTORE PUSH3 0x36F JUMP JUMPDEST DUP3 DUP2 PUSH3 0x27B DUP3 DUP8 PUSH3 0x682 JUMP JUMPDEST GT ISZERO PUSH3 0x291 JUMPI PUSH3 0x28E DUP6 DUP4 PUSH3 0x698 JUMP JUMPDEST SWAP1 POP JUMPDEST PUSH1 0x0 DUP2 PUSH8 0xFFFFFFFFFFFFFFFF DUP2 GT ISZERO PUSH3 0x2AF JUMPI PUSH3 0x2AF PUSH3 0x656 JUMP JUMPDEST PUSH1 0x40 MLOAD SWAP1 DUP1 DUP3 MSTORE DUP1 PUSH1 0x20 MUL PUSH1 0x20 ADD DUP3 ADD PUSH1 0x40 MSTORE DUP1 ISZERO PUSH3 0x2D9 JUMPI DUP2 PUSH1 0x20 ADD PUSH1 0x20 DUP3 MUL DUP1 CALLDATASIZE DUP4 CALLDATACOPY ADD SWAP1 POP JUMPDEST POP SWAP1 POP PUSH1 0x0 JUMPDEST DUP3 DUP2 LT ISZERO PUSH3 0x369 JUMPI PUSH1 0x0 PUSH3 0x2F6 DUP3 DUP10 PUSH3 0x682 JUMP JUMPDEST DUP2 SLOAD DUP2 LT PUSH3 0x309 JUMPI PUSH3 0x309 PUSH3 0x6AE JUMP JUMPDEST SWAP1 PUSH1 0x0 MSTORE PUSH1 0x20 PUSH1 0x0 KECCAK256 ADD PUSH1 0x0 SWAP1 SLOAD SWAP1 PUSH2 0x100 EXP SWAP1 DIV PUSH1 0x1 PUSH1 0x1 PUSH1 0xA0 SHL SUB AND DUP3 DUP3 DUP2 MLOAD DUP2 LT PUSH3 0x33C JUMPI PUSH3 0x33C PUSH3 0x6AE JUMP JUMPDEST PUSH1 0x1 PUSH1 0x1 PUSH1 0xA0 SHL SUB SWAP1 SWAP3 AND PUSH1 0x20 SWAP3 DUP4 MUL SWAP2 SWAP1 SWAP2 ADD SWAP1 SWAP2 ADD MSTORE DUP1 PUSH3 0x360 DUP2 PUSH3 0x6C4 JUMP JUMPDEST SWAP2 POP POP PUSH3 0x2DF JUMP JUMPDEST POP SWAP3 POP POP POP JUMPDEST SWAP3 SWAP2 POP POP JUMP JUMPDEST PUSH1 0x0 PUSH1 0x1 PUSH1 0x1 PUSH1 0xA0 SHL SUB DUP3 AND PUSH3 0x3CB JUMPI PUSH1 0x40 MLOAD PUSH3 0x461BCD PUSH1 0xE5 SHL DUP2 MSTORE PUSH1 0x20 PUSH1 0x4 DUP3 ADD MSTORE PUSH1 0x15 PUSH1 0x24 DUP3 ADD MSTORE PUSH21 0x496E76616C6964206F776E65722061646472657373 PUSH1 0x58 SHL PUSH1 0x44 DUP3 ADD MSTORE PUSH1 0x64 ADD JUMPDEST PUSH1 0x40 MLOAD DUP1 SWAP2 SUB SWAP1 REVERT JUMPDEST PUSH1 0x1 PUSH1 0x1 PUSH1 0xA0 SHL SUB DUP3 DUP2 AND PUSH1 0x0 SWAP1 DUP2 MSTORE PUSH1 0x1 PUSH1 0x20 MSTORE PUSH1 0x40 SWAP1 KECCAK256 SLOAD AND ISZERO PUSH3 0x435 JUMPI PUSH1 0x40 MLOAD PUSH3 0x461BCD PUSH1 0xE5 SHL DUP2 MSTORE PUSH1 0x20 PUSH1 0x4 DUP3 ADD MSTORE PUSH1 0x1F PUSH1 0x24 DUP3 ADD MSTORE PUSH32 0x4F776E657220616C726561647920686173206120436F6D70656E7361746F7200 PUSH1 0x44 DUP3 ADD MSTORE PUSH1 0x64 ADD PUSH3 0x3C2 JUMP JUMPDEST PUSH1 0x0 PUSH32 0x0 PUSH32 0x0 DUP5 PUSH1 0x40 MLOAD PUSH3 0x488 SWAP1 PUSH3 0x58A JUMP JUMPDEST PUSH1 0x1 PUSH1 0x1 PUSH1 0xA0 SHL SUB SWAP4 DUP5 AND DUP2 MSTORE SWAP2 DUP4 AND PUSH1 0x20 DUP4 ADD MSTORE SWAP1 SWAP2 AND PUSH1 0x40 DUP3 ADD MSTORE PUSH1 0x60 ADD PUSH1 0x40 MLOAD DUP1 SWAP2 SUB SWAP1 PUSH1 0x0 CREATE DUP1 ISZERO DUP1 ISZERO PUSH3 0x4C5 JUMPI RETURNDATASIZE PUSH1 0x0 DUP1 RETURNDATACOPY RETURNDATASIZE PUSH1 0x0 REVERT JUMPDEST POP PUSH1 0x0 DUP1 SLOAD PUSH1 0x1 DUP2 DUP2 ADD DUP4 SSTORE PUSH32 0x290DECD9548B62A8D60345A988386FC84BA6BC95484008F6362F93160EF3E563 SWAP1 SWAP2 ADD DUP1 SLOAD PUSH1 0x1 PUSH1 0x1 PUSH1 0xA0 SHL SUB DUP1 DUP7 AND PUSH1 0x1 PUSH1 0x1 PUSH1 0xA0 SHL SUB NOT SWAP3 DUP4 AND DUP2 OR SWAP1 SWAP4 SSTORE DUP9 AND DUP1 DUP6 MSTORE PUSH1 0x20 SWAP4 SWAP1 SWAP4 MSTORE PUSH1 0x40 DUP1 DUP6 KECCAK256 DUP1 SLOAD SWAP1 SWAP3 AND DUP4 OR SWAP1 SWAP2 SSTORE MLOAD SWAP4 SWAP5 POP DUP5 SWAP4 SWAP1 SWAP3 PUSH32 0xF9B38E7B6F2E9BB6ED0B9563C8B238A143966CD57E2D39C7B486B73A808D641E SWAP2 LOG3 SWAP4 SWAP3 POP POP POP JUMP JUMPDEST PUSH1 0x0 DUP2 DUP2 SLOAD DUP2 LT PUSH3 0x570 JUMPI PUSH1 0x0 DUP1 REVERT JUMPDEST PUSH1 0x0 SWAP2 DUP3 MSTORE PUSH1 0x20 SWAP1 SWAP2 KECCAK256 ADD SLOAD PUSH1 0x1 PUSH1 0x1 PUSH1 0xA0 SHL SUB AND SWAP1 POP DUP2 JUMP JUMPDEST PUSH2 0x4F84 DUP1 PUSH3 0x6E1 DUP4 CODECOPY ADD SWAP1 JUMP JUMPDEST PUSH1 0x0 PUSH1 0x20 DUP3 DUP5 SUB SLT ISZERO PUSH3 0x5AB JUMPI PUSH1 0x0 DUP1 REVERT JUMPDEST DUP2 CALLDATALOAD PUSH1 0x1 PUSH1 0x1 PUSH1 0xA0 SHL SUB DUP2 AND DUP2 EQ PUSH3 0x5C3 JUMPI PUSH1 0x0 DUP1 REVERT JUMPDEST SWAP4 SWAP3 POP POP POP JUMP JUMPDEST PUSH1 0x0 DUP1 PUSH1 0x40 DUP4 DUP6 SUB SLT ISZERO PUSH3 0x5DE JUMPI PUSH1 0x0 DUP1 REVERT JUMPDEST POP POP DUP1 CALLDATALOAD SWAP3 PUSH1 0x20 SWAP1 SWAP2 ADD CALLDATALOAD SWAP2 POP JUMP JUMPDEST PUSH1 0x20 DUP1 DUP3 MSTORE DUP3 MLOAD DUP3 DUP3 ADD DUP2 SWAP1 MSTORE PUSH1 0x0 SWAP2 SWAP1 DUP5 DUP3 ADD SWAP1 PUSH1 0x40 DUP6 ADD SWAP1 DUP5 JUMPDEST DUP2 DUP2 LT ISZERO PUSH3 0x630 JUMPI DUP4 MLOAD PUSH1 0x1 PUSH1 0x1 PUSH1 0xA0 SHL SUB AND DUP4 MSTORE SWAP3 DUP5 ADD SWAP3 SWAP2 DUP5 ADD SWAP2 PUSH1 0x1 ADD PUSH3 0x609 JUMP JUMPDEST POP SWAP1 SWAP7 SWAP6 POP POP POP POP POP POP JUMP JUMPDEST PUSH1 0x0 PUSH1 0x20 DUP3 DUP5 SUB SLT ISZERO PUSH3 0x64F JUMPI PUSH1 0x0 DUP1 REVERT JUMPDEST POP CALLDATALOAD SWAP2 SWAP1 POP JUMP JUMPDEST PUSH4 0x4E487B71 PUSH1 0xE0 SHL PUSH1 0x0 MSTORE PUSH1 0x41 PUSH1 0x4 MSTORE PUSH1 0x24 PUSH1 0x0 REVERT JUMPDEST PUSH4 0x4E487B71 PUSH1 0xE0 SHL PUSH1 0x0 MSTORE PUSH1 0x11 PUSH1 0x4 MSTORE PUSH1 0x24 PUSH1 0x0 REVERT JUMPDEST DUP1 DUP3 ADD DUP1 DUP3 GT ISZERO PUSH3 0x36F JUMPI PUSH3 0x36F PUSH3 0x66C JUMP JUMPDEST DUP2 DUP2 SUB DUP2 DUP2 GT ISZERO PUSH3 0x36F JUMPI PUSH3 0x36F PUSH3 0x66C JUMP JUMPDEST PUSH4 0x4E487B71 PUSH1 0xE0 SHL PUSH1 0x0 MSTORE PUSH1 0x32 PUSH1 0x4 MSTORE PUSH1 0x24 PUSH1 0x0 REVERT JUMPDEST PUSH1 0x0 PUSH1 0x1 DUP3 ADD PUSH3 0x6D9 JUMPI PUSH3 0x6D9 PUSH3 0x66C JUMP JUMPDEST POP PUSH1 0x1 ADD SWAP1 JUMP INVALID PUSH1 0xC0 PUSH1 0x40 MSTORE PUSH2 0x1964 PUSH1 0x1B SSTORE CALLVALUE DUP1 ISZERO PUSH3 0x17 JUMPI PUSH1 0x0 DUP1 REVERT JUMPDEST POP PUSH1 0x40 MLOAD PUSH3 0x4F84 CODESIZE SUB DUP1 PUSH3 0x4F84 DUP4 CODECOPY DUP2 ADD PUSH1 0x40 DUP2 SWAP1 MSTORE PUSH3 0x3A SWAP2 PUSH3 0x405 JUMP JUMPDEST DUP1 PUSH1 0x40 MLOAD DUP1 PUSH1 0x40 ADD PUSH1 0x40 MSTORE DUP1 PUSH1 0xB DUP2 MSTORE PUSH1 0x20 ADD PUSH11 0x21B7B6B832B739B0BA37B9 PUSH1 0xA9 SHL DUP2 MSTORE POP PUSH1 0x40 MLOAD DUP1 PUSH1 0x40 ADD PUSH1 0x40 MSTORE DUP1 PUSH1 0xB DUP2 MSTORE PUSH1 0x20 ADD PUSH11 0x21A7A6A822A729A0AA27A9 PUSH1 0xA9 SHL DUP2 MSTORE POP DUP2 PUSH1 0x3 SWAP1 DUP2 PUSH3 0x94 SWAP2 SWAP1 PUSH3 0x4F4 JUMP JUMPDEST POP PUSH1 0x4 PUSH3 0xA3 DUP3 DUP3 PUSH3 0x4F4 JUMP JUMPDEST POP POP PUSH1 0x1 PUSH1 0x5 SSTORE POP PUSH1 0x1 PUSH1 0x1 PUSH1 0xA0 SHL SUB DUP2 AND PUSH3 0xDB JUMPI PUSH1 0x40 MLOAD PUSH4 0x1E4FBDF7 PUSH1 0xE0 SHL DUP2 MSTORE PUSH1 0x0 PUSH1 0x4 DUP3 ADD MSTORE PUSH1 0x24 ADD JUMPDEST PUSH1 0x40 MLOAD DUP1 SWAP2 SUB SWAP1 REVERT JUMPDEST PUSH3 0xE6 DUP2 PUSH3 0x396 JUMP JUMPDEST POP PUSH1 0x1 PUSH1 0x1 PUSH1 0xA0 SHL SUB DUP4 AND PUSH3 0x13F JUMPI PUSH1 0x40 MLOAD PUSH3 0x461BCD PUSH1 0xE5 SHL DUP2 MSTORE PUSH1 0x20 PUSH1 0x4 DUP3 ADD MSTORE PUSH1 0x1A PUSH1 0x24 DUP3 ADD MSTORE PUSH32 0x496E76616C696420434F4D5020746F6B656E2061646472657373000000000000 PUSH1 0x44 DUP3 ADD MSTORE PUSH1 0x64 ADD PUSH3 0xD2 JUMP JUMPDEST PUSH1 0x1 PUSH1 0x1 PUSH1 0xA0 SHL SUB DUP3 AND PUSH3 0x1A1 JUMPI PUSH1 0x40 MLOAD PUSH3 0x461BCD PUSH1 0xE5 SHL DUP2 MSTORE PUSH1 0x20 PUSH1 0x4 DUP3 ADD MSTORE PUSH1 0x21 PUSH1 0x24 DUP3 ADD MSTORE PUSH32 0x496E76616C696420436F6D706F756E6420476F7665726E6F7220616464726573 PUSH1 0x44 DUP3 ADD MSTORE PUSH1 0x73 PUSH1 0xF8 SHL PUSH1 0x64 DUP3 ADD MSTORE PUSH1 0x84 ADD PUSH3 0xD2 JUMP JUMPDEST PUSH1 0x1 PUSH1 0x1 PUSH1 0xA0 SHL SUB DUP2 AND PUSH3 0x1F9 JUMPI PUSH1 0x40 MLOAD PUSH3 0x461BCD PUSH1 0xE5 SHL DUP2 MSTORE PUSH1 0x20 PUSH1 0x4 DUP3 ADD MSTORE PUSH1 0x15 PUSH1 0x24 DUP3 ADD MSTORE PUSH32 0x496E76616C6964206F776E657220616464726573730000000000000000000000 PUSH1 0x44 DUP3 ADD MSTORE PUSH1 0x64 ADD PUSH3 0xD2 JUMP JUMPDEST PUSH1 0x1 PUSH1 0x1 PUSH1 0xA0 SHL SUB DUP1 DUP5 AND PUSH1 0x80 DUP2 SWAP1 MSTORE SWAP1 DUP4 AND PUSH1 0xA0 MSTORE PUSH8 0xDE0B6B3A7640000 PUSH1 0x9 SSTORE PUSH1 0x40 DUP1 MLOAD PUSH4 0x18160DDD PUSH1 0xE0 SHL DUP2 MSTORE SWAP1 MLOAD PUSH1 0x0 SWAP3 SWAP2 PUSH4 0x18160DDD SWAP2 PUSH1 0x4 DUP1 DUP4 ADD SWAP3 PUSH1 0x20 SWAP3 SWAP2 SWAP1 DUP3 SWAP1 SUB ADD DUP2 DUP7 GAS STATICCALL ISZERO DUP1 ISZERO PUSH3 0x25A JUMPI RETURNDATASIZE PUSH1 0x0 DUP1 RETURNDATACOPY RETURNDATASIZE PUSH1 0x0 REVERT JUMPDEST POP POP POP POP PUSH1 0x40 MLOAD RETURNDATASIZE PUSH1 0x1F NOT PUSH1 0x1F DUP3 ADD AND DUP3 ADD DUP1 PUSH1 0x40 MSTORE POP DUP2 ADD SWAP1 PUSH3 0x280 SWAP2 SWAP1 PUSH3 0x5C0 JUMP JUMPDEST SWAP1 POP PUSH1 0x0 DUP2 GT PUSH3 0x2D4 JUMPI PUSH1 0x40 MLOAD PUSH3 0x461BCD PUSH1 0xE5 SHL DUP2 MSTORE PUSH1 0x20 PUSH1 0x4 DUP3 ADD MSTORE PUSH1 0x19 PUSH1 0x24 DUP3 ADD MSTORE PUSH32 0x496E76616C696420434F4D5020746F74616C20737570706C7900000000000000 PUSH1 0x44 DUP3 ADD MSTORE PUSH1 0x64 ADD PUSH3 0xD2 JUMP JUMPDEST PUSH1 0xC SLOAD PUSH2 0x2710 PUSH3 0x2E8 PUSH2 0x1F4 DUP5 PUSH3 0x5DA JUMP JUMPDEST PUSH3 0x2F4 SWAP2 SWAP1 PUSH3 0x606 JUMP JUMPDEST PUSH1 0xC DUP2 SWAP1 SSTORE PUSH3 0x347 JUMPI PUSH1 0x40 MLOAD PUSH3 0x461BCD PUSH1 0xE5 SHL DUP2 MSTORE PUSH1 0x20 PUSH1 0x4 DUP3 ADD MSTORE PUSH1 0x18 PUSH1 0x24 DUP3 ADD MSTORE PUSH32 0x44656C65676174696F6E2063617020746F6F20736D616C6C0000000000000000 PUSH1 0x44 DUP3 ADD MSTORE PUSH1 0x64 ADD PUSH3 0xD2 JUMP JUMPDEST PUSH1 0xC SLOAD PUSH1 0x40 DUP1 MLOAD DUP4 DUP2 MSTORE PUSH1 0x20 DUP2 ADD SWAP3 SWAP1 SWAP3 MSTORE DUP2 ADD DUP4 SWAP1 MSTORE PUSH32 0xC72F87E837AEB21E01377CA632CDAE4E68649B7216568FF0A62E4CBDCEE74008 SWAP1 PUSH1 0x60 ADD PUSH1 0x40 MLOAD DUP1 SWAP2 SUB SWAP1 LOG1 POP POP POP POP POP PUSH3 0x629 JUMP JUMPDEST PUSH1 0x6 DUP1 SLOAD PUSH1 0x1 PUSH1 0x1 PUSH1 0xA0 SHL SUB DUP4 DUP2 AND PUSH1 0x1 PUSH1 0x1 PUSH1 0xA0 SHL SUB NOT DUP4 AND DUP2 OR SWAP1 SWAP4 SSTORE PUSH1 0x40 MLOAD SWAP2 AND SWAP2 SWAP1 DUP3 SWAP1 PUSH32 0x8BE0079C531659141344CD1FD0A4F28419497F9722A3DAAFE3B4186F6B6457E0 SWAP1 PUSH1 0x0 SWAP1 LOG3 POP POP JUMP JUMPDEST DUP1 MLOAD PUSH1 0x1 PUSH1 0x1 PUSH1 0xA0 SHL SUB DUP2 AND DUP2 EQ PUSH3 0x400 JUMPI PUSH1 0x0 DUP1 REVERT JUMPDEST SWAP2 SWAP1 POP JUMP JUMPDEST PUSH1 0x0 DUP1 PUSH1 0x0 PUSH1 0x60 DUP5 DUP7 SUB SLT ISZERO PUSH3 0x41B JUMPI PUSH1 0x0 DUP1 REVERT JUMPDEST PUSH3 0x426 DUP5 PUSH3 0x3E8 JUMP JUMPDEST SWAP3 POP PUSH3 0x436 PUSH1 0x20 DUP6 ADD PUSH3 0x3E8 JUMP JUMPDEST SWAP2 POP PUSH3 0x446 PUSH1 0x40 DUP6 ADD PUSH3 0x3E8 JUMP JUMPDEST SWAP1 POP SWAP3 POP SWAP3 POP SWAP3 JUMP JUMPDEST PUSH4 0x4E487B71 PUSH1 0xE0 SHL PUSH1 0x0 MSTORE PUSH1 0x41 PUSH1 0x4 MSTORE PUSH1 0x24 PUSH1 0x0 REVERT JUMPDEST PUSH1 0x1 DUP2 DUP2 SHR SWAP1 DUP3 AND DUP1 PUSH3 0x47A JUMPI PUSH1 0x7F DUP3 AND SWAP2 POP JUMPDEST PUSH1 0x20 DUP3 LT DUP2 SUB PUSH3 0x49B JUMPI PUSH4 0x4E487B71 PUSH1 0xE0 SHL PUSH1 0x0 MSTORE PUSH1 0x22 PUSH1 0x4 MSTORE PUSH1 0x24 PUSH1 0x0 REVERT JUMPDEST POP SWAP2 SWAP1 POP JUMP JUMPDEST PUSH1 0x1F DUP3 GT ISZERO PUSH3 0x4EF JUMPI PUSH1 0x0 DUP2 DUP2 MSTORE PUSH1 0x20 DUP2 KECCAK256 PUSH1 0x1F DUP6 ADD PUSH1 0x5 SHR DUP2 ADD PUSH1 0x20 DUP7 LT ISZERO PUSH3 0x4CA JUMPI POP DUP1 JUMPDEST PUSH1 0x1F DUP6 ADD PUSH1 0x5 SHR DUP3 ADD SWAP2 POP JUMPDEST DUP2 DUP2 LT ISZERO PUSH3 0x4EB JUMPI DUP3 DUP2 SSTORE PUSH1 0x1 ADD PUSH3 0x4D6 JUMP JUMPDEST POP POP POP JUMPDEST POP POP POP JUMP JUMPDEST DUP2 MLOAD PUSH1 0x1 PUSH1 0x1 PUSH1 0x40 SHL SUB DUP2 GT ISZERO PUSH3 0x510 JUMPI PUSH3 0x510 PUSH3 0x44F JUMP JUMPDEST PUSH3 0x528 DUP2 PUSH3 0x521 DUP5 SLOAD PUSH3 0x465 JUMP JUMPDEST DUP5 PUSH3 0x4A1 JUMP JUMPDEST PUSH1 0x20 DUP1 PUSH1 0x1F DUP4 GT PUSH1 0x1 DUP2 EQ PUSH3 0x560 JUMPI PUSH1 0x0 DUP5 ISZERO PUSH3 0x547 JUMPI POP DUP6 DUP4 ADD MLOAD JUMPDEST PUSH1 0x0 NOT PUSH1 0x3 DUP7 SWAP1 SHL SHR NOT AND PUSH1 0x1 DUP6 SWAP1 SHL OR DUP6 SSTORE PUSH3 0x4EB JUMP JUMPDEST PUSH1 0x0 DUP6 DUP2 MSTORE PUSH1 0x20 DUP2 KECCAK256 PUSH1 0x1F NOT DUP7 AND SWAP2 JUMPDEST DUP3 DUP2 LT ISZERO PUSH3 0x591 JUMPI DUP9 DUP7 ADD MLOAD DUP3 SSTORE SWAP5 DUP5 ADD SWAP5 PUSH1 0x1 SWAP1 SWAP2 ADD SWAP1 DUP5 ADD PUSH3 0x570 JUMP JUMPDEST POP DUP6 DUP3 LT ISZERO PUSH3 0x5B0 JUMPI DUP8 DUP6 ADD MLOAD PUSH1 0x0 NOT PUSH1 0x3 DUP9 SWAP1 SHL PUSH1 0xF8 AND SHR NOT AND DUP2 SSTORE JUMPDEST POP POP POP POP POP PUSH1 0x1 SWAP1 DUP2 SHL ADD SWAP1 SSTORE POP JUMP JUMPDEST PUSH1 0x0 PUSH1 0x20 DUP3 DUP5 SUB SLT ISZERO PUSH3 0x5D3 JUMPI PUSH1 0x0 DUP1 REVERT JUMPDEST POP MLOAD SWAP2 SWAP1 POP JUMP JUMPDEST DUP1 DUP3 MUL DUP2 ISZERO DUP3 DUP3 DIV DUP5 EQ OR PUSH3 0x600 JUMPI PUSH4 0x4E487B71 PUSH1 0xE0 SHL PUSH1 0x0 MSTORE PUSH1 0x11 PUSH1 0x4 MSTORE PUSH1 0x24 PUSH1 0x0 REVERT JUMPDEST SWAP3 SWAP2 POP POP JUMP JUMPDEST PUSH1 0x0 DUP3 PUSH3 0x624 JUMPI PUSH4 0x4E487B71 PUSH1 0xE0 SHL PUSH1 0x0 MSTORE PUSH1 0x12 PUSH1 0x4 MSTORE PUSH1 0x24 PUSH1 0x0 REVERT JUMPDEST POP DIV SWAP1 JUMP JUMPDEST PUSH1 0x80 MLOAD PUSH1 0xA0 MLOAD PUSH2 0x4878 PUSH3 0x70C PUSH1 0x0 CODECOPY PUSH1 0x0 DUP2 DUP2 PUSH2 0x754 ADD MSTORE DUP2 DUP2 PUSH2 0xAF7 ADD MSTORE DUP2 DUP2 PUSH2 0x1C1E ADD MSTORE DUP2 DUP2 PUSH2 0x3070 ADD MSTORE DUP2 DUP2 PUSH2 0x317B ADD MSTORE DUP2 DUP2 PUSH2 0x3283 ADD MSTORE DUP2 DUP2 PUSH2 0x34DE ADD MSTORE DUP2 DUP2 PUSH2 0x36B1 ADD MSTORE DUP2 DUP2 PUSH2 0x3913 ADD MSTORE PUSH2 0x3A89 ADD MSTORE PUSH1 0x0 DUP2 DUP2 PUSH2 0x46D ADD MSTORE DUP2 DUP2 PUSH2 0xD55 ADD MSTORE DUP2 DUP2 PUSH2 0xE68 ADD MSTORE DUP2 DUP2 PUSH2 0xF95 ADD MSTORE DUP2 DUP2 PUSH2 0x104A ADD MSTORE DUP2 DUP2 PUSH2 0x12B6 ADD MSTORE DUP2 DUP2 PUSH2 0x155B ADD MSTORE DUP2 DUP2 PUSH2 0x1736 ADD MSTORE DUP2 DUP2 PUSH2 0x180B ADD MSTORE DUP2 DUP2 PUSH2 0x1A14 ADD MSTORE DUP2 DUP2 PUSH2 0x1E70 ADD MSTORE DUP2 DUP2 PUSH2 0x2205 ADD MSTORE DUP2 DUP2 PUSH2 0x25F1 ADD MSTORE DUP2 DUP2 PUSH2 0x28E0 ADD MSTORE DUP2 DUP2 PUSH2 0x2963 ADD MSTORE DUP2 DUP2 PUSH2 0x3211 ADD MSTORE DUP2 DUP2 PUSH2 0x3BB6 ADD MSTORE DUP2 DUP2 PUSH2 0x3D71 ADD MSTORE PUSH2 0x3E39 ADD MSTORE PUSH2 0x4878 PUSH1 0x0 RETURN INVALID PUSH1 0x80 PUSH1 0x40 MSTORE CALLVALUE DUP1 ISZERO PUSH2 0x10 JUMPI PUSH1 0x0 DUP1 REVERT JUMPDEST POP PUSH1 0x4 CALLDATASIZE LT PUSH2 0x3DA JUMPI PUSH1 0x0 CALLDATALOAD PUSH1 0xE0 SHR DUP1 PUSH4 0x85C6CCCA GT PUSH2 0x20A JUMPI DUP1 PUSH4 0xBE8363CD GT PUSH2 0x125 JUMPI DUP1 PUSH4 0xE1F1C4A7 GT PUSH2 0xB8 JUMPI DUP1 PUSH4 0xED6B780D GT PUSH2 0x87 JUMPI DUP1 PUSH4 0xED6B780D EQ PUSH2 0x9B9 JUMPI DUP1 PUSH4 0xF2FDE38B EQ PUSH2 0x9C1 JUMPI DUP1 PUSH4 0xF6ED2017 EQ PUSH2 0x9D4 JUMPI DUP1 PUSH4 0xF868E766 EQ PUSH2 0x9E7 JUMPI DUP1 PUSH4 0xFE86E057 EQ PUSH2 0x9FA JUMPI PUSH1 0x0 DUP1 REVERT JUMPDEST DUP1 PUSH4 0xE1F1C4A7 EQ PUSH2 0x97B JUMPI DUP1 PUSH4 0xE40824F8 EQ PUSH2 0x984 JUMPI DUP1 PUSH4 0xE9EE2FA9 EQ PUSH2 0x9A7 JUMPI DUP1 PUSH4 0xEC1371F2 EQ PUSH2 0x9B0 JUMPI PUSH1 0x0 DUP1 REVERT JUMPDEST DUP1 PUSH4 0xDAFAD631 GT PUSH2 0xF4 JUMPI DUP1 PUSH4 0xDAFAD631 EQ PUSH2 0x906 JUMPI DUP1 PUSH4 0xDD62ED3E EQ PUSH2 0x926 JUMPI DUP1 PUSH4 0xDE63F432 EQ PUSH2 0x95F JUMPI DUP1 PUSH4 0xE1AC18E0 EQ PUSH2 0x972 JUMPI PUSH1 0x0 DUP1 REVERT JUMPDEST DUP1 PUSH4 0xBE8363CD EQ PUSH2 0x8E2 JUMPI DUP1 PUSH4 0xC6384071 EQ PUSH2 0x8EC JUMPI DUP1 PUSH4 0xD133A00E EQ PUSH2 0x8F5 JUMPI DUP1 PUSH4 0xD74E7A3A EQ PUSH2 0x8FE JUMPI PUSH1 0x0 DUP1 REVERT JUMPDEST DUP1 PUSH4 0x949813B8 GT PUSH2 0x19D JUMPI DUP1 PUSH4 0xA9059CBB GT PUSH2 0x16C JUMPI DUP1 PUSH4 0xA9059CBB EQ PUSH2 0x85C JUMPI DUP1 PUSH4 0xA9C0310D EQ PUSH2 0x86F JUMPI DUP1 PUSH4 0xBAF98372 EQ PUSH2 0x89F JUMPI DUP1 PUSH4 0xBDD3E805 EQ PUSH2 0x8BF JUMPI PUSH1 0x0 DUP1 REVERT JUMPDEST DUP1 PUSH4 0x949813B8 EQ PUSH2 0x801 JUMPI DUP1 PUSH4 0x95D89B41 EQ PUSH2 0x821 JUMPI DUP1 PUSH4 0x9E447FC6 EQ PUSH2 0x829 JUMPI DUP1 PUSH4 0xA7926ADA EQ PUSH2 0x83C JUMPI PUSH1 0x0 DUP1 REVERT JUMPDEST DUP1 PUSH4 0x8D824273 GT PUSH2 0x1D9 JUMPI DUP1 PUSH4 0x8D824273 EQ PUSH2 0x776 JUMPI DUP1 PUSH4 0x8DA5CB5B EQ PUSH2 0x789 JUMPI DUP1 PUSH4 0x8EA15BE6 EQ PUSH2 0x79A JUMPI DUP1 PUSH4 0x92E2C6D2 EQ PUSH2 0x7F9 JUMPI PUSH1 0x0 DUP1 REVERT JUMPDEST DUP1 PUSH4 0x85C6CCCA EQ PUSH2 0x6F1 JUMPI DUP1 PUSH4 0x879D9090 EQ PUSH2 0x704 JUMPI DUP1 PUSH4 0x8ABA3382 EQ PUSH2 0x70D JUMPI DUP1 PUSH4 0x8AD4BBA2 EQ PUSH2 0x74F JUMPI PUSH1 0x0 DUP1 REVERT JUMPDEST DUP1 PUSH4 0x3B9056BF GT PUSH2 0x2FA JUMPI DUP1 PUSH4 0x6A61CF61 GT PUSH2 0x28D JUMPI DUP1 PUSH4 0x79FCFEF1 GT PUSH2 0x25C JUMPI DUP1 PUSH4 0x79FCFEF1 EQ PUSH2 0x6B1 JUMPI DUP1 PUSH4 0x7B0A47EE EQ PUSH2 0x6BA JUMPI DUP1 PUSH4 0x7F0EDF33 EQ PUSH2 0x6C3 JUMPI DUP1 PUSH4 0x8494FF35 EQ PUSH2 0x6CC JUMPI PUSH1 0x0 DUP1 REVERT JUMPDEST DUP1 PUSH4 0x6A61CF61 EQ PUSH2 0x63D JUMPI DUP1 PUSH4 0x70A08231 EQ PUSH2 0x660 JUMPI DUP1 PUSH4 0x715018A6 EQ PUSH2 0x689 JUMPI DUP1 PUSH4 0x76B467B7 EQ PUSH2 0x691 JUMPI PUSH1 0x0 DUP1 REVERT JUMPDEST DUP1 PUSH4 0x4CFEA68A GT PUSH2 0x2C9 JUMPI DUP1 PUSH4 0x4CFEA68A EQ PUSH2 0x59A JUMPI DUP1 PUSH4 0x558A2DCC EQ PUSH2 0x5A3 JUMPI DUP1 PUSH4 0x56781388 EQ PUSH2 0x617 JUMPI DUP1 PUSH4 0x5D95750E EQ PUSH2 0x62A JUMPI PUSH1 0x0 DUP1 REVERT JUMPDEST DUP1 PUSH4 0x3B9056BF EQ PUSH2 0x55C JUMPI DUP1 PUSH4 0x3D6AA5E1 EQ PUSH2 0x56F JUMPI DUP1 PUSH4 0x43C79AD0 EQ PUSH2 0x57E JUMPI DUP1 PUSH4 0x470B7622 EQ PUSH2 0x587 JUMPI PUSH1 0x0 DUP1 REVERT JUMPDEST DUP1 PUSH4 0x23B872DD GT PUSH2 0x372 JUMPI DUP1 PUSH4 0x353B6C2C GT PUSH2 0x341 JUMPI DUP1 PUSH4 0x353B6C2C EQ PUSH2 0x524 JUMPI DUP1 PUSH4 0x372500AB EQ PUSH2 0x537 JUMPI DUP1 PUSH4 0x385DC3DF EQ PUSH2 0x53F JUMPI DUP1 PUSH4 0x39D2A199 EQ PUSH2 0x549 JUMPI PUSH1 0x0 DUP1 REVERT JUMPDEST DUP1 PUSH4 0x23B872DD EQ PUSH2 0x4C2 JUMPI DUP1 PUSH4 0x27BE553B EQ PUSH2 0x4D5 JUMPI DUP1 PUSH4 0x313CE567 EQ PUSH2 0x50A JUMPI DUP1 PUSH4 0x33F707D1 EQ PUSH2 0x511 JUMPI PUSH1 0x0 DUP1 REVERT JUMPDEST DUP1 PUSH4 0x95EA7B3 GT PUSH2 0x3AE JUMPI DUP1 PUSH4 0x95EA7B3 EQ PUSH2 0x445 JUMPI DUP1 PUSH4 0x10D41083 EQ PUSH2 0x468 JUMPI DUP1 PUSH4 0x141833DC EQ PUSH2 0x4A7 JUMPI DUP1 PUSH4 0x18160DDD EQ PUSH2 0x4BA JUMPI PUSH1 0x0 DUP1 REVERT JUMPDEST DUP1 PUSH3 0x62804E EQ PUSH2 0x3DF JUMPI DUP1 PUSH4 0x549F067 EQ PUSH2 0x3F4 JUMPI DUP1 PUSH4 0x57E1680 EQ PUSH2 0x410 JUMPI DUP1 PUSH4 0x6FDDE03 EQ PUSH2 0x430 JUMPI JUMPDEST PUSH1 0x0 DUP1 REVERT JUMPDEST PUSH2 0x3F2 PUSH2 0x3ED CALLDATASIZE PUSH1 0x4 PUSH2 0x41DD JUMP JUMPDEST PUSH2 0xA0D JUMP JUMPDEST STOP JUMPDEST PUSH2 0x3FD PUSH2 0x1F4 DUP2 JUMP JUMPDEST PUSH1 0x40 MLOAD SWAP1 DUP2 MSTORE PUSH1 0x20 ADD JUMPDEST PUSH1 0x40 MLOAD DUP1 SWAP2 SUB SWAP1 RETURN JUMPDEST PUSH2 0x3FD PUSH2 0x41E CALLDATASIZE PUSH1 0x4 PUSH2 0x41DD JUMP JUMPDEST PUSH1 0x14 PUSH1 0x20 MSTORE PUSH1 0x0 SWAP1 DUP2 MSTORE PUSH1 0x40 SWAP1 KECCAK256 SLOAD DUP2 JUMP JUMPDEST PUSH2 0x438 PUSH2 0x1166 JUMP JUMPDEST PUSH1 0x40 MLOAD PUSH2 0x407 SWAP2 SWAP1 PUSH2 0x423C JUMP JUMPDEST PUSH2 0x458 PUSH2 0x453 CALLDATASIZE PUSH1 0x4 PUSH2 0x426B JUMP JUMPDEST PUSH2 0x11F8 JUMP JUMPDEST PUSH1 0x40 MLOAD SWAP1 ISZERO ISZERO DUP2 MSTORE PUSH1 0x20 ADD PUSH2 0x407 JUMP JUMPDEST PUSH2 0x48F PUSH32 0x0 DUP2 JUMP JUMPDEST PUSH1 0x40 MLOAD PUSH1 0x1 PUSH1 0x1 PUSH1 0xA0 SHL SUB SWAP1 SWAP2 AND DUP2 MSTORE PUSH1 0x20 ADD PUSH2 0x407 JUMP JUMPDEST PUSH2 0x3F2 PUSH2 0x4B5 CALLDATASIZE PUSH1 0x4 PUSH2 0x41DD JUMP JUMPDEST PUSH2 0x1212 JUMP JUMPDEST PUSH1 0x2 SLOAD PUSH2 0x3FD JUMP JUMPDEST PUSH2 0x458 PUSH2 0x4D0 CALLDATASIZE PUSH1 0x4 PUSH2 0x4295 JUMP JUMPDEST PUSH2 0x13BD JUMP JUMPDEST PUSH2 0x4F8 PUSH2 0x4E3 CALLDATASIZE PUSH1 0x4 PUSH2 0x41DD JUMP JUMPDEST PUSH1 0x1A PUSH1 0x20 MSTORE PUSH1 0x0 SWAP1 DUP2 MSTORE PUSH1 0x40 SWAP1 KECCAK256 SLOAD PUSH1 0xFF AND DUP2 JUMP JUMPDEST PUSH1 0x40 MLOAD PUSH1 0xFF SWAP1 SWAP2 AND DUP2 MSTORE PUSH1 0x20 ADD PUSH2 0x407 JUMP JUMPDEST PUSH1 0x12 PUSH2 0x4F8 JUMP JUMPDEST PUSH2 0x3F2 PUSH2 0x51F CALLDATASIZE PUSH1 0x4 PUSH2 0x41DD JUMP JUMPDEST PUSH2 0x13E3 JUMP JUMPDEST PUSH2 0x3F2 PUSH2 0x532 CALLDATASIZE PUSH1 0x4 PUSH2 0x41DD JUMP JUMPDEST PUSH2 0x1627 JUMP JUMPDEST PUSH2 0x3F2 PUSH2 0x168A JUMP JUMPDEST PUSH2 0x3FD PUSH3 0x93A80 DUP2 JUMP JUMPDEST PUSH2 0x3FD PUSH2 0x557 CALLDATASIZE PUSH1 0x4 PUSH2 0x41DD JUMP JUMPDEST PUSH2 0x17F3 JUMP JUMPDEST PUSH2 0x3F2 PUSH2 0x56A CALLDATASIZE PUSH1 0x4 PUSH2 0x41DD JUMP JUMPDEST PUSH2 0x187E JUMP JUMPDEST PUSH2 0x3FD PUSH8 0xDE0B6B3A7640000 DUP2 JUMP JUMPDEST PUSH2 0x3FD PUSH1 0xC SLOAD DUP2 JUMP JUMPDEST PUSH2 0x3F2 PUSH2 0x595 CALLDATASIZE PUSH1 0x4 PUSH2 0x42F8 JUMP JUMPDEST PUSH2 0x1AC8 JUMP JUMPDEST PUSH2 0x3FD PUSH1 0x1B SLOAD DUP2 JUMP JUMPDEST PUSH2 0x602 PUSH2 0x5B1 CALLDATASIZE PUSH1 0x4 PUSH2 0x43C3 JUMP JUMPDEST PUSH1 0x0 SWAP2 DUP3 MSTORE PUSH1 0x12 PUSH1 0x20 SWAP1 DUP2 MSTORE PUSH1 0x40 DUP1 DUP5 KECCAK256 PUSH1 0x1 PUSH1 0x1 PUSH1 0xA0 SHL SUB SWAP4 SWAP1 SWAP4 AND DUP5 MSTORE SWAP2 DUP2 MSTORE SWAP2 DUP2 SWAP1 KECCAK256 DUP2 MLOAD DUP1 DUP4 ADD SWAP1 SWAP3 MSTORE SLOAD PUSH1 0x1 PUSH1 0x1 PUSH1 0x80 SHL SUB DUP1 DUP3 AND DUP1 DUP5 MSTORE PUSH1 0x1 PUSH1 0x80 SHL SWAP1 SWAP3 DIV AND SWAP2 SWAP1 SWAP3 ADD DUP2 SWAP1 MSTORE SWAP1 SWAP2 JUMP JUMPDEST PUSH1 0x40 DUP1 MLOAD SWAP3 DUP4 MSTORE PUSH1 0x20 DUP4 ADD SWAP2 SWAP1 SWAP2 MSTORE ADD PUSH2 0x407 JUMP JUMPDEST PUSH2 0x3F2 PUSH2 0x625 CALLDATASIZE PUSH1 0x4 PUSH2 0x43EF JUMP JUMPDEST PUSH2 0x1AEA JUMP JUMPDEST PUSH2 0x3F2 PUSH2 0x638 CALLDATASIZE PUSH1 0x4 PUSH2 0x4412 JUMP JUMPDEST PUSH2 0x1B1A JUMP JUMPDEST PUSH2 0x458 PUSH2 0x64B CALLDATASIZE PUSH1 0x4 PUSH2 0x41DD JUMP JUMPDEST PUSH1 0x18 PUSH1 0x20 MSTORE PUSH1 0x0 SWAP1 DUP2 MSTORE PUSH1 0x40 SWAP1 KECCAK256 SLOAD PUSH1 0xFF AND DUP2 JUMP JUMPDEST PUSH2 0x3FD PUSH2 0x66E CALLDATASIZE PUSH1 0x4 PUSH2 0x4437 JUMP JUMPDEST PUSH1 0x1 PUSH1 0x1 PUSH1 0xA0 SHL SUB AND PUSH1 0x0 SWAP1 DUP2 MSTORE PUSH1 0x20 DUP2 SWAP1 MSTORE PUSH1 0x40 SWAP1 KECCAK256 SLOAD SWAP1 JUMP JUMPDEST PUSH2 0x3F2 PUSH2 0x1F36 JUMP JUMPDEST PUSH2 0x3FD PUSH2 0x69F CALLDATASIZE PUSH1 0x4 PUSH2 0x4437 JUMP JUMPDEST PUSH1 0x15 PUSH1 0x20 MSTORE PUSH1 0x0 SWAP1 DUP2 MSTORE PUSH1 0x40 SWAP1 KECCAK256 SLOAD DUP2 JUMP JUMPDEST PUSH2 0x3FD PUSH1 0xB SLOAD DUP2 JUMP JUMPDEST PUSH2 0x3FD PUSH1 0x8 SLOAD DUP2 JUMP JUMPDEST PUSH2 0x3FD PUSH1 0x16 SLOAD DUP2 JUMP JUMPDEST PUSH2 0x6DF PUSH2 0x6DA CALLDATASIZE PUSH1 0x4 PUSH2 0x41DD JUMP JUMPDEST PUSH2 0x1F48 JUMP JUMPDEST PUSH1 0x40 MLOAD PUSH2 0x407 SWAP7 SWAP6 SWAP5 SWAP4 SWAP3 SWAP2 SWAP1 PUSH2 0x4452 JUMP JUMPDEST PUSH2 0x3F2 PUSH2 0x6FF CALLDATASIZE PUSH1 0x4 PUSH2 0x41DD JUMP JUMPDEST PUSH2 0x200D JUMP JUMPDEST PUSH2 0x3FD PUSH1 0x7 SLOAD DUP2 JUMP JUMPDEST PUSH1 0x1F SLOAD PUSH1 0x20 SLOAD PUSH1 0x21 SLOAD PUSH1 0x22 SLOAD PUSH1 0x23 SLOAD PUSH2 0x727 SWAP5 SWAP4 SWAP3 SWAP2 SWAP1 DUP6 JUMP JUMPDEST PUSH1 0x40 DUP1 MLOAD SWAP6 DUP7 MSTORE PUSH1 0x20 DUP7 ADD SWAP5 SWAP1 SWAP5 MSTORE SWAP3 DUP5 ADD SWAP2 SWAP1 SWAP2 MSTORE PUSH1 0x60 DUP4 ADD MSTORE PUSH1 0x80 DUP3 ADD MSTORE PUSH1 0xA0 ADD PUSH2 0x407 JUMP JUMPDEST PUSH2 0x48F PUSH32 0x0 DUP2 JUMP JUMPDEST PUSH2 0x6DF PUSH2 0x784 CALLDATASIZE PUSH1 0x4 PUSH2 0x41DD JUMP JUMPDEST PUSH2 0x22B8 JUMP JUMPDEST PUSH1 0x6 SLOAD PUSH1 0x1 PUSH1 0x1 PUSH1 0xA0 SHL SUB AND PUSH2 0x48F JUMP JUMPDEST PUSH2 0x7D9 PUSH2 0x7A8 CALLDATASIZE PUSH1 0x4 PUSH2 0x43C3 JUMP JUMPDEST PUSH1 0x12 PUSH1 0x20 SWAP1 DUP2 MSTORE PUSH1 0x0 SWAP3 DUP4 MSTORE PUSH1 0x40 DUP1 DUP5 KECCAK256 SWAP1 SWAP2 MSTORE SWAP1 DUP3 MSTORE SWAP1 KECCAK256 SLOAD PUSH1 0x1 PUSH1 0x1 PUSH1 0x80 SHL SUB DUP1 DUP3 AND SWAP2 PUSH1 0x1 PUSH1 0x80 SHL SWAP1 DIV AND DUP3 JUMP JUMPDEST PUSH1 0x40 DUP1 MLOAD PUSH1 0x1 PUSH1 0x1 PUSH1 0x80 SHL SUB SWAP4 DUP5 AND DUP2 MSTORE SWAP3 SWAP1 SWAP2 AND PUSH1 0x20 DUP4 ADD MSTORE ADD PUSH2 0x407 JUMP JUMPDEST PUSH1 0x1E SLOAD PUSH2 0x3FD JUMP JUMPDEST PUSH2 0x3FD PUSH2 0x80F CALLDATASIZE PUSH1 0x4 PUSH2 0x4437 JUMP JUMPDEST PUSH1 0xF PUSH1 0x20 MSTORE PUSH1 0x0 SWAP1 DUP2 MSTORE PUSH1 0x40 SWAP1 KECCAK256 SLOAD DUP2 JUMP JUMPDEST PUSH2 0x438 PUSH2 0x23EC JUMP JUMPDEST PUSH2 0x3F2 PUSH2 0x837 CALLDATASIZE PUSH1 0x4 PUSH2 0x41DD JUMP JUMPDEST PUSH2 0x23FB JUMP JUMPDEST PUSH2 0x3FD PUSH2 0x84A CALLDATASIZE PUSH1 0x4 PUSH2 0x4437 JUMP JUMPDEST PUSH1 0xE PUSH1 0x20 MSTORE PUSH1 0x0 SWAP1 DUP2 MSTORE PUSH1 0x40 SWAP1 KECCAK256 SLOAD DUP2 JUMP JUMPDEST PUSH2 0x458 PUSH2 0x86A CALLDATASIZE PUSH1 0x4 PUSH2 0x426B JUMP JUMPDEST PUSH2 0x2516 JUMP JUMPDEST PUSH2 0x892 PUSH2 0x87D CALLDATASIZE PUSH1 0x4 PUSH2 0x41DD JUMP JUMPDEST PUSH1 0x10 PUSH1 0x20 MSTORE PUSH1 0x0 SWAP1 DUP2 MSTORE PUSH1 0x40 SWAP1 KECCAK256 SLOAD PUSH1 0xFF AND DUP2 JUMP JUMPDEST PUSH1 0x40 MLOAD PUSH2 0x407 SWAP2 SWAP1 PUSH2 0x44A8 JUMP JUMPDEST PUSH2 0x3FD PUSH2 0x8AD CALLDATASIZE PUSH1 0x4 PUSH2 0x41DD JUMP JUMPDEST PUSH1 0x13 PUSH1 0x20 MSTORE PUSH1 0x0 SWAP1 DUP2 MSTORE PUSH1 0x40 SWAP1 KECCAK256 SLOAD DUP2 JUMP JUMPDEST PUSH2 0x458 PUSH2 0x8CD CALLDATASIZE PUSH1 0x4 PUSH2 0x41DD JUMP JUMPDEST PUSH1 0x19 PUSH1 0x20 MSTORE PUSH1 0x0 SWAP1 DUP2 MSTORE PUSH1 0x40 SWAP1 KECCAK256 SLOAD PUSH1 0xFF AND DUP2 JUMP JUMPDEST PUSH2 0x3FD PUSH3 0x278D00 DUP2 JUMP JUMPDEST PUSH2 0x3FD PUSH1 0x1E SLOAD DUP2 JUMP JUMPDEST PUSH2 0x3FD PUSH1 0xA SLOAD DUP2 JUMP JUMPDEST PUSH2 0x3FD PUSH2 0x2524 JUMP JUMPDEST PUSH2 0x3FD PUSH2 0x914 CALLDATASIZE PUSH1 0x4 PUSH2 0x41DD JUMP JUMPDEST PUSH1 0x11 PUSH1 0x20 MSTORE PUSH1 0x0 SWAP1 DUP2 MSTORE PUSH1 0x40 SWAP1 KECCAK256 SLOAD DUP2 JUMP JUMPDEST PUSH2 0x3FD PUSH2 0x934 CALLDATASIZE PUSH1 0x4 PUSH2 0x44C2 JUMP JUMPDEST PUSH1 0x1 PUSH1 0x1 PUSH1 0xA0 SHL SUB SWAP2 DUP3 AND PUSH1 0x0 SWAP1 DUP2 MSTORE PUSH1 0x1 PUSH1 0x20 SWAP1 DUP2 MSTORE PUSH1 0x40 DUP1 DUP4 KECCAK256 SWAP4 SWAP1 SWAP5 AND DUP3 MSTORE SWAP2 SWAP1 SWAP2 MSTORE KECCAK256 SLOAD SWAP1 JUMP JUMPDEST PUSH2 0x6DF PUSH2 0x96D CALLDATASIZE PUSH1 0x4 PUSH2 0x41DD JUMP JUMPDEST PUSH2 0x2597 JUMP JUMPDEST PUSH2 0x3FD PUSH2 0x7D0 DUP2 JUMP JUMPDEST PUSH2 0x3FD PUSH2 0x2710 DUP2 JUMP JUMPDEST PUSH2 0x458 PUSH2 0x992 CALLDATASIZE PUSH1 0x4 PUSH2 0x41DD JUMP JUMPDEST PUSH1 0x17 PUSH1 0x20 MSTORE PUSH1 0x0 SWAP1 DUP2 MSTORE PUSH1 0x40 SWAP1 KECCAK256 SLOAD PUSH1 0xFF AND DUP2 JUMP JUMPDEST PUSH2 0x3FD PUSH1 0x9 SLOAD DUP2 JUMP JUMPDEST PUSH2 0x3FD PUSH1 0xD SLOAD DUP2 JUMP JUMPDEST PUSH2 0x3FD PUSH2 0x25D9 JUMP JUMPDEST PUSH2 0x3F2 PUSH2 0x9CF CALLDATASIZE PUSH1 0x4 PUSH2 0x4437 JUMP JUMPDEST PUSH2 0x2669 JUMP JUMPDEST PUSH2 0x3FD PUSH2 0x9E2 CALLDATASIZE PUSH1 0x4 PUSH2 0x4437 JUMP JUMPDEST PUSH2 0x26A4 JUMP JUMPDEST PUSH2 0x3F2 PUSH2 0x9F5 CALLDATASIZE PUSH1 0x4 PUSH2 0x41DD JUMP JUMPDEST PUSH2 0x2745 JUMP JUMPDEST PUSH2 0x6DF PUSH2 0xA08 CALLDATASIZE PUSH1 0x4 PUSH2 0x41DD JUMP JUMPDEST PUSH2 0x2A07 JUMP JUMPDEST PUSH2 0xA15 PUSH2 0x2AC3 JUMP JUMPDEST PUSH1 0x0 DUP2 DUP2 MSTORE PUSH1 0x10 PUSH1 0x20 MSTORE PUSH1 0x40 DUP2 KECCAK256 SLOAD PUSH1 0xFF AND PUSH1 0x2 DUP2 GT ISZERO PUSH2 0xA38 JUMPI PUSH2 0xA38 PUSH2 0x4492 JUMP JUMPDEST EQ PUSH2 0xA86 JUMPI PUSH1 0x40 MLOAD PUSH3 0x461BCD PUSH1 0xE5 SHL DUP2 MSTORE PUSH1 0x20 PUSH1 0x4 DUP3 ADD MSTORE PUSH1 0x19 PUSH1 0x24 DUP3 ADD MSTORE PUSH25 0x141C9BDC1BDCD85B08185B1C9958591E481C995CDBDB1D9959 PUSH1 0x3A SHL PUSH1 0x44 DUP3 ADD MSTORE PUSH1 0x64 ADD JUMPDEST PUSH1 0x40 MLOAD DUP1 SWAP2 SUB SWAP1 REVERT JUMPDEST PUSH1 0x0 DUP2 DUP2 MSTORE PUSH1 0x11 PUSH1 0x20 MSTORE PUSH1 0x40 SWAP1 KECCAK256 SLOAD PUSH2 0xAE1 JUMPI PUSH1 0x40 MLOAD PUSH3 0x461BCD PUSH1 0xE5 SHL DUP2 MSTORE PUSH1 0x20 PUSH1 0x4 DUP3 ADD MSTORE PUSH1 0x17 PUSH1 0x24 DUP3 ADD MSTORE PUSH32 0x50726F706F73616C20646F6573206E6F74206578697374000000000000000000 PUSH1 0x44 DUP3 ADD MSTORE PUSH1 0x64 ADD PUSH2 0xA7D JUMP JUMPDEST PUSH1 0x40 MLOAD PUSH4 0x1F27A4F3 PUSH1 0xE1 SHL DUP2 MSTORE PUSH1 0x4 DUP2 ADD DUP3 SWAP1 MSTORE PUSH32 0x0 PUSH1 0x1 PUSH1 0x1 PUSH1 0xA0 SHL SUB AND SWAP1 PUSH4 0x3E4F49E6 SWAP1 PUSH1 0x24 ADD PUSH1 0x20 PUSH1 0x40 MLOAD DUP1 DUP4 SUB DUP2 DUP7 GAS STATICCALL SWAP3 POP POP POP DUP1 ISZERO PUSH2 0xB62 JUMPI POP PUSH1 0x40 DUP1 MLOAD PUSH1 0x1F RETURNDATASIZE SWAP1 DUP2 ADD PUSH1 0x1F NOT AND DUP3 ADD SWAP1 SWAP3 MSTORE PUSH2 0xB5F SWAP2 DUP2 ADD SWAP1 PUSH2 0x44EC JUMP JUMPDEST PUSH1 0x1 JUMPDEST PUSH2 0xBA4 JUMPI PUSH1 0x40 MLOAD PUSH3 0x461BCD PUSH1 0xE5 SHL DUP2 MSTORE PUSH1 0x20 PUSH1 0x4 DUP3 ADD MSTORE PUSH1 0x13 PUSH1 0x24 DUP3 ADD MSTORE PUSH19 0x125B9D985B1A59081C1C9BDC1BDCD85B081251 PUSH1 0x6A SHL PUSH1 0x44 DUP3 ADD MSTORE PUSH1 0x64 ADD PUSH2 0xA7D JUMP JUMPDEST PUSH1 0x4 DUP2 PUSH1 0x7 DUP2 GT ISZERO PUSH2 0xBB8 JUMPI PUSH2 0xBB8 PUSH2 0x4492 JUMP JUMPDEST EQ DUP1 PUSH2 0xBD5 JUMPI POP PUSH1 0x3 DUP2 PUSH1 0x7 DUP2 GT ISZERO PUSH2 0xBD3 JUMPI PUSH2 0xBD3 PUSH2 0x4492 JUMP JUMPDEST EQ JUMPDEST DUP1 PUSH2 0xBF1 JUMPI POP PUSH1 0x6 DUP2 PUSH1 0x7 DUP2 GT ISZERO PUSH2 0xBEF JUMPI PUSH2 0xBEF PUSH2 0x4492 JUMP JUMPDEST EQ JUMPDEST DUP1 PUSH2 0xC0D JUMPI POP PUSH1 0x2 DUP2 PUSH1 0x7 DUP2 GT ISZERO PUSH2 0xC0B JUMPI PUSH2 0xC0B PUSH2 0x4492 JUMP JUMPDEST EQ JUMPDEST DUP1 PUSH2 0xC29 JUMPI POP PUSH1 0x7 DUP2 PUSH1 0x7 DUP2 GT ISZERO PUSH2 0xC27 JUMPI PUSH2 0xC27 PUSH2 0x4492 JUMP JUMPDEST EQ JUMPDEST PUSH2 0xC75 JUMPI PUSH1 0x40 MLOAD PUSH3 0x461BCD PUSH1 0xE5 SHL DUP2 MSTORE PUSH1 0x20 PUSH1 0x4 DUP3 ADD MSTORE PUSH1 0x19 PUSH1 0x24 DUP3 ADD MSTORE PUSH32 0x50726F706F73616C206E6F7420796574207265736F6C76656400000000000000 PUSH1 0x44 DUP3 ADD MSTORE PUSH1 0x64 ADD PUSH2 0xA7D JUMP JUMPDEST PUSH1 0x0 PUSH1 0x4 DUP3 PUSH1 0x7 DUP2 GT ISZERO PUSH2 0xC8B JUMPI PUSH2 0xC8B PUSH2 0x4492 JUMP JUMPDEST EQ DUP1 PUSH2 0xCA8 JUMPI POP PUSH1 0x7 DUP3 PUSH1 0x7 DUP2 GT ISZERO PUSH2 0xCA6 JUMPI PUSH2 0xCA6 PUSH2 0x4492 JUMP JUMPDEST EQ JUMPDEST ISZERO PUSH2 0xCB5 JUMPI POP PUSH1 0x1 PUSH2 0xCB9 JUMP JUMPDEST POP PUSH1 0x0 JUMPDEST DUP1 PUSH1 0xFF AND PUSH1 0x1 EQ PUSH2 0xCCB JUMPI PUSH1 0x1 PUSH2 0xCCE JUMP JUMPDEST PUSH1 0x2 JUMPDEST PUSH1 0x0 DUP5 DUP2 MSTORE PUSH1 0x10 PUSH1 0x20 MSTORE PUSH1 0x40 SWAP1 KECCAK256 DUP1 SLOAD PUSH1 0xFF NOT AND PUSH1 0x1 DUP4 PUSH1 0x2 DUP2 GT ISZERO PUSH2 0xCF6 JUMPI PUSH2 0xCF6 PUSH2 0x4492 JUMP JUMPDEST MUL OR SWAP1 SSTORE POP PUSH1 0x0 DUP4 DUP2 MSTORE PUSH1 0x19 PUSH1 0x20 MSTORE PUSH1 0x40 DUP2 KECCAK256 SLOAD PUSH1 0xFF AND DUP1 ISZERO PUSH2 0xD2C JUMPI POP PUSH1 0x0 DUP5 DUP2 MSTORE PUSH1 0x1A PUSH1 0x20 MSTORE PUSH1 0x40 SWAP1 KECCAK256 SLOAD PUSH1 0xFF DUP4 DUP2 AND SWAP2 AND EQ JUMPDEST SWAP1 POP DUP1 ISZERO PUSH2 0xF5A JUMPI DUP2 PUSH1 0xFF AND PUSH1 0x1 SUB PUSH2 0xE52 JUMPI PUSH1 0x0 DUP5 DUP2 MSTORE PUSH1 0x13 PUSH1 0x20 MSTORE PUSH1 0x40 SWAP1 KECCAK256 SLOAD ISZERO PUSH2 0xE4D JUMPI PUSH32 0x0 PUSH1 0x1 PUSH1 0x1 PUSH1 0xA0 SHL SUB AND PUSH4 0xA9059CBB PUSH2 0xD94 PUSH1 0x6 SLOAD PUSH1 0x1 PUSH1 0x1 PUSH1 0xA0 SHL SUB AND SWAP1 JUMP JUMPDEST PUSH1 0x0 DUP8 DUP2 MSTORE PUSH1 0x13 PUSH1 0x20 MSTORE PUSH1 0x40 SWAP1 DUP2 SWAP1 KECCAK256 SLOAD SWAP1 MLOAD PUSH1 0x1 PUSH1 0x1 PUSH1 0xE0 SHL SUB NOT PUSH1 0xE0 DUP6 SWAP1 SHL AND DUP2 MSTORE PUSH2 0xDC6 SWAP3 SWAP2 SWAP1 PUSH1 0x4 ADD PUSH2 0x450D JUMP JUMPDEST PUSH1 0x20 PUSH1 0x40 MLOAD DUP1 DUP4 SUB DUP2 PUSH1 0x0 DUP8 GAS CALL ISZERO DUP1 ISZERO PUSH2 0xDE5 JUMPI RETURNDATASIZE PUSH1 0x0 DUP1 RETURNDATACOPY RETURNDATASIZE PUSH1 0x0 REVERT JUMPDEST POP POP POP POP PUSH1 0x40 MLOAD RETURNDATASIZE PUSH1 0x1F NOT PUSH1 0x1F DUP3 ADD AND DUP3 ADD DUP1 PUSH1 0x40 MSTORE POP DUP2 ADD SWAP1 PUSH2 0xE09 SWAP2 SWAP1 PUSH2 0x4526 JUMP JUMPDEST POP PUSH1 0x1 PUSH1 0x1F PUSH1 0x0 ADD PUSH1 0x0 DUP3 DUP3 SLOAD PUSH2 0xE20 SWAP2 SWAP1 PUSH2 0x455E JUMP JUMPDEST SWAP1 SWAP2 SSTORE POP POP PUSH1 0x0 DUP5 DUP2 MSTORE PUSH1 0x13 PUSH1 0x20 MSTORE PUSH1 0x40 DUP2 KECCAK256 SLOAD PUSH1 0x21 DUP1 SLOAD SWAP2 SWAP3 SWAP1 SWAP2 PUSH2 0xE47 SWAP1 DUP5 SWAP1 PUSH2 0x455E JUMP JUMPDEST SWAP1 SWAP2 SSTORE POP POP JUMPDEST PUSH2 0x10C4 JUMP JUMPDEST PUSH1 0x0 DUP5 DUP2 MSTORE PUSH1 0x14 PUSH1 0x20 MSTORE PUSH1 0x40 SWAP1 KECCAK256 SLOAD ISZERO PUSH2 0xE4D JUMPI PUSH32 0x0 PUSH1 0x1 PUSH1 0x1 PUSH1 0xA0 SHL SUB AND PUSH4 0xA9059CBB PUSH2 0xEA7 PUSH1 0x6 SLOAD PUSH1 0x1 PUSH1 0x1 PUSH1 0xA0 SHL SUB AND SWAP1 JUMP JUMPDEST PUSH1 0x0 DUP8 DUP2 MSTORE PUSH1 0x14 PUSH1 0x20 MSTORE PUSH1 0x40 SWAP1 DUP2 SWAP1 KECCAK256 SLOAD SWAP1 MLOAD PUSH1 0x1 PUSH1 0x1 PUSH1 0xE0 SHL SUB NOT PUSH1 0xE0 DUP6 SWAP1 SHL AND DUP2 MSTORE PUSH2 0xED9 SWAP3 SWAP2 SWAP1 PUSH1 0x4 ADD PUSH2 0x450D JUMP JUMPDEST PUSH1 0x20 PUSH1 0x40 MLOAD DUP1 DUP4 SUB DUP2 PUSH1 0x0 DUP8 GAS CALL ISZERO DUP1 ISZERO PUSH2 0xEF8 JUMPI RETURNDATASIZE PUSH1 0x0 DUP1 RETURNDATACOPY RETURNDATASIZE PUSH1 0x0 REVERT JUMPDEST POP POP POP POP PUSH1 0x40 MLOAD RETURNDATASIZE PUSH1 0x1F NOT PUSH1 0x1F DUP3 ADD AND DUP3 ADD DUP1 PUSH1 0x40 MSTORE POP DUP2 ADD SWAP1 PUSH2 0xF1C SWAP2 SWAP1 PUSH2 0x4526 JUMP JUMPDEST POP PUSH1 0x1 PUSH1 0x1F PUSH1 0x0 ADD PUSH1 0x0 DUP3 DUP3 SLOAD PUSH2 0xF33 SWAP2 SWAP1 PUSH2 0x455E JUMP JUMPDEST SWAP1 SWAP2 SSTORE POP POP PUSH1 0x0 DUP5 DUP2 MSTORE PUSH1 0x14 PUSH1 0x20 MSTORE PUSH1 0x40 DUP2 KECCAK256 SLOAD PUSH1 0x21 DUP1 SLOAD SWAP2 SWAP3 SWAP1 SWAP2 PUSH2 0xE47 SWAP1 DUP5 SWAP1 PUSH2 0x455E JUMP JUMPDEST PUSH1 0x0 DUP5 DUP2 MSTORE PUSH1 0x13 PUSH1 0x20 MSTORE PUSH1 0x40 SWAP1 KECCAK256 SLOAD ISZERO PUSH2 0x100F JUMPI PUSH1 0x0 DUP5 DUP2 MSTORE PUSH1 0x13 PUSH1 0x20 MSTORE PUSH1 0x40 SWAP1 DUP2 SWAP1 KECCAK256 SLOAD SWAP1 MLOAD PUSH4 0xA9059CBB PUSH1 0xE0 SHL DUP2 MSTORE PUSH1 0x1 PUSH1 0x1 PUSH1 0xA0 SHL SUB PUSH32 0x0 AND SWAP2 PUSH4 0xA9059CBB SWAP2 PUSH2 0xFCA SWAP2 ADDRESS SWAP2 PUSH1 0x4 ADD PUSH2 0x450D JUMP JUMPDEST PUSH1 0x20 PUSH1 0x40 MLOAD DUP1 DUP4 SUB DUP2 PUSH1 0x0 DUP8 GAS CALL ISZERO DUP1 ISZERO PUSH2 0xFE9 JUMPI RETURNDATASIZE PUSH1 0x0 DUP1 RETURNDATACOPY RETURNDATASIZE PUSH1 0x0 REVERT JUMPDEST POP POP POP POP PUSH1 0x40 MLOAD RETURNDATASIZE PUSH1 0x1F NOT PUSH1 0x1F DUP3 ADD AND DUP3 ADD DUP1 PUSH1 0x40 MSTORE POP DUP2 ADD SWAP1 PUSH2 0x100D SWAP2 SWAP1 PUSH2 0x4526 JUMP JUMPDEST POP JUMPDEST PUSH1 0x0 DUP5 DUP2 MSTORE PUSH1 0x14 PUSH1 0x20 MSTORE PUSH1 0x40 SWAP1 KECCAK256 SLOAD ISZERO PUSH2 0x10C4 JUMPI PUSH1 0x0 DUP5 DUP2 MSTORE PUSH1 0x14 PUSH1 0x20 MSTORE PUSH1 0x40 SWAP1 DUP2 SWAP1 KECCAK256 SLOAD SWAP1 MLOAD PUSH4 0xA9059CBB PUSH1 0xE0 SHL DUP2 MSTORE PUSH1 0x1 PUSH1 0x1 PUSH1 0xA0 SHL SUB PUSH32 0x0 AND SWAP2 PUSH4 0xA9059CBB SWAP2 PUSH2 0x107F SWAP2 ADDRESS SWAP2 PUSH1 0x4 ADD PUSH2 0x450D JUMP JUMPDEST PUSH1 0x20 PUSH1 0x40 MLOAD DUP1 DUP4 SUB DUP2 PUSH1 0x0 DUP8 GAS CALL ISZERO DUP1 ISZERO PUSH2 0x109E JUMPI RETURNDATASIZE PUSH1 0x0 DUP1 RETURNDATACOPY RETURNDATASIZE PUSH1 0x0 REVERT JUMPDEST POP POP POP POP PUSH1 0x40 MLOAD RETURNDATASIZE PUSH1 0x1F NOT PUSH1 0x1F DUP3 ADD AND DUP3 ADD DUP1 PUSH1 0x40 MSTORE POP DUP2 ADD SWAP1 PUSH2 0x10C2 SWAP2 SWAP1 PUSH2 0x4526 JUMP JUMPDEST POP JUMPDEST PUSH1 0x1 PUSH1 0x1F PUSH1 0x1 ADD PUSH1 0x0 DUP3 DUP3 SLOAD PUSH2 0x10DA SWAP2 SWAP1 PUSH2 0x455E JUMP JUMPDEST SWAP1 SWAP2 SSTORE POP POP PUSH1 0x1F SLOAD PUSH1 0x20 DUP1 SLOAD PUSH1 0x21 SLOAD PUSH1 0x40 DUP1 MLOAD SWAP5 DUP6 MSTORE SWAP3 DUP5 ADD SWAP2 SWAP1 SWAP2 MSTORE DUP3 DUP3 ADD MSTORE MLOAD PUSH32 0x355935019D4BEA1E3D4292AE0D5BB626009619CEED2E19671B61AA405FC78893 SWAP2 DUP2 SWAP1 SUB PUSH1 0x60 ADD SWAP1 LOG1 PUSH1 0x40 MLOAD PUSH1 0xFF DUP4 AND SWAP1 DUP6 SWAP1 PUSH32 0x42AF0D2D7B5985C66A12ED8634EDD91F277C4254189C9DE953EFF76546526E20 SWAP1 PUSH1 0x0 SWAP1 LOG3 POP POP POP PUSH2 0x1163 PUSH1 0x1 PUSH1 0x5 SSTORE JUMP JUMPDEST POP JUMP JUMPDEST PUSH1 0x60 PUSH1 0x3 DUP1 SLOAD PUSH2 0x1175 SWAP1 PUSH2 0x4571 JUMP JUMPDEST DUP1 PUSH1 0x1F ADD PUSH1 0x20 DUP1 SWAP2 DIV MUL PUSH1 0x20 ADD PUSH1 0x40 MLOAD SWAP1 DUP2 ADD PUSH1 0x40 MSTORE DUP1 SWAP3 SWAP2 SWAP1 DUP2 DUP2 MSTORE PUSH1 0x20 ADD DUP3 DUP1 SLOAD PUSH2 0x11A1 SWAP1 PUSH2 0x4571 JUMP JUMPDEST DUP1 ISZERO PUSH2 0x11EE JUMPI DUP1 PUSH1 0x1F LT PUSH2 0x11C3 JUMPI PUSH2 0x100 DUP1 DUP4 SLOAD DIV MUL DUP4 MSTORE SWAP2 PUSH1 0x20 ADD SWAP2 PUSH2 0x11EE JUMP JUMPDEST DUP3 ADD SWAP2 SWAP1 PUSH1 0x0 MSTORE PUSH1 0x20 PUSH1 0x0 KECCAK256 SWAP1 JUMPDEST DUP2 SLOAD DUP2 MSTORE SWAP1 PUSH1 0x1 ADD SWAP1 PUSH1 0x20 ADD DUP1 DUP4 GT PUSH2 0x11D1 JUMPI DUP3 SWAP1 SUB PUSH1 0x1F AND DUP3 ADD SWAP2 JUMPDEST POP POP POP POP POP SWAP1 POP SWAP1 JUMP JUMPDEST PUSH1 0x0 CALLER PUSH2 0x1206 DUP2 DUP6 DUP6 PUSH2 0x2AED JUMP JUMPDEST PUSH1 0x1 SWAP2 POP POP JUMPDEST SWAP3 SWAP2 POP POP JUMP JUMPDEST PUSH2 0x121A PUSH2 0x2AC3 JUMP JUMPDEST PUSH1 0x6 SLOAD PUSH1 0x1 PUSH1 0x1 PUSH1 0xA0 SHL SUB AND CALLER EQ PUSH2 0x126D JUMPI PUSH1 0x40 MLOAD PUSH3 0x461BCD PUSH1 0xE5 SHL DUP2 MSTORE PUSH1 0x20 PUSH1 0x4 DUP3 ADD MSTORE PUSH1 0x16 PUSH1 0x24 DUP3 ADD MSTORE PUSH22 0x13DB9B1E481BDDDB995C8818D85B8819195C1BDCDA5D PUSH1 0x52 SHL PUSH1 0x44 DUP3 ADD MSTORE PUSH1 0x64 ADD PUSH2 0xA7D JUMP JUMPDEST PUSH1 0x0 DUP2 GT PUSH2 0x128D JUMPI PUSH1 0x40 MLOAD PUSH3 0x461BCD PUSH1 0xE5 SHL DUP2 MSTORE PUSH1 0x4 ADD PUSH2 0xA7D SWAP1 PUSH2 0x45AB JUMP JUMPDEST PUSH2 0x1295 PUSH2 0x2AFA JUMP JUMPDEST DUP1 PUSH1 0x7 PUSH1 0x0 DUP3 DUP3 SLOAD PUSH2 0x12A7 SWAP2 SWAP1 PUSH2 0x455E JUMP JUMPDEST SWAP1 SWAP2 SSTORE POP POP PUSH1 0x1 PUSH1 0x1 PUSH1 0xA0 SHL SUB PUSH32 0x0 AND PUSH4 0x23B872DD PUSH2 0x12ED PUSH1 0x6 SLOAD PUSH1 0x1 PUSH1 0x1 PUSH1 0xA0 SHL SUB AND SWAP1 JUMP JUMPDEST PUSH1 0x40 MLOAD PUSH1 0x1 PUSH1 0x1 PUSH1 0xE0 SHL SUB NOT PUSH1 0xE0 DUP5 SWAP1 SHL AND DUP2 MSTORE PUSH1 0x1 PUSH1 0x1 PUSH1 0xA0 SHL SUB SWAP1 SWAP2 AND PUSH1 0x4 DUP3 ADD MSTORE ADDRESS PUSH1 0x24 DUP3 ADD MSTORE PUSH1 0x44 DUP2 ADD DUP5 SWAP1 MSTORE PUSH1 0x64 ADD PUSH1 0x20 PUSH1 0x40 MLOAD DUP1 DUP4 SUB DUP2 PUSH1 0x0 DUP8 GAS CALL ISZERO DUP1 ISZERO PUSH2 0x1340 JUMPI RETURNDATASIZE PUSH1 0x0 DUP1 RETURNDATACOPY RETURNDATASIZE PUSH1 0x0 REVERT JUMPDEST POP POP POP POP PUSH1 0x40 MLOAD RETURNDATASIZE PUSH1 0x1F NOT PUSH1 0x1F DUP3 ADD AND DUP3 ADD DUP1 PUSH1 0x40 MSTORE POP DUP2 ADD SWAP1 PUSH2 0x1364 SWAP2 SWAP1 PUSH2 0x4526 JUMP JUMPDEST POP PUSH1 0x6 SLOAD PUSH1 0x1 PUSH1 0x1 PUSH1 0xA0 SHL SUB AND PUSH1 0x1 PUSH1 0x1 PUSH1 0xA0 SHL SUB AND PUSH32 0xC286F3B83E4F244DAFDD6F12A30C1792EB5C99BA0EE6CB1181AAF6EAC30286E8 DUP3 PUSH1 0x40 MLOAD PUSH2 0x13AB SWAP2 DUP2 MSTORE PUSH1 0x20 ADD SWAP1 JUMP JUMPDEST PUSH1 0x40 MLOAD DUP1 SWAP2 SUB SWAP1 LOG2 PUSH2 0x1163 PUSH1 0x1 PUSH1 0x5 SSTORE JUMP JUMPDEST PUSH1 0x0 CALLER PUSH2 0x13CB DUP6 DUP3 DUP6 PUSH2 0x2C88 JUMP JUMPDEST PUSH2 0x13D6 DUP6 DUP6 DUP6 PUSH2 0x2D07 JUMP JUMPDEST PUSH1 0x1 SWAP2 POP POP JUMPDEST SWAP4 SWAP3 POP POP POP JUMP JUMPDEST PUSH2 0x13EB PUSH2 0x2AC3 JUMP JUMPDEST PUSH1 0x6 SLOAD PUSH1 0x1 PUSH1 0x1 PUSH1 0xA0 SHL SUB AND CALLER EQ PUSH2 0x1445 JUMPI PUSH1 0x40 MLOAD PUSH3 0x461BCD PUSH1 0xE5 SHL DUP2 MSTORE PUSH1 0x20 PUSH1 0x4 DUP3 ADD MSTORE PUSH1 0x17 PUSH1 0x24 DUP3 ADD MSTORE PUSH32 0x4F6E6C79206F776E65722063616E207769746864726177000000000000000000 PUSH1 0x44 DUP3 ADD MSTORE PUSH1 0x64 ADD PUSH2 0xA7D JUMP JUMPDEST PUSH1 0x0 DUP2 GT PUSH2 0x1465 JUMPI PUSH1 0x40 MLOAD PUSH3 0x461BCD PUSH1 0xE5 SHL DUP2 MSTORE PUSH1 0x4 ADD PUSH2 0xA7D SWAP1 PUSH2 0x45AB JUMP JUMPDEST PUSH1 0x7 SLOAD PUSH1 0xD SLOAD PUSH1 0x0 PUSH2 0x147F PUSH1 0x6 SLOAD PUSH1 0x1 PUSH1 0x1 PUSH1 0xA0 SHL SUB AND SWAP1 JUMP JUMPDEST SWAP1 POP PUSH1 0x0 PUSH2 0x148D DUP4 DUP6 PUSH2 0x45E2 JUMP JUMPDEST SWAP1 POP DUP1 DUP6 GT ISZERO PUSH2 0x14DF JUMPI PUSH1 0x40 MLOAD PUSH3 0x461BCD PUSH1 0xE5 SHL DUP2 MSTORE PUSH1 0x20 PUSH1 0x4 DUP3 ADD DUP2 SWAP1 MSTORE PUSH1 0x24 DUP3 ADD MSTORE PUSH32 0x416D6F756E74206578636565647320617661696C61626C652072657761726473 PUSH1 0x44 DUP3 ADD MSTORE PUSH1 0x64 ADD PUSH2 0xA7D JUMP JUMPDEST PUSH2 0x14E7 PUSH2 0x2AFA JUMP JUMPDEST DUP5 DUP5 LT ISZERO PUSH2 0x1537 JUMPI PUSH1 0x40 MLOAD PUSH3 0x461BCD PUSH1 0xE5 SHL DUP2 MSTORE PUSH1 0x20 PUSH1 0x4 DUP3 ADD MSTORE PUSH1 0x1E PUSH1 0x24 DUP3 ADD MSTORE PUSH32 0x496E73756666696369656E7420617661696C61626C6520726577617264730000 PUSH1 0x44 DUP3 ADD MSTORE PUSH1 0x64 ADD PUSH2 0xA7D JUMP JUMPDEST PUSH2 0x1541 DUP6 DUP6 PUSH2 0x45E2 JUMP JUMPDEST PUSH1 0x7 SSTORE PUSH1 0x40 MLOAD PUSH4 0xA9059CBB PUSH1 0xE0 SHL DUP2 MSTORE PUSH1 0x1 PUSH1 0x1 PUSH1 0xA0 SHL SUB PUSH32 0x0 AND SWAP1 PUSH4 0xA9059CBB SWAP1 PUSH2 0x1592 SWAP1 DUP6 SWAP1 DUP10 SWAP1 PUSH1 0x4 ADD PUSH2 0x450D JUMP JUMPDEST PUSH1 0x20 PUSH1 0x40 MLOAD DUP1 DUP4 SUB DUP2 PUSH1 0x0 DUP8 GAS CALL ISZERO DUP1 ISZERO PUSH2 0x15B1 JUMPI RETURNDATASIZE PUSH1 0x0 DUP1 RETURNDATACOPY RETURNDATASIZE PUSH1 0x0 REVERT JUMPDEST POP POP POP POP PUSH1 0x40 MLOAD RETURNDATASIZE PUSH1 0x1F NOT PUSH1 0x1F DUP3 ADD AND DUP3 ADD DUP1 PUSH1 0x40 MSTORE POP DUP2 ADD SWAP1 PUSH2 0x15D5 SWAP2 SWAP1 PUSH2 0x4526 JUMP JUMPDEST POP DUP2 PUSH1 0x1 PUSH1 0x1 PUSH1 0xA0 SHL SUB AND PUSH32 0x13C461EB29F5D65800BBEF5A5B05A06EA13B8B2EF4B889EE170F149BC1C8F8BD DUP7 PUSH1 0x40 MLOAD PUSH2 0x1611 SWAP2 DUP2 MSTORE PUSH1 0x20 ADD SWAP1 JUMP JUMPDEST PUSH1 0x40 MLOAD DUP1 SWAP2 SUB SWAP1 LOG2 POP POP POP POP PUSH2 0x1163 PUSH1 0x1 PUSH1 0x5 SSTORE JUMP JUMPDEST PUSH2 0x162F PUSH2 0x2D66 JUMP JUMPDEST PUSH1 0x0 DUP2 GT DUP1 ISZERO PUSH2 0x1640 JUMPI POP PUSH2 0xC350 DUP2 LT JUMPDEST PUSH2 0x1685 JUMPI PUSH1 0x40 MLOAD PUSH3 0x461BCD PUSH1 0xE5 SHL DUP2 MSTORE PUSH1 0x20 PUSH1 0x4 DUP3 ADD MSTORE PUSH1 0x16 PUSH1 0x24 DUP3 ADD MSTORE PUSH22 0x496E76616C696420626C6F636B732070657220646179 PUSH1 0x50 SHL PUSH1 0x44 DUP3 ADD MSTORE PUSH1 0x64 ADD PUSH2 0xA7D JUMP JUMPDEST PUSH1 0x1B SSTORE JUMP JUMPDEST PUSH2 0x1692 PUSH2 0x2AC3 JUMP JUMPDEST PUSH2 0x169A PUSH2 0x2AFA JUMP JUMPDEST PUSH2 0x16A3 CALLER PUSH2 0x2D93 JUMP JUMPDEST CALLER PUSH1 0x0 SWAP1 DUP2 MSTORE PUSH1 0xF PUSH1 0x20 MSTORE PUSH1 0x40 SWAP1 KECCAK256 SLOAD DUP1 PUSH2 0x16F6 JUMPI PUSH1 0x40 MLOAD PUSH3 0x461BCD PUSH1 0xE5 SHL DUP2 MSTORE PUSH1 0x20 PUSH1 0x4 DUP3 ADD MSTORE PUSH1 0x13 PUSH1 0x24 DUP3 ADD MSTORE PUSH19 0x4E6F207265776172647320746F20636C61696D PUSH1 0x68 SHL PUSH1 0x44 DUP3 ADD MSTORE PUSH1 0x64 ADD PUSH2 0xA7D JUMP JUMPDEST CALLER PUSH1 0x0 SWAP1 DUP2 MSTORE PUSH1 0xF PUSH1 0x20 MSTORE PUSH1 0x40 DUP2 KECCAK256 DUP2 SWAP1 SSTORE PUSH1 0xD DUP1 SLOAD DUP4 SWAP3 SWAP1 PUSH2 0x171A SWAP1 DUP5 SWAP1 PUSH2 0x45E2 JUMP JUMPDEST SWAP1 SWAP2 SSTORE POP POP PUSH1 0x40 MLOAD PUSH4 0xA9059CBB PUSH1 0xE0 SHL DUP2 MSTORE PUSH1 0x1 PUSH1 0x1 PUSH1 0xA0 SHL SUB PUSH32 0x0 AND SWAP1 PUSH4 0xA9059CBB SWAP1 PUSH2 0x176D SWAP1 CALLER SWAP1 DUP6 SWAP1 PUSH1 0x4 ADD PUSH2 0x450D JUMP JUMPDEST PUSH1 0x20 PUSH1 0x40 MLOAD DUP1 DUP4 SUB DUP2 PUSH1 0x0 DUP8 GAS CALL ISZERO DUP1 ISZERO PUSH2 0x178C JUMPI RETURNDATASIZE PUSH1 0x0 DUP1 RETURNDATACOPY RETURNDATASIZE PUSH1 0x0 REVERT JUMPDEST POP POP POP POP PUSH1 0x40 MLOAD RETURNDATASIZE PUSH1 0x1F NOT PUSH1 0x1F DUP3 ADD AND DUP3 ADD DUP1 PUSH1 0x40 MSTORE POP DUP2 ADD SWAP1 PUSH2 0x17B0 SWAP2 SWAP1 PUSH2 0x4526 JUMP JUMPDEST POP PUSH1 0x40 MLOAD DUP2 DUP2 MSTORE CALLER SWAP1 PUSH32 0x1F89F96333D3133000EE447473151FA9606543368F02271C9D95AE14F13BCC67 SWAP1 PUSH1 0x20 ADD PUSH1 0x40 MLOAD DUP1 SWAP2 SUB SWAP1 LOG2 POP PUSH2 0x17F1 PUSH1 0x1 PUSH1 0x5 SSTORE JUMP JUMPDEST JUMP JUMPDEST PUSH1 0x40 MLOAD PUSH4 0xB4B5EA57 PUSH1 0xE0 SHL DUP2 MSTORE ADDRESS PUSH1 0x4 DUP3 ADD MSTORE PUSH1 0x0 SWAP1 PUSH32 0x0 PUSH1 0x1 PUSH1 0x1 PUSH1 0xA0 SHL SUB AND SWAP1 PUSH4 0xB4B5EA57 SWAP1 PUSH1 0x24 ADD PUSH1 0x20 PUSH1 0x40 MLOAD DUP1 DUP4 SUB DUP2 DUP7 GAS STATICCALL ISZERO DUP1 ISZERO PUSH2 0x185A JUMPI RETURNDATASIZE PUSH1 0x0 DUP1 RETURNDATACOPY RETURNDATASIZE PUSH1 0x0 REVERT JUMPDEST POP POP POP POP PUSH1 0x40 MLOAD RETURNDATASIZE PUSH1 0x1F NOT PUSH1 0x1F DUP3 ADD AND DUP3 ADD DUP1 PUSH1 0x40 MSTORE POP DUP2 ADD SWAP1 PUSH2 0x120C SWAP2 SWAP1 PUSH2 0x45F5 JUMP JUMPDEST PUSH2 0x1886 PUSH2 0x2AC3 JUMP JUMPDEST PUSH1 0x0 DUP2 GT PUSH2 0x18A6 JUMPI PUSH1 0x40 MLOAD PUSH3 0x461BCD PUSH1 0xE5 SHL DUP2 MSTORE PUSH1 0x4 ADD PUSH2 0xA7D SWAP1 PUSH2 0x45AB JUMP JUMPDEST CALLER PUSH1 0x0 SWAP1 DUP2 MSTORE PUSH1 0x15 PUSH1 0x20 MSTORE PUSH1 0x40 SWAP1 KECCAK256 SLOAD TIMESTAMP LT ISZERO PUSH2 0x18F6 JUMPI PUSH1 0x40 MLOAD PUSH3 0x461BCD PUSH1 0xE5 SHL DUP2 MSTORE PUSH1 0x20 PUSH1 0x4 DUP3 ADD MSTORE PUSH1 0xE PUSH1 0x24 DUP3 ADD MSTORE PUSH14 0x10D3D354081A5CC81B1BD8DAD959 PUSH1 0x92 SHL PUSH1 0x44 DUP3 ADD MSTORE PUSH1 0x64 ADD PUSH2 0xA7D JUMP JUMPDEST PUSH2 0x18FE PUSH2 0x2E7F JUMP JUMPDEST ISZERO PUSH2 0x1966 JUMPI PUSH1 0x40 MLOAD PUSH3 0x461BCD PUSH1 0xE5 SHL DUP2 MSTORE PUSH1 0x20 PUSH1 0x4 DUP3 ADD MSTORE PUSH1 0x32 PUSH1 0x24 DUP3 ADD MSTORE PUSH32 0x43616E6E6F7420776974686472617720647572696E6720616374697665206F72 PUSH1 0x44 DUP3 ADD MSTORE PUSH18 0x2070656E64696E672070726F706F73616C73 PUSH1 0x70 SHL PUSH1 0x64 DUP3 ADD MSTORE PUSH1 0x84 ADD PUSH2 0xA7D JUMP JUMPDEST CALLER PUSH1 0x0 SWAP1 DUP2 MSTORE PUSH1 0x20 DUP2 SWAP1 MSTORE PUSH1 0x40 SWAP1 KECCAK256 SLOAD DUP2 GT ISZERO PUSH2 0x19BC JUMPI PUSH1 0x40 MLOAD PUSH3 0x461BCD PUSH1 0xE5 SHL DUP2 MSTORE PUSH1 0x20 PUSH1 0x4 DUP3 ADD MSTORE PUSH1 0x14 PUSH1 0x24 DUP3 ADD MSTORE PUSH20 0x496E73756666696369656E742062616C616E6365 PUSH1 0x60 SHL PUSH1 0x44 DUP3 ADD MSTORE PUSH1 0x64 ADD PUSH2 0xA7D JUMP JUMPDEST PUSH2 0x19C4 PUSH2 0x2AFA JUMP JUMPDEST PUSH2 0x19CD CALLER PUSH2 0x2D93 JUMP JUMPDEST PUSH2 0x19D7 CALLER DUP3 PUSH2 0x2F1C JUMP JUMPDEST DUP1 PUSH1 0xB PUSH1 0x0 DUP3 DUP3 SLOAD PUSH2 0x19E9 SWAP2 SWAP1 PUSH2 0x45E2 JUMP JUMPDEST SWAP1 SWAP2 SSTORE POP POP PUSH1 0x9 SLOAD CALLER PUSH1 0x0 DUP2 DUP2 MSTORE PUSH1 0xE PUSH1 0x20 MSTORE PUSH1 0x40 SWAP1 DUP2 SWAP1 KECCAK256 SWAP3 SWAP1 SWAP3 SSTORE SWAP1 MLOAD PUSH4 0xA9059CBB PUSH1 0xE0 SHL DUP2 MSTORE PUSH32 0x0 PUSH1 0x1 PUSH1 0x1 PUSH1 0xA0 SHL SUB AND SWAP2 PUSH4 0xA9059CBB SWAP2 PUSH2 0x1A52 SWAP2 SWAP1 DUP6 SWAP1 PUSH1 0x4 ADD PUSH2 0x450D JUMP JUMPDEST PUSH1 0x20 PUSH1 0x40 MLOAD DUP1 DUP4 SUB DUP2 PUSH1 0x0 DUP8 GAS CALL ISZERO DUP1 ISZERO PUSH2 0x1A71 JUMPI RETURNDATASIZE PUSH1 0x0 DUP1 RETURNDATACOPY RETURNDATASIZE PUSH1 0x0 REVERT JUMPDEST POP POP POP POP PUSH1 0x40 MLOAD RETURNDATASIZE PUSH1 0x1F NOT PUSH1 0x1F DUP3 ADD AND DUP3 ADD DUP1 PUSH1 0x40 MSTORE POP DUP2 ADD SWAP1 PUSH2 0x1A95 SWAP2 SWAP1 PUSH2 0x4526 JUMP JUMPDEST POP PUSH1 0x40 MLOAD DUP2 DUP2 MSTORE CALLER SWAP1 PUSH32 0x98824D89D47225910D3E61AA38B640D29D58B43E2DC47B4D986A588C88E0A2A8 SWAP1 PUSH1 0x20 ADD PUSH2 0x13AB JUMP JUMPDEST PUSH2 0x1AD0 PUSH2 0x2AC3 JUMP JUMPDEST PUSH2 0x1ADB DUP4 DUP4 DUP4 PUSH2 0x2F52 JUMP JUMPDEST PUSH2 0x1AE5 PUSH1 0x1 PUSH1 0x5 SSTORE JUMP JUMPDEST POP POP POP JUMP JUMPDEST PUSH2 0x1AF2 PUSH2 0x2AC3 JUMP JUMPDEST PUSH2 0x1B0C DUP3 DUP3 PUSH1 0x40 MLOAD DUP1 PUSH1 0x20 ADD PUSH1 0x40 MSTORE DUP1 PUSH1 0x0 DUP2 MSTORE POP PUSH2 0x2F52 JUMP JUMPDEST PUSH2 0x1B16 PUSH1 0x1 PUSH1 0x5 SSTORE JUMP JUMPDEST POP POP JUMP JUMPDEST PUSH2 0x1B22 PUSH2 0x2AC3 JUMP JUMPDEST PUSH1 0xFF DUP3 AND ISZERO DUP1 PUSH2 0x1B35 JUMPI POP DUP2 PUSH1 0xFF AND PUSH1 0x1 EQ JUMPDEST PUSH2 0x1B79 JUMPI PUSH1 0x40 MLOAD PUSH3 0x461BCD PUSH1 0xE5 SHL DUP2 MSTORE PUSH1 0x20 PUSH1 0x4 DUP3 ADD MSTORE PUSH1 0x15 PUSH1 0x24 DUP3 ADD MSTORE PUSH21 0x496E76616C696420737570706F72742076616C7565 PUSH1 0x58 SHL PUSH1 0x44 DUP3 ADD MSTORE PUSH1 0x64 ADD PUSH2 0xA7D JUMP JUMPDEST PUSH1 0x0 DUP2 GT PUSH2 0x1B99 JUMPI PUSH1 0x40 MLOAD PUSH3 0x461BCD PUSH1 0xE5 SHL DUP2 MSTORE PUSH1 0x4 ADD PUSH2 0xA7D SWAP1 PUSH2 0x45AB JUMP JUMPDEST PUSH1 0x0 DUP4 DUP2 MSTORE PUSH1 0x10 PUSH1 0x20 MSTORE PUSH1 0x40 DUP2 KECCAK256 SLOAD PUSH1 0xFF AND PUSH1 0x2 DUP2 GT ISZERO PUSH2 0x1BBC JUMPI PUSH2 0x1BBC PUSH2 0x4492 JUMP JUMPDEST EQ PUSH2 0x1C05 JUMPI PUSH1 0x40 MLOAD PUSH3 0x461BCD PUSH1 0xE5 SHL DUP2 MSTORE PUSH1 0x20 PUSH1 0x4 DUP3 ADD MSTORE PUSH1 0x19 PUSH1 0x24 DUP3 ADD MSTORE PUSH25 0x141C9BDC1BDCD85B08185B1C9958591E481C995CDBDB1D9959 PUSH1 0x3A SHL PUSH1 0x44 DUP3 ADD MSTORE PUSH1 0x64 ADD PUSH2 0xA7D JUMP JUMPDEST PUSH1 0x40 MLOAD PUSH4 0x1F27A4F3 PUSH1 0xE1 SHL DUP2 MSTORE PUSH1 0x4 DUP2 ADD DUP5 SWAP1 MSTORE PUSH1 0x0 SWAP1 PUSH32 0x0 PUSH1 0x1 PUSH1 0x1 PUSH1 0xA0 SHL SUB AND SWAP1 PUSH4 0x3E4F49E6 SWAP1 PUSH1 0x24 ADD PUSH1 0x20 PUSH1 0x40 MLOAD DUP1 DUP4 SUB DUP2 DUP7 GAS STATICCALL ISZERO DUP1 ISZERO PUSH2 0x1C6D JUMPI RETURNDATASIZE PUSH1 0x0 DUP1 RETURNDATACOPY RETURNDATASIZE PUSH1 0x0 REVERT JUMPDEST POP POP POP POP PUSH1 0x40 MLOAD RETURNDATASIZE PUSH1 0x1F NOT PUSH1 0x1F DUP3 ADD AND DUP3 ADD DUP1 PUSH1 0x40 MSTORE POP DUP2 ADD SWAP1 PUSH2 0x1C91 SWAP2 SWAP1 PUSH2 0x44EC JUMP JUMPDEST SWAP1 POP PUSH1 0x1 DUP2 PUSH1 0x7 DUP2 GT ISZERO PUSH2 0x1CA7 JUMPI PUSH2 0x1CA7 PUSH2 0x4492 JUMP JUMPDEST EQ PUSH2 0x1D06 JUMPI PUSH1 0x40 MLOAD PUSH3 0x461BCD PUSH1 0xE5 SHL DUP2 MSTORE PUSH1 0x20 PUSH1 0x4 DUP3 ADD MSTORE PUSH1 0x29 PUSH1 0x24 DUP3 ADD MSTORE PUSH32 0x5374616B696E67206F6E6C7920616C6C6F77656420666F722061637469766520 PUSH1 0x44 DUP3 ADD MSTORE PUSH9 0x70726F706F73616C73 PUSH1 0xB8 SHL PUSH1 0x64 DUP3 ADD MSTORE PUSH1 0x84 ADD PUSH2 0xA7D JUMP JUMPDEST PUSH2 0x1D0F DUP5 PUSH2 0x3660 JUMP JUMPDEST PUSH1 0x0 DUP5 DUP2 MSTORE PUSH1 0x11 PUSH1 0x20 MSTORE PUSH1 0x40 DUP2 KECCAK256 SLOAD SWAP1 SUB PUSH2 0x1D36 JUMPI PUSH1 0x0 DUP5 DUP2 MSTORE PUSH1 0x11 PUSH1 0x20 MSTORE PUSH1 0x40 SWAP1 KECCAK256 TIMESTAMP SWAP1 SSTORE JUMPDEST DUP3 PUSH1 0xFF AND PUSH1 0x1 SUB PUSH2 0x1DC5 JUMPI PUSH1 0x0 DUP5 DUP2 MSTORE PUSH1 0x12 PUSH1 0x20 SWAP1 DUP2 MSTORE PUSH1 0x40 DUP1 DUP4 KECCAK256 CALLER DUP5 MSTORE SWAP1 SWAP2 MSTORE DUP2 KECCAK256 DUP1 SLOAD DUP5 SWAP3 SWAP1 PUSH2 0x1D73 SWAP1 DUP5 SWAP1 PUSH1 0x1 PUSH1 0x1 PUSH1 0x80 SHL SUB AND PUSH2 0x460E JUMP JUMPDEST SWAP3 POP PUSH2 0x100 EXP DUP2 SLOAD DUP2 PUSH1 0x1 PUSH1 0x1 PUSH1 0x80 SHL SUB MUL NOT AND SWAP1 DUP4 PUSH1 0x1 PUSH1 0x1 PUSH1 0x80 SHL SUB AND MUL OR SWAP1 SSTORE POP DUP2 PUSH1 0x13 PUSH1 0x0 DUP7 DUP2 MSTORE PUSH1 0x20 ADD SWAP1 DUP2 MSTORE PUSH1 0x20 ADD PUSH1 0x0 KECCAK256 PUSH1 0x0 DUP3 DUP3 SLOAD PUSH2 0x1DBA SWAP2 SWAP1 PUSH2 0x455E JUMP JUMPDEST SWAP1 SWAP2 SSTORE POP PUSH2 0x1E4E SWAP1 POP JUMP JUMPDEST PUSH1 0x0 DUP5 DUP2 MSTORE PUSH1 0x12 PUSH1 0x20 SWAP1 DUP2 MSTORE PUSH1 0x40 DUP1 DUP4 KECCAK256 CALLER DUP5 MSTORE SWAP1 SWAP2 MSTORE SWAP1 KECCAK256 DUP1 SLOAD DUP4 SWAP2 SWAP1 PUSH1 0x10 SWAP1 PUSH2 0x1E01 SWAP1 DUP5 SWAP1 PUSH1 0x1 PUSH1 0x80 SHL SWAP1 DIV PUSH1 0x1 PUSH1 0x1 PUSH1 0x80 SHL SUB AND PUSH2 0x460E JUMP JUMPDEST SWAP3 POP PUSH2 0x100 EXP DUP2 SLOAD DUP2 PUSH1 0x1 PUSH1 0x1 PUSH1 0x80 SHL SUB MUL NOT AND SWAP1 DUP4 PUSH1 0x1 PUSH1 0x1 PUSH1 0x80 SHL SUB AND MUL OR SWAP1 SSTORE POP DUP2 PUSH1 0x14 PUSH1 0x0 DUP7 DUP2 MSTORE PUSH1 0x20 ADD SWAP1 DUP2 MSTORE PUSH1 0x20 ADD PUSH1 0x0 KECCAK256 PUSH1 0x0 DUP3 DUP3 SLOAD PUSH2 0x1E48 SWAP2 SWAP1 PUSH2 0x455E JUMP JUMPDEST SWAP1 SWAP2 SSTORE POP POP JUMPDEST PUSH1 0x40 MLOAD PUSH4 0x23B872DD PUSH1 0xE0 SHL DUP2 MSTORE CALLER PUSH1 0x4 DUP3 ADD MSTORE ADDRESS PUSH1 0x24 DUP3 ADD MSTORE PUSH1 0x44 DUP2 ADD DUP4 SWAP1 MSTORE PUSH32 0x0 PUSH1 0x1 PUSH1 0x1 PUSH1 0xA0 SHL SUB AND SWAP1 PUSH4 0x23B872DD SWAP1 PUSH1 0x64 ADD PUSH1 0x20 PUSH1 0x40 MLOAD DUP1 DUP4 SUB DUP2 PUSH1 0x0 DUP8 GAS CALL ISZERO DUP1 ISZERO PUSH2 0x1EC1 JUMPI RETURNDATASIZE PUSH1 0x0 DUP1 RETURNDATACOPY RETURNDATASIZE PUSH1 0x0 REVERT JUMPDEST POP POP POP POP PUSH1 0x40 MLOAD RETURNDATASIZE PUSH1 0x1F NOT PUSH1 0x1F DUP3 ADD AND DUP3 ADD DUP1 PUSH1 0x40 MSTORE POP DUP2 ADD SWAP1 PUSH2 0x1EE5 SWAP2 SWAP1 PUSH2 0x4526 JUMP JUMPDEST POP PUSH1 0x40 DUP1 MLOAD DUP6 DUP2 MSTORE PUSH1 0xFF DUP6 AND PUSH1 0x20 DUP3 ADD MSTORE SWAP1 DUP2 ADD DUP4 SWAP1 MSTORE CALLER SWAP1 PUSH32 0xFFDF8F2EAE7F0D227669096500EEC70780FB16CAE4C11B9D49E542B483E5F48C SWAP1 PUSH1 0x60 ADD PUSH1 0x40 MLOAD DUP1 SWAP2 SUB SWAP1 LOG2 POP PUSH2 0x1AE5 PUSH1 0x1 PUSH1 0x5 SSTORE JUMP JUMPDEST PUSH2 0x1F3E PUSH2 0x2D66 JUMP JUMPDEST PUSH2 0x17F1 PUSH1 0x0 PUSH2 0x3A1E JUMP JUMPDEST PUSH1 0x1C PUSH1 0x20 MSTORE PUSH1 0x0 SWAP1 DUP2 MSTORE PUSH1 0x40 SWAP1 KECCAK256 DUP1 SLOAD PUSH1 0x1 DUP3 ADD SLOAD PUSH1 0x2 DUP4 ADD SLOAD PUSH1 0x3 DUP5 ADD SLOAD PUSH1 0x4 DUP6 ADD SLOAD PUSH1 0x5 DUP7 ADD DUP1 SLOAD PUSH1 0xFF SWAP1 SWAP7 AND SWAP7 SWAP5 SWAP6 SWAP4 SWAP5 SWAP3 SWAP4 SWAP2 SWAP3 SWAP2 PUSH2 0x1F8A SWAP1 PUSH2 0x4571 JUMP JUMPDEST DUP1 PUSH1 0x1F ADD PUSH1 0x20 DUP1 SWAP2 DIV MUL PUSH1 0x20 ADD PUSH1 0x40 MLOAD SWAP1 DUP2 ADD PUSH1 0x40 MSTORE DUP1 SWAP3 SWAP2 SWAP1 DUP2 DUP2 MSTORE PUSH1 0x20 ADD DUP3 DUP1 SLOAD PUSH2 0x1FB6 SWAP1 PUSH2 0x4571 JUMP JUMPDEST DUP1 ISZERO PUSH2 0x2003 JUMPI DUP1 PUSH1 0x1F LT PUSH2 0x1FD8 JUMPI PUSH2 0x100 DUP1 DUP4 SLOAD DIV MUL DUP4 MSTORE SWAP2 PUSH1 0x20 ADD SWAP2 PUSH2 0x2003 JUMP JUMPDEST DUP3 ADD SWAP2 SWAP1 PUSH1 0x0 MSTORE PUSH1 0x20 PUSH1 0x0 KECCAK256 SWAP1 JUMPDEST DUP2 SLOAD DUP2 MSTORE SWAP1 PUSH1 0x1 ADD SWAP1 PUSH1 0x20 ADD DUP1 DUP4 GT PUSH2 0x1FE6 JUMPI DUP3 SWAP1 SUB PUSH1 0x1F AND DUP3 ADD SWAP2 JUMPDEST POP POP POP POP POP SWAP1 POP DUP7 JUMP JUMPDEST PUSH2 0x2015 PUSH2 0x2AC3 JUMP JUMPDEST PUSH1 0x0 DUP2 DUP2 MSTORE PUSH1 0x10 PUSH1 0x20 MSTORE PUSH1 0x40 DUP2 KECCAK256 SLOAD PUSH1 0xFF AND PUSH1 0x2 DUP2 GT ISZERO PUSH2 0x2038 JUMPI PUSH2 0x2038 PUSH2 0x4492 JUMP JUMPDEST EQ DUP1 ISZERO PUSH2 0x2060 JUMPI POP PUSH1 0x0 DUP2 DUP2 MSTORE PUSH1 0x11 PUSH1 0x20 MSTORE PUSH1 0x40 SWAP1 KECCAK256 SLOAD PUSH2 0x205D SWAP1 PUSH3 0x278D00 SWAP1 PUSH2 0x455E JUMP JUMPDEST TIMESTAMP GT JUMPDEST ISZERO PUSH2 0x206E JUMPI PUSH2 0x206E DUP2 PUSH2 0x3A70 JUMP JUMPDEST PUSH1 0x0 DUP2 DUP2 MSTORE PUSH1 0x10 PUSH1 0x20 MSTORE PUSH1 0x40 DUP2 KECCAK256 SLOAD PUSH1 0xFF AND SWAP1 DUP2 PUSH1 0x2 DUP2 GT ISZERO PUSH2 0x2093 JUMPI PUSH2 0x2093 PUSH2 0x4492 JUMP JUMPDEST SUB PUSH2 0x20E0 JUMPI PUSH1 0x40 MLOAD PUSH3 0x461BCD PUSH1 0xE5 SHL DUP2 MSTORE PUSH1 0x20 PUSH1 0x4 DUP3 ADD MSTORE PUSH1 0x19 PUSH1 0x24 DUP3 ADD MSTORE PUSH32 0x50726F706F73616C206E6F74207265736F6C7665642079657400000000000000 PUSH1 0x44 DUP3 ADD MSTORE PUSH1 0x64 ADD PUSH2 0xA7D JUMP JUMPDEST PUSH1 0x0 DUP3 DUP2 MSTORE PUSH1 0x12 PUSH1 0x20 SWAP1 DUP2 MSTORE PUSH1 0x40 DUP1 DUP4 KECCAK256 CALLER DUP5 MSTORE SWAP1 SWAP2 MSTORE DUP2 KECCAK256 SWAP1 PUSH1 0x2 DUP4 PUSH1 0x2 DUP2 GT ISZERO PUSH2 0x210E JUMPI PUSH2 0x210E PUSH2 0x4492 JUMP JUMPDEST EQ SWAP1 POP PUSH1 0x0 DUP2 ISZERO PUSH2 0x215F JUMPI POP DUP2 SLOAD PUSH1 0x1 PUSH1 0x1 PUSH1 0x80 SHL SUB DUP1 DUP3 AND DUP5 SSTORE PUSH1 0x0 DUP7 DUP2 MSTORE PUSH1 0x14 PUSH1 0x20 MSTORE PUSH1 0x40 DUP2 KECCAK256 DUP1 SLOAD PUSH1 0x1 PUSH1 0x80 SHL SWAP1 SWAP5 DIV SWAP1 SWAP3 AND SWAP3 DUP4 SWAP3 SWAP2 SWAP1 PUSH2 0x2154 SWAP1 DUP5 SWAP1 PUSH2 0x45E2 JUMP JUMPDEST SWAP1 SWAP2 SSTORE POP PUSH2 0x21A8 SWAP1 POP JUMP JUMPDEST POP DUP2 SLOAD PUSH16 0xFFFFFFFFFFFFFFFFFFFFFFFFFFFFFFFF NOT DUP2 AND DUP4 SSTORE PUSH1 0x0 DUP6 DUP2 MSTORE PUSH1 0x13 PUSH1 0x20 MSTORE PUSH1 0x40 DUP2 KECCAK256 DUP1 SLOAD PUSH1 0x1 PUSH1 0x1 PUSH1 0x80 SHL SUB SWAP1 SWAP4 AND SWAP3 DUP4 SWAP3 SWAP1 PUSH2 0x21A2 SWAP1 DUP5 SWAP1 PUSH2 0x45E2 JUMP JUMPDEST SWAP1 SWAP2 SSTORE POP POP JUMPDEST PUSH1 0x0 DUP2 GT PUSH2 0x21EE JUMPI PUSH1 0x40 MLOAD PUSH3 0x461BCD PUSH1 0xE5 SHL DUP2 MSTORE PUSH1 0x20 PUSH1 0x4 DUP3 ADD MSTORE PUSH1 0x13 PUSH1 0x24 DUP3 ADD MSTORE PUSH19 0x4E6F207374616B6520746F207265636C61696D PUSH1 0x68 SHL PUSH1 0x44 DUP3 ADD MSTORE PUSH1 0x64 ADD PUSH2 0xA7D JUMP JUMPDEST PUSH1 0x40 MLOAD PUSH4 0xA9059CBB PUSH1 0xE0 SHL DUP2 MSTORE PUSH1 0x1 PUSH1 0x1 PUSH1 0xA0 SHL SUB PUSH32 0x0 AND SWAP1 PUSH4 0xA9059CBB SWAP1 PUSH2 0x223C SWAP1 CALLER SWAP1 DUP6 SWAP1 PUSH1 0x4 ADD PUSH2 0x450D JUMP JUMPDEST PUSH1 0x20 PUSH1 0x40 MLOAD DUP1 DUP4 SUB DUP2 PUSH1 0x0 DUP8 GAS CALL ISZERO DUP1 ISZERO PUSH2 0x225B JUMPI RETURNDATASIZE PUSH1 0x0 DUP1 RETURNDATACOPY RETURNDATASIZE PUSH1 0x0 REVERT JUMPDEST POP POP POP POP PUSH1 0x40 MLOAD RETURNDATASIZE PUSH1 0x1F NOT PUSH1 0x1F DUP3 ADD AND DUP3 ADD DUP1 PUSH1 0x40 MSTORE POP DUP2 ADD SWAP1 PUSH2 0x227F SWAP2 SWAP1 PUSH2 0x4526 JUMP JUMPDEST POP PUSH1 0x40 DUP1 MLOAD DUP7 DUP2 MSTORE PUSH1 0x20 DUP2 ADD DUP4 SWAP1 MSTORE CALLER SWAP2 PUSH32 0x81323285F798CCFB1659756DD71BC5F0E27619E40F243CCF85ACE3DA6608336F SWAP2 ADD PUSH2 0x1611 JUMP JUMPDEST PUSH1 0x0 DUP1 PUSH1 0x0 DUP1 PUSH1 0x0 PUSH1 0x60 PUSH1 0x0 PUSH1 0x1C PUSH1 0x0 DUP10 DUP2 MSTORE PUSH1 0x20 ADD SWAP1 DUP2 MSTORE PUSH1 0x20 ADD PUSH1 0x0 KECCAK256 PUSH1 0x40 MLOAD DUP1 PUSH1 0xC0 ADD PUSH1 0x40 MSTORE SWAP1 DUP2 PUSH1 0x0 DUP3 ADD PUSH1 0x0 SWAP1 SLOAD SWAP1 PUSH2 0x100 EXP SWAP1 DIV PUSH1 0xFF AND PUSH1 0xFF AND PUSH1 0xFF AND DUP2 MSTORE PUSH1 0x20 ADD PUSH1 0x1 DUP3 ADD SLOAD DUP2 MSTORE PUSH1 0x20 ADD PUSH1 0x2 DUP3 ADD SLOAD DUP2 MSTORE PUSH1 0x20 ADD PUSH1 0x3 DUP3 ADD SLOAD DUP2 MSTORE PUSH1 0x20 ADD PUSH1 0x4 DUP3 ADD SLOAD DUP2 MSTORE PUSH1 0x20 ADD PUSH1 0x5 DUP3 ADD DUP1 SLOAD PUSH2 0x2337 SWAP1 PUSH2 0x4571 JUMP JUMPDEST DUP1 PUSH1 0x1F ADD PUSH1 0x20 DUP1 SWAP2 DIV MUL PUSH1 0x20 ADD PUSH1 0x40 MLOAD SWAP1 DUP2 ADD PUSH1 0x40 MSTORE DUP1 SWAP3 SWAP2 SWAP1 DUP2 DUP2 MSTORE PUSH1 0x20 ADD DUP3 DUP1 SLOAD PUSH2 0x2363 SWAP1 PUSH2 0x4571 JUMP JUMPDEST DUP1 ISZERO PUSH2 0x23B0 JUMPI DUP1 PUSH1 0x1F LT PUSH2 0x2385 JUMPI PUSH2 0x100 DUP1 DUP4 SLOAD DIV MUL DUP4 MSTORE SWAP2 PUSH1 0x20 ADD SWAP2 PUSH2 0x23B0 JUMP JUMPDEST DUP3 ADD SWAP2 SWAP1 PUSH1 0x0 MSTORE PUSH1 0x20 PUSH1 0x0 KECCAK256 SWAP1 JUMPDEST DUP2 SLOAD DUP2 MSTORE SWAP1 PUSH1 0x1 ADD SWAP1 PUSH1 0x20 ADD DUP1 DUP4 GT PUSH2 0x2393 JUMPI DUP3 SWAP1 SUB PUSH1 0x1F AND DUP3 ADD SWAP2 JUMPDEST POP POP POP SWAP2 SWAP1 SWAP3 MSTORE POP POP DUP2 MLOAD PUSH1 0x20 DUP4 ADD MLOAD PUSH1 0x40 DUP5 ADD MLOAD PUSH1 0x60 DUP6 ADD MLOAD PUSH1 0x80 DUP7 ADD MLOAD PUSH1 0xA0 SWAP1 SWAP7 ADD MLOAD SWAP4 SWAP15 SWAP3 SWAP14 POP SWAP1 SWAP12 POP SWAP10 POP SWAP3 SWAP8 POP SWAP6 POP SWAP1 SWAP4 POP POP POP POP JUMP JUMPDEST PUSH1 0x60 PUSH1 0x4 DUP1 SLOAD PUSH2 0x1175 SWAP1 PUSH2 0x4571 JUMP JUMPDEST PUSH2 0x2403 PUSH2 0x2AC3 JUMP JUMPDEST PUSH1 0x6 SLOAD PUSH1 0x1 PUSH1 0x1 PUSH1 0xA0 SHL SUB AND CALLER EQ PUSH2 0x245D JUMPI PUSH1 0x40 MLOAD PUSH3 0x461BCD PUSH1 0xE5 SHL DUP2 MSTORE PUSH1 0x20 PUSH1 0x4 DUP3 ADD MSTORE PUSH1 0x1E PUSH1 0x24 DUP3 ADD MSTORE PUSH32 0x4F6E6C79206F776E65722063616E207365742072657761726420726174650000 PUSH1 0x44 DUP3 ADD MSTORE PUSH1 0x64 ADD PUSH2 0xA7D JUMP JUMPDEST PUSH1 0x8 SLOAD DUP2 SUB PUSH2 0x24C3 JUMPI PUSH1 0x40 MLOAD PUSH3 0x461BCD PUSH1 0xE5 SHL DUP2 MSTORE PUSH1 0x20 PUSH1 0x4 DUP3 ADD MSTORE PUSH1 0x2C PUSH1 0x24 DUP3 ADD MSTORE PUSH32 0x4E65772072617465206D75737420626520646966666572656E742066726F6D20 PUSH1 0x44 DUP3 ADD MSTORE PUSH12 0x63757272656E742072617465 PUSH1 0xA0 SHL PUSH1 0x64 DUP3 ADD MSTORE PUSH1 0x84 ADD PUSH2 0xA7D JUMP JUMPDEST PUSH2 0x24CB PUSH2 0x2AFA JUMP JUMPDEST PUSH1 0x8 DUP2 SWAP1 SSTORE PUSH1 0x6 SLOAD PUSH1 0x1 PUSH1 0x1 PUSH1 0xA0 SHL SUB AND PUSH1 0x1 PUSH1 0x1 PUSH1 0xA0 SHL SUB AND PUSH32 0xB3986383B0FC50BEE9161915D3B51288BB862A90998C77D4F67033FC57837C00 DUP3 PUSH1 0x40 MLOAD PUSH2 0x13AB SWAP2 DUP2 MSTORE PUSH1 0x20 ADD SWAP1 JUMP JUMPDEST PUSH1 0x0 CALLER PUSH2 0x1206 DUP2 DUP6 DUP6 PUSH2 0x2D07 JUMP JUMPDEST PUSH1 0x0 PUSH1 0x8 SLOAD PUSH1 0x0 SUB PUSH2 0x2537 JUMPI POP PUSH1 0xA SLOAD SWAP1 JUMP JUMPDEST PUSH1 0x0 PUSH1 0xD SLOAD PUSH1 0x7 SLOAD GT PUSH2 0x254B JUMPI PUSH1 0x0 PUSH2 0x255B JUMP JUMPDEST PUSH1 0xD SLOAD PUSH1 0x7 SLOAD PUSH2 0x255B SWAP2 SWAP1 PUSH2 0x45E2 JUMP JUMPDEST SWAP1 POP PUSH1 0x0 PUSH1 0x8 SLOAD PUSH8 0xDE0B6B3A7640000 DUP4 PUSH2 0x2576 SWAP2 SWAP1 PUSH2 0x4635 JUMP JUMPDEST PUSH2 0x2580 SWAP2 SWAP1 PUSH2 0x464C JUMP JUMPDEST SWAP1 POP DUP1 PUSH1 0xA SLOAD PUSH2 0x2590 SWAP2 SWAP1 PUSH2 0x455E JUMP JUMPDEST SWAP3 POP POP POP SWAP1 JUMP JUMPDEST PUSH1 0x1D PUSH1 0x20 MSTORE PUSH1 0x0 SWAP1 DUP2 MSTORE PUSH1 0x40 SWAP1 KECCAK256 DUP1 SLOAD PUSH1 0x1 DUP3 ADD SLOAD PUSH1 0x2 DUP4 ADD SLOAD PUSH1 0x3 DUP5 ADD SLOAD PUSH1 0x4 DUP6 ADD SLOAD PUSH1 0x5 DUP7 ADD DUP1 SLOAD PUSH1 0xFF SWAP1 SWAP7 AND SWAP7 SWAP5 SWAP6 SWAP4 SWAP5 SWAP3 SWAP4 SWAP2 SWAP3 SWAP2 PUSH2 0x1F8A SWAP1 PUSH2 0x4571 JUMP JUMPDEST PUSH1 0x40 MLOAD PUSH4 0xB4B5EA57 PUSH1 0xE0 SHL DUP2 MSTORE ADDRESS PUSH1 0x4 DUP3 ADD MSTORE PUSH1 0x0 SWAP1 PUSH32 0x0 PUSH1 0x1 PUSH1 0x1 PUSH1 0xA0 SHL SUB AND SWAP1 PUSH4 0xB4B5EA57 SWAP1 PUSH1 0x24 ADD PUSH1 0x20 PUSH1 0x40 MLOAD DUP1 DUP4 SUB DUP2 DUP7 GAS STATICCALL ISZERO DUP1 ISZERO PUSH2 0x2640 JUMPI RETURNDATASIZE PUSH1 0x0 DUP1 RETURNDATACOPY RETURNDATASIZE PUSH1 0x0 REVERT JUMPDEST POP POP POP POP PUSH1 0x40 MLOAD RETURNDATASIZE PUSH1 0x1F NOT PUSH1 0x1F DUP3 ADD AND DUP3 ADD DUP1 PUSH1 0x40 MSTORE POP DUP2 ADD SWAP1 PUSH2 0x2664 SWAP2 SWAP1 PUSH2 0x45F5 JUMP JUMPDEST SWAP1 POP SWAP1 JUMP JUMPDEST PUSH2 0x2671 PUSH2 0x2D66 JUMP JUMPDEST PUSH1 0x1 PUSH1 0x1 PUSH1 0xA0 SHL SUB DUP2 AND PUSH2 0x269B JUMPI PUSH1 0x40 MLOAD PUSH4 0x1E4FBDF7 PUSH1 0xE0 SHL DUP2 MSTORE PUSH1 0x0 PUSH1 0x4 DUP3 ADD MSTORE PUSH1 0x24 ADD PUSH2 0xA7D JUMP JUMPDEST PUSH2 0x1163 DUP2 PUSH2 0x3A1E JUMP JUMPDEST PUSH1 0x1 PUSH1 0x1 PUSH1 0xA0 SHL SUB DUP2 AND PUSH1 0x0 SWAP1 DUP2 MSTORE PUSH1 0xF PUSH1 0x20 SWAP1 DUP2 MSTORE PUSH1 0x40 DUP1 DUP4 KECCAK256 SLOAD SWAP2 DUP4 SWAP1 MSTORE DUP3 KECCAK256 SLOAD ISZERO PUSH2 0x120C JUMPI PUSH1 0x0 PUSH2 0x26D6 PUSH2 0x3EF0 JUMP JUMPDEST PUSH1 0x1 PUSH1 0x1 PUSH1 0xA0 SHL SUB DUP6 AND PUSH1 0x0 SWAP1 DUP2 MSTORE PUSH1 0xE PUSH1 0x20 MSTORE PUSH1 0x40 SWAP1 KECCAK256 SLOAD SWAP1 SWAP2 POP PUSH8 0xDE0B6B3A7640000 SWAP1 PUSH2 0x2706 SWAP1 DUP4 PUSH2 0x45E2 JUMP JUMPDEST PUSH1 0x1 PUSH1 0x1 PUSH1 0xA0 SHL SUB DUP7 AND PUSH1 0x0 SWAP1 DUP2 MSTORE PUSH1 0x20 DUP2 SWAP1 MSTORE PUSH1 0x40 SWAP1 KECCAK256 SLOAD PUSH2 0x2729 SWAP2 SWAP1 PUSH2 0x4635 JUMP JUMPDEST PUSH2 0x2733 SWAP2 SWAP1 PUSH2 0x464C JUMP JUMPDEST PUSH2 0x273D SWAP1 DUP4 PUSH2 0x455E JUMP JUMPDEST SWAP5 SWAP4 POP POP POP POP JUMP JUMPDEST PUSH2 0x274D PUSH2 0x2AC3 JUMP JUMPDEST PUSH1 0x0 DUP2 GT PUSH2 0x276D JUMPI PUSH1 0x40 MLOAD PUSH3 0x461BCD PUSH1 0xE5 SHL DUP2 MSTORE PUSH1 0x4 ADD PUSH2 0xA7D SWAP1 PUSH2 0x45AB JUMP JUMPDEST PUSH1 0xC SLOAD DUP2 PUSH1 0xB SLOAD PUSH2 0x277E SWAP2 SWAP1 PUSH2 0x455E JUMP JUMPDEST GT ISZERO PUSH2 0x27CC JUMPI PUSH1 0x40 MLOAD PUSH3 0x461BCD PUSH1 0xE5 SHL DUP2 MSTORE PUSH1 0x20 PUSH1 0x4 DUP3 ADD MSTORE PUSH1 0x17 PUSH1 0x24 DUP3 ADD MSTORE PUSH32 0x44656C65676174696F6E20636170206578636565646564000000000000000000 PUSH1 0x44 DUP3 ADD MSTORE PUSH1 0x64 ADD PUSH2 0xA7D JUMP JUMPDEST PUSH2 0x27D4 PUSH2 0x2AFA JUMP JUMPDEST PUSH2 0x27DD CALLER PUSH2 0x2D93 JUMP JUMPDEST PUSH1 0x0 PUSH2 0x27EC PUSH3 0x93A80 TIMESTAMP PUSH2 0x455E JUMP JUMPDEST SWAP1 POP PUSH2 0x27F6 PUSH2 0x2E7F JUMP JUMPDEST ISZERO PUSH2 0x2818 JUMPI PUSH2 0x2808 PUSH3 0x93A80 TIMESTAMP PUSH2 0x455E JUMP JUMPDEST PUSH2 0x2815 SWAP1 PUSH3 0x3F480 PUSH2 0x455E JUMP JUMPDEST SWAP1 POP JUMPDEST CALLER PUSH1 0x0 SWAP1 DUP2 MSTORE PUSH1 0x15 PUSH1 0x20 MSTORE PUSH1 0x40 SWAP1 KECCAK256 SLOAD DUP2 GT ISZERO PUSH2 0x287C JUMPI CALLER PUSH1 0x0 DUP2 DUP2 MSTORE PUSH1 0x15 PUSH1 0x20 MSTORE PUSH1 0x40 SWAP1 DUP2 SWAP1 KECCAK256 DUP4 SWAP1 SSTORE MLOAD PUSH32 0x308C23D85188A2D929B33A8748FDC757B93D1E422046A4237967A2D17D4ECA93 SWAP1 PUSH2 0x2873 SWAP1 DUP5 DUP2 MSTORE PUSH1 0x20 ADD SWAP1 JUMP JUMPDEST PUSH1 0x40 MLOAD DUP1 SWAP2 SUB SWAP1 LOG2 JUMPDEST PUSH2 0x2886 CALLER DUP4 PUSH2 0x3FA8 JUMP JUMPDEST DUP2 PUSH1 0xB PUSH1 0x0 DUP3 DUP3 SLOAD PUSH2 0x2898 SWAP2 SWAP1 PUSH2 0x455E JUMP JUMPDEST SWAP1 SWAP2 SSTORE POP POP PUSH1 0x9 SLOAD CALLER PUSH1 0x0 DUP2 DUP2 MSTORE PUSH1 0xE PUSH1 0x20 MSTORE PUSH1 0x40 SWAP1 DUP2 SWAP1 KECCAK256 SWAP3 SWAP1 SWAP3 SSTORE SWAP1 MLOAD PUSH4 0x23B872DD PUSH1 0xE0 SHL DUP2 MSTORE PUSH1 0x4 DUP2 ADD SWAP2 SWAP1 SWAP2 MSTORE ADDRESS PUSH1 0x24 DUP3 ADD MSTORE PUSH1 0x44 DUP2 ADD DUP4 SWAP1 MSTORE PUSH1 0x1 PUSH1 0x1 PUSH1 0xA0 SHL SUB PUSH32 0x0 AND SWAP1 PUSH4 0x23B872DD SWAP1 PUSH1 0x64 ADD PUSH1 0x20 PUSH1 0x40 MLOAD DUP1 DUP4 SUB DUP2 PUSH1 0x0 DUP8 GAS CALL ISZERO DUP1 ISZERO PUSH2 0x2929 JUMPI RETURNDATASIZE PUSH1 0x0 DUP1 RETURNDATACOPY RETURNDATASIZE PUSH1 0x0 REVERT JUMPDEST POP POP POP POP PUSH1 0x40 MLOAD RETURNDATASIZE PUSH1 0x1F NOT PUSH1 0x1F DUP3 ADD AND DUP3 ADD DUP1 PUSH1 0x40 MSTORE POP DUP2 ADD SWAP1 PUSH2 0x294D SWAP2 SWAP1 PUSH2 0x4526 JUMP JUMPDEST POP PUSH1 0x40 MLOAD PUSH4 0x17066A57 PUSH1 0xE2 SHL DUP2 MSTORE ADDRESS PUSH1 0x4 DUP3 ADD MSTORE PUSH32 0x0 PUSH1 0x1 PUSH1 0x1 PUSH1 0xA0 SHL SUB AND SWAP1 PUSH4 0x5C19A95C SWAP1 PUSH1 0x24 ADD PUSH1 0x0 PUSH1 0x40 MLOAD DUP1 DUP4 SUB DUP2 PUSH1 0x0 DUP8 DUP1 EXTCODESIZE ISZERO DUP1 ISZERO PUSH2 0x29AF JUMPI PUSH1 0x0 DUP1 REVERT JUMPDEST POP GAS CALL ISZERO DUP1 ISZERO PUSH2 0x29C3 JUMPI RETURNDATASIZE PUSH1 0x0 DUP1 RETURNDATACOPY RETURNDATASIZE PUSH1 0x0 REVERT JUMPDEST POP POP PUSH1 0x40 MLOAD DUP5 DUP2 MSTORE CALLER SWAP3 POP PUSH32 0x35DB3D768E685509E031BAE369804CA7DC6656AF739E079F1D3312CADC7B19D8 SWAP2 POP PUSH1 0x20 ADD PUSH1 0x40 MLOAD DUP1 SWAP2 SUB SWAP1 LOG2 POP PUSH2 0x1163 PUSH1 0x1 PUSH1 0x5 SSTORE JUMP JUMPDEST PUSH1 0x0 DUP1 PUSH1 0x0 DUP1 PUSH1 0x0 PUSH1 0x60 PUSH1 0x1E SLOAD DUP8 LT PUSH2 0x2A62 JUMPI PUSH1 0x40 MLOAD PUSH3 0x461BCD PUSH1 0xE5 SHL DUP2 MSTORE PUSH1 0x20 PUSH1 0x4 DUP3 ADD MSTORE PUSH1 0x18 PUSH1 0x24 DUP3 ADD MSTORE PUSH32 0x566F746520696E646578206F7574206F6620626F756E64730000000000000000 PUSH1 0x44 DUP3 ADD MSTORE PUSH1 0x64 ADD PUSH2 0xA7D JUMP JUMPDEST PUSH1 0x0 DUP8 DUP2 MSTORE PUSH1 0x1D PUSH1 0x20 SWAP1 DUP2 MSTORE PUSH1 0x40 DUP1 DUP4 KECCAK256 DUP2 MLOAD PUSH1 0xC0 DUP2 ADD DUP4 MSTORE DUP2 SLOAD PUSH1 0xFF AND DUP2 MSTORE PUSH1 0x1 DUP3 ADD SLOAD SWAP4 DUP2 ADD SWAP4 SWAP1 SWAP4 MSTORE PUSH1 0x2 DUP2 ADD SLOAD SWAP2 DUP4 ADD SWAP2 SWAP1 SWAP2 MSTORE PUSH1 0x3 DUP2 ADD SLOAD PUSH1 0x60 DUP4 ADD MSTORE PUSH1 0x4 DUP2 ADD SLOAD PUSH1 0x80 DUP4 ADD MSTORE PUSH1 0x5 DUP2 ADD DUP1 SLOAD PUSH1 0xA0 DUP5 ADD SWAP2 SWAP1 PUSH2 0x2337 SWAP1 PUSH2 0x4571 JUMP JUMPDEST PUSH1 0x2 PUSH1 0x5 SLOAD SUB PUSH2 0x2AE6 JUMPI PUSH1 0x40 MLOAD PUSH4 0x3EE5AEB5 PUSH1 0xE0 SHL DUP2 MSTORE PUSH1 0x4 ADD PUSH1 0x40 MLOAD DUP1 SWAP2 SUB SWAP1 REVERT JUMPDEST PUSH1 0x2 PUSH1 0x5 SSTORE JUMP JUMPDEST PUSH2 0x1AE5 DUP4 DUP4 DUP4 PUSH1 0x1 PUSH2 0x3FDE JUMP JUMPDEST PUSH1 0x0 PUSH2 0x2B05 PUSH1 0x2 SLOAD SWAP1 JUMP JUMPDEST PUSH1 0x8 SLOAD PUSH1 0x7 SLOAD PUSH1 0xD SLOAD PUSH1 0x9 SLOAD PUSH1 0xA SLOAD SWAP5 SWAP6 POP SWAP3 SWAP4 SWAP2 SWAP3 SWAP1 SWAP2 PUSH1 0x0 DUP7 SWAP1 SUB PUSH2 0x2B32 JUMPI POP POP TIMESTAMP PUSH1 0xA SSTORE POP POP POP POP JUMP JUMPDEST PUSH1 0x0 PUSH2 0x2B3E DUP3 TIMESTAMP PUSH2 0x45E2 JUMP JUMPDEST SWAP1 POP PUSH1 0x0 PUSH2 0x2B4C DUP8 DUP4 PUSH2 0x4635 JUMP JUMPDEST SWAP1 POP DUP5 DUP7 GT PUSH2 0x2B9C JUMPI TIMESTAMP PUSH1 0xA SSTORE PUSH1 0x40 DUP1 MLOAD DUP6 DUP2 MSTORE PUSH1 0x0 PUSH1 0x20 DUP3 ADD MSTORE PUSH32 0xE59E5A83A27F440A8E234A0A6E659A7F1CC16A6D0E37AA05A24F2C407521EA0E SWAP2 ADD PUSH1 0x40 MLOAD DUP1 SWAP2 SUB SWAP1 LOG1 POP POP POP POP POP POP POP POP JUMP JUMPDEST PUSH1 0x0 PUSH2 0x2BA8 DUP7 DUP9 PUSH2 0x45E2 JUMP JUMPDEST SWAP1 POP DUP1 DUP3 GT ISZERO PUSH2 0x2BB6 JUMPI DUP1 SWAP2 POP JUMPDEST PUSH1 0x0 DUP10 PUSH2 0x2BCB PUSH8 0xDE0B6B3A7640000 DUP6 PUSH2 0x4635 JUMP JUMPDEST PUSH2 0x2BD5 SWAP2 SWAP1 PUSH2 0x464C JUMP JUMPDEST SWAP1 POP PUSH1 0x0 PUSH2 0x2BE3 DUP3 DUP9 PUSH2 0x455E JUMP JUMPDEST SWAP1 POP PUSH1 0x0 PUSH2 0x2BF1 DUP6 DUP11 PUSH2 0x455E JUMP JUMPDEST PUSH1 0x9 DUP4 SWAP1 SSTORE PUSH1 0xD DUP2 SWAP1 SSTORE TIMESTAMP PUSH1 0xA SSTORE PUSH1 0x40 DUP1 MLOAD DUP5 DUP2 MSTORE PUSH1 0x20 DUP2 ADD DUP9 SWAP1 MSTORE SWAP2 SWAP3 POP PUSH32 0xE59E5A83A27F440A8E234A0A6E659A7F1CC16A6D0E37AA05A24F2C407521EA0E SWAP2 ADD PUSH1 0x40 MLOAD DUP1 SWAP2 SUB SWAP1 LOG1 PUSH1 0x40 DUP1 MLOAD DUP7 DUP2 MSTORE PUSH1 0x20 DUP2 ADD DUP5 SWAP1 MSTORE TIMESTAMP DUP2 DUP4 ADD MSTORE SWAP1 MLOAD PUSH32 0x6AE8EE960D83517F7FA993AD7A0E16E33D9655A23FF41EEFC62BDB289C7A8E5F SWAP2 DUP2 SWAP1 SUB PUSH1 0x60 ADD SWAP1 LOG1 POP POP POP POP POP POP POP POP POP POP POP POP JUMP JUMPDEST PUSH1 0x1 PUSH1 0x1 PUSH1 0xA0 SHL SUB DUP4 DUP2 AND PUSH1 0x0 SWAP1 DUP2 MSTORE PUSH1 0x1 PUSH1 0x20 SWAP1 DUP2 MSTORE PUSH1 0x40 DUP1 DUP4 KECCAK256 SWAP4 DUP7 AND DUP4 MSTORE SWAP3 SWAP1 MSTORE KECCAK256 SLOAD PUSH1 0x0 NOT DUP2 LT ISZERO PUSH2 0x2D01 JUMPI DUP2 DUP2 LT ISZERO PUSH2 0x2CF2 JUMPI PUSH1 0x40 MLOAD PUSH4 0x7DC7A0D9 PUSH1 0xE1 SHL DUP2 MSTORE PUSH1 0x1 PUSH1 0x1 PUSH1 0xA0 SHL SUB DUP5 AND PUSH1 0x4 DUP3 ADD MSTORE PUSH1 0x24 DUP2 ADD DUP3 SWAP1 MSTORE PUSH1 0x44 DUP2 ADD DUP4 SWAP1 MSTORE PUSH1 0x64 ADD PUSH2 0xA7D JUMP JUMPDEST PUSH2 0x2D01 DUP5 DUP5 DUP5 DUP5 SUB PUSH1 0x0 PUSH2 0x3FDE JUMP JUMPDEST POP POP POP POP JUMP JUMPDEST PUSH1 0x1 PUSH1 0x1 PUSH1 0xA0 SHL SUB DUP4 AND PUSH2 0x2D31 JUMPI PUSH1 0x40 MLOAD PUSH4 0x4B637E8F PUSH1 0xE1 SHL DUP2 MSTORE PUSH1 0x0 PUSH1 0x4 DUP3 ADD MSTORE PUSH1 0x24 ADD PUSH2 0xA7D JUMP JUMPDEST PUSH1 0x1 PUSH1 0x1 PUSH1 0xA0 SHL SUB DUP3 AND PUSH2 0x2D5B JUMPI PUSH1 0x40 MLOAD PUSH4 0xEC442F05 PUSH1 0xE0 SHL DUP2 MSTORE PUSH1 0x0 PUSH1 0x4 DUP3 ADD MSTORE PUSH1 0x24 ADD PUSH2 0xA7D JUMP JUMPDEST PUSH2 0x1AE5 DUP4 DUP4 DUP4 PUSH2 0x40B3 JUMP JUMPDEST PUSH1 0x6 SLOAD PUSH1 0x1 PUSH1 0x1 PUSH1 0xA0 SHL SUB AND CALLER EQ PUSH2 0x17F1 JUMPI PUSH1 0x40 MLOAD PUSH4 0x118CDAA7 PUSH1 0xE0 SHL DUP2 MSTORE CALLER PUSH1 0x4 DUP3 ADD MSTORE PUSH1 0x24 ADD PUSH2 0xA7D JUMP JUMPDEST PUSH1 0x1 PUSH1 0x1 PUSH1 0xA0 SHL SUB DUP2 AND PUSH1 0x0 SWAP1 DUP2 MSTORE PUSH1 0x20 DUP2 DUP2 MSTORE PUSH1 0x40 DUP1 DUP4 KECCAK256 SLOAD PUSH1 0x9 SLOAD PUSH1 0xE SWAP1 SWAP4 MSTORE SWAP3 KECCAK256 SLOAD DUP3 ISZERO PUSH2 0x2D01 JUMPI PUSH1 0x0 PUSH8 0xDE0B6B3A7640000 PUSH2 0x2DD3 DUP4 DUP6 PUSH2 0x45E2 JUMP JUMPDEST PUSH2 0x2DDD SWAP1 DUP7 PUSH2 0x4635 JUMP JUMPDEST PUSH2 0x2DE7 SWAP2 SWAP1 PUSH2 0x464C JUMP JUMPDEST SWAP1 POP DUP1 ISZERO PUSH2 0x2E78 JUMPI PUSH1 0x1 PUSH1 0x1 PUSH1 0xA0 SHL SUB DUP6 AND PUSH1 0x0 SWAP1 DUP2 MSTORE PUSH1 0xF PUSH1 0x20 MSTORE PUSH1 0x40 DUP2 KECCAK256 DUP1 SLOAD DUP4 SWAP3 SWAP1 PUSH2 0x2E17 SWAP1 DUP5 SWAP1 PUSH2 0x455E JUMP JUMPDEST SWAP1 SWAP2 SSTORE POP POP PUSH1 0x1 PUSH1 0x1 PUSH1 0xA0 SHL SUB DUP6 AND PUSH1 0x0 DUP2 DUP2 MSTORE PUSH1 0xE PUSH1 0x20 SWAP1 DUP2 MSTORE PUSH1 0x40 DUP1 DUP4 KECCAK256 DUP8 SWAP1 SSTORE PUSH1 0xF DUP3 MSTORE SWAP2 DUP3 SWAP1 KECCAK256 SLOAD DUP3 MLOAD DUP6 DUP2 MSTORE SWAP2 DUP3 ADD MSTORE PUSH32 0x5B9AAF4CC5141C090A75F8B8A627863EBA92DF81F0C83C096350DA9B79AEDD04 SWAP2 ADD PUSH1 0x40 MLOAD DUP1 SWAP2 SUB SWAP1 LOG2 JUMPDEST POP POP POP POP POP JUMP JUMPDEST PUSH1 0x16 SLOAD PUSH1 0x0 SWAP1 DUP2 PUSH1 0xA DUP3 GT PUSH2 0x2E95 JUMPI PUSH1 0x0 PUSH2 0x2EA0 JUMP JUMPDEST PUSH2 0x2EA0 PUSH1 0xA DUP4 PUSH2 0x45E2 JUMP JUMPDEST SWAP1 POP PUSH1 0x0 GAS SWAP1 POP DUP3 JUMPDEST DUP3 DUP2 GT ISZERO PUSH2 0x2F11 JUMPI PUSH2 0xC350 GAS PUSH2 0x2EBF SWAP1 DUP5 PUSH2 0x45E2 JUMP JUMPDEST GT PUSH2 0x2F11 JUMPI PUSH1 0x0 DUP2 DUP2 MSTORE PUSH1 0x17 PUSH1 0x20 MSTORE PUSH1 0x40 SWAP1 KECCAK256 SLOAD PUSH1 0xFF AND DUP1 PUSH2 0x2EEF JUMPI POP PUSH1 0x0 DUP2 DUP2 MSTORE PUSH1 0x18 PUSH1 0x20 MSTORE PUSH1 0x40 SWAP1 KECCAK256 SLOAD PUSH1 0xFF AND JUMPDEST ISZERO PUSH2 0x2EFF JUMPI PUSH1 0x1 SWAP5 POP POP POP POP POP SWAP1 JUMP JUMPDEST DUP1 PUSH2 0x2F09 DUP2 PUSH2 0x466E JUMP JUMPDEST SWAP2 POP POP PUSH2 0x2EA9 JUMP JUMPDEST POP PUSH1 0x0 SWAP4 POP POP POP POP SWAP1 JUMP JUMPDEST PUSH1 0x1 PUSH1 0x1 PUSH1 0xA0 SHL SUB DUP3 AND PUSH2 0x2F46 JUMPI PUSH1 0x40 MLOAD PUSH4 0x4B637E8F PUSH1 0xE1 SHL DUP2 MSTORE PUSH1 0x0 PUSH1 0x4 DUP3 ADD MSTORE PUSH1 0x24 ADD PUSH2 0xA7D JUMP JUMPDEST PUSH2 0x1B16 DUP3 PUSH1 0x0 DUP4 PUSH2 0x40B3 JUMP JUMPDEST PUSH1 0x6 SLOAD PUSH1 0x1 PUSH1 0x1 PUSH1 0xA0 SHL SUB AND CALLER EQ PUSH2 0x2FAC JUMPI PUSH1 0x40 MLOAD PUSH3 0x461BCD PUSH1 0xE5 SHL DUP2 MSTORE PUSH1 0x20 PUSH1 0x4 DUP3 ADD MSTORE PUSH1 0x19 PUSH1 0x24 DUP3 ADD MSTORE PUSH32 0x4F6E6C79206F776E65722063616E206361737420766F74657300000000000000 PUSH1 0x44 DUP3 ADD MSTORE PUSH1 0x64 ADD PUSH2 0xA7D JUMP JUMPDEST PUSH1 0x1 DUP3 PUSH1 0xFF AND GT ISZERO PUSH2 0x2FF8 JUMPI PUSH1 0x40 MLOAD PUSH3 0x461BCD PUSH1 0xE5 SHL DUP2 MSTORE PUSH1 0x20 PUSH1 0x4 DUP3 ADD MSTORE PUSH1 0x15 PUSH1 0x24 DUP3 ADD MSTORE PUSH21 0x496E76616C696420737570706F72742076616C7565 PUSH1 0x58 SHL PUSH1 0x44 DUP3 ADD MSTORE PUSH1 0x64 ADD PUSH2 0xA7D JUMP JUMPDEST PUSH1 0x0 DUP4 DUP2 MSTORE PUSH1 0x19 PUSH1 0x20 MSTORE PUSH1 0x40 SWAP1 KECCAK256 SLOAD PUSH1 0xFF AND ISZERO PUSH2 0x3057 JUMPI PUSH1 0x40 MLOAD PUSH3 0x461BCD PUSH1 0xE5 SHL DUP2 MSTORE PUSH1 0x20 PUSH1 0x4 DUP3 ADD MSTORE PUSH1 0x1E PUSH1 0x24 DUP3 ADD MSTORE PUSH32 0x416C726561647920766F746564206F6E20746869732070726F706F73616C0000 PUSH1 0x44 DUP3 ADD MSTORE PUSH1 0x64 ADD PUSH2 0xA7D JUMP JUMPDEST PUSH1 0x40 MLOAD PUSH4 0x1F27A4F3 PUSH1 0xE1 SHL DUP2 MSTORE PUSH1 0x4 DUP2 ADD DUP5 SWAP1 MSTORE PUSH1 0x0 SWAP1 PUSH32 0x0 PUSH1 0x1 PUSH1 0x1 PUSH1 0xA0 SHL SUB AND SWAP1 PUSH4 0x3E4F49E6 SWAP1 PUSH1 0x24 ADD PUSH1 0x20 PUSH1 0x40 MLOAD DUP1 DUP4 SUB DUP2 DUP7 GAS STATICCALL ISZERO DUP1 ISZERO PUSH2 0x30BF JUMPI RETURNDATASIZE PUSH1 0x0 DUP1 RETURNDATACOPY RETURNDATASIZE PUSH1 0x0 REVERT JUMPDEST POP POP POP POP PUSH1 0x40 MLOAD RETURNDATASIZE PUSH1 0x1F NOT PUSH1 0x1F DUP3 ADD AND DUP3 ADD DUP1 PUSH1 0x40 MSTORE POP DUP2 ADD SWAP1 PUSH2 0x30E3 SWAP2 SWAP1 PUSH2 0x44EC JUMP JUMPDEST SWAP1 POP PUSH1 0x1 DUP2 PUSH1 0x7 DUP2 GT ISZERO PUSH2 0x30F9 JUMPI PUSH2 0x30F9 PUSH2 0x4492 JUMP JUMPDEST EQ DUP1 PUSH2 0x3116 JUMPI POP PUSH1 0x0 DUP2 PUSH1 0x7 DUP2 GT ISZERO PUSH2 0x3114 JUMPI PUSH2 0x3114 PUSH2 0x4492 JUMP JUMPDEST EQ JUMPDEST PUSH2 0x3162 JUMPI PUSH1 0x40 MLOAD PUSH3 0x461BCD PUSH1 0xE5 SHL DUP2 MSTORE PUSH1 0x20 PUSH1 0x4 DUP3 ADD MSTORE PUSH1 0x1D PUSH1 0x24 DUP3 ADD MSTORE PUSH32 0x50726F706F73616C206E6F7420696E20766F74696E6720706572696F64000000 PUSH1 0x44 DUP3 ADD MSTORE PUSH1 0x64 ADD PUSH2 0xA7D JUMP JUMPDEST PUSH1 0x40 MLOAD PUSH4 0x2D63F693 PUSH1 0xE0 SHL DUP2 MSTORE PUSH1 0x4 DUP2 ADD DUP6 SWAP1 MSTORE PUSH1 0x0 SWAP1 PUSH32 0x0 PUSH1 0x1 PUSH1 0x1 PUSH1 0xA0 SHL SUB AND SWAP1 PUSH4 0x2D63F693 SWAP1 PUSH1 0x24 ADD PUSH1 0x20 PUSH1 0x40 MLOAD DUP1 DUP4 SUB DUP2 DUP7 GAS STATICCALL ISZERO DUP1 ISZERO PUSH2 0x31CA JUMPI RETURNDATASIZE PUSH1 0x0 DUP1 RETURNDATACOPY RETURNDATASIZE PUSH1 0x0 REVERT JUMPDEST POP POP POP POP PUSH1 0x40 MLOAD RETURNDATASIZE PUSH1 0x1F NOT PUSH1 0x1F DUP3 ADD AND DUP3 ADD DUP1 PUSH1 0x40 MSTORE POP DUP2 ADD SWAP1 PUSH2 0x31EE SWAP2 SWAP1 PUSH2 0x45F5 JUMP JUMPDEST PUSH1 0x40 MLOAD PUSH4 0xB4B5EA57 PUSH1 0xE0 SHL DUP2 MSTORE ADDRESS PUSH1 0x4 DUP3 ADD MSTORE SWAP1 SWAP2 POP PUSH1 0x0 SWAP1 PUSH1 0x1 PUSH1 0x1 PUSH1 0xA0 SHL SUB PUSH32 0x0 AND SWAP1 PUSH4 0xB4B5EA57 SWAP1 PUSH1 0x24 ADD PUSH1 0x20 PUSH1 0x40 MLOAD DUP1 DUP4 SUB DUP2 DUP7 GAS STATICCALL ISZERO DUP1 ISZERO PUSH2 0x3258 JUMPI RETURNDATASIZE PUSH1 0x0 DUP1 RETURNDATACOPY RETURNDATASIZE PUSH1 0x0 REVERT JUMPDEST POP POP POP POP PUSH1 0x40 MLOAD RETURNDATASIZE PUSH1 0x1F NOT PUSH1 0x1F DUP3 ADD AND DUP3 ADD DUP1 PUSH1 0x40 MSTORE POP DUP2 ADD SWAP1 PUSH2 0x327C SWAP2 SWAP1 PUSH2 0x45F5 JUMP JUMPDEST SWAP1 POP PUSH1 0x0 DUP1 PUSH32 0x0 PUSH1 0x1 PUSH1 0x1 PUSH1 0xA0 SHL SUB AND PUSH4 0x544FFC9C DUP10 PUSH1 0x40 MLOAD DUP3 PUSH4 0xFFFFFFFF AND PUSH1 0xE0 SHL DUP2 MSTORE PUSH1 0x4 ADD PUSH2 0x32CF SWAP2 DUP2 MSTORE PUSH1 0x20 ADD SWAP1 JUMP JUMPDEST PUSH1 0x60 PUSH1 0x40 MLOAD DUP1 DUP4 SUB DUP2 DUP7 GAS STATICCALL ISZERO DUP1 ISZERO PUSH2 0x32EC JUMPI RETURNDATASIZE PUSH1 0x0 DUP1 RETURNDATACOPY RETURNDATASIZE PUSH1 0x0 REVERT JUMPDEST POP POP POP POP PUSH1 0x40 MLOAD RETURNDATASIZE PUSH1 0x1F NOT PUSH1 0x1F DUP3 ADD AND DUP3 ADD DUP1 PUSH1 0x40 MSTORE POP DUP2 ADD SWAP1 PUSH2 0x3310 SWAP2 SWAP1 PUSH2 0x4685 JUMP JUMPDEST POP SWAP2 POP SWAP2 POP PUSH1 0x1 PUSH1 0x19 PUSH1 0x0 DUP11 DUP2 MSTORE PUSH1 0x20 ADD SWAP1 DUP2 MSTORE PUSH1 0x20 ADD PUSH1 0x0 KECCAK256 PUSH1 0x0 PUSH2 0x100 EXP DUP2 SLOAD DUP2 PUSH1 0xFF MUL NOT AND SWAP1 DUP4 ISZERO ISZERO MUL OR SWAP1 SSTORE POP DUP7 PUSH1 0x1A PUSH1 0x0 DUP11 DUP2 MSTORE PUSH1 0x20 ADD SWAP1 DUP2 MSTORE PUSH1 0x20 ADD PUSH1 0x0 KECCAK256 PUSH1 0x0 PUSH2 0x100 EXP DUP2 SLOAD DUP2 PUSH1 0xFF MUL NOT AND SWAP1 DUP4 PUSH1 0xFF AND MUL OR SWAP1 SSTORE POP PUSH1 0x0 PUSH1 0x40 MLOAD DUP1 PUSH1 0xC0 ADD PUSH1 0x40 MSTORE DUP1 DUP10 PUSH1 0xFF AND DUP2 MSTORE PUSH1 0x20 ADD NUMBER DUP2 MSTORE PUSH1 0x20 ADD PUSH1 0x0 DUP1 SHL DUP2 MSTORE PUSH1 0x20 ADD TIMESTAMP DUP2 MSTORE PUSH1 0x20 ADD DUP6 DUP2 MSTORE PUSH1 0x20 ADD DUP9 DUP2 MSTORE POP SWAP1 POP DUP1 PUSH1 0x1C PUSH1 0x0 DUP12 DUP2 MSTORE PUSH1 0x20 ADD SWAP1 DUP2 MSTORE PUSH1 0x20 ADD PUSH1 0x0 KECCAK256 PUSH1 0x0 DUP3 ADD MLOAD DUP2 PUSH1 0x0 ADD PUSH1 0x0 PUSH2 0x100 EXP DUP2 SLOAD DUP2 PUSH1 0xFF MUL NOT AND SWAP1 DUP4 PUSH1 0xFF AND MUL OR SWAP1 SSTORE POP PUSH1 0x20 DUP3 ADD MLOAD DUP2 PUSH1 0x1 ADD SSTORE PUSH1 0x40 DUP3 ADD MLOAD DUP2 PUSH1 0x2 ADD SSTORE PUSH1 0x60 DUP3 ADD MLOAD DUP2 PUSH1 0x3 ADD SSTORE PUSH1 0x80 DUP3 ADD MLOAD DUP2 PUSH1 0x4 ADD SSTORE PUSH1 0xA0 DUP3 ADD MLOAD DUP2 PUSH1 0x5 ADD SWAP1 DUP2 PUSH2 0x3416 SWAP2 SWAP1 PUSH2 0x4701 JUMP JUMPDEST POP POP PUSH1 0x1E SLOAD PUSH1 0x0 SWAP1 DUP2 MSTORE PUSH1 0x1D PUSH1 0x20 SWAP1 DUP2 MSTORE PUSH1 0x40 SWAP2 DUP3 SWAP1 KECCAK256 DUP5 MLOAD DUP2 SLOAD PUSH1 0xFF NOT AND PUSH1 0xFF SWAP1 SWAP2 AND OR DUP2 SSTORE SWAP1 DUP5 ADD MLOAD PUSH1 0x1 DUP3 ADD SSTORE SWAP1 DUP4 ADD MLOAD PUSH1 0x2 DUP3 ADD SSTORE PUSH1 0x60 DUP4 ADD MLOAD PUSH1 0x3 DUP3 ADD SSTORE PUSH1 0x80 DUP4 ADD MLOAD PUSH1 0x4 DUP3 ADD SSTORE PUSH1 0xA0 DUP4 ADD MLOAD DUP4 SWAP3 POP PUSH1 0x5 DUP3 ADD SWAP1 PUSH2 0x347A SWAP1 DUP3 PUSH2 0x4701 JUMP JUMPDEST POP POP PUSH1 0x1E DUP1 SLOAD SWAP2 POP PUSH1 0x0 PUSH2 0x348D DUP4 PUSH2 0x47C1 JUMP JUMPDEST SWAP2 SWAP1 POP SSTORE POP DUP4 PUSH1 0x1F PUSH1 0x3 ADD PUSH1 0x0 DUP3 DUP3 SLOAD PUSH2 0x34A7 SWAP2 SWAP1 PUSH2 0x455E JUMP JUMPDEST SWAP1 SWAP2 SSTORE POP POP PUSH1 0x1E SLOAD PUSH1 0x22 SLOAD PUSH2 0x34BC SWAP2 SWAP1 PUSH2 0x464C JUMP JUMPDEST PUSH1 0x23 SSTORE PUSH1 0x40 MLOAD PUSH4 0xACF0271 PUSH1 0xE3 SHL DUP2 MSTORE PUSH1 0x4 DUP2 ADD DUP11 SWAP1 MSTORE PUSH1 0xFF DUP10 AND PUSH1 0x24 DUP3 ADD MSTORE PUSH32 0x0 PUSH1 0x1 PUSH1 0x1 PUSH1 0xA0 SHL SUB AND SWAP1 PUSH4 0x56781388 SWAP1 PUSH1 0x44 ADD PUSH1 0x0 PUSH1 0x40 MLOAD DUP1 DUP4 SUB DUP2 PUSH1 0x0 DUP8 DUP1 EXTCODESIZE ISZERO DUP1 ISZERO PUSH2 0x352A JUMPI PUSH1 0x0 DUP1 REVERT JUMPDEST POP GAS CALL ISZERO DUP1 ISZERO PUSH2 0x353E JUMPI RETURNDATASIZE PUSH1 0x0 DUP1 RETURNDATACOPY RETURNDATASIZE PUSH1 0x0 REVERT JUMPDEST POP POP POP POP PUSH1 0x1 NUMBER PUSH2 0x354F SWAP2 SWAP1 PUSH2 0x45E2 JUMP JUMPDEST PUSH1 0x0 DUP11 DUP2 MSTORE PUSH1 0x1C PUSH1 0x20 MSTORE PUSH1 0x40 DUP2 KECCAK256 SWAP2 BLOCKHASH PUSH1 0x2 SWAP1 SWAP3 ADD DUP3 SWAP1 SSTORE PUSH1 0x1E SLOAD PUSH1 0x1D SWAP2 SWAP1 PUSH2 0x357A SWAP1 PUSH1 0x1 SWAP1 PUSH2 0x45E2 JUMP JUMPDEST DUP2 MSTORE PUSH1 0x20 ADD SWAP1 DUP2 MSTORE PUSH1 0x20 ADD PUSH1 0x0 KECCAK256 PUSH1 0x2 ADD DUP2 SWAP1 SSTORE POP DUP9 PUSH32 0x7E93FC3C3724F0D8FD590530618BF27708290AD2461C84E4944894AB0131A8AE DUP10 NUMBER PUSH1 0x1C PUSH1 0x0 DUP15 DUP2 MSTORE PUSH1 0x20 ADD SWAP1 DUP2 MSTORE PUSH1 0x20 ADD PUSH1 0x0 KECCAK256 PUSH1 0x2 ADD SLOAD PUSH1 0x40 MLOAD PUSH2 0x35EF SWAP4 SWAP3 SWAP2 SWAP1 PUSH1 0xFF SWAP4 SWAP1 SWAP4 AND DUP4 MSTORE PUSH1 0x20 DUP4 ADD SWAP2 SWAP1 SWAP2 MSTORE PUSH1 0x40 DUP3 ADD MSTORE PUSH1 0x60 ADD SWAP1 JUMP JUMPDEST PUSH1 0x40 MLOAD DUP1 SWAP2 SUB SWAP1 LOG2 DUP7 MLOAD ISZERO PUSH2 0x3655 JUMPI DUP9 PUSH32 0xE1E5D0E9CD2D2AE081AEDF8A8DE8B57B91B1ED3BCC7962C21F13B93670F93647 DUP10 NUMBER PUSH1 0x1C PUSH1 0x0 DUP15 DUP2 MSTORE PUSH1 0x20 ADD SWAP1 DUP2 MSTORE PUSH1 0x20 ADD PUSH1 0x0 KECCAK256 PUSH1 0x2 ADD SLOAD DUP9 DUP13 PUSH1 0x40 MLOAD PUSH2 0x364C SWAP6 SWAP5 SWAP4 SWAP3 SWAP2 SWAP1 PUSH2 0x47DA JUMP JUMPDEST PUSH1 0x40 MLOAD DUP1 SWAP2 SUB SWAP1 LOG2 JUMPDEST POP POP POP POP POP POP POP POP POP JUMP JUMPDEST PUSH1 0x16 SLOAD DUP2 GT ISZERO PUSH2 0x369B JUMPI PUSH1 0x16 DUP2 SWAP1 SSTORE PUSH1 0x40 MLOAD DUP2 SWAP1 PUSH32 0x738245544E121DEF2724A4BC087112610A7A03C8518881B71CBD922D850EAF09 SWAP1 PUSH1 0x0 SWAP1 LOG2 JUMPDEST PUSH1 0x40 MLOAD PUSH4 0x1F27A4F3 PUSH1 0xE1 SHL DUP2 MSTORE PUSH1 0x4 DUP2 ADD DUP3 SWAP1 MSTORE PUSH32 0x0 PUSH1 0x1 PUSH1 0x1 PUSH1 0xA0 SHL SUB AND SWAP1 PUSH4 0x3E4F49E6 SWAP1 PUSH1 0x24 ADD PUSH1 0x20 PUSH1 0x40 MLOAD DUP1 DUP4 SUB DUP2 DUP7 GAS STATICCALL SWAP3 POP POP POP DUP1 ISZERO PUSH2 0x371C JUMPI POP PUSH1 0x40 DUP1 MLOAD PUSH1 0x1F RETURNDATASIZE SWAP1 DUP2 ADD PUSH1 0x1F NOT AND DUP3 ADD SWAP1 SWAP3 MSTORE PUSH2 0x3719 SWAP2 DUP2 ADD SWAP1 PUSH2 0x44EC JUMP JUMPDEST PUSH1 0x1 JUMPDEST PUSH2 0x378D JUMPI PUSH1 0x0 DUP2 DUP2 MSTORE PUSH1 0x17 PUSH1 0x20 MSTORE PUSH1 0x40 SWAP1 KECCAK256 SLOAD PUSH1 0xFF AND ISZERO PUSH2 0x3775 JUMPI PUSH1 0x0 DUP2 DUP2 MSTORE PUSH1 0x17 PUSH1 0x20 MSTORE PUSH1 0x40 DUP1 DUP3 KECCAK256 DUP1 SLOAD PUSH1 0xFF NOT AND SWAP1 SSTORE MLOAD DUP3 SWAP2 PUSH32 0xAAE1ED8B74416B955E14C0B0B71467355257BA6D0A08C9B6F39D8479F6F3D354 SWAP2 LOG2 JUMPDEST PUSH1 0x0 SWAP1 DUP2 MSTORE PUSH1 0x18 PUSH1 0x20 MSTORE PUSH1 0x40 SWAP1 KECCAK256 DUP1 SLOAD PUSH1 0xFF NOT AND SWAP1 SSTORE JUMP JUMPDEST PUSH1 0x0 PUSH1 0x1 DUP3 PUSH1 0x7 DUP2 GT ISZERO PUSH2 0x37A3 JUMPI PUSH2 0x37A3 PUSH2 0x4492 JUMP JUMPDEST EQ DUP1 PUSH2 0x37C0 JUMPI POP PUSH1 0x0 DUP3 PUSH1 0x7 DUP2 GT ISZERO PUSH2 0x37BE JUMPI PUSH2 0x37BE PUSH2 0x4492 JUMP JUMPDEST EQ JUMPDEST SWAP1 POP DUP1 DUP1 ISZERO PUSH2 0x37DE JUMPI POP PUSH1 0x0 DUP4 DUP2 MSTORE PUSH1 0x17 PUSH1 0x20 MSTORE PUSH1 0x40 SWAP1 KECCAK256 SLOAD PUSH1 0xFF AND ISZERO JUMPDEST ISZERO PUSH2 0x3863 JUMPI PUSH1 0x0 DUP4 DUP2 MSTORE PUSH1 0x17 PUSH1 0x20 MSTORE PUSH1 0x40 DUP1 DUP3 KECCAK256 DUP1 SLOAD PUSH1 0xFF NOT AND PUSH1 0x1 OR SWAP1 SSTORE MLOAD DUP5 SWAP2 PUSH32 0x371F68ADF986BEF1A3B7917C0747454C6A25610192C30A1009CCC33DC90F3423 SWAP2 LOG2 DUP3 PUSH32 0x6147C657C509B611C5B884671C7CB0DA0E1EED364B561E0E9D48789B79421525 PUSH1 0x0 DUP5 PUSH1 0x40 MLOAD PUSH2 0x3856 SWAP3 SWAP2 SWAP1 PUSH2 0x4827 JUMP JUMPDEST PUSH1 0x40 MLOAD DUP1 SWAP2 SUB SWAP1 LOG2 PUSH2 0x38FD JUMP JUMPDEST DUP1 ISZERO DUP1 ISZERO PUSH2 0x387F JUMPI POP PUSH1 0x0 DUP4 DUP2 MSTORE PUSH1 0x17 PUSH1 0x20 MSTORE PUSH1 0x40 SWAP1 KECCAK256 SLOAD PUSH1 0xFF AND JUMPDEST ISZERO PUSH2 0x38FD JUMPI PUSH1 0x0 DUP4 DUP2 MSTORE PUSH1 0x17 PUSH1 0x20 MSTORE PUSH1 0x40 DUP1 DUP3 KECCAK256 DUP1 SLOAD PUSH1 0xFF NOT AND SWAP1 SSTORE MLOAD DUP5 SWAP2 PUSH32 0xAAE1ED8B74416B955E14C0B0B71467355257BA6D0A08C9B6F39D8479F6F3D354 SWAP2 LOG2 DUP3 PUSH32 0x6147C657C509B611C5B884671C7CB0DA0E1EED364B561E0E9D48789B79421525 PUSH1 0x1 DUP5 PUSH1 0x40 MLOAD PUSH2 0x38F4 SWAP3 SWAP2 SWAP1 PUSH2 0x4827 JUMP JUMPDEST PUSH1 0x40 MLOAD DUP1 SWAP2 SUB SWAP1 LOG2 JUMPDEST PUSH1 0x40 MLOAD PUSH4 0x2D63F693 PUSH1 0xE0 SHL DUP2 MSTORE PUSH1 0x4 DUP2 ADD DUP5 SWAP1 MSTORE PUSH32 0x0 PUSH1 0x1 PUSH1 0x1 PUSH1 0xA0 SHL SUB AND SWAP1 PUSH4 0x2D63F693 SWAP1 PUSH1 0x24 ADD PUSH1 0x20 PUSH1 0x40 MLOAD DUP1 DUP4 SUB DUP2 DUP7 GAS STATICCALL SWAP3 POP POP POP DUP1 ISZERO PUSH2 0x397E JUMPI POP PUSH1 0x40 DUP1 MLOAD PUSH1 0x1F RETURNDATASIZE SWAP1 DUP2 ADD PUSH1 0x1F NOT AND DUP3 ADD SWAP1 SWAP3 MSTORE PUSH2 0x397B SWAP2 DUP2 ADD SWAP1 PUSH2 0x45F5 JUMP JUMPDEST PUSH1 0x1 JUMPDEST PUSH2 0x399D JUMPI PUSH1 0x0 DUP4 DUP2 MSTORE PUSH1 0x18 PUSH1 0x20 MSTORE PUSH1 0x40 SWAP1 KECCAK256 DUP1 SLOAD PUSH1 0xFF NOT AND SWAP1 SSTORE PUSH2 0x39F4 JUMP JUMPDEST NUMBER DUP1 DUP3 GT DUP1 ISZERO PUSH2 0x39B7 JUMPI POP PUSH1 0x1B SLOAD PUSH2 0x39B5 DUP3 DUP5 PUSH2 0x45E2 JUMP JUMPDEST LT JUMPDEST ISZERO PUSH2 0x39DA JUMPI PUSH1 0x0 DUP6 DUP2 MSTORE PUSH1 0x18 PUSH1 0x20 MSTORE PUSH1 0x40 SWAP1 KECCAK256 DUP1 SLOAD PUSH1 0xFF NOT AND PUSH1 0x1 OR SWAP1 SSTORE PUSH2 0x39F1 JUMP JUMPDEST PUSH1 0x0 DUP6 DUP2 MSTORE PUSH1 0x18 PUSH1 0x20 MSTORE PUSH1 0x40 SWAP1 KECCAK256 DUP1 SLOAD PUSH1 0xFF NOT AND SWAP1 SSTORE JUMPDEST POP POP JUMPDEST PUSH1 0x0 DUP4 DUP2 MSTORE PUSH1 0x11 PUSH1 0x20 MSTORE PUSH1 0x40 DUP2 KECCAK256 SLOAD SWAP1 SUB PUSH2 0x1AE5 JUMPI POP POP PUSH1 0x0 SWAP1 DUP2 MSTORE PUSH1 0x11 PUSH1 0x20 MSTORE PUSH1 0x40 SWAP1 KECCAK256 TIMESTAMP SWAP1 SSTORE JUMP JUMPDEST PUSH1 0x6 DUP1 SLOAD PUSH1 0x1 PUSH1 0x1 PUSH1 0xA0 SHL SUB DUP4 DUP2 AND PUSH1 0x1 PUSH1 0x1 PUSH1 0xA0 SHL SUB NOT DUP4 AND DUP2 OR SWAP1 SWAP4 SSTORE PUSH1 0x40 MLOAD SWAP2 AND SWAP2 SWAP1 DUP3 SWAP1 PUSH32 0x8BE0079C531659141344CD1FD0A4F28419497F9722A3DAAFE3B4186F6B6457E0 SWAP1 PUSH1 0x0 SWAP1 LOG3 POP POP JUMP JUMPDEST PUSH1 0x40 MLOAD PUSH4 0x1F27A4F3 PUSH1 0xE1 SHL DUP2 MSTORE PUSH1 0x4 DUP2 ADD DUP3 SWAP1 MSTORE PUSH1 0x0 SWAP1 PUSH32 0x0 PUSH1 0x1 PUSH1 0x1 PUSH1 0xA0 SHL SUB AND SWAP1 PUSH4 0x3E4F49E6 SWAP1 PUSH1 0x24 ADD PUSH1 0x20 PUSH1 0x40 MLOAD DUP1 DUP4 SUB DUP2 DUP7 GAS STATICCALL ISZERO DUP1 ISZERO PUSH2 0x3AD8 JUMPI RETURNDATASIZE PUSH1 0x0 DUP1 RETURNDATACOPY RETURNDATASIZE PUSH1 0x0 REVERT JUMPDEST POP POP POP POP PUSH1 0x40 MLOAD RETURNDATASIZE PUSH1 0x1F NOT PUSH1 0x1F DUP3 ADD AND DUP3 ADD DUP1 PUSH1 0x40 MSTORE POP DUP2 ADD SWAP1 PUSH2 0x3AFC SWAP2 SWAP1 PUSH2 0x44EC JUMP JUMPDEST SWAP1 POP PUSH1 0x1 DUP2 PUSH1 0x7 DUP2 GT ISZERO PUSH2 0x3B12 JUMPI PUSH2 0x3B12 PUSH2 0x4492 JUMP JUMPDEST EQ DUP1 PUSH2 0x3B2F JUMPI POP PUSH1 0x0 DUP2 PUSH1 0x7 DUP2 GT ISZERO PUSH2 0x3B2D JUMPI PUSH2 0x3B2D PUSH2 0x4492 JUMP JUMPDEST EQ JUMPDEST ISZERO PUSH2 0x3C6A JUMPI PUSH1 0x0 DUP3 DUP2 MSTORE PUSH1 0x10 PUSH1 0x20 SWAP1 DUP2 MSTORE PUSH1 0x40 DUP1 DUP4 KECCAK256 DUP1 SLOAD PUSH1 0xFF NOT AND PUSH1 0x1 OR SWAP1 SSTORE PUSH1 0x19 SWAP1 SWAP2 MSTORE SWAP1 KECCAK256 SLOAD PUSH1 0xFF AND DUP1 ISZERO PUSH2 0x3B76 JUMPI POP PUSH1 0x0 DUP3 DUP2 MSTORE PUSH1 0x1A PUSH1 0x20 MSTORE PUSH1 0x40 SWAP1 KECCAK256 SLOAD PUSH1 0xFF AND ISZERO JUMPDEST ISZERO PUSH2 0x3C30 JUMPI PUSH1 0x0 DUP3 DUP2 MSTORE PUSH1 0x14 PUSH1 0x20 MSTORE PUSH1 0x40 SWAP1 KECCAK256 SLOAD ISZERO PUSH2 0x3C30 JUMPI PUSH1 0x0 DUP3 DUP2 MSTORE PUSH1 0x14 PUSH1 0x20 MSTORE PUSH1 0x40 SWAP1 DUP2 SWAP1 KECCAK256 SLOAD SWAP1 MLOAD PUSH4 0xA9059CBB PUSH1 0xE0 SHL DUP2 MSTORE PUSH1 0x1 PUSH1 0x1 PUSH1 0xA0 SHL SUB PUSH32 0x0 AND SWAP2 PUSH4 0xA9059CBB SWAP2 PUSH2 0x3BEB SWAP2 ADDRESS SWAP2 PUSH1 0x4 ADD PUSH2 0x450D JUMP JUMPDEST PUSH1 0x20 PUSH1 0x40 MLOAD DUP1 DUP4 SUB DUP2 PUSH1 0x0 DUP8 GAS CALL ISZERO DUP1 ISZERO PUSH2 0x3C0A JUMPI RETURNDATASIZE PUSH1 0x0 DUP1 RETURNDATACOPY RETURNDATASIZE PUSH1 0x0 REVERT JUMPDEST POP POP POP POP PUSH1 0x40 MLOAD RETURNDATASIZE PUSH1 0x1F NOT PUSH1 0x1F DUP3 ADD AND DUP3 ADD DUP1 PUSH1 0x40 MSTORE POP DUP2 ADD SWAP1 PUSH2 0x3C2E SWAP2 SWAP1 PUSH2 0x4526 JUMP JUMPDEST POP JUMPDEST PUSH1 0x40 MLOAD PUSH1 0x0 DUP2 MSTORE DUP3 SWAP1 PUSH32 0xB8BD1C2BF2AFDFDAD72ADF1C6A383EF5B20D65E6041C69ADB823396D343F76D6 SWAP1 PUSH1 0x20 ADD PUSH1 0x40 MLOAD DUP1 SWAP2 SUB SWAP1 LOG2 POP POP JUMP JUMPDEST PUSH1 0x0 PUSH1 0x4 DUP3 PUSH1 0x7 DUP2 GT ISZERO PUSH2 0x3C80 JUMPI PUSH2 0x3C80 PUSH2 0x4492 JUMP JUMPDEST EQ DUP1 PUSH2 0x3C9D JUMPI POP PUSH1 0x7 DUP3 PUSH1 0x7 DUP2 GT ISZERO PUSH2 0x3C9B JUMPI PUSH2 0x3C9B PUSH2 0x4492 JUMP JUMPDEST EQ JUMPDEST PUSH2 0x3CA8 JUMPI PUSH1 0x0 PUSH2 0x3CAB JUMP JUMPDEST PUSH1 0x1 JUMPDEST SWAP1 POP DUP1 PUSH1 0xFF AND PUSH1 0x1 EQ PUSH2 0x3CBF JUMPI PUSH1 0x1 PUSH2 0x3CC2 JUMP JUMPDEST PUSH1 0x2 JUMPDEST PUSH1 0x0 DUP5 DUP2 MSTORE PUSH1 0x10 PUSH1 0x20 MSTORE PUSH1 0x40 SWAP1 KECCAK256 DUP1 SLOAD PUSH1 0xFF NOT AND PUSH1 0x1 DUP4 PUSH1 0x2 DUP2 GT ISZERO PUSH2 0x3CEA JUMPI PUSH2 0x3CEA PUSH2 0x4492 JUMP JUMPDEST MUL OR SWAP1 SSTORE POP PUSH1 0x0 DUP4 DUP2 MSTORE PUSH1 0x19 PUSH1 0x20 MSTORE PUSH1 0x40 SWAP1 KECCAK256 SLOAD PUSH1 0xFF AND DUP1 ISZERO PUSH2 0x3D20 JUMPI POP PUSH1 0x0 DUP4 DUP2 MSTORE PUSH1 0x1A PUSH1 0x20 MSTORE PUSH1 0x40 SWAP1 KECCAK256 SLOAD PUSH1 0xFF DUP3 DUP2 AND SWAP2 AND EQ JUMPDEST ISZERO PUSH2 0x3EB3 JUMPI DUP1 PUSH1 0xFF AND PUSH1 0x1 EQ DUP1 ISZERO PUSH2 0x3D45 JUMPI POP PUSH1 0x0 DUP4 DUP2 MSTORE PUSH1 0x13 PUSH1 0x20 MSTORE PUSH1 0x40 SWAP1 KECCAK256 SLOAD ISZERO ISZERO JUMPDEST ISZERO PUSH2 0x3DEF JUMPI PUSH1 0x0 DUP4 DUP2 MSTORE PUSH1 0x13 PUSH1 0x20 MSTORE PUSH1 0x40 SWAP1 DUP2 SWAP1 KECCAK256 SLOAD SWAP1 MLOAD PUSH4 0xA9059CBB PUSH1 0xE0 SHL DUP2 MSTORE PUSH1 0x1 PUSH1 0x1 PUSH1 0xA0 SHL SUB PUSH32 0x0 AND SWAP2 PUSH4 0xA9059CBB SWAP2 PUSH2 0x3DA6 SWAP2 ADDRESS SWAP2 PUSH1 0x4 ADD PUSH2 0x450D JUMP JUMPDEST PUSH1 0x20 PUSH1 0x40 MLOAD DUP1 DUP4 SUB DUP2 PUSH1 0x0 DUP8 GAS CALL ISZERO DUP1 ISZERO PUSH2 0x3DC5 JUMPI RETURNDATASIZE PUSH1 0x0 DUP1 RETURNDATACOPY RETURNDATASIZE PUSH1 0x0 REVERT JUMPDEST POP POP POP POP PUSH1 0x40 MLOAD RETURNDATASIZE PUSH1 0x1F NOT PUSH1 0x1F DUP3 ADD AND DUP3 ADD DUP1 PUSH1 0x40 MSTORE POP DUP2 ADD SWAP1 PUSH2 0x3DE9 SWAP2 SWAP1 PUSH2 0x4526 JUMP JUMPDEST POP PUSH2 0x3EB3 JUMP JUMPDEST PUSH1 0xFF DUP2 AND ISZERO DUP1 ISZERO PUSH2 0x3E0D JUMPI POP PUSH1 0x0 DUP4 DUP2 MSTORE PUSH1 0x14 PUSH1 0x20 MSTORE PUSH1 0x40 SWAP1 KECCAK256 SLOAD ISZERO ISZERO JUMPDEST ISZERO PUSH2 0x3EB3 JUMPI PUSH1 0x0 DUP4 DUP2 MSTORE PUSH1 0x14 PUSH1 0x20 MSTORE PUSH1 0x40 SWAP1 DUP2 SWAP1 KECCAK256 SLOAD SWAP1 MLOAD PUSH4 0xA9059CBB PUSH1 0xE0 SHL DUP2 MSTORE PUSH1 0x1 PUSH1 0x1 PUSH1 0xA0 SHL SUB PUSH32 0x0 AND SWAP2 PUSH4 0xA9059CBB SWAP2 PUSH2 0x3E6E SWAP2 ADDRESS SWAP2 PUSH1 0x4 ADD PUSH2 0x450D JUMP JUMPDEST PUSH1 0x20 PUSH1 0x40 MLOAD DUP1 DUP4 SUB DUP2 PUSH1 0x0 DUP8 GAS CALL ISZERO DUP1 ISZERO PUSH2 0x3E8D JUMPI RETURNDATASIZE PUSH1 0x0 DUP1 RETURNDATACOPY RETURNDATASIZE PUSH1 0x0 REVERT JUMPDEST POP POP POP POP PUSH1 0x40 MLOAD RETURNDATASIZE PUSH1 0x1F NOT PUSH1 0x1F DUP3 ADD AND DUP3 ADD DUP1 PUSH1 0x40 MSTORE POP DUP2 ADD SWAP1 PUSH2 0x3EB1 SWAP2 SWAP1 PUSH2 0x4526 JUMP JUMPDEST POP JUMPDEST PUSH1 0x40 MLOAD PUSH1 0xFF DUP3 AND DUP2 MSTORE DUP4 SWAP1 PUSH32 0xB8BD1C2BF2AFDFDAD72ADF1C6A383EF5B20D65E6041C69ADB823396D343F76D6 SWAP1 PUSH1 0x20 ADD PUSH1 0x40 MLOAD DUP1 SWAP2 SUB SWAP1 LOG2 POP POP POP JUMP JUMPDEST PUSH1 0x7 SLOAD PUSH1 0xD SLOAD PUSH1 0x9 SLOAD PUSH1 0x8 SLOAD PUSH1 0x0 SWAP4 SWAP3 SWAP2 SWAP1 DUP3 DUP5 GT PUSH2 0x3F11 JUMPI POP SWAP4 SWAP3 POP POP POP JUMP JUMPDEST PUSH1 0x0 PUSH1 0xA SLOAD TIMESTAMP PUSH2 0x3F21 SWAP2 SWAP1 PUSH2 0x45E2 JUMP JUMPDEST SWAP1 POP PUSH1 0x0 PUSH2 0x3F2F DUP4 DUP4 PUSH2 0x4635 JUMP JUMPDEST SWAP1 POP PUSH1 0x0 PUSH2 0x3F3C PUSH1 0x2 SLOAD SWAP1 JUMP JUMPDEST SWAP1 POP PUSH1 0x0 PUSH2 0x3F4A DUP8 DUP10 PUSH2 0x45E2 JUMP JUMPDEST SWAP1 POP PUSH1 0x0 DUP2 DUP5 GT PUSH2 0x3F5B JUMPI DUP4 PUSH2 0x3F5D JUMP JUMPDEST DUP2 JUMPDEST SWAP1 POP DUP3 ISZERO PUSH2 0x3F9A JUMPI DUP3 PUSH2 0x3F78 PUSH8 0xDE0B6B3A7640000 DUP4 PUSH2 0x4635 JUMP JUMPDEST PUSH2 0x3F82 SWAP2 SWAP1 PUSH2 0x464C JUMP JUMPDEST PUSH2 0x3F8C SWAP1 DUP9 PUSH2 0x455E JUMP JUMPDEST SWAP10 POP POP POP POP POP POP POP POP POP POP SWAP1 JUMP JUMPDEST POP SWAP5 SWAP9 SWAP8 POP POP POP POP POP POP POP POP JUMP JUMPDEST PUSH1 0x1 PUSH1 0x1 PUSH1 0xA0 SHL SUB DUP3 AND PUSH2 0x3FD2 JUMPI PUSH1 0x40 MLOAD PUSH4 0xEC442F05 PUSH1 0xE0 SHL DUP2 MSTORE PUSH1 0x0 PUSH1 0x4 DUP3 ADD MSTORE PUSH1 0x24 ADD PUSH2 0xA7D JUMP JUMPDEST PUSH2 0x1B16 PUSH1 0x0 DUP4 DUP4 PUSH2 0x40B3 JUMP JUMPDEST PUSH1 0x1 PUSH1 0x1 PUSH1 0xA0 SHL SUB DUP5 AND PUSH2 0x4008 JUMPI PUSH1 0x40 MLOAD PUSH4 0xE602DF05 PUSH1 0xE0 SHL DUP2 MSTORE PUSH1 0x0 PUSH1 0x4 DUP3 ADD MSTORE PUSH1 0x24 ADD PUSH2 0xA7D JUMP JUMPDEST PUSH1 0x1 PUSH1 0x1 PUSH1 0xA0 SHL SUB DUP4 AND PUSH2 0x4032 JUMPI PUSH1 0x40 MLOAD PUSH4 0x4A1406B1 PUSH1 0xE1 SHL DUP2 MSTORE PUSH1 0x0 PUSH1 0x4 DUP3 ADD MSTORE PUSH1 0x24 ADD PUSH2 0xA7D JUMP JUMPDEST PUSH1 0x1 PUSH1 0x1 PUSH1 0xA0 SHL SUB DUP1 DUP6 AND PUSH1 0x0 SWAP1 DUP2 MSTORE PUSH1 0x1 PUSH1 0x20 SWAP1 DUP2 MSTORE PUSH1 0x40 DUP1 DUP4 KECCAK256 SWAP4 DUP8 AND DUP4 MSTORE SWAP3 SWAP1 MSTORE KECCAK256 DUP3 SWAP1 SSTORE DUP1 ISZERO PUSH2 0x2D01 JUMPI DUP3 PUSH1 0x1 PUSH1 0x1 PUSH1 0xA0 SHL SUB AND DUP5 PUSH1 0x1 PUSH1 0x1 PUSH1 0xA0 SHL SUB AND PUSH32 0x8C5BE1E5EBEC7D5BD14F71427D1E84F3DD0314C0F7B2291E5B200AC8C7C3B925 DUP5 PUSH1 0x40 MLOAD PUSH2 0x40A5 SWAP2 DUP2 MSTORE PUSH1 0x20 ADD SWAP1 JUMP JUMPDEST PUSH1 0x40 MLOAD DUP1 SWAP2 SUB SWAP1 LOG3 POP POP POP POP JUMP JUMPDEST PUSH1 0x1 PUSH1 0x1 PUSH1 0xA0 SHL SUB DUP4 AND PUSH2 0x40DE JUMPI DUP1 PUSH1 0x2 PUSH1 0x0 DUP3 DUP3 SLOAD PUSH2 0x40D3 SWAP2 SWAP1 PUSH2 0x455E JUMP JUMPDEST SWAP1 SWAP2 SSTORE POP PUSH2 0x4150 SWAP1 POP JUMP JUMPDEST PUSH1 0x1 PUSH1 0x1 PUSH1 0xA0 SHL SUB DUP4 AND PUSH1 0x0 SWAP1 DUP2 MSTORE PUSH1 0x20 DUP2 SWAP1 MSTORE PUSH1 0x40 SWAP1 KECCAK256 SLOAD DUP2 DUP2 LT ISZERO PUSH2 0x4131 JUMPI PUSH1 0x40 MLOAD PUSH4 0x391434E3 PUSH1 0xE2 SHL DUP2 MSTORE PUSH1 0x1 PUSH1 0x1 PUSH1 0xA0 SHL SUB DUP6 AND PUSH1 0x4 DUP3 ADD MSTORE PUSH1 0x24 DUP2 ADD DUP3 SWAP1 MSTORE PUSH1 0x44 DUP2 ADD DUP4 SWAP1 MSTORE PUSH1 0x64 ADD PUSH2 0xA7D JUMP JUMPDEST PUSH1 0x1 PUSH1 0x1 PUSH1 0xA0 SHL SUB DUP5 AND PUSH1 0x0 SWAP1 DUP2 MSTORE PUSH1 0x20 DUP2 SWAP1 MSTORE PUSH1 0x40 SWAP1 KECCAK256 SWAP1 DUP3 SWAP1 SUB SWAP1 SSTORE JUMPDEST PUSH1 0x1 PUSH1 0x1 PUSH1 0xA0 SHL SUB DUP3 AND PUSH2 0x416C JUMPI PUSH1 0x2 DUP1 SLOAD DUP3 SWAP1 SUB SWAP1 SSTORE PUSH2 0x418B JUMP JUMPDEST PUSH1 0x1 PUSH1 0x1 PUSH1 0xA0 SHL SUB DUP3 AND PUSH1 0x0 SWAP1 DUP2 MSTORE PUSH1 0x20 DUP2 SWAP1 MSTORE PUSH1 0x40 SWAP1 KECCAK256 DUP1 SLOAD DUP3 ADD SWAP1 SSTORE JUMPDEST DUP2 PUSH1 0x1 PUSH1 0x1 PUSH1 0xA0 SHL SUB AND DUP4 PUSH1 0x1 PUSH1 0x1 PUSH1 0xA0 SHL SUB AND PUSH32 0xDDF252AD1BE2C89B69C2B068FC378DAA952BA7F163C4A11628F55A4DF523B3EF DUP4 PUSH1 0x40 MLOAD PUSH2 0x41D0 SWAP2 DUP2 MSTORE PUSH1 0x20 ADD SWAP1 JUMP JUMPDEST PUSH1 0x40 MLOAD DUP1 SWAP2 SUB SWAP1 LOG3 POP POP POP JUMP JUMPDEST PUSH1 0x0 PUSH1 0x20 DUP3 DUP5 SUB SLT ISZERO PUSH2 0x41EF JUMPI PUSH1 0x0 DUP1 REVERT JUMPDEST POP CALLDATALOAD SWAP2 SWAP1 POP JUMP JUMPDEST PUSH1 0x0 DUP2 MLOAD DUP1 DUP5 MSTORE PUSH1 0x0 JUMPDEST DUP2 DUP2 LT ISZERO PUSH2 0x421C JUMPI PUSH1 0x20 DUP2 DUP6 ADD DUP2 ADD MLOAD DUP7 DUP4 ADD DUP3 ADD MSTORE ADD PUSH2 0x4200 JUMP JUMPDEST POP PUSH1 0x0 PUSH1 0x20 DUP3 DUP7 ADD ADD MSTORE PUSH1 0x20 PUSH1 0x1F NOT PUSH1 0x1F DUP4 ADD AND DUP6 ADD ADD SWAP2 POP POP SWAP3 SWAP2 POP POP JUMP JUMPDEST PUSH1 0x20 DUP2 MSTORE PUSH1 0x0 PUSH2 0x13DC PUSH1 0x20 DUP4 ADD DUP5 PUSH2 0x41F6 JUMP JUMPDEST DUP1 CALLDATALOAD PUSH1 0x1 PUSH1 0x1 PUSH1 0xA0 SHL SUB DUP2 AND DUP2 EQ PUSH2 0x4266 JUMPI PUSH1 0x0 DUP1 REVERT JUMPDEST SWAP2 SWAP1 POP JUMP JUMPDEST PUSH1 0x0 DUP1 PUSH1 0x40 DUP4 DUP6 SUB SLT ISZERO PUSH2 0x427E JUMPI PUSH1 0x0 DUP1 REVERT JUMPDEST PUSH2 0x4287 DUP4 PUSH2 0x424F JUMP JUMPDEST SWAP5 PUSH1 0x20 SWAP4 SWAP1 SWAP4 ADD CALLDATALOAD SWAP4 POP POP POP JUMP JUMPDEST PUSH1 0x0 DUP1 PUSH1 0x0 PUSH1 0x60 DUP5 DUP7 SUB SLT ISZERO PUSH2 0x42AA JUMPI PUSH1 0x0 DUP1 REVERT JUMPDEST PUSH2 0x42B3 DUP5 PUSH2 0x424F JUMP JUMPDEST SWAP3 POP PUSH2 0x42C1 PUSH1 0x20 DUP6 ADD PUSH2 0x424F JUMP JUMPDEST SWAP2 POP PUSH1 0x40 DUP5 ADD CALLDATALOAD SWAP1 POP SWAP3 POP SWAP3 POP SWAP3 JUMP JUMPDEST DUP1 CALLDATALOAD PUSH1 0xFF DUP2 AND DUP2 EQ PUSH2 0x4266 JUMPI PUSH1 0x0 DUP1 REVERT JUMPDEST PUSH4 0x4E487B71 PUSH1 0xE0 SHL PUSH1 0x0 MSTORE PUSH1 0x41 PUSH1 0x4 MSTORE PUSH1 0x24 PUSH1 0x0 REVERT JUMPDEST PUSH1 0x0 DUP1 PUSH1 0x0 PUSH1 0x60 DUP5 DUP7 SUB SLT ISZERO PUSH2 0x430D JUMPI PUSH1 0x0 DUP1 REVERT JUMPDEST DUP4 CALLDATALOAD SWAP3 POP PUSH2 0x431D PUSH1 0x20 DUP6 ADD PUSH2 0x42D1 JUMP JUMPDEST SWAP2 POP PUSH1 0x40 DUP5 ADD CALLDATALOAD PUSH8 0xFFFFFFFFFFFFFFFF DUP1 DUP3 GT ISZERO PUSH2 0x433A JUMPI PUSH1 0x0 DUP1 REVERT JUMPDEST DUP2 DUP7 ADD SWAP2 POP DUP7 PUSH1 0x1F DUP4 ADD SLT PUSH2 0x434E JUMPI PUSH1 0x0 DUP1 REVERT JUMPDEST DUP2 CALLDATALOAD DUP2 DUP2 GT ISZERO PUSH2 0x4360 JUMPI PUSH2 0x4360 PUSH2 0x42E2 JUMP JUMPDEST PUSH1 0x40 MLOAD PUSH1 0x1F DUP3 ADD PUSH1 0x1F NOT SWAP1 DUP2 AND PUSH1 0x3F ADD AND DUP2 ADD SWAP1 DUP4 DUP3 GT DUP2 DUP4 LT OR ISZERO PUSH2 0x4388 JUMPI PUSH2 0x4388 PUSH2 0x42E2 JUMP JUMPDEST DUP2 PUSH1 0x40 MSTORE DUP3 DUP2 MSTORE DUP10 PUSH1 0x20 DUP5 DUP8 ADD ADD GT ISZERO PUSH2 0x43A1 JUMPI PUSH1 0x0 DUP1 REVERT JUMPDEST DUP3 PUSH1 0x20 DUP7 ADD PUSH1 0x20 DUP4 ADD CALLDATACOPY PUSH1 0x0 PUSH1 0x20 DUP5 DUP4 ADD ADD MSTORE DUP1 SWAP6 POP POP POP POP POP POP SWAP3 POP SWAP3 POP SWAP3 JUMP JUMPDEST PUSH1 0x0 DUP1 PUSH1 0x40 DUP4 DUP6 SUB SLT ISZERO PUSH2 0x43D6 JUMPI PUSH1 0x0 DUP1 REVERT JUMPDEST DUP3 CALLDATALOAD SWAP2 POP PUSH2 0x43E6 PUSH1 0x20 DUP5 ADD PUSH2 0x424F JUMP JUMPDEST SWAP1 POP SWAP3 POP SWAP3 SWAP1 POP JUMP JUMPDEST PUSH1 0x0 DUP1 PUSH1 0x40 DUP4 DUP6 SUB SLT ISZERO PUSH2 0x4402 JUMPI PUSH1 0x0 DUP1 REVERT JUMPDEST DUP3 CALLDATALOAD SWAP2 POP PUSH2 0x43E6 PUSH1 0x20 DUP5 ADD PUSH2 0x42D1 JUMP JUMPDEST PUSH1 0x0 DUP1 PUSH1 0x0 PUSH1 0x60 DUP5 DUP7 SUB SLT ISZERO PUSH2 0x4427 JUMPI PUSH1 0x0 DUP1 REVERT JUMPDEST DUP4 CALLDATALOAD SWAP3 POP PUSH2 0x42C1 PUSH1 0x20 DUP6 ADD PUSH2 0x42D1 JUMP JUMPDEST PUSH1 0x0 PUSH1 0x20 DUP3 DUP5 SUB SLT ISZERO PUSH2 0x4449 JUMPI PUSH1 0x0 DUP1 REVERT JUMPDEST PUSH2 0x13DC DUP3 PUSH2 0x424F JUMP JUMPDEST PUSH1 0xFF DUP8 AND DUP2 MSTORE DUP6 PUSH1 0x20 DUP3 ADD MSTORE DUP5 PUSH1 0x40 DUP3 ADD MSTORE DUP4 PUSH1 0x60 DUP3 ADD MSTORE DUP3 PUSH1 0x80 DUP3 ADD MSTORE PUSH1 0xC0 PUSH1 0xA0 DUP3 ADD MSTORE PUSH1 0x0 PUSH2 0x4486 PUSH1 0xC0 DUP4 ADD DUP5 PUSH2 0x41F6 JUMP JUMPDEST SWAP9 SWAP8 POP POP POP POP POP POP POP POP JUMP JUMPDEST PUSH4 0x4E487B71 PUSH1 0xE0 SHL PUSH1 0x0 MSTORE PUSH1 0x21 PUSH1 0x4 MSTORE PUSH1 0x24 PUSH1 0x0 REVERT JUMPDEST PUSH1 0x20 DUP2 ADD PUSH1 0x3 DUP4 LT PUSH2 0x44BC JUMPI PUSH2 0x44BC PUSH2 0x4492 JUMP JUMPDEST SWAP2 SWAP1 MSTORE SWAP1 JUMP JUMPDEST PUSH1 0x0 DUP1 PUSH1 0x40 DUP4 DUP6 SUB SLT ISZERO PUSH2 0x44D5 JUMPI PUSH1 0x0 DUP1 REVERT JUMPDEST PUSH2 0x44DE DUP4 PUSH2 0x424F JUMP JUMPDEST SWAP2 POP PUSH2 0x43E6 PUSH1 0x20 DUP5 ADD PUSH2 0x424F JUMP JUMPDEST PUSH1 0x0 PUSH1 0x20 DUP3 DUP5 SUB SLT ISZERO PUSH2 0x44FE JUMPI PUSH1 0x0 DUP1 REVERT JUMPDEST DUP2 MLOAD PUSH1 0x8 DUP2 LT PUSH2 0x13DC JUMPI PUSH1 0x0 DUP1 REVERT JUMPDEST PUSH1 0x1 PUSH1 0x1 PUSH1 0xA0 SHL SUB SWAP3 SWAP1 SWAP3 AND DUP3 MSTORE PUSH1 0x20 DUP3 ADD MSTORE PUSH1 0x40 ADD SWAP1 JUMP JUMPDEST PUSH1 0x0 PUSH1 0x20 DUP3 DUP5 SUB SLT ISZERO PUSH2 0x4538 JUMPI PUSH1 0x0 DUP1 REVERT JUMPDEST DUP2 MLOAD DUP1 ISZERO ISZERO DUP2 EQ PUSH2 0x13DC JUMPI PUSH1 0x0 DUP1 REVERT JUMPDEST PUSH4 0x4E487B71 PUSH1 0xE0 SHL PUSH1 0x0 MSTORE PUSH1 0x11 PUSH1 0x4 MSTORE PUSH1 0x24 PUSH1 0x0 REVERT JUMPDEST DUP1 DUP3 ADD DUP1 DUP3 GT ISZERO PUSH2 0x120C JUMPI PUSH2 0x120C PUSH2 0x4548 JUMP JUMPDEST PUSH1 0x1 DUP2 DUP2 SHR SWAP1 DUP3 AND DUP1 PUSH2 0x4585 JUMPI PUSH1 0x7F DUP3 AND SWAP2 POP JUMPDEST PUSH1 0x20 DUP3 LT DUP2 SUB PUSH2 0x45A5 JUMPI PUSH4 0x4E487B71 PUSH1 0xE0 SHL PUSH1 0x0 MSTORE PUSH1 0x22 PUSH1 0x4 MSTORE PUSH1 0x24 PUSH1 0x0 REVERT JUMPDEST POP SWAP2 SWAP1 POP JUMP JUMPDEST PUSH1 0x20 DUP1 DUP3 MSTORE PUSH1 0x1D SWAP1 DUP3 ADD MSTORE PUSH32 0x416D6F756E74206D7573742062652067726561746572207468616E2030000000 PUSH1 0x40 DUP3 ADD MSTORE PUSH1 0x60 ADD SWAP1 JUMP JUMPDEST DUP2 DUP2 SUB DUP2 DUP2 GT ISZERO PUSH2 0x120C JUMPI PUSH2 0x120C PUSH2 0x4548 JUMP JUMPDEST PUSH1 0x0 PUSH1 0x20 DUP3 DUP5 SUB SLT ISZERO PUSH2 0x4607 JUMPI PUSH1 0x0 DUP1 REVERT JUMPDEST POP MLOAD SWAP2 SWAP1 POP JUMP JUMPDEST PUSH1 0x1 PUSH1 0x1 PUSH1 0x80 SHL SUB DUP2 DUP2 AND DUP4 DUP3 AND ADD SWAP1 DUP1 DUP3 GT ISZERO PUSH2 0x462E JUMPI PUSH2 0x462E PUSH2 0x4548 JUMP JUMPDEST POP SWAP3 SWAP2 POP POP JUMP JUMPDEST DUP1 DUP3 MUL DUP2 ISZERO DUP3 DUP3 DIV DUP5 EQ OR PUSH2 0x120C JUMPI PUSH2 0x120C PUSH2 0x4548 JUMP JUMPDEST PUSH1 0x0 DUP3 PUSH2 0x4669 JUMPI PUSH4 0x4E487B71 PUSH1 0xE0 SHL PUSH1 0x0 MSTORE PUSH1 0x12 PUSH1 0x4 MSTORE PUSH1 0x24 PUSH1 0x0 REVERT JUMPDEST POP DIV SWAP1 JUMP JUMPDEST PUSH1 0x0 DUP2 PUSH2 0x467D JUMPI PUSH2 0x467D PUSH2 0x4548 JUMP JUMPDEST POP PUSH1 0x0 NOT ADD SWAP1 JUMP JUMPDEST PUSH1 0x0 DUP1 PUSH1 0x0 PUSH1 0x60 DUP5 DUP7 SUB SLT ISZERO PUSH2 0x469A JUMPI PUSH1 0x0 DUP1 REVERT JUMPDEST DUP4 MLOAD SWAP3 POP PUSH1 0x20 DUP5 ADD MLOAD SWAP2 POP PUSH1 0x40 DUP5 ADD MLOAD SWAP1 POP SWAP3 POP SWAP3 POP SWAP3 JUMP JUMPDEST PUSH1 0x1F DUP3 GT ISZERO PUSH2 0x1AE5 JUMPI PUSH1 0x0 DUP2 DUP2 MSTORE PUSH1 0x20 DUP2 KECCAK256 PUSH1 0x1F DUP6 ADD PUSH1 0x5 SHR DUP2 ADD PUSH1 0x20 DUP7 LT ISZERO PUSH2 0x46DA JUMPI POP DUP1 JUMPDEST PUSH1 0x1F DUP6 ADD PUSH1 0x5 SHR DUP3 ADD SWAP2 POP JUMPDEST DUP2 DUP2 LT ISZERO PUSH2 0x46F9 JUMPI DUP3 DUP2 SSTORE PUSH1 0x1 ADD PUSH2 0x46E6 JUMP JUMPDEST POP POP POP POP POP POP JUMP JUMPDEST DUP2 MLOAD PUSH8 0xFFFFFFFFFFFFFFFF DUP2 GT ISZERO PUSH2 0x471B JUMPI PUSH2 0x471B PUSH2 0x42E2 JUMP JUMPDEST PUSH2 0x472F DUP2 PUSH2 0x4729 DUP5 SLOAD PUSH2 0x4571 JUMP JUMPDEST DUP5 PUSH2 0x46B3 JUMP JUMPDEST PUSH1 0x20 DUP1 PUSH1 0x1F DUP4 GT PUSH1 0x1 DUP2 EQ PUSH2 0x4764 JUMPI PUSH1 0x0 DUP5 ISZERO PUSH2 0x474C JUMPI POP DUP6 DUP4 ADD MLOAD JUMPDEST PUSH1 0x0 NOT PUSH1 0x3 DUP7 SWAP1 SHL SHR NOT AND PUSH1 0x1 DUP6 SWAP1 SHL OR DUP6 SSTORE PUSH2 0x46F9 JUMP JUMPDEST PUSH1 0x0 DUP6 DUP2 MSTORE PUSH1 0x20 DUP2 KECCAK256 PUSH1 0x1F NOT DUP7 AND SWAP2 JUMPDEST DUP3 DUP2 LT ISZERO PUSH2 0x4793 JUMPI DUP9 DUP7 ADD MLOAD DUP3 SSTORE SWAP5 DUP5 ADD SWAP5 PUSH1 0x1 SWAP1 SWAP2 ADD SWAP1 DUP5 ADD PUSH2 0x4774 JUMP JUMPDEST POP DUP6 DUP3 LT ISZERO PUSH2 0x47B1 JUMPI DUP8 DUP6 ADD MLOAD PUSH1 0x0 NOT PUSH1 0x3 DUP9 SWAP1 SHL PUSH1 0xF8 AND SHR NOT AND DUP2 SSTORE JUMPDEST POP POP POP POP POP PUSH1 0x1 SWAP1 DUP2 SHL ADD SWAP1 SSTORE POP JUMP JUMPDEST PUSH1 0x0 PUSH1 0x1 DUP3 ADD PUSH2 0x47D3 JUMPI PUSH2 0x47D3 PUSH2 0x4548 JUMP JUMPDEST POP PUSH1 0x1 ADD SWAP1 JUMP JUMPDEST PUSH1 0xFF DUP7 AND DUP2 MSTORE DUP5 PUSH1 0x20 DUP3 ADD MSTORE DUP4 PUSH1 0x40 DUP3 ADD MSTORE DUP3 PUSH1 0x60 DUP3 ADD MSTORE PUSH1 0xA0 PUSH1 0x80 DUP3 ADD MSTORE PUSH1 0x0 PUSH2 0x4808 PUSH1 0xA0 DUP4 ADD DUP5 PUSH2 0x41F6 JUMP JUMPDEST SWAP8 SWAP7 POP POP POP POP POP POP POP JUMP JUMPDEST PUSH1 0x8 DUP2 LT PUSH2 0x4823 JUMPI PUSH2 0x4823 PUSH2 0x4492 JUMP JUMPDEST SWAP1 MSTORE JUMP JUMPDEST PUSH1 0x40 DUP2 ADD PUSH2 0x4835 DUP3 DUP6 PUSH2 0x4813 JUMP JUMPDEST PUSH2 0x13DC PUSH1 0x20 DUP4 ADD DUP5 PUSH2 0x4813 JUMP INVALID LOG2 PUSH5 0x6970667358 0x22 SLT KECCAK256 NUMBER 0xC7 0x5C 0xD1 DUP4 0xEE 0x1F XOR PUSH20 0x8CFCD2D463702933501F13568B8AD881C11BCBC3 0x4C PUSH12 0x3364736F6C63430008150033 LOG2 PUSH5 0x6970667358 0x22 SLT KECCAK256 EXTCODEHASH CALL 0x5D SWAP15 0x24 0x25 SLOAD LOG0 0xF LT 0x1E GASPRICE 0xA7 STATICCALL ORIGIN 0xE4 CODECOPY SAR ISZERO 0xE9 SWAP12 GASLIMIT DUP9 0xF6 0x24 RETURN PUSH4 0xF05A6714 0xC6 PUSH5 0x736F6C6343 STOP ADDMOD ISZERO STOP CALLER "},"methodIdentifiers":{"COMPOUND_GOVERNOR()":"8ad4bba2","COMP_TOKEN()":"10d41083","compensators(uint256)":"eb208934","createCompensator(address)":"cf199bf9","createCompensatorForSelf()":"06d10acf","getCompensator(address)":"a1478c98","getCompensators(uint256,uint256)":"cb97922f","getCompensatorsCount()":"767829cb","hasCompensator(address)":"27382709","ownerToCompensator(address)":"461f931c"}}}}}