{
  "_format": "hh-sol-artifact-1",
  "contractName": "Compensator",
  "sourceName": "contracts/Compensator.sol",
  "abi": [
    {
      "inputs": [
        {
          "internalType": "address",
          "name": "_compToken",
          "type": "address"
        },
        {
          "internalType": "address",
          "name": "_compoundGovernor",
          "type": "address"
        },
        {
          "internalType": "address",
          "name": "_owner",
          "type": "address"
        }
      ],
      "stateMutability": "nonpayable",
      "type": "constructor"
    },
    {
      "inputs": [
        {
          "internalType": "address",
          "name": "spender",
          "type": "address"
        },
        {
          "internalType": "uint256",
          "name": "allowance",
          "type": "uint256"
        },
        {
          "internalType": "uint256",
          "name": "needed",
          "type": "uint256"
        }
      ],
      "name": "ERC20InsufficientAllowance",
      "type": "error"
    },
    {
      "inputs": [
        {
          "internalType": "address",
          "name": "sender",
          "type": "address"
        },
        {
          "internalType": "uint256",
          "name": "balance",
          "type": "uint256"
        },
        {
          "internalType": "uint256",
          "name": "needed",
          "type": "uint256"
        }
      ],
      "name": "ERC20InsufficientBalance",
      "type": "error"
    },
    {
      "inputs": [
        {
          "internalType": "address",
          "name": "approver",
          "type": "address"
        }
      ],
      "name": "ERC20InvalidApprover",
      "type": "error"
    },
    {
      "inputs": [
        {
          "internalType": "address",
          "name": "receiver",
          "type": "address"
        }
      ],
      "name": "ERC20InvalidReceiver",
      "type": "error"
    },
    {
      "inputs": [
        {
          "internalType": "address",
          "name": "sender",
          "type": "address"
        }
      ],
      "name": "ERC20InvalidSender",
      "type": "error"
    },
    {
      "inputs": [
        {
          "internalType": "address",
          "name": "spender",
          "type": "address"
        }
      ],
      "name": "ERC20InvalidSpender",
      "type": "error"
    },
    {
      "inputs": [
        {
          "internalType": "address",
          "name": "owner",
          "type": "address"
        }
      ],
      "name": "OwnableInvalidOwner",
      "type": "error"
    },
    {
      "inputs": [
        {
          "internalType": "address",
          "name": "account",
          "type": "address"
        }
      ],
      "name": "OwnableUnauthorizedAccount",
      "type": "error"
    },
    {
      "inputs": [],
      "name": "ReentrancyGuardReentrantCall",
      "type": "error"
    },
    {
      "anonymous": false,
      "inputs": [
        {
          "indexed": true,
          "internalType": "address",
          "name": "owner",
          "type": "address"
        },
        {
          "indexed": true,
          "internalType": "address",
          "name": "spender",
          "type": "address"
        },
        {
          "indexed": false,
          "internalType": "uint256",
          "name": "value",
          "type": "uint256"
        }
      ],
      "name": "Approval",
      "type": "event"
    },
    {
      "anonymous": false,
      "inputs": [
        {
          "indexed": true,
          "internalType": "address",
          "name": "delegator",
          "type": "address"
        },
        {
          "indexed": false,
          "internalType": "uint256",
          "name": "unlockTime",
          "type": "uint256"
        }
      ],
      "name": "COMPLocked",
      "type": "event"
    },
    {
      "anonymous": false,
      "inputs": [
        {
          "indexed": true,
          "internalType": "address",
          "name": "user",
          "type": "address"
        },
        {
          "indexed": false,
          "internalType": "uint256",
          "name": "amount",
          "type": "uint256"
        }
      ],
      "name": "ClaimRewards",
      "type": "event"
    },
    {
      "anonymous": false,
      "inputs": [
        {
          "indexed": false,
          "internalType": "uint256",
          "name": "successfulVotes",
          "type": "uint256"
        },
        {
          "indexed": false,
          "internalType": "uint256",
          "name": "totalVotes",
          "type": "uint256"
        },
        {
          "indexed": false,
          "internalType": "uint256",
          "name": "totalRewardsEarned",
          "type": "uint256"
        }
      ],
      "name": "DelegatePerformanceUpdated",
      "type": "event"
    },
    {
      "anonymous": false,
      "inputs": [
        {
          "indexed": false,
          "internalType": "uint256",
          "name": "oldCap",
          "type": "uint256"
        },
        {
          "indexed": false,
          "internalType": "uint256",
          "name": "newCap",
          "type": "uint256"
        },
        {
          "indexed": false,
          "internalType": "uint256",
          "name": "totalSupply",
          "type": "uint256"
        }
      ],
      "name": "DelegationCapUpdated",
      "type": "event"
    },
    {
      "anonymous": false,
      "inputs": [
        {
          "indexed": true,
          "internalType": "address",
          "name": "user",
          "type": "address"
        },
        {
          "indexed": false,
          "internalType": "uint256",
          "name": "proposalId",
          "type": "uint256"
        },
        {
          "indexed": false,
          "internalType": "uint256",
          "name": "amount",
          "type": "uint256"
        }
      ],
      "name": "LosingStakeReclaimed",
      "type": "event"
    },
    {
      "anonymous": false,
      "inputs": [
        {
          "indexed": true,
          "internalType": "uint256",
          "name": "proposalId",
          "type": "uint256"
        }
      ],
      "name": "NewProposalDetected",
      "type": "event"
    },
    {
      "anonymous": false,
      "inputs": [
        {
          "indexed": true,
          "internalType": "address",
          "name": "owner",
          "type": "address"
        },
        {
          "indexed": false,
          "internalType": "uint256",
          "name": "amount",
          "type": "uint256"
        }
      ],
      "name": "OwnerDeposit",
      "type": "event"
    },
    {
      "anonymous": false,
      "inputs": [
        {
          "indexed": true,
          "internalType": "address",
          "name": "owner",
          "type": "address"
        },
        {
          "indexed": false,
          "internalType": "uint256",
          "name": "amount",
          "type": "uint256"
        }
      ],
      "name": "OwnerWithdraw",
      "type": "event"
    },
    {
      "anonymous": false,
      "inputs": [
        {
          "indexed": true,
          "internalType": "address",
          "name": "previousOwner",
          "type": "address"
        },
        {
          "indexed": true,
          "internalType": "address",
          "name": "newOwner",
          "type": "address"
        }
      ],
      "name": "OwnershipTransferred",
      "type": "event"
    },
    {
      "anonymous": false,
      "inputs": [
        {
          "indexed": true,
          "internalType": "uint256",
          "name": "proposalId",
          "type": "uint256"
        }
      ],
      "name": "ProposalActivated",
      "type": "event"
    },
    {
      "anonymous": false,
      "inputs": [
        {
          "indexed": true,
          "internalType": "uint256",
          "name": "proposalId",
          "type": "uint256"
        },
        {
          "indexed": false,
          "internalType": "uint8",
          "name": "winningSupport",
          "type": "uint8"
        }
      ],
      "name": "ProposalAutoResolved",
      "type": "event"
    },
    {
      "anonymous": false,
      "inputs": [
        {
          "indexed": true,
          "internalType": "uint256",
          "name": "proposalId",
          "type": "uint256"
        }
      ],
      "name": "ProposalDeactivated",
      "type": "event"
    },
    {
      "anonymous": false,
      "inputs": [
        {
          "indexed": true,
          "internalType": "uint256",
          "name": "proposalId",
          "type": "uint256"
        },
        {
          "indexed": true,
          "internalType": "uint8",
          "name": "winningSupport",
          "type": "uint8"
        }
      ],
      "name": "ProposalStakeDistributed",
      "type": "event"
    },
    {
      "anonymous": false,
      "inputs": [
        {
          "indexed": true,
          "internalType": "address",
          "name": "user",
          "type": "address"
        },
        {
          "indexed": false,
          "internalType": "uint256",
          "name": "proposalId",
          "type": "uint256"
        },
        {
          "indexed": false,
          "internalType": "uint8",
          "name": "support",
          "type": "uint8"
        },
        {
          "indexed": false,
          "internalType": "uint256",
          "name": "amount",
          "type": "uint256"
        }
      ],
      "name": "ProposalStaked",
      "type": "event"
    },
    {
      "anonymous": false,
      "inputs": [
        {
          "indexed": true,
          "internalType": "uint256",
          "name": "proposalId",
          "type": "uint256"
        },
        {
          "indexed": false,
          "internalType": "enum IGovernor.ProposalState",
          "name": "oldState",
          "type": "uint8"
        },
        {
          "indexed": false,
          "internalType": "enum IGovernor.ProposalState",
          "name": "newState",
          "type": "uint8"
        }
      ],
      "name": "ProposalStateChanged",
      "type": "event"
    },
    {
      "anonymous": false,
      "inputs": [
        {
          "indexed": false,
          "internalType": "uint256",
          "name": "newRewardIndex",
          "type": "uint256"
        },
        {
          "indexed": false,
          "internalType": "uint256",
          "name": "rewardsAccrued",
          "type": "uint256"
        }
      ],
      "name": "RewardIndexUpdated",
      "type": "event"
    },
    {
      "anonymous": false,
      "inputs": [
        {
          "indexed": true,
          "internalType": "address",
          "name": "owner",
          "type": "address"
        },
        {
          "indexed": false,
          "internalType": "uint256",
          "name": "newRate",
          "type": "uint256"
        }
      ],
      "name": "RewardRateUpdate",
      "type": "event"
    },
    {
      "anonymous": false,
      "inputs": [
        {
          "indexed": false,
          "internalType": "uint256",
          "name": "totalRewards",
          "type": "uint256"
        },
        {
          "indexed": false,
          "internalType": "uint256",
          "name": "rewardIndex",
          "type": "uint256"
        },
        {
          "indexed": false,
          "internalType": "uint256",
          "name": "timestamp",
          "type": "uint256"
        }
      ],
      "name": "RewardsDistributed",
      "type": "event"
    },
    {
      "anonymous": false,
      "inputs": [
        {
          "indexed": true,
          "internalType": "address",
          "name": "from",
          "type": "address"
        },
        {
          "indexed": true,
          "internalType": "address",
          "name": "to",
          "type": "address"
        },
        {
          "indexed": false,
          "internalType": "uint256",
          "name": "value",
          "type": "uint256"
        }
      ],
      "name": "Transfer",
      "type": "event"
    },
    {
      "anonymous": false,
      "inputs": [
        {
          "indexed": true,
          "internalType": "address",
          "name": "user",
          "type": "address"
        },
        {
          "indexed": false,
          "internalType": "uint256",
          "name": "amount",
          "type": "uint256"
        }
      ],
      "name": "UserDeposit",
      "type": "event"
    },
    {
      "anonymous": false,
      "inputs": [
        {
          "indexed": true,
          "internalType": "address",
          "name": "user",
          "type": "address"
        },
        {
          "indexed": false,
          "internalType": "uint256",
          "name": "newRewards",
          "type": "uint256"
        },
        {
          "indexed": false,
          "internalType": "uint256",
          "name": "totalUnclaimed",
          "type": "uint256"
        }
      ],
      "name": "UserRewardsUpdated",
      "type": "event"
    },
    {
      "anonymous": false,
      "inputs": [
        {
          "indexed": true,
          "internalType": "address",
          "name": "user",
          "type": "address"
        },
        {
          "indexed": false,
          "internalType": "uint256",
          "name": "amount",
          "type": "uint256"
        }
      ],
      "name": "UserWithdraw",
      "type": "event"
    },
    {
      "anonymous": false,
      "inputs": [
        {
          "indexed": true,
          "internalType": "uint256",
          "name": "proposalId",
          "type": "uint256"
        },
        {
          "indexed": false,
          "internalType": "uint8",
          "name": "support",
          "type": "uint8"
        },
        {
          "indexed": false,
          "internalType": "uint256",
          "name": "blockNumber",
          "type": "uint256"
        },
        {
          "indexed": false,
          "internalType": "bytes32",
          "name": "txHash",
          "type": "bytes32"
        }
      ],
      "name": "VoteCast",
      "type": "event"
    },
    {
      "anonymous": false,
      "inputs": [
        {
          "indexed": true,
          "internalType": "uint256",
          "name": "proposalId",
          "type": "uint256"
        },
        {
          "indexed": false,
          "internalType": "uint8",
          "name": "support",
          "type": "uint8"
        },
        {
          "indexed": false,
          "internalType": "uint256",
          "name": "blockNumber",
          "type": "uint256"
        },
        {
          "indexed": false,
          "internalType": "bytes32",
          "name": "txHash",
          "type": "bytes32"
        },
        {
          "indexed": false,
          "internalType": "uint256",
          "name": "votingPower",
          "type": "uint256"
        },
        {
          "indexed": false,
          "internalType": "string",
          "name": "reason",
          "type": "string"
        }
      ],
      "name": "VoteCastWithReason",
      "type": "event"
    },
    {
      "inputs": [],
      "name": "BASIS_POINTS",
      "outputs": [
        {
          "internalType": "uint256",
          "name": "",
          "type": "uint256"
        }
      ],
      "stateMutability": "view",
      "type": "function"
    },
    {
      "inputs": [],
      "name": "COMPOUND_GOVERNOR",
      "outputs": [
        {
          "internalType": "contract IGovernor",
          "name": "",
          "type": "address"
        }
      ],
      "stateMutability": "view",
      "type": "function"
    },
    {
      "inputs": [],
      "name": "COMP_TOKEN",
      "outputs": [
        {
          "internalType": "contract IComp",
          "name": "",
          "type": "address"
        }
      ],
      "stateMutability": "view",
      "type": "function"
    },
    {
      "inputs": [],
      "name": "DELEGATE_REWARD_PERCENT",
      "outputs": [
        {
          "internalType": "uint256",
          "name": "",
          "type": "uint256"
        }
      ],
      "stateMutability": "view",
      "type": "function"
    },
    {
      "inputs": [],
      "name": "DELEGATION_CAP_PERCENT",
      "outputs": [
        {
          "internalType": "uint256",
          "name": "",
          "type": "uint256"
        }
      ],
      "stateMutability": "view",
      "type": "function"
    },
    {
      "inputs": [],
      "name": "MAX_PROPOSAL_RESOLUTION_TIME",
      "outputs": [
        {
          "internalType": "uint256",
          "name": "",
          "type": "uint256"
        }
      ],
      "stateMutability": "view",
      "type": "function"
    },
    {
      "inputs": [],
      "name": "MIN_LOCK_PERIOD",
      "outputs": [
        {
          "internalType": "uint256",
          "name": "",
          "type": "uint256"
        }
      ],
      "stateMutability": "view",
      "type": "function"
    },
    {
      "inputs": [],
      "name": "REWARD_PRECISION",
      "outputs": [
        {
          "internalType": "uint256",
          "name": "",
          "type": "uint256"
        }
      ],
      "stateMutability": "view",
      "type": "function"
    },
    {
      "inputs": [
        {
          "internalType": "uint256",
          "name": "proposalId",
          "type": "uint256"
        }
      ],
      "name": "activeProposals",
      "outputs": [
        {
          "internalType": "bool",
          "name": "isActive",
          "type": "bool"
        }
      ],
      "stateMutability": "view",
      "type": "function"
    },
    {
      "inputs": [
        {
          "internalType": "uint256",
          "name": "",
          "type": "uint256"
        }
      ],
      "name": "allVotes",
      "outputs": [
        {
          "internalType": "uint8",
          "name": "direction",
          "type": "uint8"
        },
        {
          "internalType": "uint256",
          "name": "blockNumber",
          "type": "uint256"
        },
        {
          "internalType": "bytes32",
          "name": "txHash",
          "type": "bytes32"
        },
        {
          "internalType": "uint256",
          "name": "timestamp",
          "type": "uint256"
        },
        {
          "internalType": "uint256",
          "name": "votingPower",
          "type": "uint256"
        },
        {
          "internalType": "string",
          "name": "reason",
          "type": "string"
        }
      ],
      "stateMutability": "view",
      "type": "function"
    },
    {
      "inputs": [
        {
          "internalType": "address",
          "name": "owner",
          "type": "address"
        },
        {
          "internalType": "address",
          "name": "spender",
          "type": "address"
        }
      ],
      "name": "allowance",
      "outputs": [
        {
          "internalType": "uint256",
          "name": "",
          "type": "uint256"
        }
      ],
      "stateMutability": "view",
      "type": "function"
    },
    {
      "inputs": [
        {
          "internalType": "address",
          "name": "spender",
          "type": "address"
        },
        {
          "internalType": "uint256",
          "name": "value",
          "type": "uint256"
        }
      ],
      "name": "approve",
      "outputs": [
        {
          "internalType": "bool",
          "name": "",
          "type": "bool"
        }
      ],
      "stateMutability": "nonpayable",
      "type": "function"
    },
    {
      "inputs": [],
      "name": "availableRewards",
      "outputs": [
        {
          "internalType": "uint256",
          "name": "",
          "type": "uint256"
        }
      ],
      "stateMutability": "view",
      "type": "function"
    },
    {
      "inputs": [
        {
          "internalType": "address",
          "name": "account",
          "type": "address"
        }
      ],
      "name": "balanceOf",
      "outputs": [
        {
          "internalType": "uint256",
          "name": "",
          "type": "uint256"
        }
      ],
      "stateMutability": "view",
      "type": "function"
    },
    {
      "inputs": [],
      "name": "blocksPerDay",
      "outputs": [
        {
          "internalType": "uint256",
          "name": "",
          "type": "uint256"
        }
      ],
      "stateMutability": "view",
      "type": "function"
    },
    {
      "inputs": [
        {
          "internalType": "uint256",
          "name": "proposalId",
          "type": "uint256"
        },
        {
          "internalType": "uint8",
          "name": "support",
          "type": "uint8"
        },
        {
          "internalType": "string",
          "name": "reason",
          "type": "string"
        }
      ],
      "name": "castVote",
      "outputs": [],
      "stateMutability": "nonpayable",
      "type": "function"
    },
    {
      "inputs": [
        {
          "internalType": "uint256",
          "name": "proposalId",
          "type": "uint256"
        },
        {
          "internalType": "uint8",
          "name": "support",
          "type": "uint8"
        }
      ],
      "name": "castVote",
      "outputs": [],
      "stateMutability": "nonpayable",
      "type": "function"
    },
    {
      "inputs": [],
      "name": "claimRewards",
      "outputs": [],
      "stateMutability": "nonpayable",
      "type": "function"
    },
    {
      "inputs": [
        {
          "internalType": "uint256",
          "name": "proposalId",
          "type": "uint256"
        }
      ],
      "name": "contractVoteDirection",
      "outputs": [
        {
          "internalType": "uint8",
          "name": "direction",
          "type": "uint8"
        }
      ],
      "stateMutability": "view",
      "type": "function"
    },
    {
      "inputs": [
        {
          "internalType": "uint256",
          "name": "proposalId",
          "type": "uint256"
        }
      ],
      "name": "contractVoted",
      "outputs": [
        {
          "internalType": "bool",
          "name": "hasVoted",
          "type": "bool"
        }
      ],
      "stateMutability": "view",
      "type": "function"
    },
    {
      "inputs": [],
      "name": "decimals",
      "outputs": [
        {
          "internalType": "uint8",
          "name": "",
          "type": "uint8"
        }
      ],
      "stateMutability": "view",
      "type": "function"
    },
    {
      "inputs": [],
      "name": "delegateInfo",
      "outputs": [
        {
          "internalType": "uint256",
          "name": "successfulVotes",
          "type": "uint256"
        },
        {
          "internalType": "uint256",
          "name": "totalVotes",
          "type": "uint256"
        },
        {
          "internalType": "uint256",
          "name": "totalRewardsEarned",
          "type": "uint256"
        },
        {
          "internalType": "uint256",
          "name": "totalVotingPowerUsed",
          "type": "uint256"
        },
        {
          "internalType": "uint256",
          "name": "averageVotingPowerPerVote",
          "type": "uint256"
        }
      ],
      "stateMutability": "view",
      "type": "function"
    },
    {
      "inputs": [],
      "name": "delegationCap",
      "outputs": [
        {
          "internalType": "uint256",
          "name": "",
          "type": "uint256"
        }
      ],
      "stateMutability": "view",
      "type": "function"
    },
    {
      "inputs": [],
      "name": "getContractVotingPower",
      "outputs": [
        {
          "internalType": "uint256",
          "name": "",
          "type": "uint256"
        }
      ],
      "stateMutability": "view",
      "type": "function"
    },
    {
      "inputs": [
        {
          "internalType": "uint256",
          "name": "blockNumber",
          "type": "uint256"
        }
      ],
      "name": "getContractVotingPowerAt",
      "outputs": [
        {
          "internalType": "uint256",
          "name": "",
          "type": "uint256"
        }
      ],
      "stateMutability": "view",
      "type": "function"
    },
    {
      "inputs": [
        {
          "internalType": "address",
          "name": "delegator",
          "type": "address"
        }
      ],
      "name": "getPendingRewards",
      "outputs": [
        {
          "internalType": "uint256",
          "name": "",
          "type": "uint256"
        }
      ],
      "stateMutability": "view",
      "type": "function"
    },
    {
      "inputs": [
        {
          "internalType": "uint256",
          "name": "proposalId",
          "type": "uint256"
        },
        {
          "internalType": "address",
          "name": "delegator",
          "type": "address"
        }
      ],
      "name": "getProposalStake",
      "outputs": [
        {
          "internalType": "uint256",
          "name": "forStake",
          "type": "uint256"
        },
        {
          "internalType": "uint256",
          "name": "againstStake",
          "type": "uint256"
        }
      ],
      "stateMutability": "view",
      "type": "function"
    },
    {
      "inputs": [],
      "name": "getTotalVotesCast",
      "outputs": [
        {
          "internalType": "uint256",
          "name": "",
          "type": "uint256"
        }
      ],
      "stateMutability": "view",
      "type": "function"
    },
    {
      "inputs": [
        {
          "internalType": "uint256",
          "name": "voteIndex",
          "type": "uint256"
        }
      ],
      "name": "getVoteByIndex",
      "outputs": [
        {
          "internalType": "uint8",
          "name": "direction",
          "type": "uint8"
        },
        {
          "internalType": "uint256",
          "name": "blockNumber",
          "type": "uint256"
        },
        {
          "internalType": "bytes32",
          "name": "txHash",
          "type": "bytes32"
        },
        {
          "internalType": "uint256",
          "name": "timestamp",
          "type": "uint256"
        },
        {
          "internalType": "uint256",
          "name": "votingPower",
          "type": "uint256"
        },
        {
          "internalType": "string",
          "name": "reason",
          "type": "string"
        }
      ],
      "stateMutability": "view",
      "type": "function"
    },
    {
      "inputs": [
        {
          "internalType": "uint256",
          "name": "proposalId",
          "type": "uint256"
        }
      ],
      "name": "getVoteInfo",
      "outputs": [
        {
          "internalType": "uint8",
          "name": "direction",
          "type": "uint8"
        },
        {
          "internalType": "uint256",
          "name": "blockNumber",
          "type": "uint256"
        },
        {
          "internalType": "bytes32",
          "name": "txHash",
          "type": "bytes32"
        },
        {
          "internalType": "uint256",
          "name": "timestamp",
          "type": "uint256"
        },
        {
          "internalType": "uint256",
          "name": "votingPower",
          "type": "uint256"
        },
        {
          "internalType": "string",
          "name": "reason",
          "type": "string"
        }
      ],
      "stateMutability": "view",
      "type": "function"
    },
    {
      "inputs": [],
      "name": "lastRewarded",
      "outputs": [
        {
          "internalType": "uint256",
          "name": "",
          "type": "uint256"
        }
      ],
      "stateMutability": "view",
      "type": "function"
    },
    {
      "inputs": [],
      "name": "latestProposalId",
      "outputs": [
        {
          "internalType": "uint256",
          "name": "",
          "type": "uint256"
        }
      ],
      "stateMutability": "view",
      "type": "function"
    },
    {
      "inputs": [],
      "name": "name",
      "outputs": [
        {
          "internalType": "string",
          "name": "",
          "type": "string"
        }
      ],
      "stateMutability": "view",
      "type": "function"
    },
    {
      "inputs": [],
      "name": "owner",
      "outputs": [
        {
          "internalType": "address",
          "name": "",
          "type": "address"
        }
      ],
      "stateMutability": "view",
      "type": "function"
    },
    {
      "inputs": [
        {
          "internalType": "uint256",
          "name": "amount",
          "type": "uint256"
        }
      ],
      "name": "ownerDeposit",
      "outputs": [],
      "stateMutability": "nonpayable",
      "type": "function"
    },
    {
      "inputs": [
        {
          "internalType": "uint256",
          "name": "amount",
          "type": "uint256"
        }
      ],
      "name": "ownerWithdraw",
      "outputs": [],
      "stateMutability": "nonpayable",
      "type": "function"
    },
    {
      "inputs": [
        {
          "internalType": "uint256",
          "name": "proposalId",
          "type": "uint256"
        }
      ],
      "name": "pendingProposals",
      "outputs": [
        {
          "internalType": "bool",
          "name": "isPending",
          "type": "bool"
        }
      ],
      "stateMutability": "view",
      "type": "function"
    },
    {
      "inputs": [
        {
          "internalType": "uint256",
          "name": "proposalId",
          "type": "uint256"
        }
      ],
      "name": "proposalCreationTime",
      "outputs": [
        {
          "internalType": "uint256",
          "name": "timestamp",
          "type": "uint256"
        }
      ],
      "stateMutability": "view",
      "type": "function"
    },
    {
      "inputs": [
        {
          "internalType": "uint256",
          "name": "proposalId",
          "type": "uint256"
        }
      ],
      "name": "proposalOutcomes",
      "outputs": [
        {
          "internalType": "enum Compensator.ProposalOutcome",
          "name": "outcome",
          "type": "uint8"
        }
      ],
      "stateMutability": "view",
      "type": "function"
    },
    {
      "inputs": [
        {
          "internalType": "uint256",
          "name": "proposalId",
          "type": "uint256"
        },
        {
          "internalType": "address",
          "name": "delegator",
          "type": "address"
        }
      ],
      "name": "proposalStakes",
      "outputs": [
        {
          "internalType": "uint128",
          "name": "forStake",
          "type": "uint128"
        },
        {
          "internalType": "uint128",
          "name": "againstStake",
          "type": "uint128"
        }
      ],
      "stateMutability": "view",
      "type": "function"
    },
    {
      "inputs": [
        {
          "internalType": "uint256",
          "name": "proposalId",
          "type": "uint256"
        }
      ],
      "name": "reclaimStake",
      "outputs": [],
      "stateMutability": "nonpayable",
      "type": "function"
    },
    {
      "inputs": [],
      "name": "renounceOwnership",
      "outputs": [],
      "stateMutability": "nonpayable",
      "type": "function"
    },
    {
      "inputs": [
        {
          "internalType": "uint256",
          "name": "proposalId",
          "type": "uint256"
        }
      ],
      "name": "resolveProposal",
      "outputs": [],
      "stateMutability": "nonpayable",
      "type": "function"
    },
    {
      "inputs": [],
      "name": "rewardIndex",
      "outputs": [
        {
          "internalType": "uint256",
          "name": "",
          "type": "uint256"
        }
      ],
      "stateMutability": "view",
      "type": "function"
    },
    {
      "inputs": [],
      "name": "rewardRate",
      "outputs": [
        {
          "internalType": "uint256",
          "name": "",
          "type": "uint256"
        }
      ],
      "stateMutability": "view",
      "type": "function"
    },
    {
      "inputs": [],
      "name": "rewardsUntil",
      "outputs": [
        {
          "internalType": "uint256",
          "name": "",
          "type": "uint256"
        }
      ],
      "stateMutability": "view",
      "type": "function"
    },
    {
      "inputs": [
        {
          "internalType": "uint256",
          "name": "_blocksPerDay",
          "type": "uint256"
        }
      ],
      "name": "setBlocksPerDay",
      "outputs": [],
      "stateMutability": "nonpayable",
      "type": "function"
    },
    {
      "inputs": [
        {
          "internalType": "uint256",
          "name": "newRate",
          "type": "uint256"
        }
      ],
      "name": "setRewardRate",
      "outputs": [],
      "stateMutability": "nonpayable",
      "type": "function"
    },
    {
      "inputs": [
        {
          "internalType": "uint256",
          "name": "proposalId",
          "type": "uint256"
        },
        {
          "internalType": "uint8",
          "name": "support",
          "type": "uint8"
        },
        {
          "internalType": "uint256",
          "name": "amount",
          "type": "uint256"
        }
      ],
      "name": "stakeForProposal",
      "outputs": [],
      "stateMutability": "nonpayable",
      "type": "function"
    },
    {
      "inputs": [
        {
          "internalType": "address",
          "name": "delegator",
          "type": "address"
        }
      ],
      "name": "startRewardIndex",
      "outputs": [
        {
          "internalType": "uint256",
          "name": "index",
          "type": "uint256"
        }
      ],
      "stateMutability": "view",
      "type": "function"
    },
    {
      "inputs": [],
      "name": "symbol",
      "outputs": [
        {
          "internalType": "string",
          "name": "",
          "type": "string"
        }
      ],
      "stateMutability": "view",
      "type": "function"
    },
    {
      "inputs": [],
      "name": "totalDelegatedCOMP",
      "outputs": [
        {
          "internalType": "uint256",
          "name": "",
          "type": "uint256"
        }
      ],
      "stateMutability": "view",
      "type": "function"
    },
    {
      "inputs": [],
      "name": "totalPendingRewards",
      "outputs": [
        {
          "internalType": "uint256",
          "name": "",
          "type": "uint256"
        }
      ],
      "stateMutability": "view",
      "type": "function"
    },
    {
      "inputs": [
        {
          "internalType": "uint256",
          "name": "proposalId",
          "type": "uint256"
        }
      ],
      "name": "totalStakesAgainst",
      "outputs": [
        {
          "internalType": "uint256",
          "name": "amount",
          "type": "uint256"
        }
      ],
      "stateMutability": "view",
      "type": "function"
    },
    {
      "inputs": [
        {
          "internalType": "uint256",
          "name": "proposalId",
          "type": "uint256"
        }
      ],
      "name": "totalStakesFor",
      "outputs": [
        {
          "internalType": "uint256",
          "name": "amount",
          "type": "uint256"
        }
      ],
      "stateMutability": "view",
      "type": "function"
    },
    {
      "inputs": [],
      "name": "totalSupply",
      "outputs": [
        {
          "internalType": "uint256",
          "name": "",
          "type": "uint256"
        }
      ],
      "stateMutability": "view",
      "type": "function"
    },
    {
      "inputs": [
        {
          "internalType": "address",
          "name": "to",
          "type": "address"
        },
        {
          "internalType": "uint256",
          "name": "value",
          "type": "uint256"
        }
      ],
      "name": "transfer",
      "outputs": [
        {
          "internalType": "bool",
          "name": "",
          "type": "bool"
        }
      ],
      "stateMutability": "nonpayable",
      "type": "function"
    },
    {
      "inputs": [
        {
          "internalType": "address",
          "name": "from",
          "type": "address"
        },
        {
          "internalType": "address",
          "name": "to",
          "type": "address"
        },
        {
          "internalType": "uint256",
          "name": "value",
          "type": "uint256"
        }
      ],
      "name": "transferFrom",
      "outputs": [
        {
          "internalType": "bool",
          "name": "",
          "type": "bool"
        }
      ],
      "stateMutability": "nonpayable",
      "type": "function"
    },
    {
      "inputs": [
        {
          "internalType": "address",
          "name": "newOwner",
          "type": "address"
        }
      ],
      "name": "transferOwnership",
      "outputs": [],
      "stateMutability": "nonpayable",
      "type": "function"
    },
    {
      "inputs": [
        {
          "internalType": "address",
          "name": "delegator",
          "type": "address"
        }
      ],
      "name": "unclaimedRewards",
      "outputs": [
        {
          "internalType": "uint256",
          "name": "amount",
          "type": "uint256"
        }
      ],
      "stateMutability": "view",
      "type": "function"
    },
    {
      "inputs": [
        {
          "internalType": "address",
          "name": "delegator",
          "type": "address"
        }
      ],
      "name": "unlockTime",
      "outputs": [
        {
          "internalType": "uint256",
          "name": "timestamp",
          "type": "uint256"
        }
      ],
      "stateMutability": "view",
      "type": "function"
    },
    {
      "inputs": [
        {
          "internalType": "uint256",
          "name": "amount",
          "type": "uint256"
        }
      ],
      "name": "userDeposit",
      "outputs": [],
      "stateMutability": "nonpayable",
      "type": "function"
    },
    {
      "inputs": [
        {
          "internalType": "uint256",
          "name": "amount",
          "type": "uint256"
        }
      ],
      "name": "userWithdraw",
      "outputs": [],
      "stateMutability": "nonpayable",
      "type": "function"
    },
    {
      "inputs": [],
      "name": "voteCount",
      "outputs": [
        {
          "internalType": "uint256",
          "name": "",
          "type": "uint256"
        }
      ],
      "stateMutability": "view",
      "type": "function"
    },
    {
      "inputs": [
        {
          "internalType": "uint256",
          "name": "proposalId",
          "type": "uint256"
        }
      ],
      "name": "voteInfo",
      "outputs": [
        {
          "internalType": "uint8",
          "name": "direction",
          "type": "uint8"
        },
        {
          "internalType": "uint256",
          "name": "blockNumber",
          "type": "uint256"
        },
        {
          "internalType": "bytes32",
          "name": "txHash",
          "type": "bytes32"
        },
        {
          "internalType": "uint256",
          "name": "timestamp",
          "type": "uint256"
        },
        {
          "internalType": "uint256",
          "name": "votingPower",
          "type": "uint256"
        },
        {
          "internalType": "string",
          "name": "reason",
          "type": "string"
        }
      ],
      "stateMutability": "view",
      "type": "function"
    }
  ],
  "bytecode": "0x60c0604052611964601b553480156200001757600080fd5b5060405162004f8438038062004f848339810160408190526200003a9162000405565b806040518060400160405280600b81526020016a21b7b6b832b739b0ba37b960a91b8152506040518060400160405280600b81526020016a21a7a6a822a729a0aa27a960a91b8152508160039081620000949190620004f4565b506004620000a38282620004f4565b50506001600555506001600160a01b038116620000db57604051631e4fbdf760e01b8152600060048201526024015b60405180910390fd5b620000e68162000396565b506001600160a01b0383166200013f5760405162461bcd60e51b815260206004820152601a60248201527f496e76616c696420434f4d5020746f6b656e20616464726573730000000000006044820152606401620000d2565b6001600160a01b038216620001a15760405162461bcd60e51b815260206004820152602160248201527f496e76616c696420436f6d706f756e6420476f7665726e6f72206164647265736044820152607360f81b6064820152608401620000d2565b6001600160a01b038116620001f95760405162461bcd60e51b815260206004820152601560248201527f496e76616c6964206f776e6572206164647265737300000000000000000000006044820152606401620000d2565b6001600160a01b03808416608081905290831660a052670de0b6b3a7640000600955604080516318160ddd60e01b81529051600092916318160ddd9160048083019260209291908290030181865afa1580156200025a573d6000803e3d6000fd5b505050506040513d601f19601f82011682018060405250810190620002809190620005c0565b905060008111620002d45760405162461bcd60e51b815260206004820152601960248201527f496e76616c696420434f4d5020746f74616c20737570706c79000000000000006044820152606401620000d2565b600c54612710620002e86101f484620005da565b620002f4919062000606565b600c819055620003475760405162461bcd60e51b815260206004820152601860248201527f44656c65676174696f6e2063617020746f6f20736d616c6c00000000000000006044820152606401620000d2565b600c5460408051838152602081019290925281018390527fc72f87e837aeb21e01377ca632cdae4e68649b7216568ff0a62e4cbdcee740089060600160405180910390a1505050505062000629565b600680546001600160a01b038381166001600160a01b0319831681179093556040519116919082907f8be0079c531659141344cd1fd0a4f28419497f9722a3daafe3b4186f6b6457e090600090a35050565b80516001600160a01b03811681146200040057600080fd5b919050565b6000806000606084860312156200041b57600080fd5b6200042684620003e8565b92506200043660208501620003e8565b91506200044660408501620003e8565b90509250925092565b634e487b7160e01b600052604160045260246000fd5b600181811c908216806200047a57607f821691505b6020821081036200049b57634e487b7160e01b600052602260045260246000fd5b50919050565b601f821115620004ef57600081815260208120601f850160051c81016020861015620004ca5750805b601f850160051c820191505b81811015620004eb57828155600101620004d6565b5050505b505050565b81516001600160401b038111156200051057620005106200044f565b620005288162000521845462000465565b84620004a1565b602080601f831160018114620005605760008415620005475750858301515b600019600386901b1c1916600185901b178555620004eb565b600085815260208120601f198616915b82811015620005915788860151825594840194600190910190840162000570565b5085821015620005b05787850151600019600388901b60f8161c191681555b5050505050600190811b01905550565b600060208284031215620005d357600080fd5b5051919050565b80820281158282048414176200060057634e487b7160e01b600052601160045260246000fd5b92915050565b6000826200062457634e487b7160e01b600052601260045260246000fd5b500490565b60805160a0516148786200070c6000396000818161075401528181610af701528181611c1e015281816130700152818161317b01528181613283015281816134de015281816136b1015281816139130152613a8901526000818161046d01528181610d5501528181610e6801528181610f950152818161104a015281816112b60152818161155b015281816117360152818161180b01528181611a1401528181611e7001528181612205015281816125f1015281816128e0015281816129630152818161321101528181613bb601528181613d710152613e3901526148786000f3fe608060405234801561001057600080fd5b50600436106103da5760003560e01c806385c6ccca1161020a578063be8363cd11610125578063e1f1c4a7116100b8578063ed6b780d11610087578063ed6b780d146109b9578063f2fde38b146109c1578063f6ed2017146109d4578063f868e766146109e7578063fe86e057146109fa57600080fd5b8063e1f1c4a71461097b578063e40824f814610984578063e9ee2fa9146109a7578063ec1371f2146109b057600080fd5b8063dafad631116100f4578063dafad63114610906578063dd62ed3e14610926578063de63f4321461095f578063e1ac18e01461097257600080fd5b8063be8363cd146108e2578063c6384071146108ec578063d133a00e146108f5578063d74e7a3a146108fe57600080fd5b8063949813b81161019d578063a9059cbb1161016c578063a9059cbb1461085c578063a9c0310d1461086f578063baf983721461089f578063bdd3e805146108bf57600080fd5b8063949813b81461080157806395d89b41146108215780639e447fc614610829578063a7926ada1461083c57600080fd5b80638d824273116101d95780638d824273146107765780638da5cb5b146107895780638ea15be61461079a57806392e2c6d2146107f957600080fd5b806385c6ccca146106f1578063879d9090146107045780638aba33821461070d5780638ad4bba21461074f57600080fd5b80633b9056bf116102fa5780636a61cf611161028d57806379fcfef11161025c57806379fcfef1146106b15780637b0a47ee146106ba5780637f0edf33146106c35780638494ff35146106cc57600080fd5b80636a61cf611461063d57806370a0823114610660578063715018a61461068957806376b467b71461069157600080fd5b80634cfea68a116102c95780634cfea68a1461059a578063558a2dcc146105a357806356781388146106175780635d95750e1461062a57600080fd5b80633b9056bf1461055c5780633d6aa5e11461056f57806343c79ad01461057e578063470b76221461058757600080fd5b806323b872dd11610372578063353b6c2c11610341578063353b6c2c14610524578063372500ab14610537578063385dc3df1461053f57806339d2a1991461054957600080fd5b806323b872dd146104c257806327be553b146104d5578063313ce5671461050a57806333f707d11461051157600080fd5b8063095ea7b3116103ae578063095ea7b31461044557806310d4108314610468578063141833dc146104a757806318160ddd146104ba57600080fd5b806262804e146103df5780630549f067146103f4578063057e16801461041057806306fdde0314610430575b600080fd5b6103f26103ed3660046141dd565b610a0d565b005b6103fd6101f481565b6040519081526020015b60405180910390f35b6103fd61041e3660046141dd565b60146020526000908152604090205481565b610438611166565b604051610407919061423c565b61045861045336600461426b565b6111f8565b6040519015158152602001610407565b61048f7f000000000000000000000000000000000000000000000000000000000000000081565b6040516001600160a01b039091168152602001610407565b6103f26104b53660046141dd565b611212565b6002546103fd565b6104586104d0366004614295565b6113bd565b6104f86104e33660046141dd565b601a6020526000908152604090205460ff1681565b60405160ff9091168152602001610407565b60126104f8565b6103f261051f3660046141dd565b6113e3565b6103f26105323660046141dd565b611627565b6103f261168a565b6103fd62093a8081565b6103fd6105573660046141dd565b6117f3565b6103f261056a3660046141dd565b61187e565b6103fd670de0b6b3a764000081565b6103fd600c5481565b6103f26105953660046142f8565b611ac8565b6103fd601b5481565b6106026105b13660046143c3565b60009182526012602090815260408084206001600160a01b03939093168452918152918190208151808301909252546001600160801b03808216808452600160801b90920416919092018190529091565b60408051928352602083019190915201610407565b6103f26106253660046143ef565b611aea565b6103f2610638366004614412565b611b1a565b61045861064b3660046141dd565b60186020526000908152604090205460ff1681565b6103fd61066e366004614437565b6001600160a01b031660009081526020819052604090205490565b6103f2611f36565b6103fd61069f366004614437565b60156020526000908152604090205481565b6103fd600b5481565b6103fd60085481565b6103fd60165481565b6106df6106da3660046141dd565b611f48565b60405161040796959493929190614452565b6103f26106ff3660046141dd565b61200d565b6103fd60075481565b601f54602054602154602254602354610727949392919085565b604080519586526020860194909452928401919091526060830152608082015260a001610407565b61048f7f000000000000000000000000000000000000000000000000000000000000000081565b6106df6107843660046141dd565b6122b8565b6006546001600160a01b031661048f565b6107d96107a83660046143c3565b60126020908152600092835260408084209091529082529020546001600160801b0380821691600160801b90041682565b604080516001600160801b03938416815292909116602083015201610407565b601e546103fd565b6103fd61080f366004614437565b600f6020526000908152604090205481565b6104386123ec565b6103f26108373660046141dd565b6123fb565b6103fd61084a366004614437565b600e6020526000908152604090205481565b61045861086a36600461426b565b612516565b61089261087d3660046141dd565b60106020526000908152604090205460ff1681565b60405161040791906144a8565b6103fd6108ad3660046141dd565b60136020526000908152604090205481565b6104586108cd3660046141dd565b60196020526000908152604090205460ff1681565b6103fd62278d0081565b6103fd601e5481565b6103fd600a5481565b6103fd612524565b6103fd6109143660046141dd565b60116020526000908152604090205481565b6103fd6109343660046144c2565b6001600160a01b03918216600090815260016020908152604080832093909416825291909152205490565b6106df61096d3660046141dd565b612597565b6103fd6107d081565b6103fd61271081565b6104586109923660046141dd565b60176020526000908152604090205460ff1681565b6103fd60095481565b6103fd600d5481565b6103fd6125d9565b6103f26109cf366004614437565b612669565b6103fd6109e2366004614437565b6126a4565b6103f26109f53660046141dd565b612745565b6106df610a083660046141dd565b612a07565b610a15612ac3565b60008181526010602052604081205460ff166002811115610a3857610a38614492565b14610a865760405162461bcd60e51b8152602060048201526019602482015278141c9bdc1bdcd85b08185b1c9958591e481c995cdbdb1d9959603a1b60448201526064015b60405180910390fd5b600081815260116020526040902054610ae15760405162461bcd60e51b815260206004820152601760248201527f50726f706f73616c20646f6573206e6f742065786973740000000000000000006044820152606401610a7d565b604051631f27a4f360e11b8152600481018290527f00000000000000000000000000000000000000000000000000000000000000006001600160a01b031690633e4f49e690602401602060405180830381865afa925050508015610b62575060408051601f3d908101601f19168201909252610b5f918101906144ec565b60015b610ba45760405162461bcd60e51b8152602060048201526013602482015272125b9d985b1a59081c1c9bdc1bdcd85b081251606a1b6044820152606401610a7d565b6004816007811115610bb857610bb8614492565b1480610bd557506003816007811115610bd357610bd3614492565b145b80610bf157506006816007811115610bef57610bef614492565b145b80610c0d57506002816007811115610c0b57610c0b614492565b145b80610c2957506007816007811115610c2757610c27614492565b145b610c755760405162461bcd60e51b815260206004820152601960248201527f50726f706f73616c206e6f7420796574207265736f6c766564000000000000006044820152606401610a7d565b60006004826007811115610c8b57610c8b614492565b1480610ca857506007826007811115610ca657610ca6614492565b145b15610cb557506001610cb9565b5060005b8060ff16600114610ccb576001610cce565b60025b6000848152601060205260409020805460ff19166001836002811115610cf657610cf6614492565b021790555060008381526019602052604081205460ff168015610d2c57506000848152601a602052604090205460ff8381169116145b90508015610f5a578160ff16600103610e525760008481526013602052604090205415610e4d577f00000000000000000000000000000000000000000000000000000000000000006001600160a01b031663a9059cbb610d946006546001600160a01b031690565b600087815260136020526040908190205490516001600160e01b031960e085901b168152610dc692919060040161450d565b6020604051808303816000875af1158015610de5573d6000803e3d6000fd5b505050506040513d601f19601f82011682018060405250810190610e099190614526565b506001601f6000016000828254610e20919061455e565b90915550506000848152601360205260408120546021805491929091610e4790849061455e565b90915550505b6110c4565b60008481526014602052604090205415610e4d577f00000000000000000000000000000000000000000000000000000000000000006001600160a01b031663a9059cbb610ea76006546001600160a01b031690565b600087815260146020526040908190205490516001600160e01b031960e085901b168152610ed992919060040161450d565b6020604051808303816000875af1158015610ef8573d6000803e3d6000fd5b505050506040513d601f19601f82011682018060405250810190610f1c9190614526565b506001601f6000016000828254610f33919061455e565b90915550506000848152601460205260408120546021805491929091610e4790849061455e565b6000848152601360205260409020541561100f576000848152601360205260409081902054905163a9059cbb60e01b81526001600160a01b037f0000000000000000000000000000000000000000000000000000000000000000169163a9059cbb91610fca91309160040161450d565b6020604051808303816000875af1158015610fe9573d6000803e3d6000fd5b505050506040513d601f19601f8201168201806040525081019061100d9190614526565b505b600084815260146020526040902054156110c4576000848152601460205260409081902054905163a9059cbb60e01b81526001600160a01b037f0000000000000000000000000000000000000000000000000000000000000000169163a9059cbb9161107f91309160040161450d565b6020604051808303816000875af115801561109e573d6000803e3d6000fd5b505050506040513d601f19601f820116820180604052508101906110c29190614526565b505b6001601f60010160008282546110da919061455e565b9091555050601f5460208054602154604080519485529284019190915282820152517f355935019d4bea1e3d4292ae0d5bb626009619ceed2e19671b61aa405fc788939181900360600190a160405160ff83169085907f42af0d2d7b5985c66a12ed8634edd91f277c4254189c9de953eff76546526e2090600090a35050506111636001600555565b50565b60606003805461117590614571565b80601f01602080910402602001604051908101604052809291908181526020018280546111a190614571565b80156111ee5780601f106111c3576101008083540402835291602001916111ee565b820191906000526020600020905b8154815290600101906020018083116111d157829003601f168201915b5050505050905090565b600033611206818585612aed565b60019150505b92915050565b61121a612ac3565b6006546001600160a01b0316331461126d5760405162461bcd60e51b815260206004820152601660248201527513db9b1e481bdddb995c8818d85b8819195c1bdcda5d60521b6044820152606401610a7d565b6000811161128d5760405162461bcd60e51b8152600401610a7d906145ab565b611295612afa565b80600760008282546112a7919061455e565b90915550506001600160a01b037f0000000000000000000000000000000000000000000000000000000000000000166323b872dd6112ed6006546001600160a01b031690565b6040516001600160e01b031960e084901b1681526001600160a01b039091166004820152306024820152604481018490526064016020604051808303816000875af1158015611340573d6000803e3d6000fd5b505050506040513d601f19601f820116820180604052508101906113649190614526565b506006546001600160a01b03166001600160a01b03167fc286f3b83e4f244dafdd6f12a30c1792eb5c99ba0ee6cb1181aaf6eac30286e8826040516113ab91815260200190565b60405180910390a26111636001600555565b6000336113cb858285612c88565b6113d6858585612d07565b60019150505b9392505050565b6113eb612ac3565b6006546001600160a01b031633146114455760405162461bcd60e51b815260206004820152601760248201527f4f6e6c79206f776e65722063616e2077697468647261770000000000000000006044820152606401610a7d565b600081116114655760405162461bcd60e51b8152600401610a7d906145ab565b600754600d54600061147f6006546001600160a01b031690565b9050600061148d83856145e2565b9050808511156114df5760405162461bcd60e51b815260206004820181905260248201527f416d6f756e74206578636565647320617661696c61626c6520726577617264736044820152606401610a7d565b6114e7612afa565b848410156115375760405162461bcd60e51b815260206004820152601e60248201527f496e73756666696369656e7420617661696c61626c65207265776172647300006044820152606401610a7d565b61154185856145e2565b60075560405163a9059cbb60e01b81526001600160a01b037f0000000000000000000000000000000000000000000000000000000000000000169063a9059cbb90611592908590899060040161450d565b6020604051808303816000875af11580156115b1573d6000803e3d6000fd5b505050506040513d601f19601f820116820180604052508101906115d59190614526565b50816001600160a01b03167f13c461eb29f5d65800bbef5a5b05a06ea13b8b2ef4b889ee170f149bc1c8f8bd8660405161161191815260200190565b60405180910390a2505050506111636001600555565b61162f612d66565b600081118015611640575061c35081105b6116855760405162461bcd60e51b8152602060048201526016602482015275496e76616c696420626c6f636b73207065722064617960501b6044820152606401610a7d565b601b55565b611692612ac3565b61169a612afa565b6116a333612d93565b336000908152600f6020526040902054806116f65760405162461bcd60e51b81526020600482015260136024820152724e6f207265776172647320746f20636c61696d60681b6044820152606401610a7d565b336000908152600f60205260408120819055600d805483929061171a9084906145e2565b909155505060405163a9059cbb60e01b81526001600160a01b037f0000000000000000000000000000000000000000000000000000000000000000169063a9059cbb9061176d903390859060040161450d565b6020604051808303816000875af115801561178c573d6000803e3d6000fd5b505050506040513d601f19601f820116820180604052508101906117b09190614526565b5060405181815233907f1f89f96333d3133000ee447473151fa9606543368f02271c9d95ae14f13bcc679060200160405180910390a2506117f16001600555565b565b60405163b4b5ea5760e01b81523060048201526000907f00000000000000000000000000000000000000000000000000000000000000006001600160a01b03169063b4b5ea5790602401602060405180830381865afa15801561185a573d6000803e3d6000fd5b505050506040513d601f19601f8201168201806040525081019061120c91906145f5565b611886612ac3565b600081116118a65760405162461bcd60e51b8152600401610a7d906145ab565b336000908152601560205260409020544210156118f65760405162461bcd60e51b815260206004820152600e60248201526d10d3d354081a5cc81b1bd8dad95960921b6044820152606401610a7d565b6118fe612e7f565b156119665760405162461bcd60e51b815260206004820152603260248201527f43616e6e6f7420776974686472617720647572696e6720616374697665206f726044820152712070656e64696e672070726f706f73616c7360701b6064820152608401610a7d565b336000908152602081905260409020548111156119bc5760405162461bcd60e51b8152602060048201526014602482015273496e73756666696369656e742062616c616e636560601b6044820152606401610a7d565b6119c4612afa565b6119cd33612d93565b6119d73382612f1c565b80600b60008282546119e991906145e2565b9091555050600954336000818152600e60205260409081902092909255905163a9059cbb60e01b81527f00000000000000000000000000000000000000000000000000000000000000006001600160a01b03169163a9059cbb91611a529190859060040161450d565b6020604051808303816000875af1158015611a71573d6000803e3d6000fd5b505050506040513d601f19601f82011682018060405250810190611a959190614526565b5060405181815233907f98824d89d47225910d3e61aa38b640d29d58b43e2dc47b4d986a588c88e0a2a8906020016113ab565b611ad0612ac3565b611adb838383612f52565b611ae56001600555565b505050565b611af2612ac3565b611b0c828260405180602001604052806000815250612f52565b611b166001600555565b5050565b611b22612ac3565b60ff82161580611b3557508160ff166001145b611b795760405162461bcd60e51b8152602060048201526015602482015274496e76616c696420737570706f72742076616c756560581b6044820152606401610a7d565b60008111611b995760405162461bcd60e51b8152600401610a7d906145ab565b60008381526010602052604081205460ff166002811115611bbc57611bbc614492565b14611c055760405162461bcd60e51b8152602060048201526019602482015278141c9bdc1bdcd85b08185b1c9958591e481c995cdbdb1d9959603a1b6044820152606401610a7d565b604051631f27a4f360e11b8152600481018490526000907f00000000000000000000000000000000000000000000000000000000000000006001600160a01b031690633e4f49e690602401602060405180830381865afa158015611c6d573d6000803e3d6000fd5b505050506040513d601f19601f82011682018060405250810190611c9191906144ec565b90506001816007811115611ca757611ca7614492565b14611d065760405162461bcd60e51b815260206004820152602960248201527f5374616b696e67206f6e6c7920616c6c6f77656420666f72206163746976652060448201526870726f706f73616c7360b81b6064820152608401610a7d565b611d0f84613660565b6000848152601160205260408120549003611d365760008481526011602052604090204290555b8260ff16600103611dc557600084815260126020908152604080832033845290915281208054849290611d739084906001600160801b031661460e565b92506101000a8154816001600160801b0302191690836001600160801b0316021790555081601360008681526020019081526020016000206000828254611dba919061455e565b90915550611e4e9050565b600084815260126020908152604080832033845290915290208054839190601090611e01908490600160801b90046001600160801b031661460e565b92506101000a8154816001600160801b0302191690836001600160801b0316021790555081601460008681526020019081526020016000206000828254611e48919061455e565b90915550505b6040516323b872dd60e01b8152336004820152306024820152604481018390527f00000000000000000000000000000000000000000000000000000000000000006001600160a01b0316906323b872dd906064016020604051808303816000875af1158015611ec1573d6000803e3d6000fd5b505050506040513d601f19601f82011682018060405250810190611ee59190614526565b506040805185815260ff8516602082015290810183905233907fffdf8f2eae7f0d227669096500eec70780fb16cae4c11b9d49e542b483e5f48c9060600160405180910390a250611ae56001600555565b611f3e612d66565b6117f16000613a1e565b601c6020526000908152604090208054600182015460028301546003840154600485015460058601805460ff90961696949593949293919291611f8a90614571565b80601f0160208091040260200160405190810160405280929190818152602001828054611fb690614571565b80156120035780601f10611fd857610100808354040283529160200191612003565b820191906000526020600020905b815481529060010190602001808311611fe657829003601f168201915b5050505050905086565b612015612ac3565b60008181526010602052604081205460ff16600281111561203857612038614492565b148015612060575060008181526011602052604090205461205d9062278d009061455e565b42115b1561206e5761206e81613a70565b60008181526010602052604081205460ff169081600281111561209357612093614492565b036120e05760405162461bcd60e51b815260206004820152601960248201527f50726f706f73616c206e6f74207265736f6c76656420796574000000000000006044820152606401610a7d565b6000828152601260209081526040808320338452909152812090600283600281111561210e5761210e614492565b1490506000811561215f575081546001600160801b03808216845560008681526014602052604081208054600160801b90940490921692839291906121549084906145e2565b909155506121a89050565b5081546fffffffffffffffffffffffffffffffff1981168355600085815260136020526040812080546001600160801b03909316928392906121a29084906145e2565b90915550505b600081116121ee5760405162461bcd60e51b81526020600482015260136024820152724e6f207374616b6520746f207265636c61696d60681b6044820152606401610a7d565b60405163a9059cbb60e01b81526001600160a01b037f0000000000000000000000000000000000000000000000000000000000000000169063a9059cbb9061223c903390859060040161450d565b6020604051808303816000875af115801561225b573d6000803e3d6000fd5b505050506040513d601f19601f8201168201806040525081019061227f9190614526565b50604080518681526020810183905233917f81323285f798ccfb1659756dd71bc5f0e27619e40f243ccf85ace3da6608336f9101611611565b600080600080600060606000601c60008981526020019081526020016000206040518060c00160405290816000820160009054906101000a900460ff1660ff1660ff1681526020016001820154815260200160028201548152602001600382015481526020016004820154815260200160058201805461233790614571565b80601f016020809104026020016040519081016040528092919081815260200182805461236390614571565b80156123b05780601f10612385576101008083540402835291602001916123b0565b820191906000526020600020905b81548152906001019060200180831161239357829003601f168201915b5050509190925250508151602083015160408401516060850151608086015160a090960151939e929d50909b5099509297509550909350505050565b60606004805461117590614571565b612403612ac3565b6006546001600160a01b0316331461245d5760405162461bcd60e51b815260206004820152601e60248201527f4f6e6c79206f776e65722063616e2073657420726577617264207261746500006044820152606401610a7d565b60085481036124c35760405162461bcd60e51b815260206004820152602c60248201527f4e65772072617465206d75737420626520646966666572656e742066726f6d2060448201526b63757272656e74207261746560a01b6064820152608401610a7d565b6124cb612afa565b60088190556006546001600160a01b03166001600160a01b03167fb3986383b0fc50bee9161915d3b51288bb862a90998c77d4f67033fc57837c00826040516113ab91815260200190565b600033611206818585612d07565b60006008546000036125375750600a5490565b6000600d546007541161254b57600061255b565b600d5460075461255b91906145e2565b90506000600854670de0b6b3a7640000836125769190614635565b612580919061464c565b905080600a54612590919061455e565b9250505090565b601d6020526000908152604090208054600182015460028301546003840154600485015460058601805460ff90961696949593949293919291611f8a90614571565b60405163b4b5ea5760e01b81523060048201526000907f00000000000000000000000000000000000000000000000000000000000000006001600160a01b03169063b4b5ea5790602401602060405180830381865afa158015612640573d6000803e3d6000fd5b505050506040513d601f19601f8201168201806040525081019061266491906145f5565b905090565b612671612d66565b6001600160a01b03811661269b57604051631e4fbdf760e01b815260006004820152602401610a7d565b61116381613a1e565b6001600160a01b0381166000908152600f6020908152604080832054918390528220541561120c5760006126d6613ef0565b6001600160a01b0385166000908152600e6020526040902054909150670de0b6b3a76400009061270690836145e2565b6001600160a01b0386166000908152602081905260409020546127299190614635565b612733919061464c565b61273d908361455e565b949350505050565b61274d612ac3565b6000811161276d5760405162461bcd60e51b8152600401610a7d906145ab565b600c5481600b5461277e919061455e565b11156127cc5760405162461bcd60e51b815260206004820152601760248201527f44656c65676174696f6e206361702065786365656465640000000000000000006044820152606401610a7d565b6127d4612afa565b6127dd33612d93565b60006127ec62093a804261455e565b90506127f6612e7f565b156128185761280862093a804261455e565b612815906203f48061455e565b90505b3360009081526015602052604090205481111561287c573360008181526015602052604090819020839055517f308c23d85188a2d929b33a8748fdc757b93d1e422046a4237967a2d17d4eca93906128739084815260200190565b60405180910390a25b6128863383613fa8565b81600b6000828254612898919061455e565b9091555050600954336000818152600e6020526040908190209290925590516323b872dd60e01b81526004810191909152306024820152604481018390526001600160a01b037f000000000000000000000000000000000000000000000000000000000000000016906323b872dd906064016020604051808303816000875af1158015612929573d6000803e3d6000fd5b505050506040513d601f19601f8201168201806040525081019061294d9190614526565b506040516317066a5760e21b81523060048201527f00000000000000000000000000000000000000000000000000000000000000006001600160a01b031690635c19a95c90602401600060405180830381600087803b1580156129af57600080fd5b505af11580156129c3573d6000803e3d6000fd5b50506040518481523392507f35db3d768e685509e031bae369804ca7dc6656af739e079f1d3312cadc7b19d8915060200160405180910390a2506111636001600555565b60008060008060006060601e548710612a625760405162461bcd60e51b815260206004820152601860248201527f566f746520696e646578206f7574206f6620626f756e647300000000000000006044820152606401610a7d565b6000878152601d60209081526040808320815160c081018352815460ff168152600182015493810193909352600281015491830191909152600381015460608301526004810154608083015260058101805460a08401919061233790614571565b600260055403612ae657604051633ee5aeb560e01b815260040160405180910390fd5b6002600555565b611ae58383836001613fde565b6000612b0560025490565b600854600754600d54600954600a549495509293919290916000869003612b3257505042600a5550505050565b6000612b3e82426145e2565b90506000612b4c8783614635565b9050848611612b9c5742600a5560408051858152600060208201527fe59e5a83a27f440a8e234a0a6e659a7f1cc16a6d0e37aa05a24f2c407521ea0e910160405180910390a15050505050505050565b6000612ba886886145e2565b905080821115612bb6578091505b600089612bcb670de0b6b3a764000085614635565b612bd5919061464c565b90506000612be3828861455e565b90506000612bf1858a61455e565b6009839055600d81905542600a5560408051848152602081018890529192507fe59e5a83a27f440a8e234a0a6e659a7f1cc16a6d0e37aa05a24f2c407521ea0e910160405180910390a16040805186815260208101849052428183015290517f6ae8ee960d83517f7fa993ad7a0e16e33d9655a23ff41eefc62bdb289c7a8e5f9181900360600190a1505050505050505050505050565b6001600160a01b03838116600090815260016020908152604080832093861683529290522054600019811015612d015781811015612cf257604051637dc7a0d960e11b81526001600160a01b03841660048201526024810182905260448101839052606401610a7d565b612d0184848484036000613fde565b50505050565b6001600160a01b038316612d3157604051634b637e8f60e11b815260006004820152602401610a7d565b6001600160a01b038216612d5b5760405163ec442f0560e01b815260006004820152602401610a7d565b611ae58383836140b3565b6006546001600160a01b031633146117f15760405163118cdaa760e01b8152336004820152602401610a7d565b6001600160a01b03811660009081526020818152604080832054600954600e9093529220548215612d01576000670de0b6b3a7640000612dd383856145e2565b612ddd9086614635565b612de7919061464c565b90508015612e78576001600160a01b0385166000908152600f602052604081208054839290612e1790849061455e565b90915550506001600160a01b0385166000818152600e60209081526040808320879055600f825291829020548251858152918201527f5b9aaf4cc5141c090a75f8b8a627863eba92df81f0c83c096350da9b79aedd04910160405180910390a25b5050505050565b60165460009081600a8211612e95576000612ea0565b612ea0600a836145e2565b905060005a9050825b82811115612f115761c3505a612ebf90846145e2565b11612f115760008181526017602052604090205460ff1680612eef575060008181526018602052604090205460ff165b15612eff57600194505050505090565b80612f098161466e565b915050612ea9565b506000935050505090565b6001600160a01b038216612f4657604051634b637e8f60e11b815260006004820152602401610a7d565b611b16826000836140b3565b6006546001600160a01b03163314612fac5760405162461bcd60e51b815260206004820152601960248201527f4f6e6c79206f776e65722063616e206361737420766f746573000000000000006044820152606401610a7d565b60018260ff161115612ff85760405162461bcd60e51b8152602060048201526015602482015274496e76616c696420737570706f72742076616c756560581b6044820152606401610a7d565b60008381526019602052604090205460ff16156130575760405162461bcd60e51b815260206004820152601e60248201527f416c726561647920766f746564206f6e20746869732070726f706f73616c00006044820152606401610a7d565b604051631f27a4f360e11b8152600481018490526000907f00000000000000000000000000000000000000000000000000000000000000006001600160a01b031690633e4f49e690602401602060405180830381865afa1580156130bf573d6000803e3d6000fd5b505050506040513d601f19601f820116820180604052508101906130e391906144ec565b905060018160078111156130f9576130f9614492565b14806131165750600081600781111561311457613114614492565b145b6131625760405162461bcd60e51b815260206004820152601d60248201527f50726f706f73616c206e6f7420696e20766f74696e6720706572696f640000006044820152606401610a7d565b604051632d63f69360e01b8152600481018590526000907f00000000000000000000000000000000000000000000000000000000000000006001600160a01b031690632d63f69390602401602060405180830381865afa1580156131ca573d6000803e3d6000fd5b505050506040513d601f19601f820116820180604052508101906131ee91906145f5565b60405163b4b5ea5760e01b81523060048201529091506000906001600160a01b037f0000000000000000000000000000000000000000000000000000000000000000169063b4b5ea5790602401602060405180830381865afa158015613258573d6000803e3d6000fd5b505050506040513d601f19601f8201168201806040525081019061327c91906145f5565b90506000807f00000000000000000000000000000000000000000000000000000000000000006001600160a01b031663544ffc9c896040518263ffffffff1660e01b81526004016132cf91815260200190565b606060405180830381865afa1580156132ec573d6000803e3d6000fd5b505050506040513d601f19601f820116820180604052508101906133109190614685565b50915091506001601960008a815260200190815260200160002060006101000a81548160ff02191690831515021790555086601a60008a815260200190815260200160002060006101000a81548160ff021916908360ff16021790555060006040518060c001604052808960ff1681526020014381526020016000801b815260200142815260200185815260200188815250905080601c60008b815260200190815260200160002060008201518160000160006101000a81548160ff021916908360ff1602179055506020820151816001015560408201518160020155606082015181600301556080820151816004015560a08201518160050190816134169190614701565b5050601e546000908152601d60209081526040918290208451815460ff191660ff909116178155908401516001820155908301516002820155606083015160038201556080830151600482015560a0830151839250600582019061347a9082614701565b5050601e80549150600061348d836147c1565b919050555083601f60030160008282546134a7919061455e565b9091555050601e546022546134bc919061464c565b602355604051630acf027160e31b8152600481018a905260ff891660248201527f00000000000000000000000000000000000000000000000000000000000000006001600160a01b031690635678138890604401600060405180830381600087803b15801561352a57600080fd5b505af115801561353e573d6000803e3d6000fd5b5050505060014361354f91906145e2565b60008a8152601c6020526040812091406002909201829055601e54601d919061357a906001906145e2565b815260200190815260200160002060020181905550887f7e93fc3c3724f0d8fd590530618bf27708290ad2461c84e4944894ab0131a8ae8943601c60008e8152602001908152602001600020600201546040516135ef9392919060ff9390931683526020830191909152604082015260600190565b60405180910390a286511561365557887fe1e5d0e9cd2d2ae081aedf8a8de8b57b91b1ed3bcc7962c21f13b93670f936478943601c60008e815260200190815260200160002060020154888c60405161364c9594939291906147da565b60405180910390a25b505050505050505050565b60165481111561369b57601681905560405181907f738245544e121def2724a4bc087112610a7a03c8518881b71cbd922d850eaf0990600090a25b604051631f27a4f360e11b8152600481018290527f00000000000000000000000000000000000000000000000000000000000000006001600160a01b031690633e4f49e690602401602060405180830381865afa92505050801561371c575060408051601f3d908101601f19168201909252613719918101906144ec565b60015b61378d5760008181526017602052604090205460ff161561377557600081815260176020526040808220805460ff191690555182917faae1ed8b74416b955e14c0b0b71467355257ba6d0a08c9b6f39d8479f6f3d35491a25b6000908152601860205260409020805460ff19169055565b600060018260078111156137a3576137a3614492565b14806137c0575060008260078111156137be576137be614492565b145b90508080156137de575060008381526017602052604090205460ff16155b1561386357600083815260176020526040808220805460ff191660011790555184917f371f68adf986bef1a3b7917c0747454c6a25610192c30a1009ccc33dc90f342391a2827f6147c657c509b611c5b884671c7cb0da0e1eed364b561e0e9d48789b79421525600084604051613856929190614827565b60405180910390a26138fd565b8015801561387f575060008381526017602052604090205460ff165b156138fd57600083815260176020526040808220805460ff191690555184917faae1ed8b74416b955e14c0b0b71467355257ba6d0a08c9b6f39d8479f6f3d35491a2827f6147c657c509b611c5b884671c7cb0da0e1eed364b561e0e9d48789b794215256001846040516138f4929190614827565b60405180910390a25b604051632d63f69360e01b8152600481018490527f00000000000000000000000000000000000000000000000000000000000000006001600160a01b031690632d63f69390602401602060405180830381865afa92505050801561397e575060408051601f3d908101601f1916820190925261397b918101906145f5565b60015b61399d576000838152601860205260409020805460ff191690556139f4565b4380821180156139b75750601b546139b582846145e2565b105b156139da576000858152601860205260409020805460ff191660011790556139f1565b6000858152601860205260409020805460ff191690555b50505b6000838152601160205260408120549003611ae55750506000908152601160205260409020429055565b600680546001600160a01b038381166001600160a01b0319831681179093556040519116919082907f8be0079c531659141344cd1fd0a4f28419497f9722a3daafe3b4186f6b6457e090600090a35050565b604051631f27a4f360e11b8152600481018290526000907f00000000000000000000000000000000000000000000000000000000000000006001600160a01b031690633e4f49e690602401602060405180830381865afa158015613ad8573d6000803e3d6000fd5b505050506040513d601f19601f82011682018060405250810190613afc91906144ec565b90506001816007811115613b1257613b12614492565b1480613b2f57506000816007811115613b2d57613b2d614492565b145b15613c6a576000828152601060209081526040808320805460ff19166001179055601990915290205460ff168015613b7657506000828152601a602052604090205460ff16155b15613c305760008281526014602052604090205415613c30576000828152601460205260409081902054905163a9059cbb60e01b81526001600160a01b037f0000000000000000000000000000000000000000000000000000000000000000169163a9059cbb91613beb91309160040161450d565b6020604051808303816000875af1158015613c0a573d6000803e3d6000fd5b505050506040513d601f19601f82011682018060405250810190613c2e9190614526565b505b6040516000815282907fb8bd1c2bf2afdfdad72adf1c6a383ef5b20d65e6041c69adb823396d343f76d69060200160405180910390a25050565b60006004826007811115613c8057613c80614492565b1480613c9d57506007826007811115613c9b57613c9b614492565b145b613ca8576000613cab565b60015b90508060ff16600114613cbf576001613cc2565b60025b6000848152601060205260409020805460ff19166001836002811115613cea57613cea614492565b021790555060008381526019602052604090205460ff168015613d2057506000838152601a602052604090205460ff8281169116145b15613eb3578060ff166001148015613d45575060008381526013602052604090205415155b15613def576000838152601360205260409081902054905163a9059cbb60e01b81526001600160a01b037f0000000000000000000000000000000000000000000000000000000000000000169163a9059cbb91613da691309160040161450d565b6020604051808303816000875af1158015613dc5573d6000803e3d6000fd5b505050506040513d601f19601f82011682018060405250810190613de99190614526565b50613eb3565b60ff8116158015613e0d575060008381526014602052604090205415155b15613eb3576000838152601460205260409081902054905163a9059cbb60e01b81526001600160a01b037f0000000000000000000000000000000000000000000000000000000000000000169163a9059cbb91613e6e91309160040161450d565b6020604051808303816000875af1158015613e8d573d6000803e3d6000fd5b505050506040513d601f19601f82011682018060405250810190613eb19190614526565b505b60405160ff8216815283907fb8bd1c2bf2afdfdad72adf1c6a383ef5b20d65e6041c69adb823396d343f76d69060200160405180910390a2505050565b600754600d54600954600854600093929190828411613f1157509392505050565b6000600a5442613f2191906145e2565b90506000613f2f8383614635565b90506000613f3c60025490565b90506000613f4a87896145e2565b90506000818411613f5b5783613f5d565b815b90508215613f9a5782613f78670de0b6b3a764000083614635565b613f82919061464c565b613f8c908861455e565b995050505050505050505090565b509498975050505050505050565b6001600160a01b038216613fd25760405163ec442f0560e01b815260006004820152602401610a7d565b611b16600083836140b3565b6001600160a01b0384166140085760405163e602df0560e01b815260006004820152602401610a7d565b6001600160a01b03831661403257604051634a1406b160e11b815260006004820152602401610a7d565b6001600160a01b0380851660009081526001602090815260408083209387168352929052208290558015612d0157826001600160a01b0316846001600160a01b03167f8c5be1e5ebec7d5bd14f71427d1e84f3dd0314c0f7b2291e5b200ac8c7c3b925846040516140a591815260200190565b60405180910390a350505050565b6001600160a01b0383166140de5780600260008282546140d3919061455e565b909155506141509050565b6001600160a01b038316600090815260208190526040902054818110156141315760405163391434e360e21b81526001600160a01b03851660048201526024810182905260448101839052606401610a7d565b6001600160a01b03841660009081526020819052604090209082900390555b6001600160a01b03821661416c5760028054829003905561418b565b6001600160a01b03821660009081526020819052604090208054820190555b816001600160a01b0316836001600160a01b03167fddf252ad1be2c89b69c2b068fc378daa952ba7f163c4a11628f55a4df523b3ef836040516141d091815260200190565b60405180910390a3505050565b6000602082840312156141ef57600080fd5b5035919050565b6000815180845260005b8181101561421c57602081850181015186830182015201614200565b506000602082860101526020601f19601f83011685010191505092915050565b6020815260006113dc60208301846141f6565b80356001600160a01b038116811461426657600080fd5b919050565b6000806040838503121561427e57600080fd5b6142878361424f565b946020939093013593505050565b6000806000606084860312156142aa57600080fd5b6142b38461424f565b92506142c16020850161424f565b9150604084013590509250925092565b803560ff8116811461426657600080fd5b634e487b7160e01b600052604160045260246000fd5b60008060006060848603121561430d57600080fd5b8335925061431d602085016142d1565b9150604084013567ffffffffffffffff8082111561433a57600080fd5b818601915086601f83011261434e57600080fd5b813581811115614360576143606142e2565b604051601f8201601f19908116603f01168101908382118183101715614388576143886142e2565b816040528281528960208487010111156143a157600080fd5b8260208601602083013760006020848301015280955050505050509250925092565b600080604083850312156143d657600080fd5b823591506143e66020840161424f565b90509250929050565b6000806040838503121561440257600080fd5b823591506143e6602084016142d1565b60008060006060848603121561442757600080fd5b833592506142c1602085016142d1565b60006020828403121561444957600080fd5b6113dc8261424f565b60ff8716815285602082015284604082015283606082015282608082015260c060a0820152600061448660c08301846141f6565b98975050505050505050565b634e487b7160e01b600052602160045260246000fd5b60208101600383106144bc576144bc614492565b91905290565b600080604083850312156144d557600080fd5b6144de8361424f565b91506143e66020840161424f565b6000602082840312156144fe57600080fd5b8151600881106113dc57600080fd5b6001600160a01b03929092168252602082015260400190565b60006020828403121561453857600080fd5b815180151581146113dc57600080fd5b634e487b7160e01b600052601160045260246000fd5b8082018082111561120c5761120c614548565b600181811c9082168061458557607f821691505b6020821081036145a557634e487b7160e01b600052602260045260246000fd5b50919050565b6020808252601d908201527f416d6f756e74206d7573742062652067726561746572207468616e2030000000604082015260600190565b8181038181111561120c5761120c614548565b60006020828403121561460757600080fd5b5051919050565b6001600160801b0381811683821601908082111561462e5761462e614548565b5092915050565b808202811582820484141761120c5761120c614548565b60008261466957634e487b7160e01b600052601260045260246000fd5b500490565b60008161467d5761467d614548565b506000190190565b60008060006060848603121561469a57600080fd5b8351925060208401519150604084015190509250925092565b601f821115611ae557600081815260208120601f850160051c810160208610156146da5750805b601f850160051c820191505b818110156146f9578281556001016146e6565b505050505050565b815167ffffffffffffffff81111561471b5761471b6142e2565b61472f816147298454614571565b846146b3565b602080601f831160018114614764576000841561474c5750858301515b600019600386901b1c1916600185901b1785556146f9565b600085815260208120601f198616915b8281101561479357888601518255948401946001909101908401614774565b50858210156147b15787850151600019600388901b60f8161c191681555b5050505050600190811b01905550565b6000600182016147d3576147d3614548565b5060010190565b60ff8616815284602082015283604082015282606082015260a06080820152600061480860a08301846141f6565b979650505050505050565b6008811061482357614823614492565b9052565b604081016148358285614813565b6113dc602083018461481356fea264697066735822122043c75cd183ee1f18738cfcd2d463702933501f13568b8ad881c11bcbc34c6b3364736f6c63430008150033",
  "linkReferences": {},
  "deployedLinkReferences": {}
}