{
  "_format": "hh-sol-artifact-1",
  "contractName": "Compensator",
  "sourceName": "contracts/Compensator.sol",
  "abi": [
    {
      "inputs": [],
      "stateMutability": "nonpayable",
      "type": "constructor"
    },
    {
      "inputs": [
        {
          "internalType": "address",
          "name": "spender",
          "type": "address"
        },
        {
          "internalType": "uint256",
          "name": "allowance",
          "type": "uint256"
        },
        {
          "internalType": "uint256",
          "name": "needed",
          "type": "uint256"
        }
      ],
      "name": "ERC20InsufficientAllowance",
      "type": "error"
    },
    {
      "inputs": [
        {
          "internalType": "address",
          "name": "sender",
          "type": "address"
        },
        {
          "internalType": "uint256",
          "name": "balance",
          "type": "uint256"
        },
        {
          "internalType": "uint256",
          "name": "needed",
          "type": "uint256"
        }
      ],
      "name": "ERC20InsufficientBalance",
      "type": "error"
    },
    {
      "inputs": [
        {
          "internalType": "address",
          "name": "approver",
          "type": "address"
        }
      ],
      "name": "ERC20InvalidApprover",
      "type": "error"
    },
    {
      "inputs": [
        {
          "internalType": "address",
          "name": "receiver",
          "type": "address"
        }
      ],
      "name": "ERC20InvalidReceiver",
      "type": "error"
    },
    {
      "inputs": [
        {
          "internalType": "address",
          "name": "sender",
          "type": "address"
        }
      ],
      "name": "ERC20InvalidSender",
      "type": "error"
    },
    {
      "inputs": [
        {
          "internalType": "address",
          "name": "spender",
          "type": "address"
        }
      ],
      "name": "ERC20InvalidSpender",
      "type": "error"
    },
    {
      "inputs": [],
      "name": "InvalidInitialization",
      "type": "error"
    },
    {
      "inputs": [],
      "name": "NotInitializing",
      "type": "error"
    },
    {
      "anonymous": false,
      "inputs": [
        {
          "indexed": true,
          "internalType": "address",
          "name": "owner",
          "type": "address"
        },
        {
          "indexed": true,
          "internalType": "address",
          "name": "spender",
          "type": "address"
        },
        {
          "indexed": false,
          "internalType": "uint256",
          "name": "value",
          "type": "uint256"
        }
      ],
      "name": "Approval",
      "type": "event"
    },
    {
      "anonymous": false,
      "inputs": [
        {
          "indexed": true,
          "internalType": "address",
          "name": "delegator",
          "type": "address"
        },
        {
          "indexed": false,
          "internalType": "uint256",
          "name": "amount",
          "type": "uint256"
        }
      ],
      "name": "ClaimRewards",
      "type": "event"
    },
    {
      "anonymous": false,
      "inputs": [
        {
          "indexed": true,
          "internalType": "address",
          "name": "delegate",
          "type": "address"
        },
        {
          "indexed": false,
          "internalType": "uint256",
          "name": "amount",
          "type": "uint256"
        }
      ],
      "name": "DelegateDeposit",
      "type": "event"
    },
    {
      "anonymous": false,
      "inputs": [
        {
          "indexed": true,
          "internalType": "address",
          "name": "delegate",
          "type": "address"
        },
        {
          "indexed": false,
          "internalType": "uint256",
          "name": "amount",
          "type": "uint256"
        }
      ],
      "name": "DelegateWithdraw",
      "type": "event"
    },
    {
      "anonymous": false,
      "inputs": [
        {
          "indexed": true,
          "internalType": "address",
          "name": "delegator",
          "type": "address"
        },
        {
          "indexed": false,
          "internalType": "uint256",
          "name": "amount",
          "type": "uint256"
        }
      ],
      "name": "DelegatorDeposit",
      "type": "event"
    },
    {
      "anonymous": false,
      "inputs": [
        {
          "indexed": true,
          "internalType": "address",
          "name": "delegator",
          "type": "address"
        },
        {
          "indexed": false,
          "internalType": "uint256",
          "name": "amount",
          "type": "uint256"
        }
      ],
      "name": "DelegatorWithdraw",
      "type": "event"
    },
    {
      "anonymous": false,
      "inputs": [
        {
          "indexed": false,
          "internalType": "uint64",
          "name": "version",
          "type": "uint64"
        }
      ],
      "name": "Initialized",
      "type": "event"
    },
    {
      "anonymous": false,
      "inputs": [
        {
          "indexed": true,
          "internalType": "address",
          "name": "delegator",
          "type": "address"
        },
        {
          "indexed": false,
          "internalType": "uint256",
          "name": "proposalId",
          "type": "uint256"
        },
        {
          "indexed": false,
          "internalType": "uint256",
          "name": "amount",
          "type": "uint256"
        }
      ],
      "name": "LosingStakeReclaimed",
      "type": "event"
    },
    {
      "anonymous": false,
      "inputs": [
        {
          "indexed": false,
          "internalType": "uint256",
          "name": "proposalId",
          "type": "uint256"
        },
        {
          "indexed": false,
          "internalType": "uint8",
          "name": "winningSupport",
          "type": "uint8"
        }
      ],
      "name": "ProposalStakeDistributed",
      "type": "event"
    },
    {
      "anonymous": false,
      "inputs": [
        {
          "indexed": true,
          "internalType": "address",
          "name": "staker",
          "type": "address"
        },
        {
          "indexed": false,
          "internalType": "uint256",
          "name": "proposalId",
          "type": "uint256"
        },
        {
          "indexed": false,
          "internalType": "uint8",
          "name": "support",
          "type": "uint8"
        },
        {
          "indexed": false,
          "internalType": "uint256",
          "name": "amount",
          "type": "uint256"
        }
      ],
      "name": "ProposalStaked",
      "type": "event"
    },
    {
      "anonymous": false,
      "inputs": [
        {
          "indexed": true,
          "internalType": "address",
          "name": "delegate",
          "type": "address"
        },
        {
          "indexed": false,
          "internalType": "uint256",
          "name": "newRate",
          "type": "uint256"
        }
      ],
      "name": "RewardRateUpdate",
      "type": "event"
    },
    {
      "anonymous": false,
      "inputs": [
        {
          "indexed": true,
          "internalType": "address",
          "name": "from",
          "type": "address"
        },
        {
          "indexed": true,
          "internalType": "address",
          "name": "to",
          "type": "address"
        },
        {
          "indexed": false,
          "internalType": "uint256",
          "name": "value",
          "type": "uint256"
        }
      ],
      "name": "Transfer",
      "type": "event"
    },
    {
      "inputs": [],
      "name": "DELEGATION_CAP_PERCENT",
      "outputs": [
        {
          "internalType": "uint256",
          "name": "",
          "type": "uint256"
        }
      ],
      "stateMutability": "view",
      "type": "function"
    },
    {
      "inputs": [
        {
          "internalType": "address",
          "name": "owner",
          "type": "address"
        },
        {
          "internalType": "address",
          "name": "spender",
          "type": "address"
        }
      ],
      "name": "allowance",
      "outputs": [
        {
          "internalType": "uint256",
          "name": "",
          "type": "uint256"
        }
      ],
      "stateMutability": "view",
      "type": "function"
    },
    {
      "inputs": [
        {
          "internalType": "address",
          "name": "spender",
          "type": "address"
        },
        {
          "internalType": "uint256",
          "name": "value",
          "type": "uint256"
        }
      ],
      "name": "approve",
      "outputs": [
        {
          "internalType": "bool",
          "name": "",
          "type": "bool"
        }
      ],
      "stateMutability": "nonpayable",
      "type": "function"
    },
    {
      "inputs": [],
      "name": "availableRewards",
      "outputs": [
        {
          "internalType": "uint256",
          "name": "",
          "type": "uint256"
        }
      ],
      "stateMutability": "view",
      "type": "function"
    },
    {
      "inputs": [
        {
          "internalType": "address",
          "name": "account",
          "type": "address"
        }
      ],
      "name": "balanceOf",
      "outputs": [
        {
          "internalType": "uint256",
          "name": "",
          "type": "uint256"
        }
      ],
      "stateMutability": "view",
      "type": "function"
    },
    {
      "inputs": [],
      "name": "claimRewards",
      "outputs": [],
      "stateMutability": "nonpayable",
      "type": "function"
    },
    {
      "inputs": [],
      "name": "compToken",
      "outputs": [
        {
          "internalType": "contract IComp",
          "name": "",
          "type": "address"
        }
      ],
      "stateMutability": "view",
      "type": "function"
    },
    {
      "inputs": [],
      "name": "decimals",
      "outputs": [
        {
          "internalType": "uint8",
          "name": "",
          "type": "uint8"
        }
      ],
      "stateMutability": "view",
      "type": "function"
    },
    {
      "inputs": [],
      "name": "delegate",
      "outputs": [
        {
          "internalType": "address",
          "name": "",
          "type": "address"
        }
      ],
      "stateMutability": "view",
      "type": "function"
    },
    {
      "inputs": [
        {
          "internalType": "uint256",
          "name": "amount",
          "type": "uint256"
        }
      ],
      "name": "delegateDeposit",
      "outputs": [],
      "stateMutability": "nonpayable",
      "type": "function"
    },
    {
      "inputs": [],
      "name": "delegateName",
      "outputs": [
        {
          "internalType": "string",
          "name": "",
          "type": "string"
        }
      ],
      "stateMutability": "view",
      "type": "function"
    },
    {
      "inputs": [
        {
          "internalType": "uint256",
          "name": "amount",
          "type": "uint256"
        }
      ],
      "name": "delegateWithdraw",
      "outputs": [],
      "stateMutability": "nonpayable",
      "type": "function"
    },
    {
      "inputs": [],
      "name": "delegationCap",
      "outputs": [
        {
          "internalType": "uint256",
          "name": "",
          "type": "uint256"
        }
      ],
      "stateMutability": "view",
      "type": "function"
    },
    {
      "inputs": [
        {
          "internalType": "uint256",
          "name": "amount",
          "type": "uint256"
        }
      ],
      "name": "delegatorDeposit",
      "outputs": [],
      "stateMutability": "nonpayable",
      "type": "function"
    },
    {
      "inputs": [
        {
          "internalType": "uint256",
          "name": "amount",
          "type": "uint256"
        }
      ],
      "name": "delegatorWithdraw",
      "outputs": [],
      "stateMutability": "nonpayable",
      "type": "function"
    },
    {
      "inputs": [
        {
          "internalType": "uint256",
          "name": "proposalId",
          "type": "uint256"
        },
        {
          "internalType": "uint8",
          "name": "winningSupport",
          "type": "uint8"
        }
      ],
      "name": "distributeStakes",
      "outputs": [],
      "stateMutability": "nonpayable",
      "type": "function"
    },
    {
      "inputs": [
        {
          "internalType": "address",
          "name": "delegator",
          "type": "address"
        }
      ],
      "name": "getPendingRewards",
      "outputs": [
        {
          "internalType": "uint256",
          "name": "",
          "type": "uint256"
        }
      ],
      "stateMutability": "view",
      "type": "function"
    },
    {
      "inputs": [],
      "name": "governorBravo",
      "outputs": [
        {
          "internalType": "contract IGovernorBravo",
          "name": "",
          "type": "address"
        }
      ],
      "stateMutability": "view",
      "type": "function"
    },
    {
      "inputs": [
        {
          "internalType": "address",
          "name": "_delegate",
          "type": "address"
        },
        {
          "internalType": "string",
          "name": "_delegateName",
          "type": "string"
        }
      ],
      "name": "initialize",
      "outputs": [],
      "stateMutability": "nonpayable",
      "type": "function"
    },
    {
      "inputs": [],
      "name": "lastRewarded",
      "outputs": [
        {
          "internalType": "uint256",
          "name": "",
          "type": "uint256"
        }
      ],
      "stateMutability": "view",
      "type": "function"
    },
    {
      "inputs": [],
      "name": "name",
      "outputs": [
        {
          "internalType": "string",
          "name": "",
          "type": "string"
        }
      ],
      "stateMutability": "view",
      "type": "function"
    },
    {
      "inputs": [
        {
          "internalType": "uint256",
          "name": "",
          "type": "uint256"
        }
      ],
      "name": "proposalOutcomes",
      "outputs": [
        {
          "internalType": "uint8",
          "name": "",
          "type": "uint8"
        }
      ],
      "stateMutability": "view",
      "type": "function"
    },
    {
      "inputs": [
        {
          "internalType": "uint256",
          "name": "",
          "type": "uint256"
        },
        {
          "internalType": "address",
          "name": "",
          "type": "address"
        }
      ],
      "name": "proposalStakes",
      "outputs": [
        {
          "internalType": "uint256",
          "name": "forStake",
          "type": "uint256"
        },
        {
          "internalType": "uint256",
          "name": "againstStake",
          "type": "uint256"
        }
      ],
      "stateMutability": "view",
      "type": "function"
    },
    {
      "inputs": [
        {
          "internalType": "uint256",
          "name": "proposalId",
          "type": "uint256"
        }
      ],
      "name": "reclaimLosingStake",
      "outputs": [],
      "stateMutability": "nonpayable",
      "type": "function"
    },
    {
      "inputs": [],
      "name": "rewardIndex",
      "outputs": [
        {
          "internalType": "uint256",
          "name": "",
          "type": "uint256"
        }
      ],
      "stateMutability": "view",
      "type": "function"
    },
    {
      "inputs": [],
      "name": "rewardRate",
      "outputs": [
        {
          "internalType": "uint256",
          "name": "",
          "type": "uint256"
        }
      ],
      "stateMutability": "view",
      "type": "function"
    },
    {
      "inputs": [],
      "name": "rewardsUntil",
      "outputs": [
        {
          "internalType": "uint256",
          "name": "",
          "type": "uint256"
        }
      ],
      "stateMutability": "view",
      "type": "function"
    },
    {
      "inputs": [
        {
          "internalType": "uint256",
          "name": "newRate",
          "type": "uint256"
        }
      ],
      "name": "setRewardRate",
      "outputs": [],
      "stateMutability": "nonpayable",
      "type": "function"
    },
    {
      "inputs": [
        {
          "internalType": "uint256",
          "name": "proposalId",
          "type": "uint256"
        },
        {
          "internalType": "uint8",
          "name": "support",
          "type": "uint8"
        },
        {
          "internalType": "uint256",
          "name": "amount",
          "type": "uint256"
        }
      ],
      "name": "stakeForProposal",
      "outputs": [],
      "stateMutability": "nonpayable",
      "type": "function"
    },
    {
      "inputs": [
        {
          "internalType": "address",
          "name": "",
          "type": "address"
        }
      ],
      "name": "startRewardIndex",
      "outputs": [
        {
          "internalType": "uint256",
          "name": "",
          "type": "uint256"
        }
      ],
      "stateMutability": "view",
      "type": "function"
    },
    {
      "inputs": [],
      "name": "symbol",
      "outputs": [
        {
          "internalType": "string",
          "name": "",
          "type": "string"
        }
      ],
      "stateMutability": "view",
      "type": "function"
    },
    {
      "inputs": [],
      "name": "totalDelegatedCOMP",
      "outputs": [
        {
          "internalType": "uint256",
          "name": "",
          "type": "uint256"
        }
      ],
      "stateMutability": "view",
      "type": "function"
    },
    {
      "inputs": [],
      "name": "totalPendingRewards",
      "outputs": [
        {
          "internalType": "uint256",
          "name": "",
          "type": "uint256"
        }
      ],
      "stateMutability": "view",
      "type": "function"
    },
    {
      "inputs": [
        {
          "internalType": "uint256",
          "name": "",
          "type": "uint256"
        }
      ],
      "name": "totalStakesAgainst",
      "outputs": [
        {
          "internalType": "uint256",
          "name": "",
          "type": "uint256"
        }
      ],
      "stateMutability": "view",
      "type": "function"
    },
    {
      "inputs": [
        {
          "internalType": "uint256",
          "name": "",
          "type": "uint256"
        }
      ],
      "name": "totalStakesFor",
      "outputs": [
        {
          "internalType": "uint256",
          "name": "",
          "type": "uint256"
        }
      ],
      "stateMutability": "view",
      "type": "function"
    },
    {
      "inputs": [],
      "name": "totalSupply",
      "outputs": [
        {
          "internalType": "uint256",
          "name": "",
          "type": "uint256"
        }
      ],
      "stateMutability": "view",
      "type": "function"
    },
    {
      "inputs": [
        {
          "internalType": "address",
          "name": "to",
          "type": "address"
        },
        {
          "internalType": "uint256",
          "name": "amount",
          "type": "uint256"
        }
      ],
      "name": "transfer",
      "outputs": [
        {
          "internalType": "bool",
          "name": "",
          "type": "bool"
        }
      ],
      "stateMutability": "nonpayable",
      "type": "function"
    },
    {
      "inputs": [
        {
          "internalType": "address",
          "name": "from",
          "type": "address"
        },
        {
          "internalType": "address",
          "name": "to",
          "type": "address"
        },
        {
          "internalType": "uint256",
          "name": "amount",
          "type": "uint256"
        }
      ],
      "name": "transferFrom",
      "outputs": [
        {
          "internalType": "bool",
          "name": "",
          "type": "bool"
        }
      ],
      "stateMutability": "nonpayable",
      "type": "function"
    }
  ],
  "bytecode": "0x60806040523480156200001157600080fd5b506040518060400160405280600b81526020017f436f6d70656e7361746f720000000000000000000000000000000000000000008152506040518060400160405280600b81526020017f434f4d50454e5341544f5200000000000000000000000000000000000000000081525081600390816200008f919062000324565b508060049081620000a1919062000324565b5050506200040b565b600081519050919050565b7f4e487b7100000000000000000000000000000000000000000000000000000000600052604160045260246000fd5b7f4e487b7100000000000000000000000000000000000000000000000000000000600052602260045260246000fd5b600060028204905060018216806200012c57607f821691505b602082108103620001425762000141620000e4565b5b50919050565b60008190508160005260206000209050919050565b60006020601f8301049050919050565b600082821b905092915050565b600060088302620001ac7fffffffffffffffffffffffffffffffffffffffffffffffffffffffffffffffff826200016d565b620001b886836200016d565b95508019841693508086168417925050509392505050565b6000819050919050565b6000819050919050565b600062000205620001ff620001f984620001d0565b620001da565b620001d0565b9050919050565b6000819050919050565b6200022183620001e4565b6200023962000230826200020c565b8484546200017a565b825550505050565b600090565b6200025062000241565b6200025d81848462000216565b505050565b5b8181101562000285576200027960008262000246565b60018101905062000263565b5050565b601f821115620002d4576200029e8162000148565b620002a9846200015d565b81016020851015620002b9578190505b620002d1620002c8856200015d565b83018262000262565b50505b505050565b600082821c905092915050565b6000620002f960001984600802620002d9565b1980831691505092915050565b6000620003148383620002e6565b9150826002028217905092915050565b6200032f82620000aa565b67ffffffffffffffff8111156200034b576200034a620000b5565b5b62000357825462000113565b6200036482828562000289565b600060209050601f8311600181146200039c576000841562000387578287015190505b62000393858262000306565b86555062000403565b601f198416620003ac8662000148565b60005b82811015620003d657848901518255600182019150602085019450602081019050620003af565b86831015620003f65784890151620003f2601f891682620002e6565b8355505b6001600288020188555050505b505050505050565b6140aa806200041b6000396000f3fe608060405234801561001057600080fd5b50600436106102325760003560e01c80637b0a47ee11610130578063baf98372116100b8578063dd62ed3e1161007c578063dd62ed3e14610694578063e9ee2fa9146106c4578063ec1371f2146106e2578063f399e22e14610700578063f6ed20171461071c57610232565b8063baf98372146105ee578063c89e43611461061e578063d133a00e1461063c578063d74e7a3a1461065a578063d79575a71461067857610232565b80639e447fc6116100ff5780639e447fc614610526578063a7926ada14610542578063a9059cbb14610572578063a9c0310d146105a2578063b3858a1a146105d257610232565b80637b0a47ee1461049b578063879d9090146104b95780638ea15be6146104d757806395d89b411461050857610232565b8063313ce567116101be5780635d95750e116101825780635d95750e146103f75780636605dfa7146104135780636e36d9cc1461043157806370a082311461044d57806379fcfef11461047d57610232565b8063313ce56714610379578063358f3ae114610397578063372500ab146103b357806343c79ad0146103bd5780634faf48b4146103db57610232565b806308a0df5e1161020557806308a0df5e146102bf578063095ea7b3146102dd57806318160ddd1461030d5780631ddf25e81461032b57806323b872dd1461034957610232565b806304f0c6af146102375780630549f06714610253578063057e16801461027157806306fdde03146102a1575b600080fd5b610251600480360381019061024c9190612ddd565b61074c565b005b61025b6109c0565b6040516102689190612e19565b60405180910390f35b61028b60048036038101906102869190612ddd565b6109c5565b6040516102989190612e19565b60405180910390f35b6102a96109dd565b6040516102b69190612ec4565b60405180910390f35b6102c7610a6f565b6040516102d49190612ec4565b60405180910390f35b6102f760048036038101906102f29190612f44565b610afd565b6040516103049190612f9f565b60405180910390f35b610315610b20565b6040516103229190612e19565b60405180910390f35b610333610b2a565b6040516103409190613019565b60405180910390f35b610363600480360381019061035e9190613034565b610b42565b6040516103709190612f9f565b60405180910390f35b610381610b7f565b60405161038e91906130a3565b60405180910390f35b6103b160048036038101906103ac91906130ea565b610b88565b005b6103bb610ee8565b005b6103c5610ef3565b6040516103d29190612e19565b60405180910390f35b6103f560048036038101906103f09190612ddd565b610ef9565b005b610411600480360381019061040c919061312a565b61104c565b005b61041b611468565b604051610428919061319e565b60405180910390f35b61044b60048036038101906104469190612ddd565b611480565b005b610467600480360381019061046291906131b9565b611706565b6040516104749190612e19565b60405180910390f35b61048561174e565b6040516104929190612e19565b60405180910390f35b6104a3611754565b6040516104b09190612e19565b60405180910390f35b6104c161175a565b6040516104ce9190612e19565b60405180910390f35b6104f160048036038101906104ec91906131e6565b611760565b6040516104ff929190613226565b60405180910390f35b610510611791565b60405161051d9190612ec4565b60405180910390f35b610540600480360381019061053b9190612ddd565b611823565b005b61055c600480360381019061055791906131b9565b611979565b6040516105699190612e19565b60405180910390f35b61058c60048036038101906105879190612f44565b611991565b6040516105999190612f9f565b60405180910390f35b6105bc60048036038101906105b79190612ddd565b6119ce565b6040516105c991906130a3565b60405180910390f35b6105ec60048036038101906105e79190612ddd565b6119ee565b005b61060860048036038101906106039190612ddd565b611cf5565b6040516106159190612e19565b60405180910390f35b610626611d0d565b604051610633919061325e565b60405180910390f35b610644611d33565b6040516106519190612e19565b60405180910390f35b610662611d39565b60405161066f9190612e19565b60405180910390f35b610692600480360381019061068d9190612ddd565b611d92565b005b6106ae60048036038101906106a99190613279565b611fb0565b6040516106bb9190612e19565b60405180910390f35b6106cc612037565b6040516106d99190612e19565b60405180910390f35b6106ea61203d565b6040516106f79190612e19565b60405180910390f35b61071a600480360381019061071591906133ee565b612043565b005b610736600480360381019061073191906131b9565b6123db565b6040516107439190612e19565b60405180910390f35b600560009054906101000a900473ffffffffffffffffffffffffffffffffffffffff1673ffffffffffffffffffffffffffffffffffffffff163373ffffffffffffffffffffffffffffffffffffffff16146107dc576040517f08c379a00000000000000000000000000000000000000000000000000000000081526004016107d390613496565b60405180910390fd5b6000811161081f576040517f08c379a000000000000000000000000000000000000000000000000000000000815260040161081690613502565b60405180910390fd5b6108276124e8565b6000600d546007546108399190613551565b90508082111561087e576040517f08c379a0000000000000000000000000000000000000000000000000000000008152600401610875906135d1565b60405180910390fd5b81600760008282546108909190613551565b9250508190555073c00e94cb662c3520282e6f5717214004a7f2688873ffffffffffffffffffffffffffffffffffffffff1663a9059cbb600560009054906101000a900473ffffffffffffffffffffffffffffffffffffffff16846040518363ffffffff1660e01b81526004016109089291906135f1565b6020604051808303816000875af1158015610927573d6000803e3d6000fd5b505050506040513d601f19601f8201168201806040525081019061094b9190613646565b50600560009054906101000a900473ffffffffffffffffffffffffffffffffffffffff1673ffffffffffffffffffffffffffffffffffffffff167f5ce905cb746e7790ecee337a21eaea4d86ae40810270cb4f234ac18b3473a726836040516109b49190612e19565b60405180910390a25050565b600581565b60126020528060005260406000206000915090505481565b6060600380546109ec906136a2565b80601f0160208091040260200160405190810160405280929190818152602001828054610a18906136a2565b8015610a655780601f10610a3a57610100808354040283529160200191610a65565b820191906000526020600020905b815481529060010190602001808311610a4857829003601f168201915b5050505050905090565b60068054610a7c906136a2565b80601f0160208091040260200160405190810160405280929190818152602001828054610aa8906136a2565b8015610af55780601f10610aca57610100808354040283529160200191610af5565b820191906000526020600020905b815481529060010190602001808311610ad857829003601f168201915b505050505081565b600080610b086125ea565b9050610b158185856125f2565b600191505092915050565b6000600254905090565b73309a862bbc1a00e45506cb8a802d1ff10004c8c081565b60006040517f08c379a0000000000000000000000000000000000000000000000000000000008152600401610b769061371f565b60405180910390fd5b60006012905090565b600560009054906101000a900473ffffffffffffffffffffffffffffffffffffffff1673ffffffffffffffffffffffffffffffffffffffff163373ffffffffffffffffffffffffffffffffffffffff1614610c18576040517f08c379a0000000000000000000000000000000000000000000000000000000008152600401610c0f90613496565b60405180910390fd5b60008160ff161480610c2d575060018160ff16145b610c6c576040517f08c379a0000000000000000000000000000000000000000000000000000000008152600401610c639061378b565b60405180910390fd5b6000600f600084815260200190815260200160002060009054906101000a900460ff1660ff1614610cd2576040517f08c379a0000000000000000000000000000000000000000000000000000000008152600401610cc9906137f7565b60405180910390fd5b600181610cdf9190613817565b600f600084815260200190815260200160002060006101000a81548160ff021916908360ff16021790555060018160ff1603610de25773c00e94cb662c3520282e6f5717214004a7f2688873ffffffffffffffffffffffffffffffffffffffff1663a9059cbb600560009054906101000a900473ffffffffffffffffffffffffffffffffffffffff1660116000868152602001908152602001600020546040518363ffffffff1660e01b8152600401610d999291906135f1565b6020604051808303816000875af1158015610db8573d6000803e3d6000fd5b505050506040513d601f19601f82011682018060405250810190610ddc9190613646565b50610eab565b73c00e94cb662c3520282e6f5717214004a7f2688873ffffffffffffffffffffffffffffffffffffffff1663a9059cbb600560009054906101000a900473ffffffffffffffffffffffffffffffffffffffff1660126000868152602001908152602001600020546040518363ffffffff1660e01b8152600401610e669291906135f1565b6020604051808303816000875af1158015610e85573d6000803e3d6000fd5b505050506040513d601f19601f82011682018060405250810190610ea99190613646565b505b7f42af0d2d7b5985c66a12ed8634edd91f277c4254189c9de953eff76546526e208282604051610edc92919061384c565b60405180910390a15050565b610ef133612604565b565b600c5481565b60008111610f3c576040517f08c379a0000000000000000000000000000000000000000000000000000000008152600401610f3390613502565b60405180910390fd5b610f4533612604565b610f4f33826127ae565b73c00e94cb662c3520282e6f5717214004a7f2688873ffffffffffffffffffffffffffffffffffffffff1663a9059cbb33836040518363ffffffff1660e01b8152600401610f9e9291906135f1565b6020604051808303816000875af1158015610fbd573d6000803e3d6000fd5b505050506040513d601f19601f82011682018060405250810190610fe19190613646565b5080600b6000828254610ff49190613551565b925050819055503373ffffffffffffffffffffffffffffffffffffffff167fe24a2035f9d54243d5fde22235cfb265a07ec1a520c6e4d589a240bdac123bf6826040516110419190612e19565b60405180910390a250565b60008260ff161480611061575060018260ff16145b6110a0576040517f08c379a00000000000000000000000000000000000000000000000000000000081526004016110979061378b565b60405180910390fd5b600081116110e3576040517f08c379a00000000000000000000000000000000000000000000000000000000081526004016110da90613502565b60405180910390fd5b6000600f600085815260200190815260200160002060009054906101000a900460ff1660ff1614611149576040517f08c379a0000000000000000000000000000000000000000000000000000000008152600401611140906137f7565b60405180910390fd5b600073309a862bbc1a00e45506cb8a802d1ff10004c8c073ffffffffffffffffffffffffffffffffffffffff16633e4f49e6856040518263ffffffff1660e01b81526004016111989190612e19565b602060405180830381865afa1580156111b5573d6000803e3d6000fd5b505050506040513d601f19601f820116820180604052508101906111d9919061389a565b9050600160078111156111ef576111ee6138c7565b5b816007811115611202576112016138c7565b5b14611242576040517f08c379a000000000000000000000000000000000000000000000000000000000815260040161123990613968565b60405180910390fd5b73c00e94cb662c3520282e6f5717214004a7f2688873ffffffffffffffffffffffffffffffffffffffff166323b872dd3330856040518463ffffffff1660e01b815260040161129393929190613988565b6020604051808303816000875af11580156112b2573d6000803e3d6000fd5b505050506040513d601f19601f820116820180604052508101906112d69190613646565b5060018360ff160361137b57816010600086815260200190815260200160002060003373ffffffffffffffffffffffffffffffffffffffff1673ffffffffffffffffffffffffffffffffffffffff168152602001908152602001600020600001600082825461134591906139bf565b925050819055508160116000868152602001908152602001600020600082825461136f91906139bf565b92505081905550611410565b816010600086815260200190815260200160002060003373ffffffffffffffffffffffffffffffffffffffff1673ffffffffffffffffffffffffffffffffffffffff16815260200190815260200160002060010160008282546113de91906139bf565b925050819055508160126000868152602001908152602001600020600082825461140891906139bf565b925050819055505b3373ffffffffffffffffffffffffffffffffffffffff167fffdf8f2eae7f0d227669096500eec70780fb16cae4c11b9d49e542b483e5f48c85858560405161145a939291906139f3565b60405180910390a250505050565b73c00e94cb662c3520282e6f5717214004a7f2688881565b6000600f600083815260200190815260200160002060009054906101000a900460ff16905060008160ff16036114eb576040517f08c379a00000000000000000000000000000000000000000000000000000000081526004016114e290613a76565b60405180910390fd5b60006010600084815260200190815260200160002060003373ffffffffffffffffffffffffffffffffffffffff1673ffffffffffffffffffffffffffffffffffffffff1681526020019081526020016000209050600060018361154e9190613a96565b9050600060018260ff160361159d578260010154905060008360010181905550806012600087815260200190815260200160002060008282546115919190613551565b925050819055506115d9565b8260000154905060008360000181905550806011600087815260200190815260200160002060008282546115d19190613551565b925050819055505b6000811161161c576040517f08c379a000000000000000000000000000000000000000000000000000000000815260040161161390613b17565b60405180910390fd5b73c00e94cb662c3520282e6f5717214004a7f2688873ffffffffffffffffffffffffffffffffffffffff1663a9059cbb33836040518363ffffffff1660e01b815260040161166b9291906135f1565b6020604051808303816000875af115801561168a573d6000803e3d6000fd5b505050506040513d601f19601f820116820180604052508101906116ae9190613646565b503373ffffffffffffffffffffffffffffffffffffffff167f81323285f798ccfb1659756dd71bc5f0e27619e40f243ccf85ace3da6608336f86836040516116f7929190613226565b60405180910390a25050505050565b60008060008373ffffffffffffffffffffffffffffffffffffffff1673ffffffffffffffffffffffffffffffffffffffff168152602001908152602001600020549050919050565b600b5481565b60085481565b60075481565b6010602052816000526040600020602052806000526040600020600091509150508060000154908060010154905082565b6060600480546117a0906136a2565b80601f01602080910402602001604051908101604052809291908181526020018280546117cc906136a2565b80156118195780601f106117ee57610100808354040283529160200191611819565b820191906000526020600020905b8154815290600101906020018083116117fc57829003601f168201915b5050505050905090565b600560009054906101000a900473ffffffffffffffffffffffffffffffffffffffff1673ffffffffffffffffffffffffffffffffffffffff163373ffffffffffffffffffffffffffffffffffffffff16146118b3576040517f08c379a00000000000000000000000000000000000000000000000000000000081526004016118aa90613496565b60405180910390fd5b60008110156118f7576040517f08c379a00000000000000000000000000000000000000000000000000000000081526004016118ee90613b83565b60405180910390fd5b6118ff6124e8565b80600881905550600560009054906101000a900473ffffffffffffffffffffffffffffffffffffffff1673ffffffffffffffffffffffffffffffffffffffff167fb3986383b0fc50bee9161915d3b51288bb862a90998c77d4f67033fc57837c008260405161196e9190612e19565b60405180910390a250565b600e6020528060005260406000206000915090505481565b60006040517f08c379a00000000000000000000000000000000000000000000000000000000081526004016119c59061371f565b60405180910390fd5b600f6020528060005260406000206000915054906101000a900460ff1681565b60008111611a31576040517f08c379a0000000000000000000000000000000000000000000000000000000008152600401611a2890613502565b60405180910390fd5b600c5481600b54611a4291906139bf565b1115611a83576040517f08c379a0000000000000000000000000000000000000000000000000000000008152600401611a7a90613bef565b60405180910390fd5b611a8b6124e8565b6000611a9633611706565b9050600080821115611b1057670de0b6b3a7640000600e60003373ffffffffffffffffffffffffffffffffffffffff1673ffffffffffffffffffffffffffffffffffffffff16815260200190815260200160002054600954611af89190613551565b83611b039190613c0f565b611b0d9190613c80565b90505b73c00e94cb662c3520282e6f5717214004a7f2688873ffffffffffffffffffffffffffffffffffffffff166323b872dd3330866040518463ffffffff1660e01b8152600401611b6193929190613988565b6020604051808303816000875af1158015611b80573d6000803e3d6000fd5b505050506040513d601f19601f82011682018060405250810190611ba49190613646565b50611baf3384612830565b82600b6000828254611bc191906139bf565b9250508190555060008383611bd691906139bf565b1115611c5b578282611be891906139bf565b670de0b6b3a764000082611bfc9190613c0f565b611c069190613c80565b600954611c139190613551565b600e60003373ffffffffffffffffffffffffffffffffffffffff1673ffffffffffffffffffffffffffffffffffffffff16815260200190815260200160002081905550611ca2565b600954600e60003373ffffffffffffffffffffffffffffffffffffffff1673ffffffffffffffffffffffffffffffffffffffff168152602001908152602001600020819055505b3373ffffffffffffffffffffffffffffffffffffffff167fa78727153f97367f1858fe1c83fffa2c8730add3694ac83bfd884bbc91005f8a84604051611ce89190612e19565b60405180910390a2505050565b60116020528060005260406000206000915090505481565b600560009054906101000a900473ffffffffffffffffffffffffffffffffffffffff1681565b600a5481565b6000806008541480611d4f5750600d5460075411155b15611d5c57429050611d8f565b6000600854600d54600754611d719190613551565b611d7b9190613c80565b905080600a54611d8b91906139bf565b9150505b90565b600560009054906101000a900473ffffffffffffffffffffffffffffffffffffffff1673ffffffffffffffffffffffffffffffffffffffff163373ffffffffffffffffffffffffffffffffffffffff1614611e22576040517f08c379a0000000000000000000000000000000000000000000000000000000008152600401611e1990613496565b60405180910390fd5b60008111611e65576040517f08c379a0000000000000000000000000000000000000000000000000000000008152600401611e5c90613502565b60405180910390fd5b73c00e94cb662c3520282e6f5717214004a7f2688873ffffffffffffffffffffffffffffffffffffffff166323b872dd600560009054906101000a900473ffffffffffffffffffffffffffffffffffffffff1630846040518463ffffffff1660e01b8152600401611ed893929190613988565b6020604051808303816000875af1158015611ef7573d6000803e3d6000fd5b505050506040513d601f19601f82011682018060405250810190611f1b9190613646565b508060076000828254611f2e91906139bf565b92505081905550611f3d6124e8565b600560009054906101000a900473ffffffffffffffffffffffffffffffffffffffff1673ffffffffffffffffffffffffffffffffffffffff167f31a0e2506f1ac2b2eeb4809e18d2fd59905fc9429e239737bf2a9eb95d2766f382604051611fa59190612e19565b60405180910390a250565b6000600160008473ffffffffffffffffffffffffffffffffffffffff1673ffffffffffffffffffffffffffffffffffffffff16815260200190815260200160002060008373ffffffffffffffffffffffffffffffffffffffff1673ffffffffffffffffffffffffffffffffffffffff16815260200190815260200160002054905092915050565b60095481565b600d5481565b600061204d6128b2565b905060008160000160089054906101000a900460ff1615905060008260000160009054906101000a900467ffffffffffffffff1690506000808267ffffffffffffffff1614801561209b5750825b9050600060018367ffffffffffffffff161480156120d0575060003073ffffffffffffffffffffffffffffffffffffffff163b145b9050811580156120de575080155b15612115576040517ff92ee8a900000000000000000000000000000000000000000000000000000000815260040160405180910390fd5b60018560000160006101000a81548167ffffffffffffffff021916908367ffffffffffffffff16021790555083156121655760018560000160086101000a81548160ff0219169083151502179055505b600073ffffffffffffffffffffffffffffffffffffffff168773ffffffffffffffffffffffffffffffffffffffff16036121d4576040517f08c379a00000000000000000000000000000000000000000000000000000000081526004016121cb90613cfd565b60405180910390fd5b86600560006101000a81548173ffffffffffffffffffffffffffffffffffffffff021916908373ffffffffffffffffffffffffffffffffffffffff16021790555085600690816122249190613ebf565b50670de0b6b3a764000060098190555073c00e94cb662c3520282e6f5717214004a7f2688873ffffffffffffffffffffffffffffffffffffffff16635c19a95c600560009054906101000a900473ffffffffffffffffffffffffffffffffffffffff166040518263ffffffff1660e01b81526004016122a3919061325e565b600060405180830381600087803b1580156122bd57600080fd5b505af11580156122d1573d6000803e3d6000fd5b505050506064600573c00e94cb662c3520282e6f5717214004a7f2688873ffffffffffffffffffffffffffffffffffffffff166318160ddd6040518163ffffffff1660e01b8152600401602060405180830381865afa158015612338573d6000803e3d6000fd5b505050506040513d601f19601f8201168201806040525081019061235c9190613fa6565b6123669190613c0f565b6123709190613c80565b600c8190555083156123d25760008560000160086101000a81548160ff0219169083151502179055507fc7f505b2f371ae2175ee4913f4499e1f2633a7b5936321eed1cdaeb6115181d260016040516123c99190614022565b60405180910390a15b50505050505050565b6000600d546007541161246257670de0b6b3a7640000600e60008473ffffffffffffffffffffffffffffffffffffffff1673ffffffffffffffffffffffffffffffffffffffff1681526020019081526020016000205460095461243e9190613551565b61244784611706565b6124519190613c0f565b61245b9190613c80565b90506124e3565b600061246c6128da565b9050670de0b6b3a7640000600e60008573ffffffffffffffffffffffffffffffffffffffff1673ffffffffffffffffffffffffffffffffffffffff16815260200190815260200160002054826124c29190613551565b6124cb85611706565b6124d59190613c0f565b6124df9190613c80565b9150505b919050565b60006124f2610b20565b9050600081036125095742600a81905550506125e8565b600d54600754116125215742600a81905550506125e8565b6000600a54426125319190613551565b90506000600854826125439190613c0f565b90506000600d546007546125579190613551565b90508082111561257257809150600d5460078190555061258c565b81600760008282546125849190613551565b925050819055505b83670de0b6b3a7640000836125a19190613c0f565b6125ab9190613c80565b600960008282546125bc91906139bf565b9250508190555081600d60008282546125d591906139bf565b9250508190555042600a81905550505050505b565b600033905090565b6125ff8383836001612997565b505050565b61260c6124e8565b6000670de0b6b3a7640000600e60008473ffffffffffffffffffffffffffffffffffffffff1673ffffffffffffffffffffffffffffffffffffffff168152602001908152602001600020546009546126649190613551565b61266d84611706565b6126779190613c0f565b6126819190613c80565b9050600954600e60008473ffffffffffffffffffffffffffffffffffffffff1673ffffffffffffffffffffffffffffffffffffffff1681526020019081526020016000208190555073c00e94cb662c3520282e6f5717214004a7f2688873ffffffffffffffffffffffffffffffffffffffff1663a9059cbb83836040518363ffffffff1660e01b81526004016127189291906135f1565b6020604051808303816000875af1158015612737573d6000803e3d6000fd5b505050506040513d601f19601f8201168201806040525081019061275b9190613646565b508173ffffffffffffffffffffffffffffffffffffffff167f1f89f96333d3133000ee447473151fa9606543368f02271c9d95ae14f13bcc67826040516127a29190612e19565b60405180910390a25050565b600073ffffffffffffffffffffffffffffffffffffffff168273ffffffffffffffffffffffffffffffffffffffff16036128205760006040517f96c6fd1e000000000000000000000000000000000000000000000000000000008152600401612817919061325e565b60405180910390fd5b61282c82600083612b6e565b5050565b600073ffffffffffffffffffffffffffffffffffffffff168273ffffffffffffffffffffffffffffffffffffffff16036128a25760006040517fec442f05000000000000000000000000000000000000000000000000000000008152600401612899919061325e565b60405180910390fd5b6128ae60008383612b6e565b5050565b60007ff0c57e16840df040f15088dc2f81fe391c3923bec73e23a9662efc9c229c6a00905090565b6000600d54600754116128f1576009549050612994565b6000600a54426129019190613551565b90506000600854826129139190613c0f565b9050600061291f610b20565b90506000600d546007546129339190613551565b905060008184116129445783612946565b815b905060008311156129895782670de0b6b3a7640000826129669190613c0f565b6129709190613c80565b60095461297d91906139bf565b95505050505050612994565b600954955050505050505b90565b600073ffffffffffffffffffffffffffffffffffffffff168473ffffffffffffffffffffffffffffffffffffffff1603612a095760006040517fe602df05000000000000000000000000000000000000000000000000000000008152600401612a00919061325e565b60405180910390fd5b600073ffffffffffffffffffffffffffffffffffffffff168373ffffffffffffffffffffffffffffffffffffffff1603612a7b5760006040517f94280d62000000000000000000000000000000000000000000000000000000008152600401612a72919061325e565b60405180910390fd5b81600160008673ffffffffffffffffffffffffffffffffffffffff1673ffffffffffffffffffffffffffffffffffffffff16815260200190815260200160002060008573ffffffffffffffffffffffffffffffffffffffff1673ffffffffffffffffffffffffffffffffffffffff168152602001908152602001600020819055508015612b68578273ffffffffffffffffffffffffffffffffffffffff168473ffffffffffffffffffffffffffffffffffffffff167f8c5be1e5ebec7d5bd14f71427d1e84f3dd0314c0f7b2291e5b200ac8c7c3b92584604051612b5f9190612e19565b60405180910390a35b50505050565b600073ffffffffffffffffffffffffffffffffffffffff168373ffffffffffffffffffffffffffffffffffffffff1603612bc0578060026000828254612bb491906139bf565b92505081905550612c93565b60008060008573ffffffffffffffffffffffffffffffffffffffff1673ffffffffffffffffffffffffffffffffffffffff16815260200190815260200160002054905081811015612c4c578381836040517fe450d38c000000000000000000000000000000000000000000000000000000008152600401612c439392919061403d565b60405180910390fd5b8181036000808673ffffffffffffffffffffffffffffffffffffffff1673ffffffffffffffffffffffffffffffffffffffff16815260200190815260200160002081905550505b600073ffffffffffffffffffffffffffffffffffffffff168273ffffffffffffffffffffffffffffffffffffffff1603612cdc5780600260008282540392505081905550612d29565b806000808473ffffffffffffffffffffffffffffffffffffffff1673ffffffffffffffffffffffffffffffffffffffff168152602001908152602001600020600082825401925050819055505b8173ffffffffffffffffffffffffffffffffffffffff168373ffffffffffffffffffffffffffffffffffffffff167fddf252ad1be2c89b69c2b068fc378daa952ba7f163c4a11628f55a4df523b3ef83604051612d869190612e19565b60405180910390a3505050565b6000604051905090565b600080fd5b600080fd5b6000819050919050565b612dba81612da7565b8114612dc557600080fd5b50565b600081359050612dd781612db1565b92915050565b600060208284031215612df357612df2612d9d565b5b6000612e0184828501612dc8565b91505092915050565b612e1381612da7565b82525050565b6000602082019050612e2e6000830184612e0a565b92915050565b600081519050919050565b600082825260208201905092915050565b60005b83811015612e6e578082015181840152602081019050612e53565b60008484015250505050565b6000601f19601f8301169050919050565b6000612e9682612e34565b612ea08185612e3f565b9350612eb0818560208601612e50565b612eb981612e7a565b840191505092915050565b60006020820190508181036000830152612ede8184612e8b565b905092915050565b600073ffffffffffffffffffffffffffffffffffffffff82169050919050565b6000612f1182612ee6565b9050919050565b612f2181612f06565b8114612f2c57600080fd5b50565b600081359050612f3e81612f18565b92915050565b60008060408385031215612f5b57612f5a612d9d565b5b6000612f6985828601612f2f565b9250506020612f7a85828601612dc8565b9150509250929050565b60008115159050919050565b612f9981612f84565b82525050565b6000602082019050612fb46000830184612f90565b92915050565b6000819050919050565b6000612fdf612fda612fd584612ee6565b612fba565b612ee6565b9050919050565b6000612ff182612fc4565b9050919050565b600061300382612fe6565b9050919050565b61301381612ff8565b82525050565b600060208201905061302e600083018461300a565b92915050565b60008060006060848603121561304d5761304c612d9d565b5b600061305b86828701612f2f565b935050602061306c86828701612f2f565b925050604061307d86828701612dc8565b9150509250925092565b600060ff82169050919050565b61309d81613087565b82525050565b60006020820190506130b86000830184613094565b92915050565b6130c781613087565b81146130d257600080fd5b50565b6000813590506130e4816130be565b92915050565b6000806040838503121561310157613100612d9d565b5b600061310f85828601612dc8565b9250506020613120858286016130d5565b9150509250929050565b60008060006060848603121561314357613142612d9d565b5b600061315186828701612dc8565b9350506020613162868287016130d5565b925050604061317386828701612dc8565b9150509250925092565b600061318882612fe6565b9050919050565b6131988161317d565b82525050565b60006020820190506131b3600083018461318f565b92915050565b6000602082840312156131cf576131ce612d9d565b5b60006131dd84828501612f2f565b91505092915050565b600080604083850312156131fd576131fc612d9d565b5b600061320b85828601612dc8565b925050602061321c85828601612f2f565b9150509250929050565b600060408201905061323b6000830185612e0a565b6132486020830184612e0a565b9392505050565b61325881612f06565b82525050565b6000602082019050613273600083018461324f565b92915050565b600080604083850312156132905761328f612d9d565b5b600061329e85828601612f2f565b92505060206132af85828601612f2f565b9150509250929050565b600080fd5b600080fd5b7f4e487b7100000000000000000000000000000000000000000000000000000000600052604160045260246000fd5b6132fb82612e7a565b810181811067ffffffffffffffff8211171561331a576133196132c3565b5b80604052505050565b600061332d612d93565b905061333982826132f2565b919050565b600067ffffffffffffffff821115613359576133586132c3565b5b61336282612e7a565b9050602081019050919050565b82818337600083830152505050565b600061339161338c8461333e565b613323565b9050828152602081018484840111156133ad576133ac6132be565b5b6133b884828561336f565b509392505050565b600082601f8301126133d5576133d46132b9565b5b81356133e584826020860161337e565b91505092915050565b6000806040838503121561340557613404612d9d565b5b600061341385828601612f2f565b925050602083013567ffffffffffffffff81111561343457613433612da2565b5b613440858286016133c0565b9150509250929050565b7f4e6f74207468652064656c656761746500000000000000000000000000000000600082015250565b6000613480601083612e3f565b915061348b8261344a565b602082019050919050565b600060208201905081810360008301526134af81613473565b9050919050565b7f416d6f756e74206d7573742062652067726561746572207468616e2030000000600082015250565b60006134ec601d83612e3f565b91506134f7826134b6565b602082019050919050565b6000602082019050818103600083015261351b816134df565b9050919050565b7f4e487b7100000000000000000000000000000000000000000000000000000000600052601160045260246000fd5b600061355c82612da7565b915061356783612da7565b925082820390508181111561357f5761357e613522565b5b92915050565b7f416d6f756e74206578636565647320617661696c61626c652072657761726473600082015250565b60006135bb602083612e3f565b91506135c682613585565b602082019050919050565b600060208201905081810360008301526135ea816135ae565b9050919050565b6000604082019050613606600083018561324f565b6136136020830184612e0a565b9392505050565b61362381612f84565b811461362e57600080fd5b50565b6000815190506136408161361a565b92915050565b60006020828403121561365c5761365b612d9d565b5b600061366a84828501613631565b91505092915050565b7f4e487b7100000000000000000000000000000000000000000000000000000000600052602260045260246000fd5b600060028204905060018216806136ba57607f821691505b6020821081036136cd576136cc613673565b5b50919050565b7f5472616e7366657273206172652064697361626c656400000000000000000000600082015250565b6000613709601683612e3f565b9150613714826136d3565b602082019050919050565b60006020820190508181036000830152613738816136fc565b9050919050565b7f496e76616c696420737570706f72742076616c75650000000000000000000000600082015250565b6000613775601583612e3f565b91506137808261373f565b602082019050919050565b600060208201905081810360008301526137a481613768565b9050919050565b7f50726f706f73616c20616c7265616479207265736f6c76656400000000000000600082015250565b60006137e1601983612e3f565b91506137ec826137ab565b602082019050919050565b60006020820190508181036000830152613810816137d4565b9050919050565b600061382282613087565b915061382d83613087565b9250828201905060ff81111561384657613845613522565b5b92915050565b60006040820190506138616000830185612e0a565b61386e6020830184613094565b9392505050565b6008811061388257600080fd5b50565b60008151905061389481613875565b92915050565b6000602082840312156138b0576138af612d9d565b5b60006138be84828501613885565b91505092915050565b7f4e487b7100000000000000000000000000000000000000000000000000000000600052602160045260246000fd5b7f5374616b696e67206f6e6c7920616c6c6f77656420666f72206163746976652060008201527f70726f706f73616c730000000000000000000000000000000000000000000000602082015250565b6000613952602983612e3f565b915061395d826138f6565b604082019050919050565b6000602082019050818103600083015261398181613945565b9050919050565b600060608201905061399d600083018661324f565b6139aa602083018561324f565b6139b76040830184612e0a565b949350505050565b60006139ca82612da7565b91506139d583612da7565b92508282019050808211156139ed576139ec613522565b5b92915050565b6000606082019050613a086000830186612e0a565b613a156020830185613094565b613a226040830184612e0a565b949350505050565b7f50726f706f73616c206e6f74207265736f6c7665642079657400000000000000600082015250565b6000613a60601983612e3f565b9150613a6b82613a2a565b602082019050919050565b60006020820190508181036000830152613a8f81613a53565b9050919050565b6000613aa182613087565b9150613aac83613087565b9250828203905060ff811115613ac557613ac4613522565b5b92915050565b7f4e6f206c6f73696e67207374616b6520746f207265636c61696d000000000000600082015250565b6000613b01601a83612e3f565b9150613b0c82613acb565b602082019050919050565b60006020820190508181036000830152613b3081613af4565b9050919050565b7f5265776172642072617465206d757374206265206e6f6e2d6e65676174697665600082015250565b6000613b6d602083612e3f565b9150613b7882613b37565b602082019050919050565b60006020820190508181036000830152613b9c81613b60565b9050919050565b7f44656c65676174696f6e20636170206578636565646564000000000000000000600082015250565b6000613bd9601783612e3f565b9150613be482613ba3565b602082019050919050565b60006020820190508181036000830152613c0881613bcc565b9050919050565b6000613c1a82612da7565b9150613c2583612da7565b9250828202613c3381612da7565b91508282048414831517613c4a57613c49613522565b5b5092915050565b7f4e487b7100000000000000000000000000000000000000000000000000000000600052601260045260246000fd5b6000613c8b82612da7565b9150613c9683612da7565b925082613ca657613ca5613c51565b5b828204905092915050565b7f496e76616c69642064656c656761746520616464726573730000000000000000600082015250565b6000613ce7601883612e3f565b9150613cf282613cb1565b602082019050919050565b60006020820190508181036000830152613d1681613cda565b9050919050565b60008190508160005260206000209050919050565b60006020601f8301049050919050565b600082821b905092915050565b600060088302613d7f7fffffffffffffffffffffffffffffffffffffffffffffffffffffffffffffffff82613d42565b613d898683613d42565b95508019841693508086168417925050509392505050565b6000613dbc613db7613db284612da7565b612fba565b612da7565b9050919050565b6000819050919050565b613dd683613da1565b613dea613de282613dc3565b848454613d4f565b825550505050565b600090565b613dff613df2565b613e0a818484613dcd565b505050565b5b81811015613e2e57613e23600082613df7565b600181019050613e10565b5050565b601f821115613e7357613e4481613d1d565b613e4d84613d32565b81016020851015613e5c578190505b613e70613e6885613d32565b830182613e0f565b50505b505050565b600082821c905092915050565b6000613e9660001984600802613e78565b1980831691505092915050565b6000613eaf8383613e85565b9150826002028217905092915050565b613ec882612e34565b67ffffffffffffffff811115613ee157613ee06132c3565b5b613eeb82546136a2565b613ef6828285613e32565b600060209050601f831160018114613f295760008415613f17578287015190505b613f218582613ea3565b865550613f89565b601f198416613f3786613d1d565b60005b82811015613f5f57848901518255600182019150602085019450602081019050613f3a565b86831015613f7c5784890151613f78601f891682613e85565b8355505b6001600288020188555050505b505050505050565b600081519050613fa081612db1565b92915050565b600060208284031215613fbc57613fbb612d9d565b5b6000613fca84828501613f91565b91505092915050565b6000819050919050565b600067ffffffffffffffff82169050919050565b600061400c61400761400284613fd3565b612fba565b613fdd565b9050919050565b61401c81613ff1565b82525050565b60006020820190506140376000830184614013565b92915050565b6000606082019050614052600083018661324f565b61405f6020830185612e0a565b61406c6040830184612e0a565b94935050505056fea2646970667358221220b145f67f3b6742f338fde4876502b2278a99196db548931c010fea0e92a03a1864736f6c63430008150033",
  "linkReferences": {},
  "deployedLinkReferences": {}
}