{
  "_format": "hh-sol-artifact-1",
  "contractName": "CompensatorFactory",
  "sourceName": "contracts/CompensatorFactory.sol",
  "abi": [
    {
      "inputs": [
        {
          "internalType": "address",
          "name": "_compToken",
          "type": "address"
        },
        {
          "internalType": "address",
          "name": "_compoundGovernor",
          "type": "address"
        }
      ],
      "stateMutability": "nonpayable",
      "type": "constructor"
    },
    {
      "anonymous": false,
      "inputs": [
        {
          "indexed": true,
          "internalType": "address",
          "name": "owner",
          "type": "address"
        },
        {
          "indexed": true,
          "internalType": "address",
          "name": "compensator",
          "type": "address"
        }
      ],
      "name": "CompensatorCreated",
      "type": "event"
    },
    {
      "inputs": [],
      "name": "COMPOUND_GOVERNOR",
      "outputs": [
        {
          "internalType": "address",
          "name": "",
          "type": "address"
        }
      ],
      "stateMutability": "view",
      "type": "function"
    },
    {
      "inputs": [],
      "name": "COMP_TOKEN",
      "outputs": [
        {
          "internalType": "address",
          "name": "",
          "type": "address"
        }
      ],
      "stateMutability": "view",
      "type": "function"
    },
    {
      "inputs": [
        {
          "internalType": "uint256",
          "name": "",
          "type": "uint256"
        }
      ],
      "name": "compensators",
      "outputs": [
        {
          "internalType": "address",
          "name": "",
          "type": "address"
        }
      ],
      "stateMutability": "view",
      "type": "function"
    },
    {
      "inputs": [
        {
          "internalType": "address",
          "name": "owner",
          "type": "address"
        }
      ],
      "name": "createCompensator",
      "outputs": [
        {
          "internalType": "address",
          "name": "",
          "type": "address"
        }
      ],
      "stateMutability": "nonpayable",
      "type": "function"
    },
    {
      "inputs": [],
      "name": "createCompensatorForSelf",
      "outputs": [
        {
          "internalType": "address",
          "name": "",
          "type": "address"
        }
      ],
      "stateMutability": "nonpayable",
      "type": "function"
    },
    {
      "inputs": [
        {
          "internalType": "address",
          "name": "owner",
          "type": "address"
        }
      ],
      "name": "getCompensator",
      "outputs": [
        {
          "internalType": "address",
          "name": "",
          "type": "address"
        }
      ],
      "stateMutability": "view",
      "type": "function"
    },
    {
      "inputs": [
        {
          "internalType": "uint256",
          "name": "offset",
          "type": "uint256"
        },
        {
          "internalType": "uint256",
          "name": "limit",
          "type": "uint256"
        }
      ],
      "name": "getCompensators",
      "outputs": [
        {
          "internalType": "address[]",
          "name": "",
          "type": "address[]"
        }
      ],
      "stateMutability": "view",
      "type": "function"
    },
    {
      "inputs": [],
      "name": "getCompensatorsCount",
      "outputs": [
        {
          "internalType": "uint256",
          "name": "",
          "type": "uint256"
        }
      ],
      "stateMutability": "view",
      "type": "function"
    },
    {
      "inputs": [
        {
          "internalType": "address",
          "name": "owner",
          "type": "address"
        }
      ],
      "name": "hasCompensator",
      "outputs": [
        {
          "internalType": "bool",
          "name": "",
          "type": "bool"
        }
      ],
      "stateMutability": "view",
      "type": "function"
    },
    {
      "inputs": [
        {
          "internalType": "address",
          "name": "owner",
          "type": "address"
        }
      ],
      "name": "ownerToCompensator",
      "outputs": [
        {
          "internalType": "address",
          "name": "compensator",
          "type": "address"
        }
      ],
      "stateMutability": "view",
      "type": "function"
    }
  ],
  "bytecode": "0x60c060405234801561001057600080fd5b506040516156eb3803806156eb83398101604081905261002f9161011d565b6001600160a01b03821661008a5760405162461bcd60e51b815260206004820152601a60248201527f496e76616c696420434f4d5020746f6b656e206164647265737300000000000060448201526064015b60405180910390fd5b6001600160a01b0381166100ea5760405162461bcd60e51b815260206004820152602160248201527f496e76616c696420436f6d706f756e6420476f7665726e6f72206164647265736044820152607360f81b6064820152608401610081565b6001600160a01b039182166080521660a052610150565b80516001600160a01b038116811461011857600080fd5b919050565b6000806040838503121561013057600080fd5b61013983610101565b915061014760208401610101565b90509250929050565b60805160a05161556961018260003960008181610185015261045a01526000818160dd015261043901526155696000f3fe60806040523480156200001157600080fd5b5060043610620000ab5760003560e01c80638ad4bba2116200006e5780638ad4bba2146200017f578063a1478c9814620001a7578063cb97922f14620001d6578063cf199bf914620001fc578063eb208934146200021357600080fd5b806306d10acf14620000b057806310d4108314620000d75780632738270914620000ff578063461f931c1462000141578063767829cb146200016d575b600080fd5b620000ba6200022a565b6040516001600160a01b0390911681526020015b60405180910390f35b620000ba7f000000000000000000000000000000000000000000000000000000000000000081565b620001306200011036600462000598565b6001600160a01b0390811660009081526001602052604090205416151590565b6040519015158152602001620000ce565b620000ba6200015236600462000598565b6001602052600090815260409020546001600160a01b031681565b600054604051908152602001620000ce565b620000ba7f000000000000000000000000000000000000000000000000000000000000000081565b620000ba620001b836600462000598565b6001600160a01b039081166000908152600160205260409020541690565b620001ed620001e7366004620005ca565b6200023c565b604051620000ce9190620005ed565b620000ba6200020d36600462000598565b62000375565b620000ba620002243660046200063c565b6200055f565b6000620002373362000375565b905090565b600054606090801580620002505750808410155b156200026d5750506040805160008152602081019091526200036f565b82816200027b828762000682565b111562000291576200028e858362000698565b90505b60008167ffffffffffffffff811115620002af57620002af62000656565b604051908082528060200260200182016040528015620002d9578160200160208202803683370190505b50905060005b8281101562000369576000620002f6828962000682565b81548110620003095762000309620006ae565b9060005260206000200160009054906101000a90046001600160a01b03168282815181106200033c576200033c620006ae565b6001600160a01b0390921660209283029190910190910152806200036081620006c4565b915050620002df565b50925050505b92915050565b60006001600160a01b038216620003cb5760405162461bcd60e51b8152602060048201526015602482015274496e76616c6964206f776e6572206164647265737360581b60448201526064015b60405180910390fd5b6001600160a01b038281166000908152600160205260409020541615620004355760405162461bcd60e51b815260206004820152601f60248201527f4f776e657220616c726561647920686173206120436f6d70656e7361746f72006044820152606401620003c2565b60007f00000000000000000000000000000000000000000000000000000000000000007f00000000000000000000000000000000000000000000000000000000000000008460405162000488906200058a565b6001600160a01b03938416815291831660208301529091166040820152606001604051809103906000f080158015620004c5573d6000803e3d6000fd5b5060008054600181810183557f290decd9548b62a8d60345a988386fc84ba6bc95484008f6362f93160ef3e56390910180546001600160a01b038086166001600160a01b03199283168117909355881680855260209390935260408085208054909216831790915551939450849390927ff9b38e7b6f2e9bb6ed0b9563c8b238a143966cd57e2d39c7b486b73a808d641e91a39392505050565b600081815481106200057057600080fd5b6000918252602090912001546001600160a01b0316905081565b614e5380620006e183390190565b600060208284031215620005ab57600080fd5b81356001600160a01b0381168114620005c357600080fd5b9392505050565b60008060408385031215620005de57600080fd5b50508035926020909101359150565b6020808252825182820181905260009190848201906040850190845b81811015620006305783516001600160a01b03168352928401929184019160010162000609565b50909695505050505050565b6000602082840312156200064f57600080fd5b5035919050565b634e487b7160e01b600052604160045260246000fd5b634e487b7160e01b600052601160045260246000fd5b808201808211156200036f576200036f6200066c565b818103818111156200036f576200036f6200066c565b634e487b7160e01b600052603260045260246000fd5b600060018201620006d957620006d96200066c565b506001019056fe60c0604052611964601b553480156200001757600080fd5b5060405162004e5338038062004e538339810160408190526200003a9162000405565b806040518060400160405280600b81526020016a21b7b6b832b739b0ba37b960a91b8152506040518060400160405280600b81526020016a21a7a6a822a729a0aa27a960a91b8152508160039081620000949190620004f4565b506004620000a38282620004f4565b50506001600555506001600160a01b038116620000db57604051631e4fbdf760e01b8152600060048201526024015b60405180910390fd5b620000e68162000396565b506001600160a01b0383166200013f5760405162461bcd60e51b815260206004820152601a60248201527f496e76616c696420434f4d5020746f6b656e20616464726573730000000000006044820152606401620000d2565b6001600160a01b038216620001a15760405162461bcd60e51b815260206004820152602160248201527f496e76616c696420436f6d706f756e6420476f7665726e6f72206164647265736044820152607360f81b6064820152608401620000d2565b6001600160a01b038116620001f95760405162461bcd60e51b815260206004820152601560248201527f496e76616c6964206f776e6572206164647265737300000000000000000000006044820152606401620000d2565b6001600160a01b03808416608081905290831660a052670de0b6b3a7640000600955604080516318160ddd60e01b81529051600092916318160ddd9160048083019260209291908290030181865afa1580156200025a573d6000803e3d6000fd5b505050506040513d601f19601f82011682018060405250810190620002809190620005c0565b905060008111620002d45760405162461bcd60e51b815260206004820152601960248201527f496e76616c696420434f4d5020746f74616c20737570706c79000000000000006044820152606401620000d2565b600c54612710620002e86101f484620005da565b620002f4919062000606565b600c819055620003475760405162461bcd60e51b815260206004820152601860248201527f44656c65676174696f6e2063617020746f6f20736d616c6c00000000000000006044820152606401620000d2565b600c5460408051838152602081019290925281018390527fc72f87e837aeb21e01377ca632cdae4e68649b7216568ff0a62e4cbdcee740089060600160405180910390a1505050505062000629565b600680546001600160a01b038381166001600160a01b0319831681179093556040519116919082907f8be0079c531659141344cd1fd0a4f28419497f9722a3daafe3b4186f6b6457e090600090a35050565b80516001600160a01b03811681146200040057600080fd5b919050565b6000806000606084860312156200041b57600080fd5b6200042684620003e8565b92506200043660208501620003e8565b91506200044660408501620003e8565b90509250925092565b634e487b7160e01b600052604160045260246000fd5b600181811c908216806200047a57607f821691505b6020821081036200049b57634e487b7160e01b600052602260045260246000fd5b50919050565b601f821115620004ef57600081815260208120601f850160051c81016020861015620004ca5750805b601f850160051c820191505b81811015620004eb57828155600101620004d6565b5050505b505050565b81516001600160401b038111156200051057620005106200044f565b620005288162000521845462000465565b84620004a1565b602080601f831160018114620005605760008415620005475750858301515b600019600386901b1c1916600185901b178555620004eb565b600085815260208120601f198616915b82811015620005915788860151825594840194600190910190840162000570565b5085821015620005b05787850151600019600388901b60f8161c191681555b5050505050600190811b01905550565b600060208284031215620005d357600080fd5b5051919050565b80820281158282048414176200060057634e487b7160e01b600052601160045260246000fd5b92915050565b6000826200062457634e487b7160e01b600052601260045260246000fd5b500490565b60805160a051614755620006fe6000396000818161075401528181610aee01528181611c1501528181613067015281816133af0152818161357f015281816137e1015261395701526000818161046d01528181610d4c01528181610e5f01528181610f8c01528181611041015281816112ad015281816115520152818161172d0152818161180201528181611a0b01528181611e67015281816121fc015281816125e8015281816128d70152818161295a0152818161317101528181613a5f01528181613c310152613d1001526147556000f3fe608060405234801561001057600080fd5b50600436106103da5760003560e01c806385c6ccca1161020a578063be8363cd11610125578063e1f1c4a7116100b8578063ed6b780d11610087578063ed6b780d146109b0578063f2fde38b146109b8578063f6ed2017146109cb578063f868e766146109de578063fe86e057146109f157600080fd5b8063e1f1c4a714610972578063e40824f81461097b578063e9ee2fa91461099e578063ec1371f2146109a757600080fd5b8063dafad631116100f4578063dafad63114610906578063dd62ed3e14610926578063de63f4321461095f578063e1ac18e01461097257600080fd5b8063be8363cd146108e2578063c6384071146108ec578063d133a00e146108f5578063d74e7a3a146108fe57600080fd5b8063949813b81161019d578063a9059cbb1161016c578063a9059cbb1461085c578063a9c0310d1461086f578063baf983721461089f578063bdd3e805146108bf57600080fd5b8063949813b81461080157806395d89b41146108215780639e447fc614610829578063a7926ada1461083c57600080fd5b80638d824273116101d95780638d824273146107765780638da5cb5b146107895780638ea15be61461079a57806392e2c6d2146107f957600080fd5b806385c6ccca146106f1578063879d9090146107045780638aba33821461070d5780638ad4bba21461074f57600080fd5b80633b9056bf116102fa5780636a61cf611161028d57806379fcfef11161025c57806379fcfef1146106b15780637b0a47ee146106ba5780637f0edf33146106c35780638494ff35146106cc57600080fd5b80636a61cf611461063d57806370a0823114610660578063715018a61461068957806376b467b71461069157600080fd5b80634cfea68a116102c95780634cfea68a1461059a578063558a2dcc146105a357806356781388146106175780635d95750e1461062a57600080fd5b80633b9056bf1461055c5780633d6aa5e11461056f57806343c79ad01461057e578063470b76221461058757600080fd5b806323b872dd11610372578063353b6c2c11610341578063353b6c2c14610524578063372500ab14610537578063385dc3df1461053f57806339d2a1991461054957600080fd5b806323b872dd146104c257806327be553b146104d5578063313ce5671461050a57806333f707d11461051157600080fd5b8063095ea7b3116103ae578063095ea7b31461044557806310d4108314610468578063141833dc146104a757806318160ddd146104ba57600080fd5b806262804e146103df5780630549f067146103f4578063057e16801461041057806306fdde0314610430575b600080fd5b6103f26103ed3660046140f0565b610a04565b005b6103fd6101f481565b6040519081526020015b60405180910390f35b6103fd61041e3660046140f0565b60146020526000908152604090205481565b61043861115d565b604051610407919061414f565b61045861045336600461417e565b6111ef565b6040519015158152602001610407565b61048f7f000000000000000000000000000000000000000000000000000000000000000081565b6040516001600160a01b039091168152602001610407565b6103f26104b53660046140f0565b611209565b6002546103fd565b6104586104d03660046141a8565b6113b4565b6104f86104e33660046140f0565b601a6020526000908152604090205460ff1681565b60405160ff9091168152602001610407565b60126104f8565b6103f261051f3660046140f0565b6113da565b6103f26105323660046140f0565b61161e565b6103f2611681565b6103fd62093a8081565b6103fd6105573660046140f0565b6117ea565b6103f261056a3660046140f0565b611875565b6103fd670de0b6b3a764000081565b6103fd600c5481565b6103f261059536600461420b565b611abf565b6103fd601b5481565b6106026105b13660046142d6565b60009182526012602090815260408084206001600160a01b03939093168452918152918190208151808301909252546001600160801b03808216808452600160801b90920416919092018190529091565b60408051928352602083019190915201610407565b6103f2610625366004614302565b611ae1565b6103f2610638366004614325565b611b11565b61045861064b3660046140f0565b60186020526000908152604090205460ff1681565b6103fd61066e36600461434a565b6001600160a01b031660009081526020819052604090205490565b6103f2611f2d565b6103fd61069f36600461434a565b60156020526000908152604090205481565b6103fd600b5481565b6103fd60085481565b6103fd60165481565b6106df6106da3660046140f0565b611f3f565b60405161040796959493929190614365565b6103f26106ff3660046140f0565b612004565b6103fd60075481565b601f54602054602154602254602354610727949392919085565b604080519586526020860194909452928401919091526060830152608082015260a001610407565b61048f7f000000000000000000000000000000000000000000000000000000000000000081565b6106df6107843660046140f0565b6122af565b6006546001600160a01b031661048f565b6107d96107a83660046142d6565b60126020908152600092835260408084209091529082529020546001600160801b0380821691600160801b90041682565b604080516001600160801b03938416815292909116602083015201610407565b601e546103fd565b6103fd61080f36600461434a565b600f6020526000908152604090205481565b6104386123e3565b6103f26108373660046140f0565b6123f2565b6103fd61084a36600461434a565b600e6020526000908152604090205481565b61045861086a36600461417e565b61250d565b61089261087d3660046140f0565b60106020526000908152604090205460ff1681565b60405161040791906143bb565b6103fd6108ad3660046140f0565b60136020526000908152604090205481565b6104586108cd3660046140f0565b60196020526000908152604090205460ff1681565b6103fd62278d0081565b6103fd601e5481565b6103fd600a5481565b6103fd61251b565b6103fd6109143660046140f0565b60116020526000908152604090205481565b6103fd6109343660046143d5565b6001600160a01b03918216600090815260016020908152604080832093909416825291909152205490565b6106df61096d3660046140f0565b61258e565b6103fd61271081565b6104586109893660046140f0565b60176020526000908152604090205460ff1681565b6103fd60095481565b6103fd600d5481565b6103fd6125d0565b6103f26109c636600461434a565b612660565b6103fd6109d936600461434a565b61269b565b6103f26109ec3660046140f0565b61273c565b6106df6109ff3660046140f0565b6129fe565b610a0c612aba565b60008181526010602052604081205460ff166002811115610a2f57610a2f6143a5565b14610a7d5760405162461bcd60e51b8152602060048201526019602482015278141c9bdc1bdcd85b08185b1c9958591e481c995cdbdb1d9959603a1b60448201526064015b60405180910390fd5b600081815260116020526040902054610ad85760405162461bcd60e51b815260206004820152601760248201527f50726f706f73616c20646f6573206e6f742065786973740000000000000000006044820152606401610a74565b604051631f27a4f360e11b8152600481018290527f00000000000000000000000000000000000000000000000000000000000000006001600160a01b031690633e4f49e690602401602060405180830381865afa925050508015610b59575060408051601f3d908101601f19168201909252610b56918101906143ff565b60015b610b9b5760405162461bcd60e51b8152602060048201526013602482015272125b9d985b1a59081c1c9bdc1bdcd85b081251606a1b6044820152606401610a74565b6004816007811115610baf57610baf6143a5565b1480610bcc57506003816007811115610bca57610bca6143a5565b145b80610be857506006816007811115610be657610be66143a5565b145b80610c0457506002816007811115610c0257610c026143a5565b145b80610c2057506007816007811115610c1e57610c1e6143a5565b145b610c6c5760405162461bcd60e51b815260206004820152601960248201527f50726f706f73616c206e6f7420796574207265736f6c766564000000000000006044820152606401610a74565b60006004826007811115610c8257610c826143a5565b1480610c9f57506007826007811115610c9d57610c9d6143a5565b145b15610cac57506001610cb0565b5060005b8060ff16600114610cc2576001610cc5565b60025b6000848152601060205260409020805460ff19166001836002811115610ced57610ced6143a5565b021790555060008381526019602052604081205460ff168015610d2357506000848152601a602052604090205460ff8381169116145b90508015610f51578160ff16600103610e495760008481526013602052604090205415610e44577f00000000000000000000000000000000000000000000000000000000000000006001600160a01b031663a9059cbb610d8b6006546001600160a01b031690565b600087815260136020526040908190205490516001600160e01b031960e085901b168152610dbd929190600401614420565b6020604051808303816000875af1158015610ddc573d6000803e3d6000fd5b505050506040513d601f19601f82011682018060405250810190610e009190614439565b506001601f6000016000828254610e179190614471565b90915550506000848152601360205260408120546021805491929091610e3e908490614471565b90915550505b6110bb565b60008481526014602052604090205415610e44577f00000000000000000000000000000000000000000000000000000000000000006001600160a01b031663a9059cbb610e9e6006546001600160a01b031690565b600087815260146020526040908190205490516001600160e01b031960e085901b168152610ed0929190600401614420565b6020604051808303816000875af1158015610eef573d6000803e3d6000fd5b505050506040513d601f19601f82011682018060405250810190610f139190614439565b506001601f6000016000828254610f2a9190614471565b90915550506000848152601460205260408120546021805491929091610e3e908490614471565b60008481526013602052604090205415611006576000848152601360205260409081902054905163a9059cbb60e01b81526001600160a01b037f0000000000000000000000000000000000000000000000000000000000000000169163a9059cbb91610fc1913091600401614420565b6020604051808303816000875af1158015610fe0573d6000803e3d6000fd5b505050506040513d601f19601f820116820180604052508101906110049190614439565b505b600084815260146020526040902054156110bb576000848152601460205260409081902054905163a9059cbb60e01b81526001600160a01b037f0000000000000000000000000000000000000000000000000000000000000000169163a9059cbb91611076913091600401614420565b6020604051808303816000875af1158015611095573d6000803e3d6000fd5b505050506040513d601f19601f820116820180604052508101906110b99190614439565b505b6001601f60010160008282546110d19190614471565b9091555050601f5460208054602154604080519485529284019190915282820152517f355935019d4bea1e3d4292ae0d5bb626009619ceed2e19671b61aa405fc788939181900360600190a160405160ff83169085907f42af0d2d7b5985c66a12ed8634edd91f277c4254189c9de953eff76546526e2090600090a350505061115a6001600555565b50565b60606003805461116c90614484565b80601f016020809104026020016040519081016040528092919081815260200182805461119890614484565b80156111e55780601f106111ba576101008083540402835291602001916111e5565b820191906000526020600020905b8154815290600101906020018083116111c857829003601f168201915b5050505050905090565b6000336111fd818585612ae4565b60019150505b92915050565b611211612aba565b6006546001600160a01b031633146112645760405162461bcd60e51b815260206004820152601660248201527513db9b1e481bdddb995c8818d85b8819195c1bdcda5d60521b6044820152606401610a74565b600081116112845760405162461bcd60e51b8152600401610a74906144be565b61128c612af1565b806007600082825461129e9190614471565b90915550506001600160a01b037f0000000000000000000000000000000000000000000000000000000000000000166323b872dd6112e46006546001600160a01b031690565b6040516001600160e01b031960e084901b1681526001600160a01b039091166004820152306024820152604481018490526064016020604051808303816000875af1158015611337573d6000803e3d6000fd5b505050506040513d601f19601f8201168201806040525081019061135b9190614439565b506006546001600160a01b03166001600160a01b03167fc286f3b83e4f244dafdd6f12a30c1792eb5c99ba0ee6cb1181aaf6eac30286e8826040516113a291815260200190565b60405180910390a261115a6001600555565b6000336113c2858285612c7f565b6113cd858585612cfe565b60019150505b9392505050565b6113e2612aba565b6006546001600160a01b0316331461143c5760405162461bcd60e51b815260206004820152601760248201527f4f6e6c79206f776e65722063616e2077697468647261770000000000000000006044820152606401610a74565b6000811161145c5760405162461bcd60e51b8152600401610a74906144be565b600754600d5460006114766006546001600160a01b031690565b9050600061148483856144f5565b9050808511156114d65760405162461bcd60e51b815260206004820181905260248201527f416d6f756e74206578636565647320617661696c61626c6520726577617264736044820152606401610a74565b6114de612af1565b8484101561152e5760405162461bcd60e51b815260206004820152601e60248201527f496e73756666696369656e7420617661696c61626c65207265776172647300006044820152606401610a74565b61153885856144f5565b60075560405163a9059cbb60e01b81526001600160a01b037f0000000000000000000000000000000000000000000000000000000000000000169063a9059cbb906115899085908990600401614420565b6020604051808303816000875af11580156115a8573d6000803e3d6000fd5b505050506040513d601f19601f820116820180604052508101906115cc9190614439565b50816001600160a01b03167f13c461eb29f5d65800bbef5a5b05a06ea13b8b2ef4b889ee170f149bc1c8f8bd8660405161160891815260200190565b60405180910390a25050505061115a6001600555565b611626612d5d565b600081118015611637575061c35081105b61167c5760405162461bcd60e51b8152602060048201526016602482015275496e76616c696420626c6f636b73207065722064617960501b6044820152606401610a74565b601b55565b611689612aba565b611691612af1565b61169a33612d8a565b336000908152600f6020526040902054806116ed5760405162461bcd60e51b81526020600482015260136024820152724e6f207265776172647320746f20636c61696d60681b6044820152606401610a74565b336000908152600f60205260408120819055600d80548392906117119084906144f5565b909155505060405163a9059cbb60e01b81526001600160a01b037f0000000000000000000000000000000000000000000000000000000000000000169063a9059cbb906117649033908590600401614420565b6020604051808303816000875af1158015611783573d6000803e3d6000fd5b505050506040513d601f19601f820116820180604052508101906117a79190614439565b5060405181815233907f1f89f96333d3133000ee447473151fa9606543368f02271c9d95ae14f13bcc679060200160405180910390a2506117e86001600555565b565b60405163b4b5ea5760e01b81523060048201526000907f00000000000000000000000000000000000000000000000000000000000000006001600160a01b03169063b4b5ea5790602401602060405180830381865afa158015611851573d6000803e3d6000fd5b505050506040513d601f19601f820116820180604052508101906112039190614508565b61187d612aba565b6000811161189d5760405162461bcd60e51b8152600401610a74906144be565b336000908152601560205260409020544210156118ed5760405162461bcd60e51b815260206004820152600e60248201526d10d3d354081a5cc81b1bd8dad95960921b6044820152606401610a74565b6118f5612e76565b1561195d5760405162461bcd60e51b815260206004820152603260248201527f43616e6e6f7420776974686472617720647572696e6720616374697665206f726044820152712070656e64696e672070726f706f73616c7360701b6064820152608401610a74565b336000908152602081905260409020548111156119b35760405162461bcd60e51b8152602060048201526014602482015273496e73756666696369656e742062616c616e636560601b6044820152606401610a74565b6119bb612af1565b6119c433612d8a565b6119ce3382612f13565b80600b60008282546119e091906144f5565b9091555050600954336000818152600e60205260409081902092909255905163a9059cbb60e01b81527f00000000000000000000000000000000000000000000000000000000000000006001600160a01b03169163a9059cbb91611a4991908590600401614420565b6020604051808303816000875af1158015611a68573d6000803e3d6000fd5b505050506040513d601f19601f82011682018060405250810190611a8c9190614439565b5060405181815233907f98824d89d47225910d3e61aa38b640d29d58b43e2dc47b4d986a588c88e0a2a8906020016113a2565b611ac7612aba565b611ad2838383612f49565b611adc6001600555565b505050565b611ae9612aba565b611b03828260405180602001604052806000815250612f49565b611b0d6001600555565b5050565b611b19612aba565b60ff82161580611b2c57508160ff166001145b611b705760405162461bcd60e51b8152602060048201526015602482015274496e76616c696420737570706f72742076616c756560581b6044820152606401610a74565b60008111611b905760405162461bcd60e51b8152600401610a74906144be565b60008381526010602052604081205460ff166002811115611bb357611bb36143a5565b14611bfc5760405162461bcd60e51b8152602060048201526019602482015278141c9bdc1bdcd85b08185b1c9958591e481c995cdbdb1d9959603a1b6044820152606401610a74565b604051631f27a4f360e11b8152600481018490526000907f00000000000000000000000000000000000000000000000000000000000000006001600160a01b031690633e4f49e690602401602060405180830381865afa158015611c64573d6000803e3d6000fd5b505050506040513d601f19601f82011682018060405250810190611c8891906143ff565b90506001816007811115611c9e57611c9e6143a5565b14611cfd5760405162461bcd60e51b815260206004820152602960248201527f5374616b696e67206f6e6c7920616c6c6f77656420666f72206163746976652060448201526870726f706f73616c7360b81b6064820152608401610a74565b611d068461352e565b6000848152601160205260408120549003611d2d5760008481526011602052604090204290555b8260ff16600103611dbc57600084815260126020908152604080832033845290915281208054849290611d6a9084906001600160801b0316614521565b92506101000a8154816001600160801b0302191690836001600160801b0316021790555081601360008681526020019081526020016000206000828254611db19190614471565b90915550611e459050565b600084815260126020908152604080832033845290915290208054839190601090611df8908490600160801b90046001600160801b0316614521565b92506101000a8154816001600160801b0302191690836001600160801b0316021790555081601460008681526020019081526020016000206000828254611e3f9190614471565b90915550505b6040516323b872dd60e01b8152336004820152306024820152604481018390527f00000000000000000000000000000000000000000000000000000000000000006001600160a01b0316906323b872dd906064016020604051808303816000875af1158015611eb8573d6000803e3d6000fd5b505050506040513d601f19601f82011682018060405250810190611edc9190614439565b506040805185815260ff8516602082015290810183905233907fffdf8f2eae7f0d227669096500eec70780fb16cae4c11b9d49e542b483e5f48c9060600160405180910390a250611adc6001600555565b611f35612d5d565b6117e860006138ec565b601c6020526000908152604090208054600182015460028301546003840154600485015460058601805460ff90961696949593949293919291611f8190614484565b80601f0160208091040260200160405190810160405280929190818152602001828054611fad90614484565b8015611ffa5780601f10611fcf57610100808354040283529160200191611ffa565b820191906000526020600020905b815481529060010190602001808311611fdd57829003601f168201915b5050505050905086565b61200c612aba565b60008181526010602052604081205460ff16600281111561202f5761202f6143a5565b14801561205757506000818152601160205260409020546120549062278d0090614471565b42115b15612065576120658161393e565b60008181526010602052604081205460ff169081600281111561208a5761208a6143a5565b036120d75760405162461bcd60e51b815260206004820152601960248201527f50726f706f73616c206e6f74207265736f6c76656420796574000000000000006044820152606401610a74565b60008281526012602090815260408083203384529091528120906002836002811115612105576121056143a5565b14905060008115612156575081546001600160801b03808216845560008681526014602052604081208054600160801b909404909216928392919061214b9084906144f5565b9091555061219f9050565b5081546fffffffffffffffffffffffffffffffff1981168355600085815260136020526040812080546001600160801b03909316928392906121999084906144f5565b90915550505b600081116121e55760405162461bcd60e51b81526020600482015260136024820152724e6f207374616b6520746f207265636c61696d60681b6044820152606401610a74565b60405163a9059cbb60e01b81526001600160a01b037f0000000000000000000000000000000000000000000000000000000000000000169063a9059cbb906122339033908590600401614420565b6020604051808303816000875af1158015612252573d6000803e3d6000fd5b505050506040513d601f19601f820116820180604052508101906122769190614439565b50604080518681526020810183905233917f8de0e2066c69956866611c24aed3568d88691d0eac248ee5496a6c9f164f30049101611608565b600080600080600060606000601c60008981526020019081526020016000206040518060c00160405290816000820160009054906101000a900460ff1660ff1660ff1681526020016001820154815260200160028201548152602001600382015481526020016004820154815260200160058201805461232e90614484565b80601f016020809104026020016040519081016040528092919081815260200182805461235a90614484565b80156123a75780601f1061237c576101008083540402835291602001916123a7565b820191906000526020600020905b81548152906001019060200180831161238a57829003601f168201915b5050509190925250508151602083015160408401516060850151608086015160a090960151939e929d50909b5099509297509550909350505050565b60606004805461116c90614484565b6123fa612aba565b6006546001600160a01b031633146124545760405162461bcd60e51b815260206004820152601e60248201527f4f6e6c79206f776e65722063616e2073657420726577617264207261746500006044820152606401610a74565b60085481036124ba5760405162461bcd60e51b815260206004820152602c60248201527f4e65772072617465206d75737420626520646966666572656e742066726f6d2060448201526b63757272656e74207261746560a01b6064820152608401610a74565b6124c2612af1565b60088190556006546001600160a01b03166001600160a01b03167fb3986383b0fc50bee9161915d3b51288bb862a90998c77d4f67033fc57837c00826040516113a291815260200190565b6000336111fd818585612cfe565b600060085460000361252e5750600a5490565b6000600d5460075411612542576000612552565b600d5460075461255291906144f5565b90506000600854670de0b6b3a76400008361256d9190614548565b612577919061455f565b905080600a546125879190614471565b9250505090565b601d6020526000908152604090208054600182015460028301546003840154600485015460058601805460ff90961696949593949293919291611f8190614484565b60405163b4b5ea5760e01b81523060048201526000907f00000000000000000000000000000000000000000000000000000000000000006001600160a01b03169063b4b5ea5790602401602060405180830381865afa158015612637573d6000803e3d6000fd5b505050506040513d601f19601f8201168201806040525081019061265b9190614508565b905090565b612668612d5d565b6001600160a01b03811661269257604051631e4fbdf760e01b815260006004820152602401610a74565b61115a816138ec565b6001600160a01b0381166000908152600f602090815260408083205491839052822054156112035760006126cd613e03565b6001600160a01b0385166000908152600e6020526040902054909150670de0b6b3a7640000906126fd90836144f5565b6001600160a01b0386166000908152602081905260409020546127209190614548565b61272a919061455f565b6127349083614471565b949350505050565b612744612aba565b600081116127645760405162461bcd60e51b8152600401610a74906144be565b600c5481600b546127759190614471565b11156127c35760405162461bcd60e51b815260206004820152601760248201527f44656c65676174696f6e206361702065786365656465640000000000000000006044820152606401610a74565b6127cb612af1565b6127d433612d8a565b60006127e362093a8042614471565b90506127ed612e76565b1561280f576127ff62093a8042614471565b61280c906203f480614471565b90505b33600090815260156020526040902054811115612873573360008181526015602052604090819020839055517f308c23d85188a2d929b33a8748fdc757b93d1e422046a4237967a2d17d4eca939061286a9084815260200190565b60405180910390a25b61287d3383613ebb565b81600b600082825461288f9190614471565b9091555050600954336000818152600e6020526040908190209290925590516323b872dd60e01b81526004810191909152306024820152604481018390526001600160a01b037f000000000000000000000000000000000000000000000000000000000000000016906323b872dd906064016020604051808303816000875af1158015612920573d6000803e3d6000fd5b505050506040513d601f19601f820116820180604052508101906129449190614439565b506040516317066a5760e21b81523060048201527f00000000000000000000000000000000000000000000000000000000000000006001600160a01b031690635c19a95c90602401600060405180830381600087803b1580156129a657600080fd5b505af11580156129ba573d6000803e3d6000fd5b50506040518481523392507f35db3d768e685509e031bae369804ca7dc6656af739e079f1d3312cadc7b19d8915060200160405180910390a25061115a6001600555565b60008060008060006060601e548710612a595760405162461bcd60e51b815260206004820152601860248201527f566f746520696e646578206f7574206f6620626f756e647300000000000000006044820152606401610a74565b6000878152601d60209081526040808320815160c081018352815460ff168152600182015493810193909352600281015491830191909152600381015460608301526004810154608083015260058101805460a08401919061232e90614484565b600260055403612add57604051633ee5aeb560e01b815260040160405180910390fd5b6002600555565b611adc8383836001613ef1565b6000612afc60025490565b600854600754600d54600954600a549495509293919290916000869003612b2957505042600a5550505050565b6000612b3582426144f5565b90506000612b438783614548565b9050848611612b935742600a5560408051858152600060208201527fe59e5a83a27f440a8e234a0a6e659a7f1cc16a6d0e37aa05a24f2c407521ea0e910160405180910390a15050505050505050565b6000612b9f86886144f5565b905080821115612bad578091505b600089612bc2670de0b6b3a764000085614548565b612bcc919061455f565b90506000612bda8288614471565b90506000612be8858a614471565b6009839055600d81905542600a5560408051848152602081018890529192507fe59e5a83a27f440a8e234a0a6e659a7f1cc16a6d0e37aa05a24f2c407521ea0e910160405180910390a16040805186815260208101849052428183015290517f6ae8ee960d83517f7fa993ad7a0e16e33d9655a23ff41eefc62bdb289c7a8e5f9181900360600190a1505050505050505050505050565b6001600160a01b03838116600090815260016020908152604080832093861683529290522054600019811015612cf85781811015612ce957604051637dc7a0d960e11b81526001600160a01b03841660048201526024810182905260448101839052606401610a74565b612cf884848484036000613ef1565b50505050565b6001600160a01b038316612d2857604051634b637e8f60e11b815260006004820152602401610a74565b6001600160a01b038216612d525760405163ec442f0560e01b815260006004820152602401610a74565b611adc838383613fc6565b6006546001600160a01b031633146117e85760405163118cdaa760e01b8152336004820152602401610a74565b6001600160a01b03811660009081526020818152604080832054600954600e9093529220548215612cf8576000670de0b6b3a7640000612dca83856144f5565b612dd49086614548565b612dde919061455f565b90508015612e6f576001600160a01b0385166000908152600f602052604081208054839290612e0e908490614471565b90915550506001600160a01b0385166000818152600e60209081526040808320879055600f825291829020548251858152918201527f5b9aaf4cc5141c090a75f8b8a627863eba92df81f0c83c096350da9b79aedd04910160405180910390a25b5050505050565b60165460009081600a8211612e8c576000612e97565b612e97600a836144f5565b905060005a9050825b82811115612f085761c3505a612eb690846144f5565b11612f085760008181526017602052604090205460ff1680612ee6575060008181526018602052604090205460ff165b15612ef657600194505050505090565b80612f0081614581565b915050612ea0565b506000935050505090565b6001600160a01b038216612f3d57604051634b637e8f60e11b815260006004820152602401610a74565b611b0d82600083613fc6565b6006546001600160a01b03163314612fa35760405162461bcd60e51b815260206004820152601960248201527f4f6e6c79206f776e65722063616e206361737420766f746573000000000000006044820152606401610a74565b60018260ff161115612fef5760405162461bcd60e51b8152602060048201526015602482015274496e76616c696420737570706f72742076616c756560581b6044820152606401610a74565b60008381526019602052604090205460ff161561304e5760405162461bcd60e51b815260206004820152601e60248201527f416c726561647920766f746564206f6e20746869732070726f706f73616c00006044820152606401610a74565b604051631f27a4f360e11b8152600481018490526000907f00000000000000000000000000000000000000000000000000000000000000006001600160a01b031690633e4f49e690602401602060405180830381865afa1580156130b6573d6000803e3d6000fd5b505050506040513d601f19601f820116820180604052508101906130da91906143ff565b905060018160078111156130f0576130f06143a5565b148061310d5750600081600781111561310b5761310b6143a5565b145b6131595760405162461bcd60e51b815260206004820152601d60248201527f50726f706f73616c206e6f7420696e20766f74696e6720706572696f640000006044820152606401610a74565b60405163b4b5ea5760e01b81523060048201526000907f00000000000000000000000000000000000000000000000000000000000000006001600160a01b03169063b4b5ea5790602401602060405180830381865afa1580156131c0573d6000803e3d6000fd5b505050506040513d601f19601f820116820180604052508101906131e49190614508565b905060016019600087815260200190815260200160002060006101000a81548160ff02191690831515021790555083601a600087815260200190815260200160002060006101000a81548160ff021916908360ff16021790555060006040518060c001604052808660ff1681526020014381526020016000801b815260200142815260200183815260200185815250905080601c600088815260200190815260200160002060008201518160000160006101000a81548160ff021916908360ff1602179055506020820151816001015560408201518160020155606082015181600301556080820151816004015560a08201518160050190816132e791906145de565b5050601e546000908152601d60209081526040918290208451815460ff191660ff909116178155908401516001820155908301516002820155606083015160038201556080830151600482015560a0830151839250600582019061334b90826145de565b5050601e80549150600061335e8361469e565b919050555081601f60030160008282546133789190614471565b9091555050601e5460225461338d919061455f565b602355604051630acf027160e31b81526004810187905260ff861660248201527f00000000000000000000000000000000000000000000000000000000000000006001600160a01b031690635678138890604401600060405180830381600087803b1580156133fb57600080fd5b505af115801561340f573d6000803e3d6000fd5b5050505060014361342091906144f5565b6000878152601c6020526040812091406002909201829055601e54601d919061344b906001906144f5565b815260200190815260200160002060020181905550857f7e93fc3c3724f0d8fd590530618bf27708290ad2461c84e4944894ab0131a8ae8643601c60008b8152602001908152602001600020600201546040516134c09392919060ff9390931683526020830191909152604082015260600190565b60405180910390a283511561352657857fe1e5d0e9cd2d2ae081aedf8a8de8b57b91b1ed3bcc7962c21f13b93670f936478643601c60008b815260200190815260200160002060020154868960405161351d9594939291906146b7565b60405180910390a25b505050505050565b60165481111561356957601681905560405181907f738245544e121def2724a4bc087112610a7a03c8518881b71cbd922d850eaf0990600090a25b604051631f27a4f360e11b8152600481018290527f00000000000000000000000000000000000000000000000000000000000000006001600160a01b031690633e4f49e690602401602060405180830381865afa9250505080156135ea575060408051601f3d908101601f191682019092526135e7918101906143ff565b60015b61365b5760008181526017602052604090205460ff161561364357600081815260176020526040808220805460ff191690555182917faae1ed8b74416b955e14c0b0b71467355257ba6d0a08c9b6f39d8479f6f3d35491a25b6000908152601860205260409020805460ff19169055565b60006001826007811115613671576136716143a5565b148061368e5750600082600781111561368c5761368c6143a5565b145b90508080156136ac575060008381526017602052604090205460ff16155b1561373157600083815260176020526040808220805460ff191660011790555184917f371f68adf986bef1a3b7917c0747454c6a25610192c30a1009ccc33dc90f342391a2827f6147c657c509b611c5b884671c7cb0da0e1eed364b561e0e9d48789b79421525600084604051613724929190614704565b60405180910390a26137cb565b8015801561374d575060008381526017602052604090205460ff165b156137cb57600083815260176020526040808220805460ff191690555184917faae1ed8b74416b955e14c0b0b71467355257ba6d0a08c9b6f39d8479f6f3d35491a2827f6147c657c509b611c5b884671c7cb0da0e1eed364b561e0e9d48789b794215256001846040516137c2929190614704565b60405180910390a25b604051632d63f69360e01b8152600481018490527f00000000000000000000000000000000000000000000000000000000000000006001600160a01b031690632d63f69390602401602060405180830381865afa92505050801561384c575060408051601f3d908101601f1916820190925261384991810190614508565b60015b61386b576000838152601860205260409020805460ff191690556138c2565b4380821180156138855750601b5461388382846144f5565b105b156138a8576000858152601860205260409020805460ff191660011790556138bf565b6000858152601860205260409020805460ff191690555b50505b6000838152601160205260408120549003611adc5750506000908152601160205260409020429055565b600680546001600160a01b038381166001600160a01b0319831681179093556040519116919082907f8be0079c531659141344cd1fd0a4f28419497f9722a3daafe3b4186f6b6457e090600090a35050565b604051631f27a4f360e11b8152600481018290526000907f00000000000000000000000000000000000000000000000000000000000000006001600160a01b031690633e4f49e690602401602060405180830381865afa1580156139a6573d6000803e3d6000fd5b505050506040513d601f19601f820116820180604052508101906139ca91906143ff565b905060018160078111156139e0576139e06143a5565b14806139fd575060008160078111156139fb576139fb6143a5565b145b15613b4f576000828152601060209081526040808320805460ff19166001179055601990915290205460ff168015613a4457506000828152601a602052604090205460ff16155b15613b155760008281526014602052604090205415613b15577f00000000000000000000000000000000000000000000000000000000000000006001600160a01b031663a9059cbb613a9e6006546001600160a01b031690565b600085815260146020526040908190205490516001600160e01b031960e085901b168152613ad0929190600401614420565b6020604051808303816000875af1158015613aef573d6000803e3d6000fd5b505050506040513d601f19601f82011682018060405250810190613b139190614439565b505b6040516000815282907fb8bd1c2bf2afdfdad72adf1c6a383ef5b20d65e6041c69adb823396d343f76d69060200160405180910390a25050565b60006004826007811115613b6557613b656143a5565b1480613b8257506007826007811115613b8057613b806143a5565b145b613b8d576000613b90565b60015b90508060ff16600114613ba4576001613ba7565b60025b6000848152601060205260409020805460ff19166001836002811115613bcf57613bcf6143a5565b021790555060008381526019602052604090205460ff168015613c0557506000838152601a602052604090205460ff8281169116145b15613dc6578060ff166001148015613c2a575060008381526013602052604090205415155b15613ceb577f00000000000000000000000000000000000000000000000000000000000000006001600160a01b031663a9059cbb613c706006546001600160a01b031690565b600086815260136020526040908190205490516001600160e01b031960e085901b168152613ca2929190600401614420565b6020604051808303816000875af1158015613cc1573d6000803e3d6000fd5b505050506040513d601f19601f82011682018060405250810190613ce59190614439565b50613dc6565b60ff8116158015613d09575060008381526014602052604090205415155b15613dc6577f00000000000000000000000000000000000000000000000000000000000000006001600160a01b031663a9059cbb613d4f6006546001600160a01b031690565b600086815260146020526040908190205490516001600160e01b031960e085901b168152613d81929190600401614420565b6020604051808303816000875af1158015613da0573d6000803e3d6000fd5b505050506040513d601f19601f82011682018060405250810190613dc49190614439565b505b60405160ff8216815283907fb8bd1c2bf2afdfdad72adf1c6a383ef5b20d65e6041c69adb823396d343f76d69060200160405180910390a2505050565b600754600d54600954600854600093929190828411613e2457509392505050565b6000600a5442613e3491906144f5565b90506000613e428383614548565b90506000613e4f60025490565b90506000613e5d87896144f5565b90506000818411613e6e5783613e70565b815b90508215613ead5782613e8b670de0b6b3a764000083614548565b613e95919061455f565b613e9f9088614471565b995050505050505050505090565b509498975050505050505050565b6001600160a01b038216613ee55760405163ec442f0560e01b815260006004820152602401610a74565b611b0d60008383613fc6565b6001600160a01b038416613f1b5760405163e602df0560e01b815260006004820152602401610a74565b6001600160a01b038316613f4557604051634a1406b160e11b815260006004820152602401610a74565b6001600160a01b0380851660009081526001602090815260408083209387168352929052208290558015612cf857826001600160a01b0316846001600160a01b03167f8c5be1e5ebec7d5bd14f71427d1e84f3dd0314c0f7b2291e5b200ac8c7c3b92584604051613fb891815260200190565b60405180910390a350505050565b6001600160a01b038316613ff1578060026000828254613fe69190614471565b909155506140639050565b6001600160a01b038316600090815260208190526040902054818110156140445760405163391434e360e21b81526001600160a01b03851660048201526024810182905260448101839052606401610a74565b6001600160a01b03841660009081526020819052604090209082900390555b6001600160a01b03821661407f5760028054829003905561409e565b6001600160a01b03821660009081526020819052604090208054820190555b816001600160a01b0316836001600160a01b03167fddf252ad1be2c89b69c2b068fc378daa952ba7f163c4a11628f55a4df523b3ef836040516140e391815260200190565b60405180910390a3505050565b60006020828403121561410257600080fd5b5035919050565b6000815180845260005b8181101561412f57602081850181015186830182015201614113565b506000602082860101526020601f19601f83011685010191505092915050565b6020815260006113d36020830184614109565b80356001600160a01b038116811461417957600080fd5b919050565b6000806040838503121561419157600080fd5b61419a83614162565b946020939093013593505050565b6000806000606084860312156141bd57600080fd5b6141c684614162565b92506141d460208501614162565b9150604084013590509250925092565b803560ff8116811461417957600080fd5b634e487b7160e01b600052604160045260246000fd5b60008060006060848603121561422057600080fd5b83359250614230602085016141e4565b9150604084013567ffffffffffffffff8082111561424d57600080fd5b818601915086601f83011261426157600080fd5b813581811115614273576142736141f5565b604051601f8201601f19908116603f0116810190838211818310171561429b5761429b6141f5565b816040528281528960208487010111156142b457600080fd5b8260208601602083013760006020848301015280955050505050509250925092565b600080604083850312156142e957600080fd5b823591506142f960208401614162565b90509250929050565b6000806040838503121561431557600080fd5b823591506142f9602084016141e4565b60008060006060848603121561433a57600080fd5b833592506141d4602085016141e4565b60006020828403121561435c57600080fd5b6113d382614162565b60ff8716815285602082015284604082015283606082015282608082015260c060a0820152600061439960c0830184614109565b98975050505050505050565b634e487b7160e01b600052602160045260246000fd5b60208101600383106143cf576143cf6143a5565b91905290565b600080604083850312156143e857600080fd5b6143f183614162565b91506142f960208401614162565b60006020828403121561441157600080fd5b8151600881106113d357600080fd5b6001600160a01b03929092168252602082015260400190565b60006020828403121561444b57600080fd5b815180151581146113d357600080fd5b634e487b7160e01b600052601160045260246000fd5b808201808211156112035761120361445b565b600181811c9082168061449857607f821691505b6020821081036144b857634e487b7160e01b600052602260045260246000fd5b50919050565b6020808252601d908201527f416d6f756e74206d7573742062652067726561746572207468616e2030000000604082015260600190565b818103818111156112035761120361445b565b60006020828403121561451a57600080fd5b5051919050565b6001600160801b038181168382160190808211156145415761454161445b565b5092915050565b80820281158282048414176112035761120361445b565b60008261457c57634e487b7160e01b600052601260045260246000fd5b500490565b6000816145905761459061445b565b506000190190565b601f821115611adc57600081815260208120601f850160051c810160208610156145bf5750805b601f850160051c820191505b81811015613526578281556001016145cb565b815167ffffffffffffffff8111156145f8576145f86141f5565b61460c816146068454614484565b84614598565b602080601f83116001811461464157600084156146295750858301515b600019600386901b1c1916600185901b178555613526565b600085815260208120601f198616915b8281101561467057888601518255948401946001909101908401614651565b508582101561468e5787850151600019600388901b60f8161c191681555b5050505050600190811b01905550565b6000600182016146b0576146b061445b565b5060010190565b60ff8616815284602082015283604082015282606082015260a0608082015260006146e560a0830184614109565b979650505050505050565b60088110614700576147006143a5565b9052565b6040810161471282856146f0565b6113d360208301846146f056fea2646970667358221220717de8b43b21359765d791dbbd428c6caebbba794897b94d5be0d394516bf55b64736f6c63430008150033a26469706673582212206414c21393c95872e1e88056073a3ef82cf18d274b4e2cd995d2c777ea2e3e5b64736f6c63430008150033",
  "linkReferences": {},
  "deployedLinkReferences": {}
}